:020000040800F2
:1000000000000220A1DA0008150700081707000801
:10001000190700081B0700081D0700080000000062
:100020000000000000000000000000001F070008A2
:10003000210700080000000023070008250700082A
:10004000F1DA0008F1DA0008F1DA0008F1DA000864
:10005000F1DA0008F1DA0008F1DA0008F1DA000854
:10006000F1DA0008F1DA00082D070008F1DA0008DB
:10007000F1DA0008F1DA0008F1DA0008F1DA000834
:1000800039070008F1DA0008F1DA00080000000082
:10009000000000000000000000000000F1DA00088D
:1000A000F1DA0008F1DA0008F1DA0008F1DA000804
:1000B000F1DA0008F1DA0008F1DA0008F1DA0008F4
:1000C000F1DA0008F1DA0008F1DA0008F1DA0008E4
:1000D000F1DA0008F1DA0008F1DA000800000000A7
:1000E00049070008F1DA0008F1DA00080000000012
:1000F000000000000000000000000000F1DA00082D
:1001000000000000F1DA0008F1DA0008F1DA000876
:1001100000000000000000000000000000000000DF
:10012000F1DA0008F1DA0008F1DA0008F1DA000883
:10013000F1DA0008000000000000000000000000EC
:10014000000000000000000000000000F1DA0008DC
:10015000F1DA0008F1DA0008F1DA0008F1DA000853
:10016000F1DA0008F1DA00080000000000000000E9
:10017000000000000000000000000000000000007F
:1001800000000000F1DA000800000000000000009C
:08019000F1DA0008F1DA0008C1
:1001A00001F0FF01102A2BDB10F0070F08D010F828
:1001B000013B013A8B422DD010F0070F42B3F6D12C
:1001C000F0B441EA012141EA014122F007047FF045
:1001D00000070023F0E80256083C85EA010586EA9C
:1001E000010685FA47F5A3FA87F586FA47F6A5FAD8
:1001F00087F68EB9EED1F0BC01F0FF0102F00702E4
:1002000032B110F8013B013A83EA010313B1F8D18E
:100210000020704701387047002D06BF354603386F
:10022000073815F0010F07D1013015F4807F02BFA8
:10023000013015F4C03F0130F0BC0138704700BFF9
:100240007BB972B90029BEBF00204FF0004106E023
:1002500008BF00281CBF6FF000414FF0FF3000F0D6
:1002600057B8ADF1080C6DE904CE002909DB002B6D
:100270001ADB0EF0FBFBDDF804E0DDE9022304B03D
:100280007047404261EB4101002B1BDB0EF0EEFB9F
:10029000DDF804E0DDE9022304B0404261EB4101F6
:1002A000524263EB43037047524263EB43030EF049
:1002B000DDFBDDF804E0DDE9022304B0404261EB40
:1002C00041017047524263EB43030EF0CFFBDDF870
:1002D00004E0DDE9022304B0524263EB43037047BC
:1002E00053B94AB9002908BF00281CBF4FF0FF319D
:1002F0004FF0FF3000F00CB8ADF1080C6DE904CE02
:100300000EF0B4FBDDF804E0DDE9022304B0704731
:10031000704700BF10B5054C237833B9044B13B1B7
:100320000448AFF300800123237010BDD8000020E3
:100330000000000028ED000808B5034B1BB103497D
:100340000348AFF3008008BD00000000DC0000207F
:1003500028ED000870B586B0022501951E23029392
:100360000026039601240494059401A9304600F068
:1003700007FD01A9204600F003FD01A9284600F071
:10038000FFFC2146304600F02BFD2146204600F0C0
:1003900027FD2146284600F023FD06B070BD000071
:1003A00008B50649002000F003FD0549012000F0D2
:1003B000FFFC0449022000F0FBFC08BD8401002082
:1003C0003C010020F400002038B52C4C4FF0FF33E6
:1003D00003222B4920460DF0B5FA2A4D4FF0FF338A
:1003E0000422294620460DF0ADFA4FF0FF330422D7
:1003F00005F1200120460DF0A5FA4FF0FF3304224D
:1004000005F1300120460DF09DFA1F4D4FF0FF33EE
:100410000422294620460DF095FA4FF0FF330422BE
:1004200005F1200120460DF08DFA4FF0FF33042234
:1004300005F1300120460DF085FA144D4FF0FF33E1
:100440000422294620460DF07DFA4FF0FF330422A6
:1004500005F1200120460DF075FA4FF0FF3304221C
:1004600005F1300120460DF06DFA4FF0FF33032205
:10047000074920460DF066FA38BD00BFA45201209E
:10048000040000208C01002044010020FC0000201A
:100490000000002000B583B000210191094B1A6BC8
:1004A00042F400121A631B6B03F400130193019BC7
:1004B0000A4610200BF0D6FC10200BF0E3FC03B032
:1004C0005DF804FB00380240F0B58BB000240594C1
:1004D00006940794089409940094474B1A6B42F0D1
:1004E00004021A631A6B02F004020092009A01944B
:1004F0001A6B42F080021A631A6B02F080020192BA
:10050000019A02941A6B42F001021A631A6B02F00C
:1005100001020292029A03941A6B42F002021A63D9
:100520001A6B02F002020392039A04941A6B42F0CF
:1005300008021A631B6B03F008030493049B2F4EFD
:100540002246202130460BF0E6FF4FF4005305937E
:100550004FF4881306930794294F05A938460BF0EA
:1005600067FE41F6FF73059303250695079405A9D9
:1005700038460BF05DFE49F6C37305930695079464
:1005800005A930460BF054FE102305934FF40413D5
:1005900006930127079705A930460BF049FE202353
:1005A000059306970794089405A930460BF040FE82
:1005B0004FF2F74305930695079405A911480BF0F0
:1005C00037FE042305930695079405A90E480BF002
:1005D0002FFE224621460A200BF044FC0A200BF095
:1005E00051FC2246214628200BF03CFC28200BF031
:1005F00049FC0BB0F0BD00BF0038024000000240D3
:100600000008024000040240000C024072B6FEE7FF
:1006100000B595B03022002108A80DF075FC00232C
:100620000393049305930693079301931E4A116C59
:1006300041F080511164126C02F080520192019AD3
:1006400002931A4A116841F440411160126802F4A1
:1006500040420292029A0222089201210B9110213B
:100660000C910E920F930823109360231193129212
:100670000423139308A80CF0FBFC88B90F23039301
:1006800002230493002305934FF4805206920793AC
:10069000032103A80CF056FF20B915B05DF804FB48
:1006A000FFF7B4FFFFF7B2FF0038024000700040D0
:1006B00008B50BF043FBFFF7ABFFFFF705FFFFF7B4
:1006C000E9FE0DF0E9F9FFF745FEFFF769FEFFF7D8
:1006D0007BFEFAE700B583B0002100910C4B5A6C09
:1006E00042F480425A645A6C02F480420092009AAA
:1006F00001911A6C42F080521A641B6C03F0805313
:100700000193019B05200BF09BFB03B05DF804FBFC
:1007100000380240FEE7FEE7FEE7FEE7FEE770472F
:100720007047704708B50BF023FB08BD08B51020D3
:100730000BF0F8FE08BD000008B502480BF08AFC7B
:1007400008BD00BF4052012008B54FF400500BF027
:10075000E9FE08BD2DE9F04389B0002501951B4C49
:10076000236B43F002032363236B03F00203019323
:10077000019B4FF4807303934FF01209CDF8109052
:1007800005954FF00308CDF8188004270797104E01
:1007900003A930460BF04CFD4FF400730393CDF8E2
:1007A00010900595CDF81880079703A930460BF0F7
:1007B0003FFD0295236C43F400132364236C03F480
:1007C00000130293029B09B0BDE8F0830038024099
:1007D0000004024010B5084A136C23F4001313649C
:1007E000064C4FF4807120460BF006FE4FF400716A
:1007F00020460BF001FE10BD00380240000402400C
:100800000B4B1B687BB1013B094A13600BB1002005
:10081000704710B5074C2046FFF7DCFF20460CF070
:10082000CEF910B910BD002070476FF00700F9E74E
:10083000CC010020D001002000B583B013464FF456
:10084000805200920A46014609480CF0D1F918B9C5
:10085000002003B05DF804FB05480CF006FC0428FA
:1008600002D06FF06500F4E76FF00300F1E700BF1E
:10087000D001002000B583B013464FF4805200929F
:100880000A46014609480CF06FFA18B9002003B077
:100890005DF804FB05480CF0E8FB042802D06FF07B
:1008A0006500F4E76FF00300F1E700BFD00100201E
:1008B00008B50BF069FA08BD08B5094A0260094A93
:1008C000426000228260C2604FF480410161426157
:1008D0008261C26102620CF093F800B1012008BD90
:1008E00000540040801A06000E4B0F4A1A600F4A4F
:1008F0001368591C11600BB10020704710B50948EE
:100900000CF0B0FB08B1002010BD064C2046FFF7EC
:1009100021FF2046FFF7D0FF08B90020F4E76FF071
:100920000700F1E7D001002000540040CC01002076
:1009300070B50C461646002506E0AFF30080214650
:1009400001F8010B01350C46B542F6DB304670BDAF
:1009500070B50C461646002504E014F8010B0BF0A8
:10096000AFF90135B542F8DB304670BD4FF0FF30CE
:1009700070474FF400534B600020704701207047D0
:100980000020704710B503460C4A0D490D48006819
:1009900040B10C4800680344521A934206D8094AF1
:1009A000136010BD0748084C0460F2E70DF00EFB21
:1009B0000C2303604FF0FF30F3E700BF000002207C
:1009C000000400002402002048540120034AD2F809
:1009D000883043F47003C2F88830704700ED00E0BF
:1009E000354B1B78012B62D02DE9F04387B00026F0
:1009F0000096324B1A6B42F002021A631B6B03F033
:100A000002030093009B4FF48078CDF804804FF0F0
:100A10001109CDF8089001250395294C01A920461C
:100A20000BF006FC4FF400770197CDF80890039582
:100A300001A920460BF0FCFB2A46414620460BF05C
:100A40006AFD2A46394620460BF065FD20E01C4D24
:100A500000224FF4807128460BF05DFD01200BF061
:100A600099F901224FF4807128460BF054FD0120C2
:100A70000BF090F90134E4B2092CE8D90136F6B252
:100A80004FF400710E480BF03FFD18B9062E01D847
:100A90000024F1E74FF4007109480BF035FD40B137
:100AA000054B01221A70002007B0BDE8F08300203A
:100AB00070476FF00400F7E728020020003802407A
:100AC0000004024070B584B016461D468DF80F1024
:100AD00084B26421009101230DF10F0221460848E0
:100AE0000CF086F808B104B070BD642305FB03F375
:100AF0000093ABB23246214601480CF035F9F2E7DB
:100B0000D001002030B587B00546084611461C4686
:100B10008DF808001A460DF109000DF084FA631CE7
:100B2000642200929BB202AAA9B202480CF060F8BB
:100B300007B030BDD001002008B50223064A1221BB
:100B40008620FFF7DFFF00B108BD0223034A122110
:100B50008420FFF7D7FFF7E72C0200202E020020A9
:100B60002B4A1368591C11600BB10020704710B557
:100B700082B0FFF735FF0446FFF7B6FE204301D0F1
:100B800002B010BD022301AA00218620FFF79AFFC0
:100B90000028F5D19DF80430002BF1D19DF80530E7
:100BA000162BEDD1022301AA00218420FFF78AFF32
:100BB0000028E5D19DF80430002BE1D19DF80530E7
:100BC000162BDDD1134B00221A60FF238DF8043061
:100BD0008DF80530022301AA14218620FFF792FF29
:100BE0000028CDD1FF238DF80430BF238DF80530C8
:100BF000022301AA14218420FFF784FF0028BFD11B
:100C0000044B6FF0C0221A60FFF796FFB8E700BFF1
:100C1000300200202C02002008B5012805D002284F
:100C200023D090B14FF0FF3008BD184AD37803F0BD
:100C30007F03D37011B163F07F03D3700123144A93
:100C400013218420FFF75EFFEEE7104A537803F08C
:100C5000BF03537011B143F04003537001230D4A99
:100C600013218620FFF74EFFDEE7084A537803F092
:100C70007F03537011B163F07F0353700123054A62
:100C800013218620FFF73EFFCEE700BF2C02002095
:100C90002F0200202D02002030B589B005465223D6
:100CA000ADF81030204B0293204B0393204B05935B
:100CB000204B0693204B079346F678731F4C03FB9B
:100CC000004402A920460AF056FF08BB01A92046AD
:100CD0000AF059FDF8B9019A4EF6CC239A421DD17B
:100CE000174B184A1360184A42F825401B682046E3
:100CF0009847B0B9134B1B68DB681449124A52F885
:100D00002500984708B909B030BD6FF00400FAE734
:100D10006FF00400F7E76FF00400F4E76FF00600EF
:100D2000F1E76FF00400EEE7E908000801080008A9
:100D30003908000875080008B108000838020020CA
:100D400038000020B0500120B4500120A0500120F4
:100D500002280ED808B5084B1B689B68074A52F852
:100D600020009847002801DB002008BD6FF0040038
:100D7000FBE76FF001007047B0500120B450012034
:100D800002280ED808B5084B1B681B69074A52F8A1
:100D900020009847002801DB002008BD6FF0040008
:100DA000FBE76FF001007047B0500120B450012004
:100DB00002280ED808B5084B1B68DB69074A52F8B1
:100DC00020009847002801DB002008BD6FF00400D8
:100DD000FBE76FF001007047B0500120B4500120D4
:100DE00002280ED808B5084B1B681B6A074A52F840
:100DF00020009847002801DB002008BD6FF00400A8
:100E0000FBE76FF001007047B0500120B4500120A3
:100E100002280ED808B5084B1B689B6A074A52F88F
:100E200020009847002801DB002008BD6FF0040077
:100E3000FBE76FF001007047B0500120B450012073
:100E4000022819D808B561B101291BD10021C0B20F
:100E5000FFF7E2FE002818DB02200AF09BFF0020CB
:100E600008BD0121C0B2FFF7D7FE002807DB022032
:100E70000AF090FF0020F3E76FF0010070476FF079
:100E80000300EDE76FF00100EAE76FF00300E7E72A
:100E9000022810D810B50446FFF762FE70B9012190
:100EA0002046FFF7CDFF00212046FFF7C9FF20466F
:100EB000FFF7F2FE10BD6FF0010070476FF0030006
:100EC000F8E782B001909DF804300F2B0DD89DF803
:100ED00005200F2A17D89DF806200F2A16D89DF84E
:100EE00007200F2A15D8002001E06FF003009DF8BD
:100EF0000620934210D89DF805209DF807309A42AD
:100F00000DD302B070476FF00300F0E76FF00300FD
:100F1000EDE76FF00300EAE76FF00300F1E76FF031
:100F20000300EEE786B0334B1B68ADF814301B0CA2
:100F30008DF81630304B1B68ADF810301B0C8DF857
:100F400012302E4B1B68ADF80C301B0C8DF80E3098
:100F50002B4B1B68ADF808301B0C8DF80A30294B61
:100F60001B68ADF804301B0C8DF80630012313709C
:100F700099420BD002290BD10138082836D8DFE876
:100F800000F011181F0935352D2631000023F3E735
:100F90000223F1E718336B4413F8043C137000206C
:100FA00006B0704718336B4413F8083C13700020E8
:100FB000F6E718336B4413F80C3C13700020EFE78E
:100FC00018336B4413F8103C13700020E8E7183313
:100FD0006B4413F8143C13700020E1E711231370E5
:100FE0000020DDE7272313700020D9E76FF007000A
:100FF000D6E700BF58ED00085CED000860ED000882
:1010000064ED000868ED0008012907D0022912D01C
:10101000B0F5167F1CDA01231370704740F2DC53E1
:10102000984202DD032313707047B0F52F7F14DD63
:1010300002231370704740F2DC53984202DD032311
:1010400013707047B0F5167F07DA012313707047ED
:10105000B0F5AF6F01DA02231370704710B5844604
:101060008E461046CC7D15490A690C2C0CD80A2CEA
:101070000CD2A11FC9B2012908D9DCF8C8148A42D0
:1010800005DC78B1012203E0FF2CF6D110BD00226F
:101090000CF5C04C9CF8561F19702CB152B90322A4
:1010A0001A70F3E70022F3E71A46BEF91400FFF7BF
:1010B000ABFFEBE71A46FFF7A7FFE7E70C000020BE
:1010C000A0B3B2F94830B2F944001B1A952B28DCC2
:1010D000072928D0B2F94630B3F5967F07DB41F6F1
:1010E0009A1101FB03F323B94FF4C8000EE04FF44B
:1010F000F013918F5A080E4800FB0122B2FBF3F364
:1011000019040C4AB2EB034F08D3501AC0F307403E
:1011100032280AD9642828BF642070474FF4481049
:10112000F4E732207047322070473220704700BF0A
:10113000CDCC300033B37500031F0F2B17D8DFE879
:1011400003F00C0A0E19121416161016161616169F
:1011500008180A20704704207047022070470120B9
:101160007047092070470320704700207047FF2018
:10117000704706207047431F122B17D8DFE803F093
:101180000A181916141616161616161616160C1018
:1011900016120E0004207047062070470C2070477E
:1011A000072070470B20704700207047FF207047D2
:1011B00001207047F0B589B004460D4611461E4621
:1011C0000020ADF81C00069005900490032D19D066
:1011D000082D15D020270DF11F022846FFF7A2FE8B
:1011E000024688B122B9E77604F5C04383F8545F1C
:1011F00004F5C044012384F8553F104609B0F0BD02
:101200004027E8E74027E6E704AB019305AB0093EE
:1012100006AB07AA9DF81F10204601F08AFB024684
:101220000028E5D10296049B0193059B0093069B41
:10123000BDF81C209DF81F10204601F05AFC024604
:10124000D0E708B521B1012908D06FF0030008BD2F
:10125000C2F38F3102F004F80020F8E7C2F34F2107
:1012600002F007F80020F2E738B505464C082246A0
:1012700001210AF02FF985F8384338BD08B54FF43D
:10128000FA7109F0E7FE08BDF0B59FB004460D46BF
:1012900000231D931C931B9300F5C04393F8546FD8
:1012A000092E0BD04B1EDBB2022B2FD869462046ED
:1012B00001F035FBE76A30B11FB0F0BD0129F5D070
:1012C0006FF00300F8E71DAB1CAA1BA9204601F034
:1012D000BBF90028F0D13B462A4631462046FFF7AD
:1012E00069FF0028E8D104F5C04383F8565F1D9BD1
:1012F0001C9A1B99204601F08BF90028DCD11D9B1C
:10130000A3626946204601F0D9FAD5E76FF00300E1
:10131000D2E7000008B58B01034AA2FB032301EBCF
:10132000931101F057F908BDD34D621010B582B08A
:101330000C4601A901F05DF9019B9A010449A1FB4A
:101340000212A3EB92130193236002B010BD00BF01
:10135000D34D6210012919D870B505460C461646C2
:1013600032B101F5DE53163300EB83039A6800E0D7
:10137000002221462846FFF764FF30B9003E18BF1F
:101380000126254446F65C73EE5470BD6FF00300F1
:10139000704770B50646012101F064FE054670B144
:1013A0000024012C1AD8CDB9012221463046FFF77E
:1013B000D1FF45EA00035DB20134E4B2F1E706F182
:1013C000180041F67851421800234350536093604F
:1013D00006F5C043012283F8502FE1E70DB12846FE
:1013E00070BD0221304602F0D2F90546F7E7012927
:1013F00006D8084446F65C73C35C1370002070473F
:10140000002313706FF00300704770B582B004467C
:1014100015460E4629B1012919D06FF0030002B01C
:1014200070BD01A901F017FFBDF804309B0300282F
:10143000F5D1A3B906F5DE53163304EB83039B689D
:101440002B60264446F65C730022F254E7E70DF168
:10145000060101F009FFBDF806305B02E7E72B60EB
:1014600006F5DE52163204EB82029360344446F6EF
:101470005C730122E254D2E72DE9F04F89B00546B2
:10148000894601921F46129E139C90F851A090F835
:101490002F844FEA98080023059396F84AB00BF082
:1014A0001F0B324659464846FFF70AFE2070338E1E
:1014B0005B02A360B38E5B02E360B38F5B022361C8
:1014C000B6F94630A382B6F948306380B6F94430A5
:1014D000A3804FF00003A3750D2F2BD004D9112F3B
:1014E00006D00023E37505E0013FFFB2022FF8D8D4
:1014F0000523E375E37D63B9B9F1000F09D1FF233B
:10150000E3750023A360236141F6FF73A382638028
:10151000A380E37DABB905F5C04393F8542F531E68
:10152000DBB2012B09D9092A07D05846FFF704FE80
:10153000E07506E00D23E375DCE75846FFF71BFE78
:10154000E075B38F5B0205F5C042C2F8683F338E89
:101550005B02C2F86C3F06AA00212846FFF755FF40
:101560000DF11F0200212846FFF741FF9DF81F30B3
:10157000012B00F08C80002205F5C04383F85E2F1C
:1015800006AA01212846FFF740FF0DF11F020121A5
:101590002846FFF72CFF9DF81F30012B7ED000223C
:1015A00005F5C04383F85F2FB4F91420E37D0BB930
:1015B000002A7ADB04AA48F2BE01284602F024F988
:1015C000049B019A32B1E27D22B9A2689A4201D20B
:1015D0000C23E37505AA48F29101284602F014F99C
:1015E00095F82F349B08C3F10103DEB2B4F91470EF
:1015F00000232376E368B3F5003F01D90023059368
:10160000B9F1010F5BD000230593434652460DF11B
:101610000F01284606F0DEFB9DF80F30012B56D94E
:10162000C8F10103DBB252460DF10F01284606F066
:10163000D1FB9DF80F30012B4CD9B4F90230B4F92D
:1016400004209B1AB3F5FA7F05DDE37D1BB1FF2370
:10165000E37500230593059B23B1E37D072B3CD065
:10166000042B3AD00AF54B5305EB43039F83E27DED
:10167000554446F2BC53EA54227E46F2CC53EA5417
:1016800046F2DC5305F8039009B0BDE8F08FBBF1DA
:10169000060F01D000226FE701226DE7BBF1040FB6
:1016A00001D000227CE701227AE7A64B5B689A42D0
:1016B00002DA0E23E3757DE70023A3827AE705EBC8
:1016C0000A0346F2DC529B5C012B9CD19DE7002370
:1016D0000593A5E700230593AFE705EB0A0346F260
:1016E000BC51595C8B1FDBB2012B0AD9042908D0ED
:1016F0000029B7D105EB0A0346F2CC515B5C012B04
:10170000B0D105F5C04393F8EC1595F89F3403F17B
:10171000FF3C614502D07F339942A3D1B4F814C095
:101720000AF54B5305EB43039B8BACEB03031BB256
:10173000697E1839062995D80FF2040E5EF821F05B
:101740002D180008651600085D170008611A0008CA
:10175000651600086516000849190008B5F9061253
:10176000994207DAB5F908E29E4503DD16B9B5F9E5
:101770001A322FE049428B4206DAB5F90812494283
:101780008B4201DD012E15D0B5F90A12994205DA16
:10179000B5F90CE29E4501DD012E0ED049428B4287
:1017A0000EDAB5F90C1249428B4209DD46B9B5F99A
:1017B0001E320FE0B5F91C320CE0B5F9203209E019
:1017C000B5F91012994214DDB5F90E12994210DAEA
:1017D000B5F922329BB29C44A4F814C013FA82F2E9
:1017E000A280628813446380012323760023E3757B
:1017F00038E7B5F91212994205DAB5F914E29E45B7
:1018000001DD012E0FD049428B42BFF62BAFB5F957
:10181000141249428B427FF725AF002E7FF422AF8E
:10182000B5F92632D6E7B5F92832D3E7B5F9D6119E
:10183000994205DAB5F9D8E19E4501DD012E0BD0BC
:1018400049428B420BDAB5F9D81149428B4206DD89
:101850002EB9B5F9EE31BDE7B5F9F031BAE7B5F912
:10186000DA11994207DAB5F9DCE19E4503DD16B9D4
:10187000B5F9F231AEE749428B4206DAB5F9DC112F
:1018800049428B4201DD012E15D0B5F9DE11994296
:1018900005DAB5F9E0E19E4501DD012E0ED04942A1
:1018A0008B420EDAB5F9E01149428B4209DD46B9A7
:1018B000B5F9F6318EE7B5F9F4318BE7B5F9F831C2
:1018C00088E7B5F9E211994207DAB5F9E4E19E45F6
:1018D00003DD16B9B5F9FA317CE749428B4206DAE5
:1018E000B5F9E41149428B4201DD012E0AD0B5F968
:1018F000E811994209DDB5F9E611994205DAB5F921
:10190000FE3167E7B5F9FC3164E7B5F9EA119942B0
:1019100005DAB5F9ECE19E4501DD012E0FD0494213
:101920008B42BFF69FAEB5F9EC1149428B427FF76F
:1019300099AE002E7FF496AEB5F902324AE7B5F9BA
:10194000043247E70C000020B5F9D611994205DAB8
:10195000B5F9D8E19E4501DD012E0BD049428B42FD
:101960000BDAB5F9D81149428B4206DD2EB9B5F92B
:10197000EE312FE7B5F9F0312CE7B5F9DA119942DC
:1019800007DAB5F9DCE19E4503DD16B9B5F9F231A8
:1019900020E749428B4206DAB5F9DC1149428B4215
:1019A00001DD012E15D0B5F9DE11994205DAB5F940
:1019B000E0E19E4501DD012E0ED049428B420EDA58
:1019C000B5F9E01149428B4209DD46B9B5F9F63166
:1019D00000E7B5F9F431FDE6B5F9F831FAE6B5F905
:1019E000E211994207DAB5F9E4E19E4503DD16B943
:1019F000B5F9FA31EEE649428B4206DAB5F9E4115F
:101A000049428B4201DD012E0AD0B5F9E811994215
:101A100009DDB5F9E611994205DAB5F9FE31D9E6E5
:101A2000B5F9FC31D6E6B5F9EA11994205DAB5F90E
:101A3000ECE19E4501DD012E0FD049428B42BFF6FD
:101A400011AEB5F9EC1149428B427FF70BAE002E77
:101A50007FF408AEB5F90232BCE6B5F90432B9E656
:101A6000B5F90612994207DAB5F908E29E4503DD99
:101A700016B9B5F91A32ADE649428B4206DAB5F924
:101A8000081249428B4201DD012E15D0B5F90A1228
:101A9000994205DAB5F90CE29E4501DD012E0ED022
:101AA00049428B420EDAB5F90C1249428B4209DDEC
:101AB00046B9B5F91E328DE6B5F91C328AE6B5F99C
:101AC000203287E6B5F91012994206DDB5F90E12FB
:101AD000994202DAB5F922327CE6B5F9121299423E
:101AE00005DAB5F914E29E4501DD012E0FD0494219
:101AF0008B42BFF6B7ADB5F9141249428B427FF75E
:101B0000B1AD002E7FF4AEADB5F9263262E6B5F97F
:101B100028325FE62DE9F04F85B081460F46164624
:101B20008B7C93718B78537191F8963182F8783071
:101B3000B1F90830B1F90E209342A8BF1346A6F8B8
:101B40007C3000233360CB78337100F5C04393F8C9
:101B5000563F86F87E3091F812B0BBF1000F08D1E5
:101B60004FF0010A002303931C461846C8469946C5
:101B70000CE0DA46F6E7019200933B7C2246594698
:101B80004046FFF779FC11E00134E4B2544525D218
:101B90002546C4EBC4029200083232444C2304FBB5
:101BA00003F310333B4404330028E4D04C2303FBFD
:101BB00005735B8DA6F87A30C5EBC50306EB83038E
:101BC000DB7F002BE0D1C5EBC50506EB8505B5F93C
:101BD0001C304B45D8DD99460394D5E7C146804675
:101BE00099F89F2409F5C04383F8EC2510B9BBF19F
:101BF000000F03D1404605B0BDE8F08F039BC3EB57
:101C0000C3018900083106F17E03B7F90C20314485
:101C10004846FFF723FAEDE72DE9F0419CB007466F
:101C20000E4600F5C04393F8543F022B43D00122E7
:101C30003378934253D8002B54D08DF80420013BC5
:101C40008DF805300025A8463378AB4237D906EB2E
:101C50008503D3F801000090FFF733F9804670BB8D
:101C60009DF802309DF8002003EB020E0EF1010EEC
:101C7000CEF3470E9DF801109DF8030001EB000C18
:101C80000CF1010CCCF3470C9B1ADAB2091AC9B259
:101C9000022A12D9022919D9AB1D1CA800EB830313
:101CA00003F868EC03F867CC03F8662C03F8651CAE
:101CB0000135EDB2C8E71022BAE76FF00308B8F1BA
:101CC000000F06D040461CB0BDE8F0816FF003085D
:101CD000F5E701A9384600F0F1FD8046F2E76FF024
:101CE0000308EFE76FF00308ECE708B500F0E4FC49
:101CF00008BD000070B586B000238DF817308DF850
:101D00001630049303930293524B994200F2998048
:101D100004460D460DF117020521FFF7E6FF0646C2
:101D200010B1304606B070BD0DF1160206212046F6
:101D3000FFF7DBFF06460028F3D104AB03AA02A994
:101D4000204600F081FC06460028EAD104F5C04395
:101D500093F8543F013B082B63D8DFE803F00505F7
:101D6000352362625B4705003B4B062140F2A462CB
:101D7000AA4269D2AA1A0492002ED2D19A4266D8F7
:101D8000B2FBF1F30493039A0299204600F040FC61
:101D900006460028C5D1049BA36204F5C044C4F8DC
:101DA000585FBEE79DF81730012B40D09DF81630E4
:101DB000012B04D0284B01214FF47A72D8E7264B2F
:101DC000012141F28832D3E79DF81730012B33D03F
:101DD0009DF81630012B04D0204B022145F26042C1
:101DE000C6E71E4B022146F2E872C1E701AA48F29B
:101DF0008801204601F008FD019B002B08DDF5223B
:101E000003FB02F2F53202F6DC52144B0221AFE77B
:101E1000F522F8E7039A02F59C5208320E4B012195
:101E2000A6E70D4B012100226FF00706A0E70A4B41
:101E3000012141F288329BE7084B022146F2E87209
:101E400096E76FF003066CE76FF0030669E76FF043
:101E5000030666E78096980070640800E0C81000EA
:101E600038B505460C4605F058FF092C14D003225E
:101E70004FF47A7321462846FFF79CF958B9E31EC0
:101E8000DBB2012B01D9082C08D14AF228012846DF
:101E9000FFF730FF40B138BD0122E9E748F23521B4
:101EA0002846FFF727FFF5E74FF47A712846FFF73A
:101EB00031FAF0E770B586B006460C4600238DF87F
:101EC00017308DF816300493039302930B600DF1D5
:101ED00017020521FFF709FF054678B1002D56D1FD
:101EE00006F5C04393F8543F013B082B62D8DFE866
:101EF00003F05353271661615A3B53000DF116024C
:101F000006213046FFF7F1FE054600283FD103AB1E
:101F100004AA02A9304600F097FB0546DEE79DF8CB
:101F20001730012B07D09DF81630012B03D0039BEF
:101F300003F57A732AE0039B03F59C53083325E0ED
:101F40009DF81730012B09D09DF81630012B05D0D4
:101F5000039B03F5285330335B0017E0039B03F525
:101F60004F5334335B0011E001AA48F28801304638
:101F700001F04AFC019B002B0CDDF52202FB03F370
:101F8000134403F6DC53039A03EB42032360284611
:101F900006B070BDF523F4E7039B03EB43035B003E
:101FA00003F2A463F2E7039B049A134403F59C53E2
:101FB0000833EBE76FF00705E9E7000000000000D9
:101FC00030B583B00446C57E402D01D100232EE0FC
:101FD00002F0D5F8FAE703F54B5104EB410100227A
:101FE0008A83E11846F2BC504FF0FF0C01F800C0A4
:101FF00046F2CC500A5446F2DC500A5403F24A51DD
:1020000004EB81018A6103F5A16104EB81018A611E
:1020100003F28D2104EBC1019FED2D7B81ED067B49
:1020200003F23A5104EB81018A610133DBB20F2BD9
:10203000D1D904F5C043002283F8EC2593F8503F32
:10204000032B1AD007D9052B0DD8042B08D26FF01B
:10205000020003B030BD022B34D96FF00200F8E764
:102060006FF00D00F5E7623BDBB2012B02D86FF099
:102070000D00EEE76FF00200EBE7402D0CD00622DA
:102080002946204601F046FA0028E2D104F5C04472
:10209000042384F8503FDCE701A92046FFF70AFF3C
:1020A000019B0D4AA2FB03239B090193694620462D
:1020B000FFF73CF9019B0433009A9342DFD96FF09C
:1020C0000300C6E76FF00D00C3E700BFAFF3008069
:1020D0000000000000000000D34D621038B5044637
:1020E00001F0CBF80546E37E402B07D125B904F576
:1020F000C044032384F8503F284638BD204600F0F2
:1021000050FAF3E708B5C17E01F03CFB08BD08B505
:1021100008F080FF08BD70B504460D4600F5AC56CA
:1021200010368022FF2128460BF0EEFE32460221B7
:10213000204602F097FA88B904F5805393F8913558
:10214000072B04D0082B0AD00023EB7101E00123F8
:10215000EB712A4631462046FFF7DCFC70BD0223B6
:10216000EB71F6E770B588B0044640F20533ADF880
:10217000003000F5C04393F8546F0DF11F0100F0DB
:10218000F4F8054610F11D0F06D031462046FFF742
:1021900067FE284608B070BD01AB06222821204604
:1021A00008F0EBF8054618B3002DEED1062305AA7A
:1021B0000D21204609F050F905460028E5D19DF88B
:1021C000143084F860309DF8153084F861309DF843
:1021D000163084F862309DF8173084F863309DF82B
:1021E000183084F864309DF8193084F86530CCE7F5
:1021F00002236A461421204609F02EF905460028DC
:10220000C3D19DF8003084F867309DF8013084F820
:102210006830C9E770B5044603293BD8DFE801F010
:102220000213202D02F019FD0546204602F022FD82
:102230000646204602F02BFD0346002088BB7DBBEE
:1022400086B330462DE002F001FD0546204602F03F
:102250000AFD0646204602F01AFD03460020EDE77F
:1022600002F0F4FC0546204602F0FDFC064620463E
:1022700002F006FD03460020E0E702F0E7FC054619
:10228000204602F0F7FC0646204602F000FD034619
:102290000020D3E700231E461D466FF00300CDE764
:1022A000284670BD1846FCE770B5044600F5C046E8
:1022B000032386F8503F2023C3760121FFF7D0FD8A
:1022C000054602212046FEF7DFFF012386F8553F31
:1022D00000212046FFF79EFF284670BD30B583B031
:1022E00004460D4600238DF803300DF10302302122
:1022F00009F01AF9034650B19BB194F8C72302F0D4
:102300001F0284F8C72323B3184603B030BD9DF8DD
:10231000033084F86A332946204604F0A1FA0346C4
:10232000EAE7204608F0C6FE03460028E5D102236E
:1023300001AA8921204609F0AFF803460028DCD124
:102340009DF8042084F8C7239DF8052084F8C8234D
:10235000D3E7204604F0AEFA03460028D4D100218A
:10236000204604F07DFA0346CEE730B587B0044638
:102370000D4604F095FA034620B1FBB12B701846C8
:1023800007B030BDB4F83E330293B4F86232019323
:10239000B4F864320093B4F86032D4F85C2294F854
:1023A0005912204605F032FB03460028E6D194F886
:1023B00058122046FFF792FF0346DEE7022304AAE5
:1023C000D921204609F068F803460028D6D19DF8A7
:1023D000102004F5805383F8BF239DF8112083F863
:1023E000C023022304AA1421204609F035F803462D
:1023F0000028C3D19DF8103084F867309DF8113063
:1024000084F86830062304AAAC21204609F044F879
:1024100003460028B2D1062304AA0D21204609F064
:102420001BF803460028A9D19DF8102084F86020ED
:102430009DF8112084F861209DF8122084F8622014
:102440009DF8132084F863209DF8142084F86420FC
:102450009DF8152084F8652094F8C7230F2A06D02C
:10246000102A07D00E2A89D16FF01B0386E76FF080
:102470001C0383E76FF01D0380E7034642781E2AA2
:102480001ED0212A0CD01B2A22D000F58052B2F98E
:1024900080CDB2F9822D002008806FF0030006E0A5
:1024A00000F58052B2F978CDB2F97A2D002093F878
:1024B0002E3020B913F0010F00D062460A80704719
:1024C00000F58052B2F97CCDB2F97E2D0020EEE706
:1024D00000F58052B2F980CDB2F9822D0020E6E7F6
:1024E0002DE9F04F8B469DF82450DDF8288090F8B8
:1024F00039E00024C8F800409700B94626461CE0A1
:1025000002EB420A05EB450C4FEA0C1C0CEBCA0C23
:102510000EEBCE0A0CEB4A1CCC440CF5EC6C00EB39
:102520008C0CDCF804C0644409F1060C5BF82CC088
:10253000664409F101091FFA89F94B45E0D804B155
:1025400066BBBDE8F08F02EB420905EB450C4FEA94
:102550000C1C0CEBC90C0EEBCE090CEB491CBC445B
:102560000CF5EC6C00EB8C0CDCF804C04FF47A7AC0
:102570000AFB0CFC9CFBF4FC07F106095BF82990B4
:102580000AFB09F999FBF6F9ACEB090CD8F8001035
:102590000CFB0C1CC8F800C00137BFB2BB42D2D83C
:1025A000CFE710B504460022852108F093FF08B15B
:1025B00050B110BD204604F078F900224FF48E612E
:1025C000204608F087FFF3E701228521204608F026
:1025D00081FFEEE700F58053B3F8C43333B1C16235
:1025E00001FB03F3C0F8A433002070476FF00E0026
:1025F000704700F58053B3F8C42332B1D0F8A43348
:10260000B3FBF2F30B60002070476FF00E007047D1
:102610008446084611461A46BCF83E338BB110B5C5
:1026200082B0CCF82000CCF82410CCF828200CF58F
:10263000657401940CF27E34009404F0D0F902B079
:1026400010BD6FF00E0070472DE9F0410446B0F860
:102650003E0370B3884617461E4694F89A1304F05A
:1026600031F90546014694F8850304F07CF9C8F871
:10267000000094F8943394F8950300EB0320294666
:1026800080B204F0A4F9386094F8983394F8990370
:1026900000EB0320294680B204F099F93060D8F8A5
:1026A000003023623B6863623368A3620020BDE8A8
:1026B000F0816FF00E00FAE7072913D831B14FF01F
:1026C000010C0CFA01FC5FFA8CFC01E04FF0010CEC
:1026D00090F8BD3303EA0C03137031B10B41137052
:1026E000002070476FF0030070470020704738B536
:1026F00005460C4600F2BB320978607804F0DBFC3A
:1027000005F56F72E178A07804F0EBFC002038BD8D
:1027100070B582B005460C4600268DF807608DF82E
:1027200006600DF107020DF1060190F8220406F093
:10273000D0F89DF8073023709DF80630637095F847
:1027400023341A09E27003F00F03A370304602B07D
:1027500070BDF0B589B0044600F1B40600F54E71C5
:1027600007F0C1FE0546E0B195B3B4F83E33B3F5CA
:10277000805F03D24BF6CC43A4F83E33002D00F02B
:102780009680B4F8D8304BB994F8D4301B0184F853
:10279000D83094F8D5301B0184F8D930284609B0D8
:1027A000F0BD04F16001204607F04DFF054600280A
:1027B000DBD104F2F2373946204608F017FB054614
:1027C0000028D2D104F50E71384603F070FECBE735
:1027D000B4F86A30C4F8A032B4F96C30A4F8A4326A
:1027E000B4F96E30A4F8A63204F1D801204607F0FF
:1027F000DBFD05460028B8D104F17801204607F03A
:10280000E4FD05460028B0D13146204607F0EEFD34
:102810000546B4F8B83013B9B4F8BA3043B3002D54
:10282000A3D104AA4FF4D671204607F0F0FD054667
:1028300000289AD1BDF81030A4F8BC30BDF814308F
:10284000A4F8BE30BDF81C30A4F8C030B4F87A301B
:102850004BB3A4F8C2304FF48073A4F8C43004F52D
:102860009E520432DE21204608F07AFE05467CE7BF
:102870008023A4F8B8304FF4C073A4F8BA3004F140
:10288000B40304F1B602039202933823019304F5D2
:102890000E730093FF23C72294F8231494F82204A4
:1028A00004F0E5FCBBE71423A4F8C230D3E704F13D
:1028B000D4012046FFF72CFF054662E770B50446B9
:1028C0000D4601F11C0300F1F6025C311E68D3F8DD
:1028D00004E0D3F808C0D8681660C2F804E0C2F873
:1028E00008C0D060103310328B42EFD12B7884F8BF
:1028F000DA306B7884F8DB3004F1DA0008F00CFD94
:102900006B7813B984F87F3370BD0F2B03D8013374
:1029100084F87F33F8E7112384F87F33F4E708B5B0
:102920000B466C2200F1DA0118460BF07CFB00200C
:1029300008BD0139262900F2D980DFE811F027000F
:102940002700270027002700370037003700D7006F
:10295000D700570097005700D700D700D7002700AF
:10296000370057005700570057005700670077009F
:102970008700570057005700A700A700A700B7001F
:10298000B700B700470047004700C700B0F8741110
:102990001180D0F880211A60D0F8A031009A13601D
:1029A000D0F8B431019A136000207047B0F87A1162
:1029B0001180D0F89C211A60D0F8AC31009A1360D5
:1029C000D0F8C031019A136000207047B0F87A1136
:1029D0001180D0F89C211A60D0F8B031009A1360B1
:1029E000D0F8C431019A136000207047B0F8761116
:1029F0001180D0F884211A60D0F8A431009A1360B5
:102A0000D0F8B831019A136000207047B0F87811FF
:102A10001180D0F894211A60D0F8A831009A136080
:102A2000D0F8BC31019A136000207047B0F87811DB
:102A30001180D0F898211A60D0F8A831009A13605C
:102A4000D0F8BC31019A136000207047B0F87811BB
:102A50001180D0F890211A60D0F8A831009A136044
:102A6000D0F8BC31019A136000207047B0F876119D
:102A70001180D0F88C211A60D0F8A431009A13602C
:102A8000D0F8B831019A136000207047B0F8761181
:102A90001180D0F888211A60D0F8A431009A136010
:102AA000D0F8B831019A136000207047B0F8761161
:102AB0001180D0F88C211A60D0F8A431009A1360EC
:102AC000D0F8B831019A136000207047B0F87C113B
:102AD0001180D0F88C211A60D0F8A431009A1360CC
:102AE000D0F8B831019A1360002070476FF00300EE
:102AF00070472DE9F04F8DB004460D4609920A93B8
:102B000000F51D73089300F25E33069300F55173D0
:102B1000079300F27E3800F5657B00F56B7600F5D3
:102B2000707700F1DA0A00F5A47900F5AC530B9345
:102B30004176169B4362179B8362189BC3620321F5
:102B400003F043FC013D262D00F27982DFE815F009
:102B50002700490057006500730081008F009D0029
:102B600077027702AB003B01DB01EB01FB010B02BB
:102B70001B0229022B01BB00CB00DB00EB00FB009A
:102B80000B011B014B015B016B017B018B019B0165
:102B9000AB01BB01CB013702470257026702CDF8F8
:102BA0000CA0CDF80890019700965B464246079925
:102BB000069802F067FA054635B9099BA4F85E331A
:102BC0002386002D00F03E8294F8DB00013004F5EE
:102BD000D0413431C0B203F0D8FC28460DB0BDE876
:102BE000F08FCDF80CA0CDF80890019700965B46C9
:102BF00042460799069802F04BFB0546DCE7CDF804
:102C00000CA0CDF80890019700965B4642460799C4
:102C1000069802F05FFB0546CEE7CDF80CA0CDF894
:102C20000890019700965B4642460799069802F085
:102C300073FB0546C0E7CDF80CA0CDF808900197CE
:102C400000965B4642460799069802F079FB0546D6
:102C5000B2E7CDF80CA0CDF80890019700965B463E
:102C600042460799069802F07FFB0546A4E7CDF897
:102C70000CA0CDF80890019700965B464246079954
:102C8000069802F094FB054696E7CDF80CA0CDF827
:102C90000890019700965B4642460799069802F015
:102CA000AAFB054688E7CDF810A0CDF80C90029756
:102CB0000196CDF800B04346079A0699089802F0AD
:102CC00082FC054678E7CDF810A0CDF80C9002976D
:102CD0000196CDF800B04346079A0699089802F08D
:102CE0000AFD054668E7CDF810A0CDF80C900297D4
:102CF0000196CDF800B04346079A0699089802F06D
:102D000057FD054658E7CDF810A0CDF80C90029776
:102D10000196CDF800B04346079A0699089802F04C
:102D20005AFD054648E7CDF810A0CDF80C90029763
:102D30000196CDF800B04346079A0699089802F02C
:102D4000A5FD054638E7CDF810A0CDF80C90029708
:102D50000196CDF800B04346079A0699089803F00B
:102D6000C9F9054628E7CDF810A0CDF80C900297D8
:102D70000196CDF800B04346079A0699089803F0EB
:102D8000F2F9054618E7CDF810A0CDF80C9002979F
:102D90000196CDF800B04346079A0699089803F0CB
:102DA0001BFA054608E7CDF810A0CDF80C90029765
:102DB0000196CDF800B04346079A0699089803F0AB
:102DC000D6FA0546F8E6CDF810A0CDF80C9002979B
:102DD0000196CDF800B04346079A0699089802F08C
:102DE00068FD0546E8E6CDF810A0CDF80C900297F6
:102DF0000196CDF800B04346079A0699089802F06C
:102E0000CDFD0546D8E6CDF810A0CDF80C90029780
:102E10000196CDF800B04346079A0699089802F04B
:102E200042FE0546C8E6CDF810A0CDF80C900297FA
:102E30000196CDF800B04346079A0699089802F02B
:102E400088FE0546B8E6CDF810A0CDF80C900297A4
:102E50000196CDF800B04346079A0699089802F00B
:102E60008BFE0546A8E6CDF810A0CDF80C90029791
:102E70000196CDF800B04346079A0699089802F0EB
:102E8000FFFE054698E6CDF810A0CDF80C9002970D
:102E90000196CDF800B04346079A0699089802F0CB
:102EA00045FF054688E6CDF810A0CDF80C900297B6
:102EB0000196CDF800B04346079A0699089802F0AB
:102EC00048FF054678E6CDF810A0CDF80C900297A3
:102ED0000196CDF800B04346079A0699089803F08A
:102EE0001BF8054668E6CDF810A0CDF80C900297C7
:102EF0000196CDF800B04346079A0699089803F06A
:102F00005CF8054658E6CDF810A0CDF80C90029775
:102F10000196CDF800B04346079A0699089802F04A
:102F2000D1FB054648E6CDF810A0CDF80C900297ED
:102F30000196CDF800B04346079A0699089803F029
:102F400084F9054638E6CDF810A0CDF80C9002972C
:102F50000196CDF800B04346079A0699089803F009
:102F60003FF8054628E6CDF810A0CDF80C90029762
:102F70000196CDF800B04346079A0699089803F0E9
:102F8000A7F8054618E6CDF80CA0CDF808900197F3
:102F900000965B4642460799069802F0B1FA05464C
:102FA0000AE6CDF80CA0CDF80890019700965B4694
:102FB00042460799069802F083FA0546FCE50B9B0A
:102FC0000493CDF80CA0CDF80890019700965B46CD
:102FD00042460799069802F047FA0546ECE50B9B36
:102FE0000493CDF80CA0CDF80890019700965B46AD
:102FF00042460799069802F021FA0546DCE50B9B4C
:103000000493CDF80CA0CDF80890019700965B468C
:1030100042460799069802F03DFA0546CCE5CDF800
:1030200010A0CDF80C9002970196CDF800B0434661
:10303000079A0699089802F005FF0546BCE56FF06F
:103040000305BEE5179B169A0A992046FFF7E0FA9A
:10305000054600287FF4B8AD18992046FFF7BAFA64
:103060000546B1E570B584B004460D46622103F013
:10307000ACF904F5C042042382F80136002382F83B
:103080000236102182F8341882F8353814E004F53D
:10309000C04203EB031102EB81010020C1F870086C
:1030A000C1F87408A1F8780803EB031102EB810260
:1030B00082F87A080133DBB20F2BE8D904F5C0425D
:1030C000102182F8781C002382F8793C82F88B1D4D
:1030D00082F88C3D16E004F5C042C3EBC30102EB5D
:1030E00081010020C1F8900DC1F8940DC1F8980D30
:1030F000C1F8A40DC3EBC30102EB8102C2F8A80D15
:103100000133DBB20F2BE6D9002626760123637646
:10311000A676E67623776377A3774FF47A732362F4
:103120004FF4FA63636243F2C823A3626423E36249
:103130004FF42063238684F8396004F5805303221A
:1031400083F8422383F8436340F2DB73A4F8D03062
:1031500040F2C373A4F8D230204603F02AF94FF4AA
:103160009042314604F5EC501C300AF0CDFE25B1FA
:103170002046FFF7EEFA054628B904F5167001F06F
:103180008CFD0546E8B104F224421821002005F028
:103190004AFB04F59A621821002005F044FB04F272
:1031A0007C520C21002003F0C2FA204604F0A0FD5E
:1031B000204604F025FD204604F0AFFD284604B06B
:1031C00070BD04F51A7001F07AFD05460028DAD1C9
:1031D00004F53B7104F1600001F080FD0546002814
:1031E000D1D104F5347001F0B0FD05460028CAD1F4
:1031F00004F5447001F0C3FD05460028C3D104F571
:10320000497001F0CEFD05460028BCD104F51D71C2
:1032100094F8FC0201F0D7FD05460028B3D104F56F
:103220002D7001F011FF05460028ACD104F5A47003
:1032300001F00CFE05460028A5D1E36A0293A36ABB
:103240000193636A0093236A228E617E2046FFF712
:1032500050FC054697E7B0F89E330B80002070477E
:10326000A0F89E1300207047B0F8A0330B80002018
:103270007047A0F8A0130020704738B5044690F8B6
:10328000C43303F00F0363F07F0380F8C43300F509
:10329000707107F051FB054694F8C43303F00F0337
:1032A00084F8C4330321204603F08FF894F8DB0040
:1032B000013004F5D0413431C0B203F066F9204644
:1032C00003F07CF904F5805393F88135012B01D08C
:1032D000284638BD204604F037FDF9E7F0B5C1B007
:1032E0000C4600F1180500F2C63605F59C5705F5A9
:1032F0009D550435012913D0022913D186236A462E
:10330000882108F0C9F8012C00D968B12CB128B97E
:103310003A460BA9212007F0B0FB60B141B0F0BDE7
:103320004D23ECE72C23EAE72A460DF14E01382025
:1033300007F0DEFBEAE7324669462C2007F00EFB79
:10334000ECE70000F0B500249C70CD78DD70DC81E6
:1033500004255D7401259D74B1F810E08E8A4D8AB4
:1033600007E003EB44074FF0000CA7F804C001345A
:10337000E4B2042CF5D903F1140C002424E04F78B6
:1033800007F01F078CF84A7000278CF808708CF83B
:1033900009708CF80A708CF80B708CF80C708CF833
:1033A0000D7024B3012C5ED0BCF84070ACF83E70B8
:1033B000ACF84270BCF94670ACF84470ACF8487098
:1033C0000CF14C0C0134E4B2012C7FD88CF8004095
:1033D0000027CCF80470CF78002FD0D14F7807F0B9
:1033E0001F07092FCBD113278CF84A70CCE78F78B1
:1033F000072F2FD0082F30D08F88ACF81670ACF87C
:1034000030E0CF8AACF832700F89ACF834704F8955
:103410007F01B7F5803F01D34FF6FF77ACF83C70E2
:103420008F89ACF84070CF8900FB07F717F58067EC
:1034300016D447F3CF27ACF846705768CCF82870FD
:103440009768CCF82C70D768CCF818701768CCF84F
:103450002470A9E7ACF81650D1E7ACF81660CEE7B7
:1034600007F2FF77E5E70F8BACF816704F8BACF8DF
:1034700030704FF6FF77ACF832708F8BACF8347049
:10348000CF8B7F01B7F5803F01D34FF6FF77ACF8C4
:103490003C700F8CACF840704F8C00FB07F717F5B1
:1034A000806710D447F3CF27ACF846705769CCF843
:1034B00028709769CCF82C70D769CCF81870176908
:1034C000CCF8247070E707F2FF77EBE700221A745C
:1034D0004A7802F01F02112A04D80549D14011F0A0
:1034E000010F00D1F0BD1A74002283F85E20F9E7C5
:1034F0000E20020090F84430052B04D0012380F800
:10350000883300207047022380F888338B88A0F826
:103510008E33F6E72DE9F04FC5B00446164600F1AC
:10352000180300F54E7B00F16002019200F25E325A
:10353000029200F27E32039200F5657A00F56B7913
:1035400000F57078C17690F8C42302F00F021143A1
:1035500080F8C41390F84A20363203EB820106311A
:10356000FFF7C5F894F8DB3073BB94F8C43313F05D
:10357000020F03D194F8FC32012B35D004F58053AF
:1035800093F88235FF2B34D004F58053D3F880357F
:1035900023F07F4323F0FF03B3F5807F2FD004F5A2
:1035A0008053D3F8803523F07F4323F0FF03744A20
:1035B00093423FD0002845D0731E052B55D8DFE835
:1035C00003F052504E4C564594F84A3004F5CB4126
:1035D000703103EB83035B0003F5D07319440231B0
:1035E0002046FFF787FFC0E7B4F80433A4F876332A
:1035F000C4E704F58053002283F88225C4E794F8D9
:10360000802304F5805383F88325202384F88033B6
:1036100094F8BD3313F0600F08D1B4F976309B00F5
:10362000A4F87230042EBAD80526B8E70023A4F80F
:103630007230F7E704F5805393F8833584F88033CC
:103640000626B7E7204603F057FFB5E70127C7F185
:103650008805ADB2002204AB10E02427F7E7442729
:10366000F5E75A27F3E77127F1E78327EFE70D27FF
:10367000EDE7002103F8011B013292B2AA42F8D310
:10368000052E00D970B3042E01D9002834D0032EA2
:1036900001D900283AD0022E01D9002840D0012EAD
:1036A00001D9002846D0CEB1002856D1C7F1710209
:1036B00092B294F8C43313F0200F09D094F8483034
:1036C00043F0010184F8AC1384F8B81384F8BE33D6
:1036D00004AB1A441221484607F0D3F8A0B345B012
:1036E000BDE8F08FC7F1010204AB13FA82F20B219F
:1036F000584606F09EFEC6E7C7F10D0204AB13FA6A
:1037000082F21721019806F0FFFEC0E7C7F12402FC
:1037100004AB13FA82F22021029806F0BCFFBAE74C
:10372000C7F1440204AB13FA82F21621039807F0A2
:1037300020F8B4E7C7F15A0204AB13FA82F217215A
:10374000504607F05BF8AEE7C7F1830204AB13FA0B
:1037500082F20521404607F0D6F80028BFD12B465B
:1037600004AA3946204607F077FE0028B7D1204644
:1037700003F0A3FF0028B2D1204604F048F8AEE7DA
:103780000001010008B50322FFF7C4FE08BD8177E0
:1037900000207047022921D0032904D0012928D014
:1037A0006FF00300704700F5C040C2EBC20100EBB0
:1037B0008101B1F8941D1980C2EBC20200EB8202B4
:1037C000B2F8982D5A80B0F8822D9A80B0F8842DE6
:1037D000DA804FF480721A8100207047D0F8C6104A
:1037E000D0F8CA2019605A60B0F8CE201A810020A3
:1037F0007047D0F8BC10D0F8C02019605A60B0F8FB
:10380000C4201A8100207047A1F50041C02900F2B0
:10381000B084DFE811F0C100C600CB00D000D500B5
:10382000DA00DF00E400E900EE00F300F800FD003C
:10383000020107010C01110116011B0120012501E4
:103840002A012F01340139013E01430148014D0194
:10385000520157015C01610166016B017001750144
:103860007A017F01840189018E01930198019D01F4
:10387000A201A701AC01B101B601BB01C001C501A4
:10388000CA01CF01D401D901DE01E301E801ED0154
:10389000F201F701FC01010206020B0210021502FF
:1038A0001A021F02240229022E02330238023D02AC
:1038B000420247024C02510256025B02600265025C
:1038C0006A026F02740279027E02830288028D020C
:1038D000920297029C02A102A602AB02B002B502BC
:1038E000BA02BF02C402C902CE02D302D802DD026C
:1038F000E202E702EC02F102F602FB02000305031A
:103900000A030F0316031D0324032B033203390399
:10391000400347034E0355035C0363036A037103CB
:1039200078037F0386038D03940399039E03A30307
:10393000A803AD03B203B703BE03C303C803CD039B
:10394000D203D703DC03E103E603EB03F003F50343
:10395000FA03FF03040409040E04130418041D04ED
:10396000220427042C04310436043B04400445049B
:103970004A044F04540459045E04630468046D044B
:10398000720477047C04810486048B0490049504FB
:103990009A049F04A404A904B0F8483113600020DD
:1039A0007047B0F84A31136000207047B0F84C31CE
:1039B00013600020704790F8743213600020704745
:1039C00090F8753213600020704790F876321360DB
:1039D0000020704790F8773213600020704790F80D
:1039E000783213600020704790F87932136000201D
:1039F000704790F87A32136000207047D0F8803218
:103A0000136000207047B0F87C32136000207047CC
:103A1000B0F88432136000207047D0F88832136009
:103A20000020704790F88C32136000207047B0F887
:103A30008E32136000207047B0F8D230136000203F
:103A4000704790F89632136000207047B0F89A32B1
:103A500013600020704790F8973213600020704781
:103A6000B0F8983213600020704790F8543113601A
:103A70000020704790F8553113600020704790F88F
:103A8000563113600020704790F8573113600020C2
:103A9000704790F8583113600020704790F8593102
:103AA000136000207047B0F90633136000207047A0
:103AB000B0F90833136000207047B0F80C3313607E
:103AC00000207047B0F8B232136000207047B0F8A1
:103AD0000A3313600020704790F8B0321360002062
:103AE0007047B0F9FE3213600020704790F85A31E9
:103AF00013600020704790F85B311360002070471E
:103B0000B0F85C31136000207047B0F8D03013601B
:103B10000020704790F85E31136000207047B0F8C5
:103B20006031136000207047B0F8623113600020EC
:103B30007047B0F86431136000207047B0F8663108
:103B4000136000207047B0F86831136000207047A0
:103B5000B0F86A3113600020704790F86C31136040
:103B60000020704790F86D3113600020704790F886
:103B70006E3113600020704790F80233136000200C
:103B8000704790F86F3113600020704790F87131E2
:103B900013600020704790F8723113600020704766
:103BA000B0F9003313600020704790F84E31136075
:103BB0000020704790F84F3113600020704790F854
:103BC000503113600020704790F85131136000208D
:103BD000704790F8523113600020704790F85331CD
:103BE00013600020704790F8703113600020704718
:103BF00090F8B432136000207047B0F8C032136000
:103C000000207047B0F8C232136000207047B0F84F
:103C1000C432136000207047B0F8C6321360002031
:103C20007047B0F8C83213600020704790F84033F6
:103C300013600020704790F85832136000207047DE
:103C400090F85932136000207047D0F85C3213604E
:103C500000207047B0F86032136000207047B0F861
:103C60006232136000207047B0F8643213600020A5
:103C7000704790F8E032136000207047B0F9E232EC
:103C8000136000207047B0F9E432136000207047E1
:103C9000B0F8D032136000207047D0F8D4321360EF
:103CA00000207047B0F8E632136000207047B0F88B
:103CB000E832136000207047D0F8D832136000203B
:103CC0007047D0F8DC32136000207047B0F8103332
:103CD000136000207047D0F8143313600020704741
:103CE000D0F81C33136000207047D0F818331360ED
:103CF0000020704790F8203313600020704790F840
:103D0000213313600020704790F8223313600020A5
:103D10007047B0F82433136000207047D0F8283380
:103D2000136000207047D0F82C33136000207047D8
:103D3000B0F83433136000207047D0F8303313608C
:103D400000207047B0F8363313600020704790F8B9
:103D5000693213600020704790F86A3213600020C7
:103D60007047B0F87032136000207047B0F87431BB
:103D7000136000207047B0F8763113600020704760
:103D8000B0F87831136000207047B0F87A311360D2
:103D900000207047D0F88031136000207047D0F8C1
:103DA0008431136000207047D0F888311360002000
:103DB0007047D0F88C31136000207047D0F89031F4
:103DC000136000207047D0F89431136000207047D2
:103DD000D0F89831136000207047D0F89C31136000
:103DE00000207047D0F8A031136000207047D0F851
:103DF000A431136000207047D0F8A8311360002070
:103E00007047D0F8AC31136000207047D0F8B4315F
:103E1000136000207047D0F8B8311360002070475D
:103E2000D0F8BC31136000207047D0F8C031136067
:103E30000020704700F58050B0F8F8331360002080
:103E4000704700F58050D0F8FC33136000207047B5
:103E500000F58050D0F8003413600020704700F562
:103E6000805090F8043413600020704700F58050B3
:103E7000D0F8083413600020704700F58050D0F867
:103E80000C3413600020704700F58050D0F81034D7
:103E900013600020704700F58050D0F81434136090
:103EA0000020704700F5805090F81C34136000200B
:103EB000704700F58050B0F91E3413600020704741
:103EC00000F58050B0F9203413600020704700F5F1
:103ED000805090F8223413600020704700F5805025
:103EE00090F8F63313600020704700F58050D0F84A
:103EF000183413600020704700F58050D0F8243447
:103F000013600020704700F58050D0F8283413600B
:103F10000020704700F58050D0F82C34136000204A
:103F2000704700F58050B0F83034136000207047BF
:103F300000F5805090F88035136000207047D0F86D
:103F4000B031136000207047D0F8C43113600020F6
:103F50007047B0F87C31136000207047D0F8C8314A
:103F600013600020704790F8CC3113600020704738
:103F7000D0F8D03113600020704790F8D43113602E
:103F80000020704700F58050D0F8343413600020D2
:103F9000704790F8D531136000207047B0F9D631E2
:103FA000136000207047B0F9D831136000207047CB
:103FB000B0F9DA31136000207047B0F9DC311360DA
:103FC00000207047B0F9DE31136000207047B0F96F
:103FD000E031136000207047B0F9E2311360002037
:103FE0007047B0F9E431136000207047B0F9E63152
:103FF000136000207047B0F9E8311360002070476B
:10400000B0F9EA31136000207047B0F9EC31136069
:1040100000207047B0F9EE31136000207047B0F90E
:10402000F031136000207047B0F9F23113600020C6
:104030007047B0F9F431136000207047B0F9F631E1
:10404000136000207047B0F9F8311360002070470A
:10405000B0F9FA31136000207047B0F9FC311360F9
:1040600000207047B0F9FE31136000207047B0F9AE
:104070000032136000207047B0F902321360002054
:104080007047B0F90432136000207047B0F906326F
:10409000136000207047B0F90832136000207047A9
:1040A000B0F90A32136000207047B0F90C32136087
:1040B00000207047B0F90E32136000207047B0F94D
:1040C0001032136000207047B0F9123213600020E4
:1040D0007047B0F91432136000207047B0F91632FF
:1040E000136000207047B0F9183213600020704749
:1040F000B0F91A32136000207047B0F91C32136017
:1041000000207047B0F91E32136000207047B0F9EC
:104110002032136000207047B0F922321360002073
:104120007047B0F92432136000207047B0F926328E
:10413000136000207047B0F92832136000207047E8
:10414000B0F92A32136000207047B0F92C321360A6
:1041500000207047D0F83032136000207047B0F86C
:104160003432136000207047B0F8363213600020FC
:1041700070476FF0004313606FF00300704730B575
:10418000C3B0044600224192852107F0A3F90546F9
:1041900098B141AA48F28C012046FFF735FB419BBC
:1041A000022B10D0032B10D0012B0AD0002375B1A5
:1041B000002D41D0284643B030BD204602F070FBB0
:1041C000E7E71023F3E72023F1E74023EFE7292275
:1041D0008DF80420C9228DF805200E228DF80620C6
:1041E00040228DF8072028228DF808208DF809300C
:1041F000062301AA40F27641204607F02DF9054634
:104200000028D7D103238DF804306D228DF80520C6
:104210008DF806306F238DF8073007238DF80830AE
:1042200029238DF80930062301AA40F29641204641
:1042300007F012F90546BBE700238DF80430072389
:104240008DF80530022301AA40F27241204607F0A2
:1042500003F905460028ADD100238DF8043007236B
:104260008DF80530022301AA40F27441204607F080
:10427000F3F8054600289DD101224FF48E612046B7
:1042800007F028F90546002894D10122852120460F
:1042900007F020F905468DE72DE9F04387B0064683
:1042A0008846174600F118090023059304930393E9
:1042B00090F8515005AA48F28F01FFF7A5FA04AA19
:1042C00048F28E013046FFF79FFA96F84C3033B132
:1042D00098F80B40A4080022039211460AE04FF41C
:1042E0009042002106F5EC501C3009F00DFEEFE77E
:1042F0000132D2B2172A10D804EB440005EBC503F3
:104300005B0103EBC003134403F5EC6306EB83038B
:10431000DB69002BECDD1946EAE7002905DC039A8E
:10432000049B9A420CDA002140E003AB0193002386
:1043300000931823224641464846FEF7D1F8EEE79F
:104340004FF49042002106F5EC501C3009F0DCFDE2
:10435000E9E79B1A981E013B04EB440C00EB40007C
:10436000000100EBCC0005EBC50C00EB4C10084441
:1043700000F5EC6006EB8000C06904EB440C03EB35
:1043800043031B0103EBCC0305EBC50C03EB4C1300
:104390000B4403F5EC6306EB8303D8610132D2B220
:1043A000059B581E8242D4DB0131C9B2172901D8BE
:1043B0000022F5E7002211E0931D58F8230004EBDA
:1043C000440105EBC5035B0103EBC103134403F593
:1043D000EC6306EB8303D8610132D2B2172AEBD922
:1043E000002304E0002247F8232001339BB2172B5F
:1043F000F8D900201CE057F8202004EB440C01EB16
:1044000041031B0103EBCC0305EBC50C03EB4C1381
:10441000034403F5EC6306EB8303DB691A4447F8B6
:1044200020200131C9B2059B9942E4DB013080B202
:10443000172801D80021F6E707B0BDE8F083000097
:104440002DE9F041DAB007460D46002419945323B4
:104450001AAA882107F020F880469DF8683085F870
:1044600078309DF8693085F879309DF86A3085F8A4
:104470007A309DF86B3085F87B301BA9022002F062
:104480008FF9A5F87C000DF1B601022002F088F941
:10449000A5F87E009DF8B83085F8803007F5805388
:1044A000A3F8BC0395F8802083F8BE239DF8B930AB
:1044B0009B00DBB29DF8BA2013448DF8B5300DF1A6
:1044C0006E0609E03146032002F0A9F9A31D45F864
:1044D000230003360134A4B2172CF3D919AA48F2E9
:1044E0008D013846FFF790F995F87B3073B397F854
:1044F0005130AB7000232B7218236B72AB7297F89C
:10450000813385F8813097F884331B01A5F8823018
:1045100097F86E231344A5F88230B7F83E33A5F818
:1045200086302946384602F0EDFA97F85030B3B994
:1045300097F8983397F8994304EB0324A4B297F8BB
:104540009A3385F884300023EB7216E04FF49042E2
:10455000002107F5EC501C3009F0D6FCC7E797F8AE
:104560009B3397F89C4304EB0324A4B297F89D3344
:1045700085F88430E7E70133DBB2052B09D8EA1868
:10458000127B02F00702072AF5D1EA7A0432EA72B6
:10459000F1E701AA29463846FFF77EFE199B012B59
:1045A00054D0204602F00DFAC5F88800B5F8860010
:1045B00003F0AAFFD5F8883001334FF40062B5F854
:1045C000821003F0AAFFC5F88C000024C5F89040C3
:1045D000284604F0EDF8284604F0EEF997F8443048
:1045E0002B7097F84B306B70AB7807F5C04203EB3C
:1045F000830102EB410191F89A1785F8A81003EBAB
:10460000830302EB430393F89B3785F8A93082F8C4
:10461000004695F8793003F01F03112B04D8104A97
:10462000DA4012F0010F13D140465AB0BDE8F081D4
:104630005AAA02EB8302A2F5B27211689A1D45F8DC
:1046400022100133DBB2172BF2D9AAE70023FAE7D5
:1046500007F5C04787F800366FF00508E4E700BFAC
:104660000E2002002DE9F04F8DB00446079200F5B0
:10467000CB46703601238DF8233090F8CC8190F82A
:1046800051A090F8C43313F0020F00F0338200F110
:10469000180700F51D7B00F224494946FFF7D0FEBC
:1046A0000546002840F0018194F82F34002B61D09A
:1046B000002D40F0FA800AF24A5304EB83039B6911
:1046C000002B62D0C4F8EC32B8F1000F64D1637EE5
:1046D0001A2B00F09480182B00F0A080B4F8D23090
:1046E000A4F89232B4F9FE12D4F8EC0202F046F9C2
:1046F000C4F8A002B4F9F032A4F8A432B4F9F2324A
:10470000A4F8A63294F87A3284F8B532D4F880321C
:10471000C4F8B832D4F88832C4F8BC32B4F85E3386
:10472000A4F8CC3294F8913384F8CE32B4F908333B
:10473000A4F8AA32B4F90633A4F8A832B4F80A33BC
:10474000A4F8AC32B4F80C33A4F8AE3204F50E750C
:10475000294604F2F23001F0AAFE637F022B00F03A
:10476000B280032B00F0BC80012B6FD00023A4F893
:10477000903285E004F5D840783000EB0A104946C5
:10478000043002F06DF9054692E704F58053D3F842
:10479000A432C4F8EC3297E70DF12301204603F070
:1047A0004BFB9DF8233013B901238DF823309DF87E
:1047B0002330013BDBB203F2A24204EB8202D26956
:1047C000C4F8EC220AF24A5A04EB8A0ADAF81820F2
:1047D000002A3FF47CAF94F8D411B2FBF1F203FB52
:1047E0000222C4F8EC2201398B42BFF670AFC04BF5
:1047F000A3FB021302EB1312C4F8EC2267E794F850
:104800002F24042A7FF467AFD4F8EC22B849A1FB27
:10481000020102EBD102C4F8EC225CE794F82F34D9
:10482000042B09D0D4F8EC32B14AA2FB031203EBFB
:10483000D203C4F8EC3251E7D4F8EC32AC4AA2FB14
:10484000031203EB9203C4F8EC3247E794F8913378
:1048500004F5247205920493039504F1B4030293C2
:1048600094F8CD34019394F8CC34009394F8233425
:1048700094F82224B4F97610B4F9740002F08AFD99
:1048800004F2CA23009394F891332A4694F8CD1485
:1048900094F8CC0402F087FC09AB94F85120A17F76
:1048A0002046FEF777FF054628B394F8DB30002B4F
:1048B00000F00A8194F84B30062B02D0002D00F056
:1048C000E9800023F2E094F8512004F5C043C2EBE4
:1048D000C20203EB8203B3F9A83DA4F89032CFE7FC
:1048E00004F524713846FDF7C8FDB4F890329B00FA
:1048F000A4F89032C4E704F5AC53103304F5DC524D
:10490000103205960DF1230104910392029304F2F3
:104910007C530193CDF800905B4604F52D7209A9F4
:10492000204606F0ABFE0546B8F1000F38D09DF8E2
:104930002320012A34D9002130E004F5C0434C2063
:1049400000FB0133D3F82806B0FBF2F0C3F82806C9
:10495000D3F82C06B0FBF2F0C3F82C06D3F83006DF
:1049600090FBF2F0C3F83006B3F8340690FBF2F097
:10497000A3F83406B3F8360690FBF2F0A3F8360637
:10498000B3F8380690FBF2F0A3F83806D3F83C06EB
:10499000B0FBF2F0C3F83C060131C9B20329CCD90F
:1049A000002D82D104F5CB427E324946584602F0B2
:1049B00060FB054600287FF478AF94F8511004F5A9
:1049C000CB43703301EB0112920002F510721A44CE
:1049D00004F5D843783303EB011133460832043130
:1049E000204602F06BFA054600287FF45EAF94F88B
:1049F000510004F5CB43703300EB0012920002F536
:104A000010721A4404F5D841783101EB001103F516
:104A1000A27308320431204602F0F4FA0546002859
:104A20007FF443AF94F8512004F5C043102183F87C
:104A3000781C94F8DB10013183F8791C84F8262463
:104A400093F8343893421BD994F8251404F5C043E5
:104A500003EB021383F87C1C94F82F2483F87D2C3D
:104A6000B4F8A024A3F87E2C94F8A82483F8802C12
:104A7000D4F8AC24C3F8842CD4F8C424C3F8882C0C
:104A800004F59C53183304F2C6323146484602F00E
:104A9000DFFC0AE73146204602F04CFD054610E7F0
:104AA0000121E21882F836110133DBB20F2B06D850
:104AB00094F8462012F0010FF2D00321F1E725B956
:104AC000204602F076FD054665B1B8F1000F1CD016
:104AD0009DF82330CBB1D4F8EC22B2FBF3F2C4F84A
:104AE000EC2212E0204603F0BBFA0546EDE700BFDA
:104AF000CDCCCCCCFEF7F2FB0546002849D004F51E
:104B0000805393F88135012B4ED094F8441004F56E
:104B1000C04383F8F01594F84B2083F8F12594F8FE
:104B200051C083F8F2C5002D7FD1102083F83408DE
:104B300094F8DB00013083F83508BCF10F0F74D80E
:104B400018460CEB0C1300EB830383F8381883F83A
:104B5000392883F83AC890F8F32583F83B28D0F831
:104B60005827C3F87028D0F85C27C3F87428B0F829
:104B70007427A3F8782890F87E2783F87A2890F88D
:104B8000012683F83C2890F8028683F83D880023AC
:104B900049E0334604F59C52183204F2C631B4F8A9
:104BA000D000FEF7CFFBAAE7002DAED104F580536D
:104BB00093F882353BB1012BA7D104F58053022233
:104BC00083F88225A1E7204603F0E2F8054604F5C4
:104BD0008053012283F8822597E704F5C0404FF007
:104BE0004C0E0EFB030EDEF8281603EB43090CEB0C
:104BF0000C12920002EB89020244C2F84018DEF85F
:104C00002C16C2F84418BEF84416A2F848189EF8AC
:104C10004E160CEB0C12920002EB8902104480F845
:104C20004A180133DBB29845D7D84FF4D0723146D9
:104C3000079809F0F8F91DB128460DB0BDE8F08FCE
:104C4000204601F0D9FB0546F6E700BF00F580508D
:104C5000012380F8F4330020704700F580530020D2
:104C600083F8F403704700F58050012380F8F53392
:104C70000020704700F58053002083F8F50370474B
:104C800000F58050012380F8F6330020704700F5CE
:104C90008053002083F8F6037047082303700B232A
:104CA00043704FF47A7343604FF4206303814FF4F1
:104CB000A06343814FF4A0538381002070470346D3
:104CC0000020187012225A700F229A700222DA7095
:104CD00048F6A0425A600C221A81704738B50C463B
:104CE00045890D60B0F90C10A180B0F90E20E2806A
:104CF0004389A360B0F90C30A381B0F90E30E38191
:104D00004FF4007363820023A3824023A3751DB96F
:104D100063680BB9237401E001232374237C012B06
:104D20000DD0002323834FF6CE7363833223A383F6
:104D30004FF47A43E3838C232384002038BD40233F
:104D4000284601F0CFFD2083EDE74FF4A053038008
:104D50004FF4FA6383600723037443F69823436098
:104D600042F21073C3604FF6BA73438246238382C4
:104D70004FF47A43C3828C230383002070474FF49F
:104D80002063038043F69823436043F2C823836083
:104D9000C360082303742823437409238374002009
:104DA00070474FF4A053038043F6982343604FF4B9
:104DB0007A73C3604FF4FA6383601023038208237D
:104DC00043820020704710B504230B7001234B7001
:104DD0008B700222CA700B714FF0500C81F805C025
:104DE00070228A7141F23D020A811022CA60322289
:104DF0000A8264244C610B76A0234B8300238B83AF
:104E000040F2C374CC834FF0080E81F820E0882470
:104E100081F8214081F822E081F823304FF4006EC0
:104E2000A1F824E04FF0FA0EA1F826E081F828005E
:104E30004FF6CE708886CA864FF47A4008878C2059
:104E4000488781F83CC0CA87184610BDF0B50346B4
:104E5000202202800E21418042F69472828081716C
:104E60000A20D87106221A7259729872DA720921D0
:104E700019730521597303219973DA731A745A74DB
:104E8000022199742120D8740020988298753C24BE
:104E90001C835C839C838024DC831C845C840824C6
:104EA00083F82440102483F82540012483F8264009
:104EB00083F8271083F8284083F8291083F82A0004
:104EC0004FF4206199854FF4A055DD851D865986E4
:104ED0004FF47A759D6343F69827DF6342F22836D4
:104EE0001E6441F2707159649F64DE6419655D65EA
:104EF0004FF4FA619965D965196659664FF21866DB
:104F0000DE6640F6C4161E675E6743F2C8269E67DB
:104F10009C664FF4FA56DE674FF420569E86C3F81F
:104F2000800083F8844042F21076C3F8886083F8EA
:104F30008C2083F88D40A3F88E1040F6BE22A3F893
:104F40009020FA24A3F89240A3F8945040F2E24152
:104F5000A3F8961040F2D662A3F89820A3F89A100E
:104F6000A3F89C204FF6387CA3F89EC0C825A3F870
:104F7000A050A3F8A24040F27E42A3F8A42040F63D
:104F80000612A3F8A620A3F8A800A3F8AA2040F6CA
:104F90001C4EA3F8ACE04FF49152A3F8AE20A3F856
:104FA000B0E0A3F8B22041F62E0EA3F8B4E0A3F8C7
:104FB000B600A3F8B80041F63037A3F8BA70A3F8EA
:104FC000BCE0A3F8BE40A3F8C01040F6AC51A3F873
:104FD000C21041F29411A3F8C410A3F8C6C0A3F8FC
:104FE000C85040F62231A3F8CA1040F6E441A3F8B5
:104FF000CC10A3F8CE00A3F8D00040F61E71A3F8A1
:10500000D21041F22A21A3F8D41040F60A71A3F875
:10501000D610A3F8D800A3F8DA00A3F8DC0041F614
:105020001461A3F8DE10A3F8E020A3F8E200A3F8CF
:10503000E40041F68812C3F8E820A3F8EC6041F2DE
:105040008832A3F8EE20F0BD4FF4A0530383382339
:1050500083762023037070234370102343606423FE
:1050600083604FF6FF73C3820F2383813423C38190
:10507000C82303824FF4B67343824FF4C87383820C
:10508000002070472DE9F04F8046099C0B9D0C9E37
:105090004FF42060A8F80000002088F8020088F88B
:1050A000030088F8040088F8050088F8060088F8EE
:1050B000070088F8080088F8090088F80A0088F8CE
:1050C0000B00112788F80C704FF0020E88F80DE0E5
:1050D00088F80E0088F80FE0082788F8107088F824
:1050E000110095F824C088F812C095F825C088F8FA
:1050F00013C095F826C088F814C04FF0010C88F84A
:1051000015C088F8160088F81700A8F818004FF0A6
:10511000FF0988F81A9095F816A088F81BA095F852
:1051200012A088F81CA088F81D0088F81E0088F8D6
:105130001F00107050704FF0200882F802804FF06E
:105140000B0B82F803B0B5F814A0A2F804A082F803
:1051500006E04FF00D0A82F807A095F813A082F838
:1051600008A0507282F80AC09081D0814FF40C4A96
:10517000A2F810A090744FF0380A82F813A082F8B9
:10518000149082F815C018701A225A70987083F81B
:10519000038083F804C0CC225A7183F806B083F8E8
:1051A00007C0F5221A724FF009025A726A8B5A81AF
:1051B0002A8C9A819F737822DA73186118754FF0E0
:1051C000070981F8019021238B704FF0430881F883
:1051D000038010220A714FF0320A81F805A04FF0C7
:1051E000540A81F806A081F807900B7281F80980B3
:1051F0008A7281F80BE081F80C804FF0050981F884
:105200000D9088734FF0070981F80F900B7481F8A7
:1052100011808A744FF0320881F8138081F814A04D
:105220004FF6FF78A1F81680A1F818800870327048
:1052300070700F22F277B2773777777784F800C0F3
:105240006080A080A07195F82720E27184F808B0F2
:105250004FF009026272EA79A272AA7AE27284F8C5
:105260000CC095F82A20627395F82920A273C722F2
:10527000E27384F81080DB22627484F812E00A9AE8
:10528000507082F802C082F803C01371BDE8F08F3D
:10529000F0B585B01C460A9D0C9E0D9F03970296A3
:1052A0000B9F01970095FFF7EDFE88B90722A271C9
:1052B00005236372B18B6181718CA1810821A17377
:1052C0003821E1732A726B72337AAB72F37AEB7224
:1052D00005B0F0BDF0B585B01C460A9D0C9E0D9F33
:1052E000039702960B9F01970095FFF7CBFE88B9B5
:1052F0000F22A2710D236372318B6181F18BA18129
:105300000821A173B821E1732A726B72B379AB7271
:10531000737AEB7205B0F0BD70B584B01446089D89
:105320000B9E03960A9E0296099E01960095FFF732
:10533000A9FE18B90223A3723B236B7404B070BD9D
:1053400070B584B01446089D0B9E03960A9E029683
:10535000099E01960095FFF795FE18B90223A372E6
:105360005B236B7404B070BD2DE9F04184B01C4622
:105370000A9E0B9FDDF830800D9D0395CDF80880C7
:1053800001970096FFF77EFE70B9B0742071B122CC
:105390006271E071D42323724FF4C063236198F8E3
:1053A0002830F37140233B7104B0BDE8F0812DE952
:1053B000F04184B01C460A9E0B9FDDF830800D9DA5
:1053C0000395CDF8088001970096FFF761FF78B943
:1053D000B0740123237184226271E371B1232372BB
:1053E0004FF4C063236198F82830F37140233B7178
:1053F00004B0BDE8F0812DE9F04184B01C460A9E5E
:105400000B9FDDF830800D9D0395CDF80880019746
:105410000096FFF75FFF70B9B07420719722627138
:10542000E071B12323724FF4C063236198F82830F0
:10543000F37140233B7104B0BDE8F08170B584B0D6
:105440001446089D0B9E03960A9E0296099E01969D
:105450000095FFF789FF08B104B070BD0C9A29468A
:10546000204602F08EFCF7E770B584B01446089D24
:105470000B9E03960A9E0296099E01960095FFF7E1
:1054800096FF08B104B070BD0C9A2946204602F080
:1054900078FCF7E770B584B01446089D0B9E039620
:1054A0000A9E0296099E01960095FFF7A4FF08B197
:1054B00004B070BD0C9A2946204602F062FCF7E762
:1054C0002DE9F04184B01C460A9E0B9FDDF8308028
:1054D0000D9D0395CDF8088001970096FFF7D2FD4A
:1054E00058B9B0742071B1226271E071D423237273
:1054F00098F82830F37110233B7104B0BDE8F081B7
:1055000030B585B0099C0B9D03950A9D02950194C9
:10551000089D0095FFF7B6FD08B90123637005B03B
:1055200030BD00B5019A90F80FC081F812C090F814
:1055300010C081F813C090F811C081F814C090F821
:1055400012C081F815C090F813C081F816C090F809
:1055500014C081F817C090F807E090F808C00CEB71
:105560000E2CA1F818C090F809C081F81AC090F864
:105570000AC081F81BC090F80BC081F81CC090F8DD
:105580000CC081F81DC090F80DC081F81EC090F8C5
:105590000EC081F81FC090F801C0817801EB0C218A
:1055A000598190F803C0017901EB0C21998141796F
:1055B00099738179D973C38A5380038B938003785D
:1055C00093715DF804FB2DE9F04F8DB00B90884688
:1055D00015469946169C1A9B0393199B0293189B98
:1055E0000193179B009323464A4629464046FFF7FE
:1055F00049FD0A9018B10A980DB0BDE8F08F4FF43C
:10560000A053A8F800300895052307934FF0040B2A
:10561000CDF818B0032605960227049701230393BB
:105620004FF0000ACDF808A0CDF804B000963B4634
:1056300001225146072000F0D9FF1A9B3B440893F2
:1056400005230793CDF818B005960497012303931B
:10565000CDF808A0CDF804B000963B460122514693
:10566000072001F019F80922A2710B236372179920
:105670000A724B7284F800A02023637084F802A0A1
:105680001A23E37084F804A02823637184F807A028
:1056900021232372F52389F8073008230B9A82F817
:1056A0002030882382F82130009123464A46414623
:1056B0002846FFF736FF9B23179A53742623189A20
:1056C000137198E7F0B587B00E460D9D0E9C109FA4
:1056D00004970F9F0397029401950C9F0097FFF783
:1056E00072FF30B90123B370237083236B742E23B0
:1056F000237107B0F0BD2DE9F04F8FB00C910B92E4
:105700000D931C9D04951B9F03971A9C0294199C52
:105710000194189C0094FFF756FF074618B13846CD
:105720000FB0BDE8F08F0B9B08934FF0050BCDF841
:105730001CB04FF00409CDF818904FF00308CDF8D5
:1057400014804FF00A0ACDF810A00924039408260B
:105750000296CDF80490CDF80080022301220021AA
:10576000072000F043FF02350895CDF81CB0CDF8B6
:105770001890CDF81480CDF810A003940296CDF8BF
:105780000490CDF80080022301220021072000F0C0
:1057900083FF199A0092189B0D9A0C990B98FFF7AA
:1057A000C0FEBB23199A537426231A9A1371B6E7C5
:1057B00030B587B00B9C0E9D04950D9D03950C9DF7
:1057C000029501940A9D0095FFF795FF08B9DB2328
:1057D000637407B030BD2DE9F04F8DB00B910A9284
:1057E0009B461A9C0494199D0395189D0295179C3D
:1057F0000194169C0094FFF7E6FE054618B1284672
:105800000DB0BDE8F08F0A9B08930D2407944FF06C
:105810000C0ACDF818A04FF00B09CDF814904FF0FA
:105820000A08CDF810800927039708260296CDF8BC
:1058300004A0CDF8009043463A463146072000F0D8
:10584000D5FE1A9A931C08930794CDF818A0CDF8AA
:105850001490CDF8108003970296CDF804A0CDF8EF
:10586000009043463A463146072000F015FF179A4C
:105870000092169B5A460B990A98FFF752FE022394
:105880008BF80A30BB23179A5374B8E730B587B04A
:105890000B9C0E9D04950D9D03950C9D0295019406
:1058A0000A9D0095FFF797FF08B9DB23637407B0E3
:1058B00030BD2DE9F04F8FB00C910D921F46189C12
:1058C0001C9D04951B9E03961A9D0295199D01959A
:1058D0000094FFF778FE0B9018B10B980FB0BDE85D
:1058E000F08F4FF4A0530C9A13800D9B08934FF048
:1058F0000408CDF81C804FF00309CDF818904FF044
:10590000020BCDF814B04FF0010ACDF810A000261C
:10591000039607250295CDF80480CDF800905B46EC
:1059200052463146284600F061FE1C9B5B440893BA
:10593000CDF81C80CDF81890CDF814B0CDF810A09B
:1059400003960295CDF80480CDF800905B46524650
:105950003146284600F0A0FE199D009523463A46A0
:105960000C990D98FFF7DDFD84F8068084F8099006
:10597000267042236370A670E37026715223637110
:10598000E6716623237287F80380A423FB719B23AF
:10599000199A537426231A9A13719EE72DE9F04F32
:1059A0008FB00C900D910B921F46189C199D1C9E58
:1059B00004961B9E03961A9E029601950094FFF78B
:1059C00002FE0A9018B10A980FB0BDE8F08F0B9B49
:1059D0000893052207924FF0040BCDF818B04FF052
:1059E000030ACDF814A04FF00209CDF8109001265B
:1059F00003964FF00008CDF80880CDF804B0CDF83C
:105A000000A04B4632464146072000F0EFFD1C9AAD
:105A100002EB0903089305220792CDF818B0CDF8E0
:105A200014A0CDF810900396CDF80880CDF804B0FE
:105A3000CDF800A04B4632464146072000F02CFE30
:105A4000009523463A460D990B98FFF76AFD092306
:105A5000A3710B22627284F800802121617084F8A6
:105A600002801B21E17084F804802921617184F88F
:105A7000078022212172FB70F521F9712B726A7265
:105A80001B9B1B7BAB721B9BDB7BEB7208230C9A73
:105A900082F82030882382F821309B236B742623E0
:105AA0001A9A13718FE72DE9F04F8DB00A911446C1
:105AB0000B931A9D0495199D0395189D0295179DAA
:105AC0000195169D0095FFF769FF054618B1284618
:105AD0000DB0BDE8F08F08944FF0050BCDF81CB069
