:020000040800F2
:1000000000000220698800082F6A0008316A000891
:10001000336A0008356A0008376A000800000000EB
:10002000000000000000000000000000396A000825
:100030003B6A0008000000003D6A00083F6A0008B3
:10004000B9880008B9880008B9880008B98800088C
:10005000B9880008B9880008B9880008B98800087C
:10006000B9880008B9880008416A0008B988000802
:10007000B9880008B9880008B9880008B98800085C
:10008000B9880008B9880008B98800080000000095
:10009000000000000000000000000000B988000817
:1000A000B98800084D6A0008B9880008B9880008B6
:1000B0005D6A0008956A0008B9880008B9880008D8
:1000C000B9880008B9880008B9880008B98800080C
:1000D000B9880008B9880008B98800080000000045
:1000E000AD6A0008B9880008B9880008000000005F
:1000F000000000000000000000000000B9880008B7
:1001000000000000B9880008B9880008B988000814
:1001100000000000000000000000000000000000DF
:10012000B9880008B9880008B9880008B9880008AB
:10013000B988000800000000000000000000000076
:10014000000000000000000000000000B988000866
:10015000B9880008B9880008B9880008B98800087B
:10016000B9880008B98800080000000000000000FD
:10017000000000000000000000000000000000007F
:1001800000000000B9880008000000000000000026
:08019000B9880008B9880008D5
:1001980053B94AB9002908BF00281CBF4FF0FF31E6
:1001A8004FF0FF3000F036B9ADF1080C6DE904CE20
:1001B80009F05AF8DDF804E0DDE9022304B07047DD
:1001C80070B54FF0FF0C4CF4E06C1CEA11541DBFE5
:1001D8001CEA135594EA0C0F95EA0C0F00F0DEF8B0
:1001E8002C4481EA030621EA4C5123EA4C5350EA95
:1001F800013518BF52EA033541F4801143F48013E6
:1002080038D0A0FB02CE4FF00005E1FB02E506F076
:100218000042E0FB03E54FF00006E1FB03569CF0CB
:10022800000F18BF4EF0010EA4F1FF04B6F5007FD1
:1002380064F5407404D25FEA4E0E6D4146EB060643
:1002480042EAC62141EA55514FEAC52040EA5E50CC
:100258004FEACE2EB4F1FD0C88BFBCF5E06F1ED876
:10026800BEF1004F08BF5FEA500E50F1000041EBAD
:10027800045170BD06F0004646EA010140EA02005A
:1002880081EA0301B4EB5C04C2BFD4EB0C0541EA7C
:10029800045170BD41F480114FF0000E013C00F391
:1002A800AB8014F1360FDEBF002001F0004170BDB5
:1002B800C4F10004203C35DA0C341BDC04F11404CE
:1002C800C4F1200500FA05F320FA04F001FA05F25A
:1002D80040EA020001F0004221F0004110EBD37027
:1002E80021FA04F642EB06015EEA430E08BF20EA53
:1002F800D37070BDC4F10C04C4F1200500FA04F3F6
:1003080020FA05F001FA04F240EA020001F0004187
:1003180010EBD37041F100015EEA430E08BF20EAFA
:10032800D37070BDC4F1200500FA05F24EEA020E42
:1003380020FA04F301FA05F243EA020321FA04F071
:1003480001F0004121FA04F220EA020000EBD37028
:100358005EEA430E08BF20EAD37070BD94F0000F28
:100368000FD101F00046400041EB010111F4801F5C
:1003780008BF013CF7D041EA060195F0000F18BF0D
:10038800704703F00046520043EB030313F4801F49
:1003980008BF013DF7D043EA0603704794EA0C0F03
:1003A8000CEA135518BF95EA0C0F0CD050EA410619
:1003B80018BF52EA4306D1D181EA030101F0004196
:1003C8004FF0000070BD50EA410606BF10461946BE
:1003D80052EA430619D094EA0C0F02D150EA0136CA
:1003E80013D195EA0C0F05D152EA03361CBF10460B
:1003F80019460AD181EA030101F0004141F0FE41AA
:1004080041F470014FF0000070BD41F0FE4141F42D
:10041800780170BD704700BF81F0004102E000BF65
:1004280083F0004330B54FEA41044FEA430594EAAC
:10043800050F08BF90EA020F1FBF54EA000C55EAE7
:10044800020C7FEA645C7FEA655C00F0E2804FEAB8
:100458005454D4EB5555B8BF6D420CDD2C4480EA9A
:10046800020281EA030382EA000083EA010180EACA
:10047800020281EA0303362D88BF30BD11F0004F18
:100488004FEA01314FF4801C4CEA113102D040424E
:1004980061EB410113F0004F4FEA03334CEA133389
:1004A80002D0524263EB430394EA050F00F0A780A1
:1004B800A4F10104D5F1200E0DDB02FA0EFC22FA9C
:1004C80005F2801841F1000103FA0EF2801843FA90
:1004D80005F359410EE0A5F120050EF1200E012A81
:1004E80003FA0EFC28BF4CF0020C43FA05F3C018BF
:1004F80051EBE37101F0004507D54FF0000EDCF138
:10050800000C7EEB00006EEB0101B1F5801F1BD3E0
:10051800B1F5001F0CD349085FEA30004FEA3C0CE4
:1005280004F101044FEA445212F5800F80F09A80DA
:10053800BCF1004F08BF5FEA500C50F1000041EBDE
:10054800045141EA050130BD5FEA4C0C404141EBE2
:100558000101013C28BFB1F5801FE9D291F0000FDD
:1005680004BF01460020B1FA81F308BF2033A3F18C
:100578000B03B3F120020CDA0C3208DD02F1140C83
:10058800C2F10C0201FA0CF021FA02F10CE002F1BE
:100598001402D8BFC2F1200C01FA02F120FA0CFCB7
:1005A800DCBF41EA0C019040E41AA2BF01EB045100
:1005B800294330BD6FEA04041F3C1CDA0C340EDCFE
:1005C80004F11404C4F1200220FA04F001FA02F341
:1005D80040EA030021FA04F345EA030130BDC4F1FF
:1005E8000C04C4F1200220FA02F001FA04F340EAF4
:1005F8000300294630BD21FA04F0294630BD94F0A5
:10060800000F83F4801306BF81F480110134013D8B
:100618004EE77FEA645C18BF7FEA655C29D094EAFC
:10062800050F08BF90EA020F05D054EA000C04BF7A
:100638001946104630BD91EA030F1EBF0021002065
:1006480030BD5FEA545C05D14000494128BF41F004
:10065800004130BD14F580043CBF01F5801130BD68
:1006680001F0004545F0FE4141F470014FF00000F3
:1006780030BD7FEA645C1ABF194610467FEA655CA4
:100688001CBF0B46024650EA013406BF52EA033546
:1006980091EA030F41F4002130BD00BF90F0000F34
:1006A80004BF0021704730B54FF4806404F1320470
:1006B8004FF000054FF0000150E700BF90F0000F29
:1006C80004BF0021704730B54FF4806404F1320450
:1006D80010F0004548BF40424FF000013EE700BF20
:1006E80042004FEAE2014FEA31014FEA02701FBFB0
:1006F80012F07F4393F07F4F81F06051704732F0E2
:100708007F4208BF704793F07F4F04BF41F4002138
:10071800704730B54FF4607401F0004521F0004196
:100728001CE700BF50EA010208BF704730B54FF020
:1007380000050AE050EA010208BF704730B511F021
:10074800004502D5404261EB41014FF4806404F159
:1007580032045FEA915C3FF4D8AE4FF003025FEADF
:10076800DC0C18BF03325FEADC0C18BF033202EB63
:10077800DC02C2F1200300FA03FC20FA02F001FABD
:1007880003FE40EA0E0021FA02F11444BDE600BF60
:100798004A0011D212F5001211D20DD56FF47873F8
:1007A800B3EB62520ED44FEAC12343F0004343EA4D
:1007B800505323FA02F070474FF00000704750EA98
:1007C800013002D14FF0FF3070474FF00000704702
:1007D80010B5054C237833B9044B13B10448AFF373
:1007E80000800123237010BD680100200000000074
:1007F8002C95000808B5034B1BB103490348AFF318
:10080800008008BD000000006C0100202C95000845
:1008180030B589B004465223ADF81030224B02930C
:10082800224B0393224B0593224B0693224B0793AB
:1008380040F63413214D03FB005502A9284606F063
:1008480077FD28BB1E4B1F4A1A601F4B43F82450E4
:1008580001A9284606F010FBE8B9019A4FF20C03EB
:100868009A421BD1164B1B681B68174A52F8240082
:100878009847B0B9124B1B68DB681449124A52F802
:100888002400984708B909B030BD6FF00400FAE7B2
:100898006FF00400F7E76FF00400F4E76FF006006C
:1008A800F1E76FF00400EEE7C56C0008656B00081F
:1008B800156C0008516C00088D6C0008840100203C
:1008C800301D0020D4000020341D0020201D0020F1
:1008D800022803D808B5FFF79BFF08BD6FF0010099
:1008E8007047000002280ED808B5084B1B689B68A3
:1008F800074A52F820009847002801DB002008BD6D
:100908006FF00400FBE76FF001007047301D002016
:10091800341D002002280ED808B5084B1B68DB6878
:10092800074A52F820009847002801DB002008BD3C
:100938006FF00400FBE76FF001007047301D0020E6
:10094800341D002002280ED808B5084B1B681B6907
:10095800074A52F820009847002801DB002008BD0C
:100968006FF00400FBE76FF001007047301D0020B6
:10097800341D002002280ED808B5084B1B68DB6917
:10098800074A52F820009847002801DB002008BDDC
:100998006FF00400FBE76FF001007047301D002086
:1009A800341D002002280ED808B5084B1B681B6AA6
:1009B800074A52F820009847002801DB002008BDAC
:1009C8006FF00400FBE76FF001007047301D002056
:1009D800341D0020F0B585B0114F4FF0FF36029658
:1009E800012401940F4D009523460D2233213846EA
:1009F80004F002FA029601940B4E009623460E224A
:100A08003321384604F0F8F933781B021BB22878F2
:100A1800184300F03FFD054B83ED000A05B0F0BD1B
:100A280014250020451D0020441D0020401D0020E5
:100A380008B50321002001F017FB0221012001F075
:100A480013FB0421022001F00FFB08BD08B50F4A73
:100A58000221002001F0C8FB0028F8D10C4A01212E
:100A6800002001F0C1FB0028F8D10A4A0221012028
:100A780001F0BAFB0028F8D1074A0421022001F04E
:100A8800B3FB0028F8D1FFF7A5FF08BDE02300203D
:100A9800D4230020C8230020BC23002008B5174B0E
:100AA8001A680221002001F0F5FB154B93ED000AAE
:100AB8000221002001F0C4FB124B1A68012100201A
:100AC80001F0E8FB104B93ED000A0121002001F032
:100AD800B7FB0E4B1A680221012001F0DBFB0C4B1F
:100AE80093ED000A0221012001F0AAFB094B93EDC6
:100AF800000A0421022001F0A3FB08BD641D0020A8
:100B0800601D00205C1D0020581D0020541D002081
:100B1800501D00204C1D002010B5224C00228021C1
:100B2800204603F063FC022003F0D2F90122802161
:100B3800204603F05BFC022003F0CAF904F5806448
:100B480000220121204603F051FC022003F0C0F9E5
:100B580001221146204603F049FC022003F0B8F9AF
:100B68000120FFF7B5FE104B186018B10F4807F0C9
:100B7800B9FFFEE70E490120FFF7B4FE0D49012039
:100B8800FFF7C8FE0C4903240C6010234B600023B8
:100B9800CB600B610120FFF7D5FE21460120FFF74E
:100BA80001FF10BD00000240841D0020B09800081D
:100BB800681D0020881D0020701D002008B502490E
:100BC8000120FFF7D7FE08BDB81E0020054B032201
:100BD8001A60054AD2ED007AFCEEE77AC3ED027A94
:100BE800704700BF701D00206C1D002001230B7092
:100BF800002048708870C870486010238B60C860F7
:100C080000230B61014A4A618B6170470000C844A8
:100C180080F8381080F83920DFED267AB4EEE70A3C
:100C2800F1EE10FA33D9F2EE097AB4EEE70AF1EEF2
:100C380010FA30D9F3EE097AB4EEE70AF1EE10FAB9
:100C48002BD9DFED1D7AB4EEE70AF1EE10FA26D9BA
:100C5800DFED1A7AB4EEE70AF1EE10FA21D9DFEDEA
:100C6800187AB4EEE70AF1EE10FA1CD9DFED157A1E
:100C7800B4EEE70AF1EE10FA17D9DFED137AB4EE05
:100C8800E70AF1EE10FA12D817EE903A00E00F4B8F
:100C98004363002070470E4BFAE70E4BF8E70E4B04
:100CA800F6E70E4BF4E70E4BF2E70E4BF0E70E4B70
:100CB800EEE700BFCDCCCC3F000048420000C84260
:100CC800000048430000C84300004844CDCCCC3F56
:100CD800000048410000C841000048420000C842E6
:100CE800000048430000C8430000C84410B54469E8
:100CF800007BA04710BD10B50469007BA04710BD5C
:100D08002DE9F0412DED028B0446B0EE408A0D46E8
:100D180016464B1E032B03D8DFE803F0135B6B7CEE
:100D2800012E0BD04FF00408F2EE097AB4EEE78AF0
:100D3800F1EE10FA10D5B2EE098A0DE04FF0140862
:100D4800F2E7012E42D04FF00308DFED517AB4EEFE
:100D5800E78AF1EE10FA6EDCDFED4E7AB4EEE78A40
:100D6800F1EE10FA6AD9F2EE097AB4EEE78AF1EEFA
:100D780010FA79D9F3EE097AB4EEE78AF1EE10FAAF
:100D880074D9DFED457AB4EEE78AF1EE10FA6FD93F
:100D9800DFED427AB4EEE78AF1EE10FA6AD9DFEDB8
:100DA8003C7AB4EEE78AF1EE10FA65D9DFED3C7AC9
:100DB800B4EEE78AF1EE10FA60D9DFED3A7AB4EED4
:100DC800E78AF1EE10FA5BD8082138E04FF01308F3
:100DD800BBE7012E0AD08846DFED2D7AB4EEE78A0C
:100DE800F1EE10FAB8DD9FED2A8AB5E74FF0120848
:100DF800F2E7012E0BD04FF00108DFED257AB4EEB3
:100E0800E78AF1EE10FAA7DD9FED218AA4E74FF0FB
:100E18001108F2E7012E0BD04FF00008DFED1C7A25
:100E2800B4EEE78AF1EE10FA96DD9FED198A93E7A2
:100E38004FF01008F2E79FED168A8DE7012104F1C3
:100E48002007384600F0DDFBE0B94146384600F09F
:100E580031FBD0B984ED0D8A84F8385084F83960B4
:100E6800BDEC028BBDE8F0810221E8E70321E6E74B
:100E78000421E4E70521E2E70621E0E70721DEE7B0
:100E88000921DCE74FF0FF30EAE74FF0FF30E7E7F2
:100E980000004843CDCCCC3F000048420000C84287
:100EA8000000C8430000484490F83130012B0ED0B0
:100EB80010B5044690F8392090F8381090ED0D0AD6
:100EC800FFF71EFF28B9012384F8313010BD002038
:100ED80070474FF0FF30F9E790F831300BB9002038
:100EE800704710B504460021203000F08AFB10B985
:100EF80084F8310010BD4FF0FF30FBE710B5044611
:100F0800FFF7EAFF48B900236363002384F8383009
:100F180084F8393084F8303010BD4FF0FF30FBE7EB
:100F280038B5044600F120050121284600F074FC7C
:100F380010BB0121284600F0F2FB00BB0021284627
:100F480000F083FCF0B90421284600F0B3FAE0B9B8
:100F5800124B6363002184F8381084F8391028464E
:100F680000F04FFBA0B90021284600F0F1FB90B932
:100F7800012384F8303038BD4FF0FF30FBE74FF0E5
:100F8800FF30F8E74FF0FF30F5E74FF0FF30F2E7BA
:100F98004FF0FF30EFE74FF0FF30ECE70000C842BA
:100FA80008B5022905DD042909DD082909DC022123
:100FB80000E00021203000F0CBFB20B908BD012162
:100FC800F8E70321F6E74FF0FF30F7E708B52030E0
:100FD80000F01BFC00B908BD4FF0FF30FBE710B56F
:100FE80082B00C460DF10701203000F0CAFBC0B9F1
:100FF8009DF80730032B10D8DFE803F00206090C30
:101008000223236002B010BD04232360FAE70823FB
:101018002360F7E710232360F4E74FF0FF302060E8
:10102800F0E74FF0FF30EDE730B583B00D4600F143
:1010380020040DF10701204600F0A3FB00284CD145
:101048000DF10601204600F072FA002848D19DF8FB
:1010580006201B2A09D80123934003F01E3222F0F0
:1010680010220ABB13F0013F05D11F4B2B604FF034
:10107800FF3003B030BD9DF80730032B0FD8DFE8F1
:1010880003F00205080B194B2B60F2E7184B2B6095
:10109800EFE7184B2B60ECE7174B2B60E9E7124B97
:1010A8002B604FF0FF30E4E79DF80730032B0FD893
:1010B800DFE803F00205080B104B2B60D9E7104B53
:1010C8002B60D6E7094B2B60D3E7094B2B60D0E7A1
:1010D800054B2B604FF0FF30CBE74FF0FF30C8E7F0
:1010E8004FF0FF30C5E700BF000080BF23DB793F2A
:1010F80023DBF93F23DB794023DBF94023DB793E0F
:1011080023DBF93E30B583B00D4600F120040DF124
:101118000701204600F0ABFA002840F095800DF159
:101128000601204600F003FA002840F090809DF860
:101138000730222B00F28380DFE803F012162D30EF
:101148003336393C536A8181818181818181128161
:101158008181818181818181818181818181120067
:1011680000232B6003B030BD9DF806201B2A0AD847
:101178000123934013F00F3F02D0364B2B60F1E769
:1011880013F0101F04D1344B2B604FF0FF30E9E708
:10119800324B2B60E6E7314B2B60E3E7304B2B609B
:1011A800E0E7304B2B60DDE72F4B2B60DAE72F4B66
:1011B8002B60D7E79DF806201B2A0AD80123934005
:1011C80013F00F3F02D0294B2B60CBE713F0101F11
:1011D80004D1214B2B604FF0FF30C3E7244B2B6029
:1011E800C0E79DF806201B2A0AD80123934013F074
:1011F8000F3F02D01D4B2B60B4E713F0101F04D132
:10120800154B2B604FF0FF30ACE71A4B2B60A9E76A
:101218009DF806201B2A0AD80123934013F00F3F9C
:1012280002D0124B2B609DE713F0101F04D10A4B1C
:101238002B604FF0FF3095E70F4B2B6092E7064B82
:101248002B604FF0FF308DE74FF0FF308AE74FF00B
:10125800FF3087E7CDCCCC3F000080BF000048417D
:101268000000C841000048420000C842000048434E
:101278000000C843000048440000C84430B585B0A9
:101288000D4600F120040DF10701204600F04FF94A
:10129800002849D102A9204600F095FA002846D135
:1012A8009DF807201B2A45D80123934003F01E32DE
:1012B80022F01022FAB913F0013F02D14FF0FF30AB
:1012C80011E0BDF90830002B0FDB1B112B80BDF995
:1012D8000A30002B0BDB1B116B80BDF90C30002B87
:1012E80007DB1B11AB8005B030BD0F33EDE70F33C3
:1012F800F1E70F33F5E7BDF90830002B0EDB9B1043
:101308002B80BDF90A30002B0ADB9B106B80BDF9DE
:101318000C30002B06DB9B10AB80E4E70333EEE7D1
:101328000333F2E70333F6E74FF0FF30DBE74FF024
:10133800FF30D8E74FF0FF30D5E730B585B0054628
:101348000C460023019302A9FFF798FF60BB01A98F
:101358002846FFF769FE50BBBDF9083007EE103A82
:10136800B8EEC77ADDED017A27EE277ABDEEC77AA7
:1013780084ED007ABDF90A3007EE103AB8EEC77A64
:1013880027EE277ABDEEC77A84ED017ABDF90C30D5
:1013980007EE103AB8EEC77A67EE877AFDEEE77A7D
:1013A800C4ED027A05B030BD4FF0FF30FAE74FF0D8
:1013B800FF30F7E708B590F83130012B02D0FFF77E
:1013C80027FC08BDFFF79CFCFBE708B50022114687
:1013D800FFF7F0FF08BD00B583B08DF807200123A3
:1013E8000DF10702203000F04CF810B903B05DF899
:1013F80004FB4FF0FF30F9E700282BD010B5044666
:101408000B6803604A6842608A6882600A7B0273DC
:101418000A6902614A6942618A698261124A4262C2
:10142800124A0262CA698262C062B3B19847B8B907
:10143800A368022B00D010BD94F83030002BFAD1ED
:10144800052221212046FFF7C6FF0028F3D04FF0E0
:10145800FF30F0E74FF0FF3070474FF0FF30EAE71A
:101468004FF0FF30E7E700BFF50C0008FF0C00085D
:1014780020B110B54468C068A04710BD4FF0FF30D8
:10148800704720B110B50468C068A04710BD4FF080
:10149800FF30704707EE900AF8EEE77A9FED047A7E
:1014A80067EE877AB3EE090A37EE800A704700BF05
:1014B8000000803B30B583B005460C46012301AAE5
:1014C8002021FFF7D5FF034618B103B3184603B030
:1014D80030BDC4F381039DF8042063F383028DF8C3
:1014E8000420D3B264F301038DF80430012301AA68
:1014F80020212846FFF7C5FF03460028E6D101232F
:101508006A4625212846FFF7B3FF0346DDE7C4F303
:1015180000119DF8003061F382038DF8003001233B
:101528006A4625212846FFF7ACFF0346CEE730B5CB
:1015380083B004460D46012301AA2021FFF798FF36
:1015480008B103B030BD01236A4625212046FFF7C4
:101558008FFF9DF80010C1F380019DF8042002F070
:101568000C0303EB011302F0030213441B2B45D8B1
:10157800DFE803F01A1714110E4444442623201DF3
:101588004444444435322F2C29444444413E3B389A
:1015980004232B70D5E703232B70D2E702232B708B
:1015A800CFE701232B70CCE700232B70C9E70B236F
:1015B8002B70C6E70A232B70C3E709232B70C0E7FB
:1015C80008232B70BDE714232B70BAE713232B7065
:1015D800B7E712232B70B4E711232B70B1E7102360
:1015E8002B70AEE71B232B70ABE71A232B70A8E7F1
:1015F80019232B70A5E718232B70A2E704232B705F
:101608009FE730B583B005460C46012301AA202187
:10161800FFF72EFF034618B1CBB1184603B030BD13
:101628009DF8043064F307138DF80430012301AAF0
:1016380020212846FFF725FF03460028EDD1012386
:101648006A4622212846FFF713FF0346E4E7C4F35E
:1016580001119DF8003061F301038DF8003001237A
:101668006A4622212846FFF70CFF0346D5E730B526
:1016780083B004460D46012301AA2021FFF7F8FE96
:1016880008B103B030BD01236A4622212046FFF786
:10169800EFFE9DF8002002F003029DF804301B09BC
:1016A80003EB0213222B37D8DFE803F01215181BBF
:1016B8001E2124272A2D363636363636363630362B
:1016C80036363636363636363636363636363300EB
:1016D80000232B70D5E701232B70D2E702232B7050
:1016E800CFE703232B70CCE704232B70C9E705232E
:1016F8002B70C6E706232B70C3E707232B70C0E7C0
:1017080008232B70BDE709232B70BAE712232B702F
:10171800B7E722232B70B4E700232B70B1E730B56D
:1017280083B004460D46012301AA2121FFF7A0FE3C
:1017380008B103B030BD9DF8043065F3C3038DF8DC
:101748000430012301AA21212046FFF79AFEF0E781
:1017580030B583B004460D46012301AA2521FFF7C1
:1017680087FE08B103B030BD9DF8043065F305135A
:101778008DF80430012301AA25212046FFF781FEB8
:10178800F0E710B582B00C46012301AA2521FFF726
:101798006FFE9DF80430C3F30113032B10D8DFE864
:1017A80003F00206090C0023237002B010BD0123C8
:1017B8002370FAE702232370F7E703232370F4E783
:1017C80000232370F1E710B582B00C4606236A4661
:1017D8002821FFF74DFE9DF8012022809DF800305A
:1017E80003EB022323809DF8032062809DF80230DA
:1017F80003EB022363809DF80520A2809DF8043046
:1018080003EB0223A38002B010BD08B50A460123EA
:101818000F21FFF72DFE08BD30B583B004460D46F5
:10182800012301AA2121FFF723FE08B103B030BD2F
:101838009DF8043065F382038DF80430012301AA72
:1018480021212046FFF71DFEF0E730B583B004469E
:101858000D46012301AA2E21FFF70AFE08B103B0A5
:1018680030BD9DF8043065F347138DF8043001232B
:1018780001AA2E212046FFF704FEF0E70020087099
:10188800487001238B70C870486088603223CB6031
:1018980000230B614B61014B8B6170470000C8420C
:1018A8004FF07F530B600020704732230B600020FD
:1018B80070470020704710B584682CB9446941F01E
:1018C8008001007BA04710BD446941F04001007BC6
:1018D800A047F8E710B584682CB9046941F0800185
:1018E800007BA04710BD046941F04001007BA04780
:1018F800F8E790F83130012B0AD010B504460021E2
:10190800203000F04BF928B9012384F8313010BD9C
:10191800002070474FF0FF30F9E790F831300BB9ED
:101928000020704710B504460221203000F036F937
:1019380010B984F8310010BD4FF0FF30FBE710B547
:101948000446FFF7EAFF10B984F8300010BD4FF0E5
:10195800FF30FBE708B5F2EE047AB4EEE70AF1EEE1
:1019680010FA0FD9F3EE047AB4EEE70AF1EE10FAA2
:101978000ED9DFED0B7AB4EEE70AF1EE10FA09D8CA
:10198800022100E00021203000F021F920B908BD33
:101998000121F8E70321F6E74FF0FF30F7E700BF32
:1019A8000000484238B5044600F1200501212846C8
:1019B80000F048F990B90221284600F0EFF880B904
:1019C8000321284600F003F970B90021284600F0E9
:1019D8007BF960B9012384F8303038BD4FF0FF300F
:1019E800FBE74FF0FF30F8E74FF0FF30F5E74FF037
:1019F800FF30F2E708B5203000F05FF900B908BD04
:101A08004FF0FF30FBE7000010B582B00C460DF137
:101A18000701203000F0F4F8A0B99DF80730032B37
:101A280013D8DFE803F00206090C094B236002B063
:101A380010BD084B2360FAE7074B2360F7E7074B15
:101A48002360F4E74FF0FF30F1E74FF0FF30EEE7A7
:101A5800000020410000A041000048420000C842A8
:101A680010B582B00C466946203000F004F950B930
:101A7800BDF900302380BDF902306380BDF9043020
:101A8800A38002B010BD4FF0FF30FAE770B584B004
:101A980005460C460023019302A9203000F0EBF81C
:101AA80068BB064601A92846FFF7FAFEBDF90830CB
:101AB80007EE103AB8EEC77ADDED017A27EE277AFD
:101AC800BDEEC77A84ED007ABDF90A3007EE103A08
:101AD800B8EEC77A27EE277ABDEEC77A84ED017A89
:101AE800BDF90C3007EE103AB8EEC77A67EE877A80
:101AF800FDEEE77AC4ED027A304604B070BD4FF0CF
:101B0800FF36F9E7002829D010B504460B680360B2
:101B18004A6842608A6882600A7B02730A690261C5
:101B28004A6942618A698261114A4262114A0262C3
:101B3800CA698262C062A3B19847A8B9A36813B101
:101B480094F8303003B110BD012104F1200000F0F9
:101B5800D4F80028F7D04FF0FF30F4E74FF0FF300B
:101B680070474FF0FF30EEE74FF0FF30EBE700BF74
:101B7800BF180008DD18000820B110B54468C06817
:101B8800A04710BD4FF0FF30704720B110B5046872
:101B9800C068A04710BD4FF0FF30704730B583B024
:101BA80004460D46012301AA6021FFF7E5FF08B1AD
:101BB80003B030BD9DF8043065F301038DF804309F
:101BC800012301AA60212046FFF7DFFFF0E730B5C7
:101BD80083B004460D46012301AA6021FFF7CCFF1C
:101BE80008B103B030BD9DF8043065F383038DF868
:101BF8000430012301AA60212046FFF7C6FFF0E761
:101C080010B582B00C46012301AA6021FFF7B4FF8A
:101C18009DF80430C3F38103032B10D8DFE803F0E9
:101C28000206090C0023237002B010BD01232370A3
:101C3800FAE702232370F7E703232370F4E700236E
:101C48002370F1E730B583B004460D46012301AA9D
:101C58006221FFF791FF08B103B030BD9DF8043051
:101C680065F304138DF80430012301AA622120468C
:101C7800FFF78BFFF0E710B582B00C4606236A46E3
:101C88006821FFF779FF9DF8012022809DF8003038
:101C980003EB022323809DF8032062809DF8023025
:101CA80003EB022363809DF80520A2809DF8043091
:101CB80003EB0223A38002B010BD08B50A46012336
:101CC8004F21FFF759FF08BD30B583B004460D46D4
:101CD800012301AA6221FFF74FFF08B103B030BD0D
:101CE8009DF8043065F341038DF80430012301AAFF
:101CF80062212046FFF749FFF0E730B583B004467C
:101D08000D46012301AA6221FFF736FF08B103B08F
:101D180030BD9DF8043065F345138DF80430012378
:101D280001AA62212046FFF730FFF0E770B590B0B6
:101D3800044600230A93D7238DF82C30394B089397
:101D4800394B0993394B0D93394B0C93394B0E93FF
:101D5800394B0F9308A9394800F076FF002852D173
:101D68000021364800F0ACFF00284FD10DF11F01CB
:101D7800324800F0EDFC064600284AD19DF81F3095
:101D88006B2B49D12D4D6946284600F0AFFA9DF8D6
:101D980001209DF8003042EA43039DF8021043EA0F
:101DA800810327490B60274B1D60274B2749196082
:101DB80014F0010F01D0012A0CD014F0020F03D047
:101DC8009DF80030012B10D014F0040F27D13046B5
:101DD80010B070BD1E4B1F4A1A600B682846984702
:101DE8000028EAD06FF00406F1E7194B1A4A5A6046
:101DF800154B1B681B68134A106898470028E3D0E6
:101E08006FF00406E3E76FF00606E0E76FF00606FA
:101E1800DDE76FF00606DAE76FF00606D7E76FF042
:101E28000406D4E7C56C0008656B0008D96B000888
:101E38009D6B00088D6C0008D93E0008081E002024
:101E4800401E00207C1E00204C1E0020B0000020F8
:101E5800581E0020680000208C00002070B590B04B
:101E6800044600230A9333238DF82C30304B089313
:101E7800304B0993304B0D93304B0C93304B0E93F2
:101E8800304B0F9308A93048FFF7B6FA002842D123
:101E98000DF11F012C48FFF799F8054600283DD1A0
:101EA8009DF81F30442B3CD1274E69463046FEF73B
:101EB8009DFE9DF801209DF8001042EA41039DF81F
:101EC800020043EA800321484360214B5E60214BB6
:101ED8002148586014F0010F01D0012A18D014F0DD
:101EE800020F01D0012906D015B914F0040F1BD137
:101EF800284610B070BD194B194A1A61164B1B6859
:101F08001148984705460028EFD06FF00405EFE721
:101F18006FF00405E8E76FF00605E9E76FF00605DE
:101F2800E6E76FF00605E3E76FF00405E0E700BFBA
:101F3800C56C0008656B0008D96B00089D6B00082C
:101F48008D6C0008D93E0008CC1D0020401E0020E2
:101F58007C1E00204C1E002024000020581E00205B
:101F68000000002070B590B0044600230A933D237A
:101F78008DF82C302F4B08932F4B09932F4B0D9333
:101F88002F4B0C932F4B0E932F4B0F9308A92F48D1
:101F9800FFF7B8FD002841D10DF11F012B48FFF7CD
:101FA80029FD054600283CD19DF81F30402B3BD128
:101FB800264E69463046FFF761FC9DF801209DF8E2
:101FC800001042EA41039DF8020043EA80032048DA
:101FD8008360204B9E60204B2048986014F0010FCE
:101FE80001D0012A14D014F0020F01D001291ED00B
:101FF8005DB914F0040F08D0194B1A4A1A62174B2E
:102008001B6812489847054628B9284610B070BD85
:102018006FF00405ECE76FF00405F6E76FF00605CE
:10202800F3E76FF00605F0E76FF00605EDE76FF0F0
:102038000405EAE7C56C0008656B0008D96B000861
:102048009D6B00088D6C0008D93E0008981D002083
:10205800401E00207C1E00204C1E0020580000203E
:10206800581E0020340000202DE9F04188B00446B5
:102078000F46012830D0022855D010B16FF001006A
:1020880095E00846FFF752FE002840F09380524B37
:1020980053F82430DB6801A9504A52F824009847C5
:1020A800002840F08A809DF80430012B0BD0A04610
:1020B8009DF80530012B09D09DF80630012B08D07A
:1020C8000026012557E04FF00208F1E748F0010823
:1020D800F2E748F00408F3E70846FFF7BFFE0028D8
:1020E8006ED13D4B53F82430DB6801A93B4A52F8C6
:1020F80024009847002866D19DF80430012B0CD0A5
:102108004FF000089DF80530012B09D09DF80630E6
:10211800012BD5D148F00408D2E74FF00208F1E7C7
:1021280048F00108F2E70846FFF71CFF00284DD1E8
:10213800294B53F82430DB6801A9284A52F82400B7
:102148009847002845D19DF80430012B0CD04FF05A
:1021580000089DF80530012B08D09DF80630012BAA
:10216800AED148F00408ABE7A046F2E748F0010812
:10217800F3E76D000136022E18D835EA0703F8D1C7
:1021880035EA0803F5D1164B53F8252004EB440330
:102198001344144A52F823301B68104A52F824009A
:1021A80098470028E5D06FF0040000E0002008B050
:1021B800BDE8F0814FF0FF30F9E76FF00600F6E771
:1021C8004FF0FF30F3E76FF00600F0E74FF0FF3015
:1021D800EDE76FF00600EAE74C1E00207C1E0020A9
:1021E800D4980008581E002002281BD808B50B46B2
:1021F80011460F4A52F8202033EA020215D10D4A3F
:1022080052F8232000EB400313440B4A52F82330C2
:10221800DB690A4A52F82000984700B908BD6FF0F8
:102228000400FBE76FF0010070476FF00100F5E76D
:10223800401E0020D4980008581E00207C1E002054
:10224800022819D808B50F4B53F8203031EA030398
:1022580015D10D4B53F8212000EB400313440B4AD2
:1022680052F823301B690A4A52F82000984700B9EF
:1022780008BD6FF00400FBE76FF0010070476FF0D6
:102288000100F5E7401E0020D4980008581E0020E1
:102298007C1E002002281BD808B50B4611460F4AA1
:1022A80052F8202033EA020215D10D4A52F82320B1
:1022B80000EB400313440B4A52F823309B690A4A47
:1022C80052F82000984700B908BD6FF00400FBE7FA
:1022D8006FF0010070476FF00100F5E7401E002025
:1022E800D4980008581E00207C1E002001230B7083
:1022F8004B7000208870C8704FF47A634B601023CD
:102308008B60C860024B0B614B6100238B61704787
:102318000058D045F2EE097AB4EEE70AF1EE10FA69
:1023280039D9F3EE0A7AB4EEE70AF1EE10FA37D9A2
:10233800DFED237AB4EEE70AF1EE10FA32D9DFEDD9
:10234800217AB4EEE70AF1EE10FA2DD9DFED1E7A04
:10235800B4EEE70AF1EE10FA28D9DFED1C7AB4EEF4
:10236800E70AF1EE10FA23D9DFED197AB4EEE70A9D
:10237800F1EE10FA1ED9DFED177AB4EEE70AF1EEA6
:1023880010FA19D9DFED147AB4EEE70AF1EE10FA73
:1023980014D8092300E0012380F833300020704767
:1023A8000223F9E70323F7E70423F5E70523F3E717
:1023B8000623F1E70723EFE70823EDE70A23EBE716
:1023C800000050420000D042000050430000D043BB
:1023D800004050440040D04400405045F2EE097A95
:1023E800B4EEE70AF1EE10FA39D9F3EE0A7AB4EE50
:1023F800E70AF1EE10FA37D9DFED237AB4EEE70AEF
:10240800F1EE10FA32D9DFED217AB4EEE70AF1EEF7
:1024180010FA2DD9DFED1E7AB4EEE70AF1EE10FAC4
:1024280028D9DFED1C7AB4EEE70AF1EE10FA23D9C9
:10243800DFED197AB4EEE70AF1EE10FA1ED9DFEDF6
:10244800177AB4EEE70AF1EE10FA19D9DFED147A2B
:10245800B4EEE70AF1EE10FA14D8092300E00123DC
:1024680080F83430002070470223F9E70323F7E7A8
:102478000423F5E70523F3E70623F1E70723EFE74E
:102488000823EDE70A23EBE7000050420000D042A2
:10249800000050430000D043004050440040D04466
:1024A8000040504510B54469007BA04710BD10B5E9
:1024B8000469007BA04710BD90F83130012B0BD088
:1024C80010B5044690F83310203000F0F4FE28B917
:1024D800012384F8313010BD002070474FF0FF30E1
:1024E800F9E7000008B5F2EE097AB4EEE70AF1EE72
:1024F80010FA39D9F3EE0A7AB4EEE70AF1EE10FAD7
:1025080038D9DFED267AB4EEE70AF1EE10FA33D9BE
:10251800DFED237AB4EEE70AF1EE10FA2ED9DFEDFB
:10252800217AB4EEE70AF1EE10FA29D9DFED1E7A26
:10253800B4EEE70AF1EE10FA24D9DFED1C7AB4EE16
:10254800E70AF1EE10FA1FD9DFED197AB4EEE70ABF
:10255800F1EE10FA1AD9DFED177AB4EEE70AF1EEC8
:1025680010FA15D8092100E00121203000F0A3FE5F
:1025780080B908BD0221F8E70321F6E70421F4E752
:102588000521F2E70621F0E70721EEE70821ECE74D
:102598000A21EAE74FF0FF30EBE700BF00005042A6
:1025A8000000D042000050430000D0430040504497
:1025B8000040D0440040504508B590F83130012B18
:1025C80002D0FFF7A7FE08BDFFF78CFFFBE708B5B1
:1025D800022905DD042909DD082909DC032100E0B9
:1025E8000021203000F0F2FB20B908BD0221F8E7F5
:1025F8000121F6E74FF0FF30F7E790F83230012B72
:102608000BD010B5044690F83410203000F03AFF93
:1026180028B9012384F8323010BD002070474FF0EC
:10262800FF30F9E708B5F2EE097AB4EEE70AF1EE01
:1026380010FA39D9F3EE0A7AB4EEE70AF1EE10FA95
:1026480038D9DFED267AB4EEE70AF1EE10FA33D97D
:10265800DFED237AB4EEE70AF1EE10FA2ED9DFEDBA
:10266800217AB4EEE70AF1EE10FA29D9DFED1E7AE5
:10267800B4EEE70AF1EE10FA24D9DFED1C7AB4EED5
:10268800E70AF1EE10FA1FD9DFED197AB4EEE70A7E
:10269800F1EE10FA1AD9DFED177AB4EEE70AF1EE87
:1026A80010FA15D8092100E00121203000F0EAFED7
:1026B80080B908BD0221F8E70321F6E70421F4E711
:1026C8000521F2E70621F0E70721EEE70821ECE70C
:1026D8000A21EAE74FF0FF30EBE700BF0000504265
:1026E8000000D042000050430000D0430040504456
:1026F8000040D0440040504508B590F83230012BD6
:1027080002D0FFF76BFE08BDFFF78CFFFBE708B5AB
:102718007D290CDDFA2910DDB1F5FA7F0FDDB1F561
:102728007A7F0EDDB1F5FA6F0DDC0C2100E0022195
:10273800203000F0C3FB40B908BD0021F8E70421B0
:10274800F6E70821F4E70121F2E74FF0FF30F3E75D
:1027580008B5203000F0C1FC00B908BD4FF0FF30CB
:10276800FBE738B590F831300BB9002038BD044686
:1027780000F1200500F13301284600F062FB38B96A
:102788000021284600F097FD28B984F83100EDE7CC
:102798004FF0FF30EAE74FF0FF30E7E710B582B0BF
:1027A8000C460DF10701203000F04BFB002830D11A
:1027B8009DF807300B2B2FD8DFE803F0060A0D1021
:1027C8001316191C1F2225280023236002B010BDF0
:1027D800134B2360FAE7134B2360F7E7124B236090
:1027E800F4E7124B2360F1E7114B2360EEE7114B3E
:1027F8002360EBE7104B2360E8E7104B2360E5E725
:102808000F4B2360E2E70F4B2360DFE70E4B23609B
:10281800DCE74FF0FF30D9E74FF0FF30D6E700BFD5
:10282800000048410000D041000050420000D04262
:10283800000050430000D043004050440040D044C2
:10284800004050450058D045CDCCCC3F10B582B0A3
:102858000C460DF10701203000F0D1FAA0B99DF81F
:102868000730032B13D8DFE803F0020C0609094BE5
:10287800236002B010BD084B2360FAE7074B2360C2
:10288800F7E7074B2360F4E74FF0FF30F1E74FF02D
:10289800FF30EEE723DB793D23DBF93D23DB793E8F
:1028A80023DBF93E10B582B00C460DF1070120304C
:1028B80000F0A5FAA0B99DF80730032B13D8DFE87C
:1028C80003F0020C06090223236002B010BD0423A2
:1028D8002360FAE708232360F7E710232360F4E76F
:1028E8004FF0FF30F1E74FF0FF30EEE710B582B060
:1028F8000C466946203000F09CFB50B9BDF9003009
:102908002380BDF902306380BDF90430A38002B092
:1029180010BD4FF0FF30FAE730B585B005460C46DC
:102928000023019302A9203000F083FB60BB01A9BA
:102938002846FFF78BFF50BBBDF9083007EE103A69
:10294800B8EEC77ADDED017A27EE277ABDEEC77AB1
:1029580084ED007ABDF90A3007EE103AB8EEC77A6E
:1029680027EE277ABDEEC77A84ED017ABDF90C30DF
:1029780007EE103AB8EEC77A67EE877AFDEEE77A87
:10298800C4ED027A05B030BD4FF0FF30FAE74FF0E2
:10299800FF30F7E738B590F832300BB9002038BD72
:1029A800044600F1200500F13401284600F0CCFA75
:1029B80038B90021284600F065FD28B984F83200AE
:1029C800EDE74FF0FF30EAE74FF0FF30E7E710B5EB
:1029D8000446FFF7C6FE50B92046FFF7DBFF48B9AB
:1029E80084F8330084F8340084F8300010BD4FF0C8
:1029F800FF30FBE74FF0FF30F8E7000010B582B07A
:102A08000C460DF10701203000F09EFA00282DD168
:102A18009DF807300A2B2CD8DFE803F0060A0D10C2
:102A28001316191C1F2225000023236002B010BDB5
:102A3800114B2360FAE7114B2360F7E7104B236033
:102A4800F4E7104B2360F1E70F4B2360EEE70F4BE1
:102A58002360EBE70E4B2360E8E70E4B2360E5E7C6
:102A68000D4B2360E2E70D4B2360DFE74FF0FF30AB
:102A7800DCE74FF0FF30D9E7000048410000D041C3
:102A8800000050420000D042000050430000D043F4
:102A9800004050440040D044004050450058D045C4
:102AA80010B582B00C460DF10701203000F01FFA76
:102AB800F0B99DF807300C2B1DD8DFE803F00A1693
:102AC800071C0D1C1C1C101C1C1C13000C4B236029
:102AD80013E00C4B236010E00B4B23600DE00B4B15
:102AE80023600AE00A4B236007E00A4B236004E0F6
:102AF8004FF0FF3001E04FF0FF3002B010BD00BFD3
:102B080000008C4000000C4100008C4100000C4289
:102B180000008C4200000C4310B582B00C460DF149
:102B28000701203000F0E3F910BB9DF807300C2BAB
:102B380021D8DFE803F00A1907200D2020201120F2
:102B4800202015007D23236017E0FA23236014E07A
:102B58004FF4FA73236010E04FF47A7323600CE0AB
:102B68004FF4FA63236008E04FF47A63236004E0CB
:102B78004FF0FF3001E04FF0FF3002B010BD10B54C
:102B880082B00C466946203000F031FA50B9BDF9E0
:102B980000302380BDF902306380BDF90430A38082
:102BA80002B010BD4FF0FF30FAE730B585B00546EA
:102BB8000C460023019302A9203000F018FA60BBEC
:102BC80001A92846FFF76CFF50BBBDF9083007EE96
:102BD800103AB8EEC77ADDED017A27EE277ABDEE16
:102BE800C77A84ED007ABDF90A3007EE103AB8EEDC
:102BF800C77A27EE277ABDEEC77A84ED017ABDF948
:102C08000C3007EE103AB8EEC77A67EE877AFDEE19
:102C1800E77AC4ED027A05B030BD4FF0FF30FAE72D
:102C28004FF0FF30F7E700B583B08DF80720012398
:102C38000DF10702203000F0C0F810B903B05DF8BC
:102C480004FB4FF0FF30F9E700282BD010B50446FD
:102C58000B6803604A6842608A6882600A7B027374
:102C68000A6902614A6942618A698261124A42625A
:102C7800124A0262CA698262C062B3B19847B8B99F
:102C8800A368022B00D010BD94F83030002BFAD185
:102C98000C2212212046FFF7C6FF0028F3D04FF080
:102CA800FF30F0E74FF0FF3070474FF0FF30EAE7B2
:102CB8004FF0FF30E7E700BFAD240008B724000855
:102CC80008B5012902D0022900D00021203000F0E7
:102CD800EBF900B908BD4FF0FF30FBE738B5054602
:102CE80000F120040121204600F0C5F9D8BB0021DD
:102CF8002846FFF7E5FFC8BB0121204600F00DFA82
:102D0800B8BB0121204600F0EFF9A8BB01212046FD
:102D180000F003FA98BB0121204600F04FF988BB68
:102D28000021204600F012FA78BB042385F83330DE
:102D38000021204600F0BFFA50BB0021204600F0D9
:102D480045F840BB042385F834300021204600F0C4
:102D580099FB18BB0C21204600F0B0F808BB0123F2
:102D680085F8303038BD4FF0FF30FBE74FF0FF30CB
:102D7800F8E74FF0FF30F5E74FF0FF30F2E74FF09C
:102D8800FF30EFE74FF0FF30ECE74FF0FF30E9E7B7
:102D98004FF0FF30E6E74FF0FF30E3E74FF0FF304A
:102DA800E0E74FF0FF30DDE720B110B54468C068B8
:102DB800A04710BD4FF0FF30704720B110B5046830
:102DC800C068A04710BD4FF0FF30704730B583B0E2
:102DD80004460D46012301AA1021FFF7E5FF08B1BB
:102DE80003B030BD9DF8043065F383038DF80430DB
:102DF800012301AA10212046FFF7DFFFF0E710B5F5
:102E080082B00C46012301AA1021FFF7CDFF9DF8DF
:102E18000430C3F38103032B10D8DFE803F0020664
:102E2800090C0023237002B010BD01232370FAE7B8
:102E380002232370F7E703232370F4E700232370AA
:102E4800F1E710B582B00C46012301AA1021FFF763
:102E5800ABFF9DF804301B090B2B2CD8DFE803F0DF
:102E6800060A0D101316191C1F222528002323708B
:102E780002B010BD01232370FAE702232370F7E79D
:102E880003232370F4E704232370F1E70523237059
:102E9800EEE706232370EBE707232370E8E7082310
:102EA8002370E5E709232370E2E70A232370DFE7AD
:102EB8000B232370DCE700232370D9E730B583B0F8
:102EC80004460D46012301AA1121FFF76DFF08B141
:102ED80003B030BD9DF8043065F303038DF804306A
:102EE800012301AA11212046FFF767FFF0E710B57B
:102EF80082B00C46012301AA1121FFF755FF9DF866
:102F0800043003F00F030C2B1BD8DFE803F00B177A
:102F1800071A0E1A1A1A111A1A1A14000223237001
:102F280002B010BD00232370FAE704232370F7E7EB
:102F380008232370F4E70C232370F1E7012323709F
:102F4800EEE702232370EBE710B582B00C460123AD
:102F580001AA1121FFF728FF9DF804301B090A2B4D
:102F680029D8DFE803F0060A0D101316191C1F22D2
:102F780025000023237002B010BD01232370FAE757
:102F880002232370F7E703232370F4E70423237055
:102F9800F1E705232370EEE706232370EBE7072309
:102FA8002370E8E708232370E5E709232370E2E7A5
:102FB8000A232370DFE700232370DCE730B583B0F2
:102FC80004460D46012301AA1221FFF7EDFE08B1C0
:102FD80003B030BD9DF8043065F386138DF80430D6
:102FE800012301AA12212046FFF7E7FEF0E710B5FA
:102FF80082B00C4606236A462221FFF7D5FE9DF8CB
:10300800012022809DF8003003EB022323809DF8E5
:10301800032062809DF8023003EB022363809DF851
:103028000520A2809DF8043003EB0223A38002B0A0
:1030380010BD10B582B00C4606236A462821FFF75A
:10304800B3FE9DF8012022809DF8003003EB022397
:1030580023809DF8032062809DF8023003EB022351
:1030680063809DF80520A2809DF8043003EB0223BD
:10307800A38002B010BD30B583B004460D460123CD
:1030880001AA1821FFF790FE08B103B030BD9DF8E2
:10309800043065F341038DF80430012301AA182197
:1030A8002046FFF78AFEF0E730B583B004460D46A8
:1030B800012301AA1946FFF777FE08B103B030BD16
:1030C8009DF8043065F387138DF80430012301AAB5
:1030D80019462046FFF771FEF0E708B50A460123B6
:1030E8000F21FFF761FE08BD30B583B004460D46D9
:1030F800012301AA1221FFF757FE08B103B030BD22
:103108009DF8043065F300038DF80430012301AA0B
:1031180012212046FFF751FEF0E730B583B0044690
:103128000D46012301AA1221FFF73EFE08B103B0A4
:1031380030BD9DF8043065F382038DF80430012317
:1031480001AA12212046FFF738FEF0E730B583B018
:1031580004460D46012301AA0A21FFF725FE08B1FE
:1031680003B030BD9DF8043065F302038DF80430D8
:10317800012301AA0A212046FFF71FFEF0E738B510
:1031880004460D460221FFF78FFF034610B193B1A5
:10319800184638BD01232A4646212046FFF704FE7B
:1031A80003460028F4D10123EA1847212046FFF7F7
:1031B800FBFD0346EBE700212046FFF775FF0346BA
:1031C800E6E730B583B004460D460221FFF76CFFF1
:1031D80048B19DF80430C3F3C103032B1DD8DFE8C1
:1031E80003F00F131619012301AA5F212046FFF7E8
:1031F800DBFD0028EDD100212046FFF755FFE8E769
:1032080000232B7003B030BD01232B70FAE7022393
:103218002B70F7E703232B70F4E700232B70F1E7FB
:1032280030B583B004460D460221FFF73DFF08B1D3
:1032380003B030BD012301AA05212046FFF7B4FDE4
:103248000028F5D100212046FFF72EFF9DF8043015
:10325800C3F300132B70EBE730B583B005460C467B
:103268000221FFF721FF08B103B030BD012301AAF5
:1032780060212846FFF798FD0028F5D19DF8043015
:10328800C3F30113032B13D8DFE803F002090C0F73
:103298000023237000212846FFF706FFE4E70123F7
:1032A8002370F7E702232370F4E703232370F1E781
:1032B80000232370EEE7F0B583B005460C4601A95C
:1032C800FFF75DFF0246002860D19DF8041001F069
:1032D8000103C1F340000343C1F380000343C1F37A
:1032E800C0000343C1F300100343C1F3401003437C
:1032F800C1F38010034343EAD1139DF8051001F090
:1033080001000343C1F340000343C1F380000343BA
:10331800C1F3C0000343C1F300100343C1F34010DD
:103328000343C1F38010034353EAD11301D1264666
:103338002DE00DF103012846FFF743FF024678BB55
:103348009DF80330032B2DD8DFE803F002050C1598
:1033580054BB01261BE04CB3012C01D0264616E0D5
:10336800022614E024B3012C24D0022C01D02646D6
:103378000DE003260BE0FCB1022C1FD0032C1FD05C
:10338800012C01D0264602E0042600E02646002350
:103398008DF80230B2B1002A66D0104603B0F0BDF5
:1033A8002646F4E72646F2E72646F0E70226EEE749
:1033B8000326ECE70326EAE70426E8E70426E6E71F
:1033C8000426E4E70DF102012846FFF729FF02462B
:1033D8009DF80270012F09D0002ADED101236A4628
:1033E80010212846FFF7E0FC0246D4E70DF1010161
:1033F8002846FFF731FF02460028CED19DF801305C
:10340800032B21D8DFE803F002050C15F4B93E467A
:10341800E2E7ECB1012C01D02646DDE70226DBE726
:10342800C4B1012C18D0022C01D02646D4E70326BB
:10343800D2E79CB1022C13D0032C13D0012C01D05D
:103448002646C9E70426C7E72646C5E72646C3E752
:103458000226C1E70326BFE70326BDE70426BBE72C
:103468000426B9E70426B7E79DF8003066F307138A
:103478008DF8003001236A4610212846FFF79DFC8D
:1034880002468AE7F0B583B005460C4601A9FFF766
:1034980076FE0246002860D19DF8041001F0010371
:1034A800C1F340000343C1F380000343C1F3C000EC
:1034B8000343C1F300100343C1F340100343C1F3B6
:1034C8008010034343EAD1139DF8051001F0010071
:1034D8000343C1F340000343C1F380000343C1F336
:1034E800C0000343C1F300100343C1F3401003437A
:1034F800C1F38010034353EAD11301D126462DE0CE
:103508000DF103012846FFF75CFE024678BB9DF8E3
:103518000330032B2DD8DFE803F002050C1554BB4C
:1035280001261BE04CB3012C01D0264616E00226EA
:1035380014E024B3012C24D0022C01D026460DE03F
:1035480003260BE0FCB1022C1FD0032C1FD0012C4A
:1035580001D0264602E0042600E0264600238DF826
:103568000230B2B1002A66D0104603B0F0BD26463C
:10357800F4E72646F2E72646F0E70226EEE70326BA
:10358800ECE70326EAE70426E8E70426E6E704264C
:10359800E4E70DF102012846FFF742FE02469DF8D6
:1035A8000270012F09D0002ADED101236A461121B9
:1035B8002846FFF7F9FB0246D4E70DF1010128463A
:1035C800FFF74AFE02460028CED19DF80130032BB2
:1035D80021D8DFE803F002050C15F4B93E46E2E70E
:1035E800ECB1012C01D02646DDE70226DBE7C4B1A9
:1035F800012C18D0022C01D02646D4E70326D2E7A6
:103608009CB1022C13D0032C13D0012C01D02646D8
:10361800C9E70426C7E72646C5E72646C3E70226C4
:10362800C1E70326BFE70326BDE70426BBE7042658
:10363800B9E70426B7E79DF8003066F307138DF85D
:10364800003001236A4611212846FFF7B6FB0246DF
:103658008AE782B08DF804008DF805108DF80620F1
:103668008DF807309DED010A02B0704782B08DF8E1
:1036780004008DF805108DF806208DF807300198A4
:1036880002B0704710B50446837942790179C07851
:10369800FFF7ECFF214B1860A37A627A217AE07970
:1036A800FFF7D7FF1E4B83ED000AA37B627B217BCC
:1036B800E07AFFF7DBFF1B4B1860A37C627C217C60
:1036C800E07BFFF7C6FF184B83ED000AA37D627D00
:1036D800217DE07CFFF7CAFF144B1860A37E627E51
:1036E800217EE07DFFF7B5FF114B83ED000AA37F34
:1036F800627F217FE07EFFF7ACFF0E4B83ED000A6F
:1037080094F8223094F8212094F82010E07FFFF7F5
:10371800A0FF094B83ED000A10BD00BF641D002007
:10372800601D00205C1D0020581D0020541D002035
:10373800501D00204C1D00206C1D002038B505468A
:10374800114BD3ED007AF8EE677A87EE807ADFEDD9
:103758000F7A67EE277AFCEEE77A17EE904AB4F50F
:10376800803F01D34FF6FF74631C07EE903AF8EEE2
:10377800677AC7EE277A17EE900A05F055FDAC6216
:10378800E86201236B6138BDD0000020000080375B
:10379800F0EE407AB0EE420AF4EEE07AF1EE10FA7A
:1037A80001D4F0EE670AF4EEC10AF1EE10FA01D482
:1037B800B0EE601AB4EEE11AF1EE10FA01D4F0EEB0
:1037C800411AF4EEC01AF1EE10FA01D4B0EE610A13
:1037D800704700002DE9F041564C4FF0FF330322AB
:1037E8005549204603F050F8544D4FF0FF3304225A
:1037F8002946204603F048F84FF0FF330422A91861
:10380800204603F041F84FF0FF33042205F1080188
:10381800204603F039F84A4D4FF0FF330422294679
:10382800204603F031F84FF0FF330422A918204650
:1038380003F02AF84FF0FF33042205F1080120466F
:1038480003F022F83F4D4FF0FF330422294620466B
:1038580003F01AF84FF0FF330422A918204603F0AA
:1038680013F84FF0FF33042205F10801204603F056
:103878000BF84FF0FF3304223349204603F004F8D5
:10388800324D4FF0FF3304222946204602F0FCFF58
:103898004FF0FF330422A918204602F0F5FF4FF03D
:1038A800FF33042205F10801204602F0EDFF002451
:1038B8002DE0A60004EB84039900DFF89C804144C6
:1038C8001C4F4FF0FF3304220831384602F0DCFF6A
:1038D80033199D00083545444FF0FF33042205F1A4
:1038E8000801384602F0D0FF2644B10010314144A7
:1038F8004FF0FF3304221144384602F0C5FF4FF061
:10390800FF330422A918384602F0BEFF01343F2CC9
:10391800CFDD084C4FF0FF3304220D49204602F05A
:10392800B3FF4FF0FF3303220A49204602F0ACFFF1
:10393800BDE8F081EC230020C4000020E023002033
:10394800D4230020C8230020401D0020BC230020D1
:10395800881E0020C0000020B81E002010B5184C9A
:103968004FF0FF3326222146164802F0F3FF237852
:103978004A2B00D010BD63785F2BFBD1A378412B75
:10398800F8D10122104B1A702021104800F02EFDAA
:103998002046FFF777FE0E4B93ED002A0D4BD3ED33
:1039A800001A0D4B93ED001A0C4BD3ED000A0C4B8B
:1039B80093ED000AFFF7ECFE0A4B83ED000AD9E706
:1039C800901E0020EC2300208C1E002000000240E6
:1039D8006C1D00204C1D0020501D0020581D00208B
:1039E800601D0020481D00202DE9F0418AB0002408
:1039F800059406940794089409940094574B1A6BFD
:103A080042F004021A631A6B02F004020092009A50
:103A180001941A6B42F080021A631A6B02F080025A
:103A28000192019A02941A6B42F001021A631A6B0E
:103A380002F001020292029A03941A6B42F0020207
:103A48001A631A6B02F002020392039A04941A6B27
:103A580042F008021A631B6B03F008030493049BEB
:103A68003F4D22462021284600F0C0FC0122C021FB
:103A7800284600F0BBFCDFF8F480012240F2114137
:103A8800404600F0B3FC4FF4005305934FF48813FD
:103A980006930794334E05A9304600F0BFFA41F665
:103AA800FF73059303270697079405A9304600F08E
:103AB800B5FA49F6037305930697079405A92846AE
:103AC80000F0ACFA102305934FF4041306930794FF
:103AD80005A9284600F0A2FA202305930126069698
:103AE8000794089405A9284600F098FAC02305937E
:103AF80006960796089405A9284600F08FFA40F222
:103B08001143059306960796089405A9404600F0C8
:103B180085FA4FF2EE0305930697079405A94046E8
:103B280000F07CFA042305930697079405A90E482C
:103B380000F074FA224621460A2000F03DFA0A20D5
:103B480000F05EFA22462146282000F035FA2820A7
:103B580000F056FA0AB0BDE8F08100BF0038024014
:103B68000000024000080240000C0240000402402D
:103B780008B50268034B9A4200D008BD00F096F9D8
:103B8800FBE700BF0000014072B6FEE700B587B052
:103B9800002302930393049305930093019314481D
:103BA8004FF08042026040F2E73242608360C260B8
:103BB80003618023836102F023F990B94FF48053A5
:103BC800029302A90A4802F0C5F960B900230093DC
:103BD80001936946064802F0E5FB30B907B05DF885
:103BE80004FBFFF7D1FFFFF7CFFFFFF7CDFF00BFC3
:103BF8007C24002008B50D480D4B03604FF4E113F9
:103C080043604FF4805383604FF40053C3604FF414
:103C1800806303610C23436100238361C36102F065
:103C2800B1FD00B908BDFFF7AFFF00BFEC230020CE
:103C38000044004000B587B0002302930393049327
:103C48000593009301931348134A0260436083600D
:103C58004FF6FF72C26003618023836102F0D0F8DF
:103C680090B94FF48053029302A90A4802F072F9FE
:103C780060B90023009301936946064802F092FB5D
:103C880030B907B05DF804FBFFF77EFFFFF77CFF54
:103C9800FFF77AFF342400200004004000B595B0F7
:103CA8003022002108A804F0FDFF002303930493A9
:103CB80005930693079301931F4A116C41F08051B5
:103CC8001164126C02F080520192019A02931B4B0C
:103CD8001A6842F440421A601B6803F44043029396
:103CE800029B012308934FF48033099302220E921A
:103CF8004FF480030F9304231093642111911292BF
:103D0800139308A801F098FA88B90F2303930223A4
:103D18000493002305934FF48052069207930321DE
:103D280003A801F079FD20B915B05DF804FBFFF791
:103D38002BFFFFF729FF00BF00380240007000404A
:103D480008B500F099F8FFF7A9FFFFF74DFEFFF758
:103D58001DFFFFF74FFFFFF76DFF194B1B78012B76
:103D680002D0FFF7FBFDF8E7FCF730FFFCF7D4FEC5
:103D7800FCF75EFEFCF792FE4FF08040114B93ED8E
:103D8800000AFFF7DBFC1048104B93ED000AFFF721
:103D9800D5FC0F4801F0C6FE0E4801F0C3FE012213
:103DA80020210D4800F022FBFCF750FE0B4B1B783E
:103DB800012BF9D1FCF702FF084B00221A70F3E738
:103DC8008C1E0020481D0020000400406C1D0020AF
:103DD8007C24002034240020000002408D1E002096
:103DE800704710B5846801230088A047C0B210BD91
:103DF80010B582B08DF80720446801230DF1070241
:103E08000088A047C0B202B010BD10B544689BB28C
:103E18000088A047C0B210BD10B584689BB2008866
:103E2800A047C0B210BD0022914217D900B500EBDF
:103E3800020C10F802E09CF801301B0443EA0E6300
:103E48009CF802E043EA0E239CF803C043EA0C0303
:103E5800835004329142EAD85DF804FB704770B58C
:103E680004460E46C36898470546E3689847401BD2
:103E7800B042FAD3002070BD08B50B4B1A6842F463
:103E880000721A601A6842F480621A601A6842F472
:103E980080721A60032000F071F8002002F0FCFA2A
:103EA80001F038F9002008BD003C0240034A1168BF
:103EB800034B1B780B441360704700BFC4240020D9
:103EC800C8000020014B1868704700BFC4240020B8
:103ED80038B50446FFF7F6FF0546B4F1FF3F02D0B8
:103EE800044B1B781C44FFF7EDFF401BA042FAD39C
:103EF80038BD00BFC8000020002807DB00F01F0203
:103F0800400901239340024A42F82030704700BF1D
:103F180000E100E0002808DB0901C9B200F16040B7
:103F280000F5614080F80013704700F00F000901A8
:103F3800C9B2014B1954704714ED00E000B500F008
:103F48000700C0F1070CBCF1040F28BF4FF0040CA8
:103F5800031D062B0FD9C31E4FF0FF3E0EFA0CF0BF
:103F680021EA000199400EFA03FE22EA0E0241EA14
:103F780002005DF804FB0023EEE7000010B50446DC
:103F8800C31E042B0FD80A4AD36823F4E0631B042A
:103F98001B0C240204F4E064234343F0BF6343F49E
:103FA8000033D36010BD90210248FFF719FFEAE7FC
:103FB80000ED00E0F898000870B506460C46154676
:103FC8000F2A0ED80F2C11D80B4BD8682A46214639
:103FD800C0F30220FFF7B2FF01463046FFF79AFF11
:103FE80070BDA8210548FFF7FBFEEBE7A9210348B0
:103FF800FFF7F6FEE8E700BF00ED00E0F8980008DC
:1040080010B5041E03DB2046FFF776FF10BDBC2168
:104018000148FFF7E5FEF6E7F89800082DE9F041BA
:1040280082B007460E469B4B984217D003F5806333
:10403800984213D003F5806398420FD003F580634C
:1040480098420BD003F58063984207D003F540638C
:10405800984203D0AC219048FFF7C2FE33689AB269
:1040680012B1B3F5803F03D3AD218B48FFF7B8FEFB
:104078007368012B10D9B3F5041F0DD011D8B3F50F
:10408800881F09D003D9B3F5901F05D012E0032B80
:1040980004D9113B012B0DD800248AE0022B09D347
:1040A800FAE7B3F5441FF7D0B3F5481FF4D0B3F5DA
:1040B800081FF1D0AE217848FFF792FEECE7F368CD
:1040C800032B13D8BA68610003238B4022EA03024A
:1040D800F3688B401343BB607A6822EA0502736871
:1040E800C3F30013A34013437B6073E0C0216A4805
:1040F800FFF776FEE6E7D1216748FFF771FE71E02A
:10410800336943B10F2B17D849F2F67222FA03F339
:1041180013F0010F10D0E208083257F8220004F01B
:10412800070189000F238B4020EA030033698B4085
:10413800034347F8223065E0DE215748FFF750FE79
:10414800E9E7042300E000238B400343023253498C
:1041580041F82230524B9A686FEA080322EA0801B4
:10416800706810F4801F01D048EA02014C4A91603F
:10417800D26803EA0201706810F4001F01D048EA0F
:104188000201474AD160526803EA0201706810F4DC
:10419800003F01D048EA0201414A516012681340C9
:1041A800716811F4803F01D048EA02033C4A136069
:1041B80001340F2C6BD80125A540336803EA0508A4
:1041C80035EA0303F4D1736803F00303013B012BC1
:1041D8007FF675AF736803F00303032B0CD0B36845
:1041E800022B88D8FA68610003238B4022EA030275
:1041F800B3688B401343FB60736803F00303022B1F
:104208003FF47EAF3A68610003238B4022EA030241
:10421800736803F003038B4013433B60736813F424
:10422800403FC5D0002301931E4B5A6C42F4804294
:104238005A645B6C03F480430193019BA208911CB0
:10424800164B53F8210004F0030189000F238B401B
:1042580020EA03000F4B9F423FF475AF03F58063DC
:104268009F420ED003F580639F420CD003F5806314
:104278009F420AD003F580639F423FF462AF072351
:1042880062E7012360E702235EE703235CE702B0ED
:10429800BDE8F08100000240309900080038014074
:1042A800003C014000380240F8B504460D464B4B2F
:1042B800984218D003F58063984214D003F58063C0
:1042C800984210D003F5806398420CD003F58063C0
:1042D800984208D003F54063984204D04FF4977190
:1042E8003F48FFF77DFD00232AE0042600E0002672
:1042F80006FA01F1814255D020685E000321B140E1
:1043080020EA01002060D808083054F8206003F043
:10431800070E4FEA8E0E4FF00F0C0CFA0EFC26EA31
:104328000C0644F82060E06820EA0100E06060685C
:1043380020EA02026260A26822EA0102A260013356
:104348000F2B4AD801229A4002EA050C32EA0501ED
:10435800F5D14FEA930E0EF10200224951F82000E0
:1043680003F0030189000F2606FA01F738401B4EB7
:10437800B442BCD006F58066B4420DD006F580661E
:10438800B4420BD006F58066B44209D006F58066C3
:10439800B442AAD00726ABE70126A9E70226A7E779
:1043A8000326A5E71049086820EA0C000860486859
:1043B80020EA0C004860C86820EA0C00C8608868D9
:1043C80020EA0C008860074E0EF1020156F8210021
:1043D80020EA070046F821008EE7F8BD00000240F9
:1043E8003099000800380140003C014070B505468E
:1043F80014460E4621B1012C08D86CB1AE6170BDCF
:1044080040F29D110648FFF7EBFCF4E74FF4CF713B
:104418000348FFF7E5FCF0E73604AE61EFE700BFBD
:104428003099000838B505460C4641B16B6904EA75
:10443800030224EA030444EA0244AC6138BD4FF4A1
:10444800DB710248FFF7CCFCF0E700BF30990008A9
:104458007047000008B5054B5B69034200D108BDF1
:10446800024B5861FFF7F4FFF9E700BF003C014039
:1044780003685A6912F4806F01D1002070476FF405
:1044880080625A6100230363202280F83D2080F86F
:104498003E30026C42F00402026480F83C30012095
:1044A80070472DE9F04106460C46174698463BE012
:1044B800FFF708FD069BC01A404502D8B8F1000F67
:1044C80032D1012D18D033689B6924EA03039BB2CB
:1044D800B3FA83F35B099F4226D10023336320227A
:1044E80086F83D2086F83E30326C42F02002326475
:1044F80086F83C30012027E033685B6924EA03032F
:104508009BB2B3FA83F35B09E5E733685B6924EA96
:10451800030C1FFA8CFCBCFA8CFC4FEA5C1C674548
:1045280011D1B8F1FF3FC3D1C4F30745012DECD039
:1045380033689B6924EA030C1FFA8CFCBCFA8CFCD8
:104548004FEA5C1CEBE70020BDE8F0812DE9F84359
:1045580005460E469046994653E01A6842F40072A2
:104568001A602B686FF480625A6100232B63202243
:1045780085F83D2085F83E302A6C42F004022A6412
:1045880085F83C3001204AE0FFF79CFCA0EB0900CD
:10459800404502D8B8F1000F33D1012F17D02B684E
:1045A8009B6926EA03039BB2003B18BF012343B370
:1045B80000232B63202285F83D2085F83E302A6CA5
:1045C80042F020022A6485F83C30012027E02B685D
:1045D8005B6926EA03039BB2003B18BF0123E6E7A9
:1045E8002B689C6926EA0404A4B2003C18BF012485
:1045F800A4B12B685A6912F4806FAED1B8F1FF3FAD
:10460800C2D1C6F30747012FEAD12B685C6926EAB5
:104618000404A4B2003C18BF0124E9E70020BDE867
:10462800F88370B504460D46164623685B6913F097
:10463800800F21D12046FFF71BFFF8B9B5F1FF3FE6
:10464800F3D0FFF73FFC801BA84201D8002DECD126
:1046580023685B6913F0800FE7D1002323632022CE
:1046680084F83D2084F83E30226C42F02002226417
:1046780084F83C30012000E0002070BD0120FCE7F8
:104688002DE9F04385B004460D4691461F46DDF8F6
:1046980030800D9E0368196841F480711960009696
:1046A800434600224FF00111FFF7FBFE60B9236873
:1046B80005F0FE051D613346424626492046FFF7B0
:1046C80045FF68B1012008E023681B6813F4807F68
:1046D80002D04FF400732364032005B0BDE8F083D3
:1046E8000023039323685A6903929B690393039BEE
:1046F800324641462046FFF794FF30B9012F0FD1CB
:1047080023685FFA89F61E61E7E7236C042B01D062
:104718000120E2E72268136843F400731360F7E7A7
:1047280023684FEA19221A61324641462046FFF7AC
:1047380078FF20B923685FFA89F61E61CDE7236CFC
:10474800042B01D00120C8E72268136843F40073E2
:104758001360F7E7020001002DE9F04784B0044632
:104768000D46164699460C9FDDF83480026813689A
:1047780043F4806313600368196841F48071196019
:10478800CDF800803B4600224FF00111FFF789FE6B
:1047980070B95FFA85FA236805F0FE051D61434686
:1047A8003A4641492046FFF7D1FE68B1012008E0AA
:1047B80023681B6813F4807F02D04FF400732364CE
:1047C800032004B0BDE8F0870023039323685A69E7
:1047D80003929B690393039B424639462046FFF7A1
:1047E80020FF80B9B9F1010F18D12368F6B21E6114
:1047F800424639462046FFF714FF68B3236C042B62
:1048080024D00120DDE7236C042B01D00120D8E758
:104818002268136843F400731360F7E72368320AC9
:104828001A61424639462046FFF7FBFE18B923684D
:10483800F6B21E61DCE7236C042B01D00120C0E72F
:104848002268136843F400731360F7E7226813685B
:1048580043F400731360D4E72268136843F4807349
:104868001360CDF800803B4600224FF0011120462E
:10487800FFF717FE68B922684AF00103136143463F
:104888003A4609492046FFF761FE002899D00120E1
:1048980097E723681B6813F4807F02D04FF40073F6
:1048A800236403208DE700BF0200010070B50446B1
:1048B8000D46164623685B6913F0040F21D1204684
:1048C800FFF7D6FDF8B9B5F1FF3FF3D0FFF7FAFAD5
:1048D800801BA84201D8002DECD123685B6913F036
:1048E800040FE7D100232363202284F83D2084F8B5
:1048F8003E30226C42F02002226484F83C300120D1
:1049080000E0002070BD0120FCE770B504460D46AC
:10491800164614E06FF010025A6100232363202228
:1049280084F83D2084F83E30226C226484F83C30C0
:10493800012025E023685B6913F0400F10D023683D
:10494800586910F0400F1AD1586910F0100FE1D1D2
:10495800FFF7B8FA801BA842ECD8002DEFD1E9E7A1
:1049680000232363202284F83D2084F83E30226C03
:1049780042F02002226484F83C30012000E000204C
:1049880070BD7047002800F0338170B50446036895
:10499800994A93420CD002F58062934208D002F5FE
:1049A8008062934204D040F2C9119448FFF718FA84
:1049B8006368013B924A93426ED8A36813B1B3F57A
:1049C800804F6FD1E368B3F5806F71D22369B3F577
:1049D800804F02D0B3F5404F70D16369012B73D873
:1049E800A36933F0FE0375D1E3690BB1402B77D18E
:1049F800236A0BB1802B79D194F83D30002B7BD002
:104A0800242384F83D302268136823F001031360DF
:104A18002268136843F4004313602268136823F480
:104A28000043136001F010F86268764B9A4269D827
:104A3800754B98428CBF00230123002B40F0DA808D
:104A48007249A1FB00318B0C25686A6822F03F028D
:104A580042EA91426A6021680A6A22F03F02666867
:104A6800684DAE4254D8013313430B622168CA69BA
:104A780022F44F4222F0FF026568624B9D4251D8F2
:104A8800431E6D00B3FBF5F3013340F6FC7003429F
:104A98007ED0C3F30B037CE04FF4E5715748FFF772
:104AA8009FF98AE740F2CB115448FFF799F989E753
:104AB8004FF4E6715148FFF793F987E740F2CD11BB
:104AC8004E48FFF78DF988E74FF4E7714B48FFF739
:104AD80087F985E740F2CF114848FFF781F983E766
:104AE8004FF4E8714548FFF77BF981E740F2D111AF
:104AF8004248FFF775F97FE784F83C302046FFF716
:104B080040FF7DE7424B98428CBF0023012394E786
:104B18004FF4967505FB03F33E4DA5FB03539B0924
:104B28000133A1E7A668C6B9431E05EB450CB3FBE4
:104B3800FCF30133C3F30B03B3FA83F35B09002BD4
:104B480054D1C6B9431E05EB4505B3FBF5F3013354
:104B5800C3F30B0343F400431BE0431E05EB850C32
:104B68000CEB8C0CB3FBFCF30133C3F30B03B3FA6C
:104B780083F35B09E3E7431E05EB850505EB850534
:104B8800B3FBF5F30133C3F30B0343F4404300E0F5
:104B980004231A43CA6121680B6823F0C003E26941
:104BA800206A024313430B6021688B6823F4034394
:104BB80023F0FF032269E068024313438B602168F6
:104BC800CB6823F0FF036269A06902431343CB60FB
:104BD8002268136843F00103136000202064202337
:104BE80084F83D30206384F83E0070BD0123D0E78F
:104BF800012070470120F8E7005400406899000838
:104C08007F1A0600A08601007F841E0083DE1B43F6
:104C1800FF083D00D34D62107047000038B310B54F
:104C280004460368134A93420CD002F5806293420B
:104C380008D002F58062934204D040F239210E4830
:104C4800FFF7CEF8242384F83D302268136823F058
:104C5800010313602046FFF7DFFF0020206484F87B
:104C68003D00206384F83E0084F83C0010BD01201C
:104C7800704700BF00540040689900082DE9F043D0
:104C880083B00446884691461F460C9EFFF71AF9E2
:104C98000546012F01D0102F08D194F83D30DBB222
:104CA800202B09D0022003B0BDE8F08340F6CD11D7
:104CB8004E48FFF795F8F0E70095192301224C4973
:104CC8002046FFF7EEFB002840F0898094F83C303E
:104CD800012B00F08680012384F83C3023681A6891
:104CE80012F0010F03D11A6842F001021A6022681B
:104CF800136823F400631360212384F83D304023B4
:104D080084F83E30002323640A9B6362BDF82C308C
:104D18006385638D2385374BE362019500963B4697
:104D28004A4641462046FFF7ABFC00285BD1238D5D
:104D3800002B35D02A4631462046FFF772FC20BBAF
:104D4800626A236812781A61626A531C6362218D51
:104D5800013989B22185638D9BB2013B9BB2638582
:104D68002368586910F0040FE1D00029DFD0527889
:104D78001A61636A01336362238D013B2385638D66
:104D88009BB2013B9BB26385D1E7236C042B01D016
:104D9800012088E72268136843F400731360F7E77B
:104DA8002A4631462046FFF781FD50B1236C042B7B
:104DB80001D0012077E72268136843F40073136079
:104DC800F7E72268136843F400731360202384F81C
:104DD8003D30002384F83E3084F83C3063E70220FD
:104DE80061E702205FE701205DE700BF68990008DE
:104DF800020010000000FFFF2DE9F04387B00446D1
:104E0800884691461F46109EFFF75CF80546012F1D
:104E180001D0102F09D194F83D30DBB2202B0AD0F5
:104E28000227384607B0BDE8F08340F648218C4891
:104E3800FEF7D6FFEFE7009519230122894920469E
:104E4800FFF72FFB002840F04F8194F83C30012BEE
:104E580000F04C81012384F83C3023681A6812F072
:104E6800010F03D11A6842F001021A602268136820
:104E780023F400631360222384F83D30402384F830
:104E88003E30002323640E9B6362BDF83C3063858B
:104E9800638D2385744BE362019500963B464A4631
:104EA80041462046FFF758FC0746002840F020817D
:104EB800238D5BB9029323685A6902929A69029218
:104EC800029A1A6842F400721A6075E0012B0AD03F
:104ED800022B1AD00023059323685A6905929B690F
:104EE8000593059B68E02268136823F480631360C8
:104EF8000023039323685A6903929A690392039AD9
:104F08001A6842F400721A6056E02268136823F4A3
:104F1800806313602268136843F4006313600023FE
:104F2800049323685A6904929B690493049B43E0A1
:104F38002A4631462046FFF7E8FC002840F0DA8090
:104F480023681A69636A1A70636A01336362238D7E
:104F5800013B2385638D9BB2013B9BB263852BE0AC
:104F680000953346002241492046FFF79AFA002867
:104F780040F0C2802268136843F40073136023680A
:104F88001A69636A1A70626A531C6362238D013B53
:104F98002385638D9BB2013B9BB2638523681B69A4
:104FA8005370636A01336362238D013B2385638DEC
:104FB8009BB2013B9BB26385238D002B00F08B8055
:104FC800032B55D8012BB3D0022BC9D000953346FB
:104FD800002226492046FFF764FA002840F08E8018
:104FE8002268136823F48063136023681A69636A6C
:104FF8001A70636A01336362238D013B2385638DD5
:105008009BB2013B9BB2638500953346002217494A
:105018002046FFF746FA002872D12268136843F445
:105028000073136023681A69636A1A70626A531CF2
:105038006362238D013B2385638D9BB2013B9BB249
:10504800638523681B695370636A01336362238D28
:10505800013B2385638D9BB2013B9BB26385ABE724
:1050680068990008020010000000FFFF040001001A
:105078002A4631462046FFF748FC002842D12368DB
:105088001A69636A1A70636A01336362228D013A8E
:1050980092B22285638D9BB2013B9BB263852368E4
:1050A800596911F0040F87D0032A0FD023681A69B1
:1050B800636A1A70636A01336362238D013B238537
:1050C800638D9BB2013B9BB2638575E71A6822F436
:1050D80080621A60EAE7202384F83D30002384F8D0
:1050E8003E3084F83C309CE602279AE6022798E690
:1050F800012796E6012794E6012792E6012790E624
:1051080001278EE601278CE690F83D007047006C79
:105118007047000000B583B0002100910C4B5A6C19
:1051280042F480425A645A6C02F480420092009A17
:1051380001911A6C42F080521A641B6C03F0805380
:105148000193019B0720FEF719FF03B05DF804FBEC
:105158000038024000B583B00368B3F1804F05D032
:10516800174A934217D003B05DF804FB0021009161
:1051780003F50E331A6C42F001021A641B6C03F03B
:1051880001030093009B0A461C20FEF715FF1C2014
:10519800FEF736FFE7E7002101910A4B1A6C42F04F
:1051A80002021A641B6C03F002030193019B0A4676
:1051B8001D20FEF701FF1D20FEF722FFD3E700BFE9
:1051C800000400400038024000B589B00023039372
:1051D80004930593069307930268154B9A4202D0ED
:1051E80009B05DF804FB0021019103F5FA331A6C4C
:1051F80042F400321A641A6C02F400320192019AE5
:1052080002911A6B42F001021A631B6B03F001034F
:105218000293029B0C230393022304930323069314
:105228000723079303A90348FEF7F8FED8E700BF52
:105238000044004000000240002800F0618270B580
:1052480082B0044603680F2B39D8236813F0010F86
:105258004DD063682BB1B3F5803F02D0B3F5A02FD2
:1052680032D1804B9B6803F00C03042B36D07D4B66
:105278009B6803F00C03082B2BD06368B3F5803FC1
:105288005FD0B3F5A02F62D0764B1A6822F4803233
:105298001A601A6822F480221A606368002B60D0B2
:1052A800FEF710FE05466F4B1B6813F4003F1ED136
:1052B800FEF708FE401B6428F5D9032027E2E62103
:1052C8006948FEF78DFDC0E7EB216748FEF788FDCA
:1052D800C7E7644B5B6813F4800FCED0614B1B6843
:1052E80013F4003F03D06368002B00F00B8223689F
:1052F80013F0020F66D0E368012B41D823691F2BF6
:1053080044D8584B9B6813F00C0F4AD0554B9B68F8
:1053180003F00C03082B3FD0E368002B77D0534BE6
:1053280001221A60FEF7CEFD05464E4B1B6813F0AE
:10533800020F63D1FEF7C6FD401B0228F5D90320F2
:10534800E5E1484A136843F480331360A5E7454B09
:105358001A6842F480221A601A6842F480321A608D
:105368009BE7FEF7AFFD05463E4B1B6813F4003F75
:10537800BDD0FEF7A7FD401B6428F5D90320C6E180
:1053880040F21D113848FEF72BFDB7E74FF48F7137
:105398003548FEF725FDB4E7324B5B6813F4800F00
:1053A800BAD1304B1B6813F0020F03D0E368012B0E
:1053B80040F0AA812B4A136823F0F803216943EAD5
:1053C800C1031360236813F0080F51D06369012BE0
:1053D8002FD863699BB3254B0122C3F8802EFEF7B3
:1053E80071FD05461F4B5B6F13F0020F40D1FEF7AE
:1053F80069FD401B0228F5D9032088E1194A136882
:1054080023F0F803216943EAC1031360DAE7174B75
:1054180000221A60FEF756FD0546124B1B6813F072
:10542800020FCFD0FEF74EFD401B0228F5D903200E
:105438006DE14FF4AF710C48FEF7D2FCC9E70B4B96
:105448000022C3F8802EFEF73DFD0546054B5B6F35
:1054580013F0020F0CD0FEF735FD401B0228F5D9DA
:10546800032054E100380240A09900080000474298
:10547800236813F0040F7CD0A368012B01D9052BF6
:1054880038D1A54B1B6C13F0805F39D100230193F1
:10549800A14B1A6C42F080521A641B6C03F08053C3
:1054A8000193019B01259D4B1B6813F4807F29D034
:1054B800A368012B3AD0052B3ED0974B1A6F22F0E8
:1054C80001021A671A6F22F004021A67A368002BF8
:1054D8003CD0FEF7F7FC06468F4B1B6F13F0020F0C
:1054E80045D1FEF7EFFC801B41F288339842F3D98F
:1054F80003200CE14FF4C5718948FEF771FCC0E741
:105508000025D0E7854A136843F480731360FEF7DB
:10551800D9FC0646814B1B6813F4807FC8D1FEF77F
:10552800D1FC801B0228F5D90320F0E07A4A136FDA
:1055380043F001031367C9E7774B1A6F42F004027F
:105548001A671A6F42F001021A67BFE7FEF7BAFC42
:105558000646714B1B6F13F0020F08D0FEF7B2FC22
:10556800801B41F288339842F3D90320CFE0002D05
:105578003FD1A369022B42D8A369002B00F0C68053
:10558800654A926802F00C02082A00F09480022B07
:105598007DD1E36913B1B3F5800F36D1236A023B9D
:1055A8003D2B38D8636A323BB3F5BF7F39D8A36A3D
:1055B800022B08D0082B3AD84FF4A87222FA03F32A
:1055C80013F0010F33D0E36A023B0D2B35D8554B4E
:1055D80000221A66FEF776FC05464F4B1B6813F04F
:1055E800007F30D0FEF76EFC401B0228F5D903205F
:1055F8008DE0494A136C23F080531364B9E740F2F5
:10560800CD114748FEF7ECFBB6E74FF4EB71444881
:10561800FEF7E6FBC2E740F2D7114148FEF7E0FB90
:10562800C0E74FF4EC713E48FEF7DAFBBFE740F203
:10563800D9113B48FEF7D4FBC5E74FF4ED71384864
:10564800FEF7CEFBC3E7E369226A1343626A43EAC3
:105658008213A26A5208013A43EA0243E26A43EA21
:1056680002632D4A53602F4B01221A66FEF72AFC6B
:105678000446294B1B6813F0007F06D1FEF722FC75
:10568800001B0228F5D9032041E000203FE0254B0C
:1056980000221A66FEF716FC04461F4B1B6813F01F
:1056A800007F06D0FEF70EFC001B0228F5D9032068
:1056B8002DE000202BE0012B2BD0174B5B6803F467
:1056C8008001E26991422FD103F03F02216A8A42A8
:1056D8002CD1616A47F6C0721A40B2EB811F27D1FC
:1056E80003F44031A26A5208013AB1EB024F21D1CA
:1056F80003F07063E26AB3EB026F1DD1002006E08D
:1057080001207047012002E0012000E0002002B0E3
:1057180070BD0120FBE700BF003802400070004068
:10572800A0990008000047420120F0E70120EEE7B9
:105738000120ECE70120EAE70120E8E708B5334B50
:105748009B6803F00C03042B5BD0082B5BD12F4B19
:105758005A6802F03F025B6813F4800F2CD02B4B81
:105768005868C0F388104FEA401CBCEB000C6EEB85
:105778000E0E4FEA8E1343EA9C634FEA8C11B1EB8D
:105788000C0163EB0E03DB0043EA5173C90011EB14
:10579800000C43F10003590200234FEA4C2041EA70
:1057A800DC51FAF7F5FC194B5B68C3F3014301338D
:1057B8005B00B0FBF3F027E0144B5868C0F3881087
:1057C8004FEA401CBCEB000C6EEB0E0E4FEA8E133A
:1057D80043EA9C634FEA8C11B1EB0C0163EB0E03B7
:1057E800DB0043EA5173C90011EB000C43F10003DD
:1057F800990200234FEA8C2041EA9C51FAF7C8FC31
:10580800D1E7034800E0034808BD00BF0038024064
:1058180000127A000024F400002800F0FA8070B525
:105828000D4604460368013B0E2B30D8072D34D8AB
:105838007C4B1B6803F00703AB4208D2EBB2794AF2
:105848001370136803F00703AB4240F0E480236849
:1058580013F0020F32D013F0040F04D0724A936889
:1058680043F4E0539360236813F0080F04D06E4AA2
:10587800936843F460439360A368C3B1C02B16D008
:1058880049D8A02B13D00ED9B02B10D049E040F244
:105898005A216648FEF7A4FAC8E740F25B2163483C
:1058A800FEF79EFAC4E7802B01D0902B39D15E4ACF
:1058B800936823F0F003A1680B439360236813F007
:1058C800010F48D06368032B31D86368012B34D0AB
:1058D8009A1E012A38D9544A126812F0020F00F0B1
:1058E8009C8051498A6822F0030213438B60FEF7BB
:1058F800E9FA06464C4B9B6803F00C036268B3EB6D
:10590800820F28D0FEF7DEFA801B41F288339842D6
:10591800F0D9032070E0E02BC9D0F02BC7D0D02BF2
:10592800C5D040F27E214148FEF75AFABFE740F25F
:1059380085213E48FEF754FAC7E73B4A126812F43D
:10594800003FCED1012057E0374A126812F0007F9D
:10595800C7D1012050E0334B1B6803F00703AB426B
:1059680007D9EAB22F4B1A701B6803F00703AB4242
:1059780055D1236813F0040F14D0E3685BB1B3F575
:10598800805F08D0B3F5A05F05D0B3F5C05F02D043
:10599800B3F5E05F31D1244A936823F4E053E1681A
:1059A8000B439360236813F0080F15D023695BB18C
:1059B800B3F5805F08D0B3F5A05F05D0B3F5C05F3D
:1059C80002D0B3F5E05F1ED1174A936823F4604311
:1059D800216943EAC1039360FFF7B0FE124B9B684D
:1059E800C3F30313124AD35CD840124B1860124B0E
:1059F800186800F051FD002070BD40F2C3210B482B
:105A0800FEF7EEF9C7E740F2CA210848FEF7E8F9C1
:105A1800DAE7012070470120EEE70120ECE70120DA
:105A2800EAE700BF003C024000380240A0990008A5
:105A3800889A0008D0000020CC000020014B18688C
:105A4800704700BFD000002008B5FFF7F7FF044BF0
:105A58009B68C3F38223034AD35CD84008BD00BFC8
:105A680000380240809A000808B5FFF7E7FF044BAA
:105A78009B68C3F34233034AD35CD84008BD00BFD8
:105A880000380240809A00080F2303600B4B9A6885
:105A980002F0030242609A6802F0F00282609A689B
:105AA80002F4E052C2609B68DB0803F4E053036130
:105AB800034B1B6803F007030B6070470038024074
:105AC800003C024010B4036A046A24F00104046232
