:020000040800F2
:100000000000022029420008ED3F0008EF3F0008F1
:10001000F13F0008F33F0008F53F00080000000032
:10002000000000000000000000000000F73F000892
:10003000F93F000800000000FB3F0008FD3F0008FA
:1000400079420008794200087942000879420008A4
:100050007942000879420008794200087942000894
:100060007942000879420008FF3F00087942000801
:100070007942000879420008794200087942000874
:100080000940000879420008794200080000000099
:10009000000000000000000000000000794200089D
:1000A00079420008194000087942000879420008A6
:1000B0002940000879420008794200087942000886
:1000C0007942000879420008794200087942000824
:1000D00079420008794200087942000800000000D7
:1000E00069400008794200087942000800000000D9
:1000F000000000000000000000000000794200083D
:1001000000000000794200087540000879420008AC
:1001100000000000000000000000000000000000DF
:1001200079420008794200087942000879420008C3
:1001300079420008000000000000000000000000FC
:1001400000000000000000000000000079420008EC
:100150007942000879420008794200087942000893
:100160007942000879420008000000000000000009
:10017000000000000000000000000000000000007F
:1001800000000000794200080000000000000000AC
:080190007942000879420008E1
:1001A00001F0FF01102A2BDB10F0070F08D010F828
:1001B000013B013A8B422DD010F0070F42B3F6D12C
:1001C000F0B441EA012141EA014122F007047FF045
:1001D00000070023F0E80256083C85EA010586EA9C
:1001E000010685FA47F5A3FA87F586FA47F6A5FAD8
:1001F00087F68EB9EED1F0BC01F0FF0102F00702E4
:1002000032B110F8013B013A83EA010313B1F8D18E
:100210000020704701387047002D06BF354603386F
:10022000073815F0010F07D1013015F4807F02BFA8
:10023000013015F4C03F0130F0BC0138704700BFF9
:1002400081F0004102E000BF83F0004330B54FEA87
:1002500041044FEA430594EA050F08BF90EA020FF4
:100260001FBF54EA000C55EA020C7FEA645C7FEA87
:10027000655C00F0E2804FEA5454D4EB5555B8BFAA
:100280006D420CDD2C4480EA020281EA030382EA1B
:10029000000083EA010180EA020281EA0303362DAD
:1002A00088BF30BD11F0004F4FEA01314FF4801C80
:1002B0004CEA113102D0404261EB410113F0004F92
:1002C0004FEA03334CEA133302D0524263EB430349
:1002D00094EA050F00F0A780A4F10104D5F1200EE7
:1002E0000DDB02FA0EFC22FA05F2801841F1000142
:1002F00003FA0EF2801843FA05F359410EE0A5F116
:1003000020050EF1200E012A03FA0EFC28BF4CF046
:10031000020C43FA05F3C01851EBE37101F00045FC
:1003200007D54FF0000EDCF1000C7EEB00006EEB09
:100330000101B1F5801F1BD3B1F5001F0CD3490893
:100340005FEA30004FEA3C0C04F101044FEA4452EA
:1003500012F5800F80F09A80BCF1004F08BF5FEA71
:10036000500C50F1000041EB045141EA050130BD51
:100370005FEA4C0C404141EB0101013C28BFB1F563
:10038000801FE9D291F0000F04BF01460020B1FAAE
:1003900081F308BF2033A3F10B03B3F120020CDA81
:1003A0000C3208DD02F1140CC2F10C0201FA0CF05F
:1003B00021FA02F10CE002F11402D8BFC2F1200CC4
:1003C00001FA02F120FA0CFCDCBF41EA0C0190407A
:1003D000E41AA2BF01EB0451294330BD6FEA0404C3
:1003E0001F3C1CDA0C340EDC04F11404C4F12002AE
:1003F00020FA04F001FA02F340EA030021FA04F3C0
:1004000045EA030130BDC4F10C04C4F1200220FA16
:1004100002F001FA04F340EA0300294630BD21FA54
:1004200004F0294630BD94F0000F83F4801306BF1A
:1004300081F480110134013D4EE77FEA645C18BF0E
:100440007FEA655C29D094EA050F08BF90EA020FA5
:1004500005D054EA000C04BF1946104630BD91EA9D
:10046000030F1EBF0021002030BD5FEA545C05D1A0
:100470004000494128BF41F0004130BD14F58004DF
:100480003CBF01F5801130BD01F0004545F0FE4153
:1004900041F470014FF0000030BD7FEA645C1ABF88
:1004A000194610467FEA655C1CBF0B46024650EABF
:1004B000013406BF52EA033591EA030F41F40021EB
:1004C00030BD00BF90F0000F04BF0021704730B571
:1004D0004FF4806404F132044FF000054FF0000146
:1004E00050E700BF90F0000F04BF0021704730B507
:1004F0004FF4806404F1320410F0004548BF4042DC
:100500004FF000013EE700BF42004FEAE2014FEA30
:1005100031014FEA02701FBF12F07F4393F07F4F0B
:1005200081F06051704732F07F4208BF704793F00E
:100530007F4F04BF41F40021704730B54FF4607421
:1005400001F0004521F000411CE700BF50EA010224
:1005500008BF704730B54FF000050AE050EA0102CD
:1005600008BF704730B511F0004502D5404261EB3D
:1005700041014FF4806404F132045FEA915C3FF47E
:10058000D8AE4FF003025FEADC0C18BF03325FEA1B
:10059000DC0C18BF033202EBDC02C2F1200300FACC
:1005A00003FC20FA02F001FA03FE40EA0E0021FAF1
:1005B00002F11444BDE600BF70B54FF0FF0C4CF4DF
:1005C000E06C1CEA11541DBF1CEA135594EA0C0F91
:1005D00095EA0C0F00F0DEF82C4481EA030621EACC
:1005E0004C5123EA4C5350EA013518BF52EA033507
:1005F00041F4801143F4801338D0A0FB02CE4FF0B9
:100600000005E1FB02E506F00042E0FB03E54FF0E8
:100610000006E1FB03569CF0000F18BF4EF0010EE0
:10062000A4F1FF04B6F5007F64F5407404D25FEADC
:100630004E0E6D4146EB060642EAC62141EA55518F
:100640004FEAC52040EA5E504FEACE2EB4F1FD0CD1
:1006500088BFBCF5E06F1ED8BEF1004F08BF5FEA4F
:10066000500E50F1000041EB045170BD06F0004601
:1006700046EA010140EA020081EA0301B4EB5C04AE
:10068000C2BFD4EB0C0541EA045170BD41F48011A6
:100690004FF0000E013C00F3AB8014F1360FDEBFCB
:1006A000002001F0004170BDC4F10004203C35DAA7
:1006B0000C341BDC04F11404C4F1200500FA05F32A
:1006C00020FA04F001FA05F240EA020001F00042CB
:1006D00021F0004110EBD37021FA04F642EB060141
:1006E0005EEA430E08BF20EAD37070BDC4F10C046B
:1006F000C4F1200500FA04F320FA05F001FA04F22F
:1007000040EA020001F0004110EBD37041F100011A
:100710005EEA430E08BF20EAD37070BDC4F1200525
:1007200000FA05F24EEA020E20FA04F301FA05F28D
:1007300043EA020321FA04F001F0004121FA04F235
:1007400020EA020000EBD3705EEA430E08BF20EA05
:10075000D37070BD94F0000F0FD101F0004640003F
:1007600041EB010111F4801F08BF013CF7D041EAC1
:10077000060195F0000F18BF704703F000465200C5
:1007800043EB030313F4801F08BF013DF7D043EA96
:100790000603704794EA0C0F0CEA135518BF95EA4C
:1007A0000C0F0CD050EA410618BF52EA4306D1D1D3
:1007B00081EA030101F000414FF0000070BD50EAF2
:1007C000410606BF1046194652EA430619D094EA7C
:1007D0000C0F02D150EA013613D195EA0C0F05D166
:1007E00052EA03361CBF104619460AD181EA0301BA
:1007F00001F0004141F0FE4141F470014FF0000072
:1008000070BD41F0FE4141F4780170BD70B54FF00C
:10081000FF0C4CF4E06C1CEA11541DBF1CEA13558C
:1008200094EA0C0F95EA0C0F00F0A7F8A4EB05046E
:1008300081EA030E52EA03354FEA013100F0888065
:100840004FEA03334FF0805545EA131343EA12632E
:100850004FEA022245EA111545EA10654FEA0026E3
:100860000EF000419D4208BF964244F1FD0404F59C
:10087000407402D25B084FEA3202B61A65EB0305F8
:100880005B084FEA32024FF480104FF4002CB6EBB5
:10089000020E75EB030E22BFB61A754640EA0C0035
:1008A0005B084FEA3202B6EB020E75EB030E22BF75
:1008B000B61A754640EA5C005B084FEA3202B6EBB6
:1008C000020E75EB030E22BFB61A754640EA9C0075
:1008D0005B084FEA3202B6EB020E75EB030E22BF45
:1008E000B61A754640EADC0055EA060E18D04FEA03
:1008F000051545EA16754FEA06164FEAC30343EAA3
:1009000052734FEAC2025FEA1C1CC0D111F4801F6F
:100910000BD141EA00014FF000004FF0004CB6E768
:1009200011F4801F04BF01430020B4F1FD0C88BF07
:10093000BCF5E06F3FF6AFAEB5EB030C04BFB6EB12
:10094000020C5FEA500C50F1000041EB045170BD05
:100950000EF0004E4EEA113114EB5C04C2BFD4EB32
:100960000C0541EA045170BD41F480114FF0000EB6
:10097000013C90E645EA060E8DE60CEA135594EA32
:100980000C0F08BF95EA0C0F3FF43BAF94EA0C0F35
:100990000AD150EA01347FF434AF95EA0C0F7FF4AA
:1009A00025AF104619462CE795EA0C0F06D152EAFE
:1009B00003353FF4FDAE1046194622E750EA4106E2
:1009C00018BF52EA43067FF4C5AE50EA41047FF4F3
:1009D0000DAF52EA43057FF4EBAE12E74A0011D2A5
:1009E00012F5001211D20DD56FF47873B3EB625289
:1009F0000ED44FEAC12343F0004343EA505323FA95
:100A000002F070474FF00000704750EA013002D109
:100A10004FF0FF3070474FF00000704753B94AB9AC
:100A2000002908BF00281CBF4FF0FF314FF0FF30F6
:100A300000F00CB8ADF1080C6DE904CE04F0EAF852
:100A4000DDF804E0DDE9022304B07047704700BF21
:100A500010B5054C237833B9044B13B10448AFF3F8
:100A600000800123237010BD8000002000000000E2
:100A7000D04E000808B5034B1BB103490348AFF340
:100A8000008008BD0000000084000020D04E000857
:100A900070B58EB004460D4600218DF8021000F0AE
:100AA0005FFD022001F0F4F80121204600F058FD1E
:100AB000022001F0EDF8424E0DF1030240F20F1159
:100AC000308803F073FB9DF803203E4901A803F032
:100AD000D5FB3D4C4FF0FF33322201A9204603F0F5
:100AE000B6F90DF103024FF48871308803F05EFB14
:100AF0009DF80320354901A803F0C0FB4FF0FF33F8
:100B0000322201A9204603F0A2F96A4640F20F11F1
:100B1000308803F067FBBDF800202D4901A803F0E1
:100B2000ADFB4FF0FF33322201A9204603F08FF9CD
:100B300008E00DF10201224B188800F011FB0220A1
:100B400001F0A6F89DF80230002BF2D09DF80320AA
:100B50001C4901A803F092FB4FF0FF33322201A998
:100B6000194803F074F9164C208800F0E9F8194B85
:100B70001988208800F069FA174B1988208800F03E
:100B80008AF9164B1968208800F0C2FA144B1A88AB
:100B9000144B1988208800F045FB208800F0A2F84B
:100BA0002946208800F07EF808B10EB070BD4FF0E5
:100BB000FF3323220C49044803F049F9F5E700BF4D
:100BC00008000020E84E0008B8010020004F00088F
:100BD0001C4F000812000020100000200C00002014
:100BE00000000020040000202C4F00082DE9F041F7
:100BF000044606E01F49208800F080F8022001F03A
:100C000047F81C4B1B78002BF4D01A4B00221A70AB
:100C1000194F3946208800F0EBFADFF86C80414626
:100C2000208800F0ADFA154D2946208800F0B5FA6D
:100C3000134E3146208800F0CCFA1249208800F08B
:100C4000BAFA208800F034F8B8F8003063603B78D6
:100C5000A360338807EE903AF8EE677AC4ED037A22
:100C60002B8807EE903AF8EE677AC4ED047ABDE877
:100C7000F08100BFA4000020A5000020A0000020FB
:100C80009E0000209C000020A200002082B08DF871
:100C900004008DF805108DF806208DF807300198B6
:100CA00002B0704708B54A08012103F03BFA08BDBD
:100CB00008B50122862103F035FA08BD10B582B0CF
:100CC0000C460DF10702302103F070FA9DF8073051
:100CD00003F010038DF80730B3FA83F35B09237038
:100CE00002B010BD08B54022872103F01BFA08BDF1
:100CF00008B50022872103F015FA08BD70B582B04F
:100D000005460E460DF10601FFF7D8FF04460DF12A
:100D100007023121284603F049FA204340B248B97E
:100D20009DF807309DF8062003F001039A4203D096
:100D30000023337002B070BD01233370FAE7000066
:100D400070B582B006462D2400250BE0A4F12D03DA
:100D50001D4AD25C2146304603F0E4F905436DB2EA
:100D60000134E4B2872CF1D93046FFF7BBFF45EAE6
:100D7000000464B200238DF8073006E00DF107018E
:100D80003046FFF7BBFF044364B29DF80730002BE9
:100D9000F4D03046FFF78CFF044364B23046FFF7CF
:100DA000A7FF044364B209220821304603F0BAF9D0
:100DB000044364B200220B21304603F0B3F9204310
:100DC00040B202B070BD00BF684F000810B582B0DD
:100DD0000C460DF106025E2103F004FABDF8063060
:100DE000B3F5D77F3BD01AD8512B0FD006D9AD2BF6
:100DF00035D0D62B0DD12123238003E01D2B03D129
:100E00000F23238002B010BD1E2B04D11423238096
:100E1000F8E7602BEFD0002323800120F2E740F2B7
:100E2000E13293421ED00BD940F28F42934203D05D
:100E300040F291529342EED14FF4FA732380E1E7EE
:100E400040F2D92293420DD040F2E122934202D1E6
:100E500064232380D6E7B3F5E67FF9D0DBE73223BE
:100E60002380CFE7C8232380CCE710B582B00C469F
:100E70000DF107024B2103F099F99DF80730142B6F
:100E800003D00A2B04D002B010BD01222280F8E763
:100E900002232380F7E770B582B006460C460DF1B9
:100EA0000601FFF7E2FFBDF80630002B00F0C98015
:100EB0000546012B14D0642C00F0A98000F2888034
:100EC000212C00F09980322C73D1AD225E21304666
:100ED00003F03CF9C6226121304603F037F9B1E056
:100EE000322C4CD01DD8142C3ED0212C0AD1D62225
:100EF0005E21304603F02AF96E226121304603F06C
:100F000025F99FE00F2C0AD11D225E21304603F007
:100F10001DF927226121304603F018F992E00125DE
:100F200090E0C82C38D0B4F5FA7F0CD140F2915241
:100F30005E21304603F00AF940F2C1526121304689
:100F400003F004F97EE0642C0CD140F2E1225E2132
:100F5000304603F0FBF84FF462726121304603F033
:100F6000F5F86FE001256DE051225E21304603F077
:100F7000EDF86E226121304603F0E8F862E04FF4AC
:100F8000D7725E21304603F0E1F84FF4F47261212C
:100F9000304603F0DBF855E040F2E1325E213046A6
:100FA00003F0D4F840F296426121304603F0CEF8C7
:100FB00048E0142C0AD11E225E21304603F0C6F808
:100FC00022226121304603F0C1F83BE0012539E0DF
:100FD000C82C29D0B4F5FA7F0CD140F28F425E21A3
:100FE000304603F0B3F840F2A4426121304603F0EA
:100FF000ADF827E0012525E060225E21304603F0B0
:10100000A5F86E226121304603F0A0F81AE04FF4F3
:10101000E6725E21304603F099F84FF4F5726121D3
:10102000304603F093F80DE040F2D9225E213046BD
:1010300003F08CF84FF43E726121304603F086F8DD
:1010400000E00125284602B070BD30B583B00446EB
:101050000D460DF10601FFF7B9FE002851D1012D13
:1010600003D0022D2BD001254CE014224B21204629
:1010700003F058F807226021204603F053F80522B8
:101080006321204603F04EF838226921204603F000
:1010900049F840F205727821204603F057F840F2F3
:1010A00006627A21204603F051F8054655BBBDF88B
:1010B00006102046FFF7EFFE05436DB222E00A223C
:1010C0004B21204603F02EF80F226021204603F02A
:1010D00029F80D226321204603F024F8B822692163
:1010E000204603F01FF840F60D727821204603F0E9
:1010F0002DF840F60E627A21204603F027F80546C7
:10110000D4E70125284603B030BD000000000000F0
:1011100070B582B005460E460DF10602DE2103F0E1
:1011200061F80446BDF80630C3F30903ADF8063094
:1011300006FB03F0FFF7C6F907A3D3E90023FFF787
:101140003BFAFFF74BFC02466C21284603F014F8EB
:10115000204602B070BD00BF333333333333F13F29
:1011600010B582B00C4600238DF807300DF1070250
:10117000E52103F01BF89DF80730237002B010BD85
:1011800010B582B00C460DF10602962103F02AF844
:10119000BDF80630238002B010BD10B582B00C46F9
:1011A0000DF10602982103F01DF8BDF80630DB00B2
:1011B000238002B010BD10B582B00C460DF10602BE
:1011C0008C2103F00FF8BDF806301B0A238002B013
:1011D00010BD10B582B00C460DF10602902103F04F
:1011E00001F8BDF80630DB00238002B010BD00001E
:1011F00010B582B00C46FF230B700DF10702892158
:1012000002F0D4FF9DF8073003F01F038DF807307C
:10121000172B02D8024AD35C237002B010BD00BF66
:10122000504F0008F0B583B007460C4616460DF146
:1012300007024FF49F7102F0B9FF0546102C00D948
:101240001024102E00D910260A2C01D80A2E02D9FB
:10125000C7238DF807309DF807207F21384602F01C
:1012600061FF05436DB2013E621ED2B242EA061230
:10127000D2B28021384602F055FF284340B203B075
:10128000F0BD000070B588B000260196424B1A6B85
:1012900042F002021A631B6B03F002030193019BED
:1012A0003E4C01224FF48071204601F016F80122D5
:1012B0004FF40071204601F010F84FF4407303938F
:1012C000112304930123059303A9204600F01AFF7C
:1012D0001FE0324D00224FF48071284600F0FDFFE0
:1012E000012000F0D5FC01224FF48071284600F067
:1012F000F4FF012000F0CCFC0134092CE9DD4FF4AF
:101300000071264800F0E2FF28B9731C062E02DCAB
:101310001E460024F1E74FF40071204800F0D6FF8C
:1013200008B108B070BD002102911B4B1A6B42F04E
:1013300001021A631B6B03F001030293029B20233B
:10134000039301230493059103A9154800F0DAFEE5
:10135000134C01222021204600F0BFFF212000F085
:1013600097FC00222021204600F0B7FF212000F04A
:101370008FFC01222021204600F0AFFF212000F049
:1013800087FC00222021204600F0A7FF4FF42570A3
:1013900000F07EFCDCE700BF0038024000040240A1
:1013A0000000024070B584B016461D468DF80F103F
:1013B00084B26421009101230DF10F0221460848F7
:1013C00001F0E6FA08B104B070BD642305FB03F335
:1013D0000093ABB232462146014801F095FBF2E79B
:1013E000AC00002030B587B00546084611461C46C3
:1013F0008DF808001A460DF1090002F093FF631CF6
:10140000642200929BB202AAA9B2024801F0C0FA7B
:1014100007B030BDAC00002008B50223064A1221F7
:101420008620FFF7DFFF00B108BD0223034A122127
:101430008420FFF7D7FFF7E7A8000020AA000020CC
:1014400010B588B0FFF71EFF00240194194B1A6BEA
:1014500042F002021A631A6B02F002020192019A30
:1014600002941A6C42F400121A641B6C03F4001309
:101470000293029B4FF44073039312230493059449
:1014800006940423079303A90B4800F03BFE0B4886
:101490000B4B03600B4B43608460C4604FF480438C
:1014A000036144618461C461046201F093F908B08E
:1014B00010BD00BF0038024000040240AC00002014
:1014C00000540040801A060000B583B0FFF7B8FF53
:1014D000022301AA00218620FFF764FF30B99DF89E
:1014E00004301BB99DF80530162B02D003B05DF80F
:1014F00004FB022301AA00218420FFF753FF0028E8
:10150000F4D19DF80430002BF0D19DF80530162B56
:10151000ECD1124B00221A60FF238DF804308DF8B5
:101520000530022301AA14218620FFF75BFF002863
:10153000DCD1FF238DF80430BF238DF80530022362
:1015400001AA14218420FFF74DFF0028CED1034BC0
:101550006FF0C0221A60FFF75FFFC7E7A800002006
:1015600008B563281FD007DC01281CD0022807D04B
:1015700048B34FF0FF3008BD6C2824D072280FD13B
:10158000194A537803F07F03537011B163F07F035E
:1015900053700123154A13218620FFF723FFEAE742
:1015A0004FF0FF30E7E7104AD37803F07F03D370A2
:1015B00011B163F07F03D37001230D4A13218420FE
:1015C000FFF710FFD7E7084A537803F0BF035370C3
:1015D00011B143F0400353700123044A13218620C4
:1015E000FFF700FFC7E700BFA8000020A900002008
:1015F000AB00002038B50546114BD3ED007AF8EE6C
:10160000677A87EE807ADFED0F7A67EE277AFCEE55
:10161000E77A17EE904AB4F5803F01D34FF6FF7496
:10162000631C07EE903AF8EE677AC7EE277A17EE5A
:10163000900A03F0CFFAAC62E86201236B6138BD17
:101640002C0000200000803738B5044683794279A9
:101650000179C078FFF71AFB104D2860A37A627AEF
:10166000217AE079FFF712FB0D4B18602B68012BF4
:101670000CD0022B0ED04FF47A7393FBF0F0094B91
:10168000188080B20A30084B186038BD074A012123
:101690001180EEE7054B02221A80ECE718000020CB
:1016A00014000020100000200C0000201200002078
:1016B00010B5104C01230E2221460F4802F02DFCDC
:1016C00023784A2B00D010BD63785F2BFBD1A37821
:1016D000412BF8D1E37A412BF5D1237B5F2BF2D15B
:1016E000637B4A2BEFD1054B01221A702046FFF78E
:1016F000ABFFE8E748010020B801002044010020CA
:1017000038B53A4C4FF0FF3303223949204602F0F6
:101710009EFB384D4FF0FF3304222946204602F04D
:1017200096FB4FF0FF33042205F10801204602F03A
:101730008EFB4FF0FF33042205F10C01204602F02E
:1017400086FB4FF0FF330422A918204602F07FFBEE
:10175000294D4FF0FF3304222946204602F077FB43
:101760004FF0FF33042205F10801204602F06FFB21
:101770004FF0FF33042205F10C01204602F067FB15
:101780004FF0FF330422A918204602F060FB1B4DE6
:101790004FF0FF3304222946204602F058FB4FF059
:1017A000FF33042205F10801204602F050FB4FF000
:1017B000FF33042205F10C01204602F048FB4FF0F4
:1017C000FF330422A918204602F041FB4FF0FF33FB
:1017D00004220B49204602F03AFB4FF0FF3303226C
:1017E0000849204602F033FB38BD00BFB801002095
:1017F000200000202C0100201801002004010020FE
:10180000400100201C00002000B583B000210191A0
:10181000094B1A6B42F400121A631B6B03F400139A
:101820000193019B0A46102000F09AFA102000F064
:10183000A7FA03B05DF804FB00380240F0B58BB0A6
:101840000024059406940794089409940094474B47
:101850001A6B42F004021A631A6B02F0040200923F
:10186000009A01941A6B42F080021A631A6B02F01C
:1018700080020192019A02941A6B42F001021A63EB
:101880001A6B02F001020292029A03941A6B42F060
:1018900002021A631A6B02F002020392039A049482
:1018A0001A6B42F008021A631B6B03F008030493DF
:1018B000049B2F4E22462021304600F00EFD4FF4AF
:1018C000005305934FF4881306930794294F05A9F5
:1018D000384600F017FC41F6FF7305930325069583
:1018E000079405A9384600F00DFC49F6C37305932B
:1018F0000695079405A9304600F004FC10230593D3
:101900004FF4041306930127079705A9304600F00A
:10191000F9FB2023059306970794089405A9304600
:1019200000F0F0FB4FF2F74305930695079405A9E5
:10193000114800F0E7FB042305930695079405A9D9
:101940000E4800F0DFFB224621460A2000F008FA8C
:101950000A2000F015FA22462146282000F000FA5D
:10196000282000F00DFA0BB0F0BD00BF0038024097
:10197000000002400008024000040240000C024047
:1019800008B50268034B9A4200D008BD00F06EF91A
:10199000FBE700BF0000014072B6FEE700B587B06C
:1019A0000023029303930493059300930193144837
:1019B0004FF08042026040F2E73242608360C260D2
:1019C00003618023836101F0D7FF90B94FF4805306
:1019D000029302A90A4802F008F860B900230093B4
:1019E00001936946064802F07FF830B907B05DF808
:1019F00004FBFFF7D1FFFFF7CFFFFFF7CDFF00BFDD
:101A00004802002008B50D480D4B03604FF4E11368
:101A100043604FF4805383604FF40053C3604FF42E
:101A2000806303610C23436100238361C36102F07F
:101A3000DEF900B908BDFFF7AFFF00BFB801002015
:101A40000044004000B587B0002302930393049341
:101A50000593009301931348134A02604360836027
:101A60004FF0FF32C26003618023836101F084FF85
:101A700090B94FF48053029302A90A4801F0B5FFD0
:101A800060B90023009301936946064802F02CF8E0
:101A900030B907B05DF804FBFFF77EFFFFF77CFF6E
:101AA000FFF77AFF00020020000C004008B50A484A
:101AB0000A4B03600A4B436000238360C3604FF40A
:101AC0008042026143618361C361036200F082FE70
:101AD00000B908BDFFF760FF9002002000540040ED
:101AE000801A060000B595B03022002108A802F047
:101AF000E5FB002303930493059306930793019357
:101B00001E4A116C41F080511164126C02F0805237
:101B10000192019A02931A4A116841F440411160FE
:101B2000126802F440420292029A022208920121B3
:101B30000B9110210C910E920F93082310935423B4
:101B4000119312920423139308A801F041FA80B96B
:101B50000F23039302210491002305934FF4805235
:101B60000692079303A801F09DFC20B915B05DF81B
:101B700004FBFFF711FFFFF70FFF00BF0038024023
:101B80000070004008B500F057F8FFF7ABFFFFF713
:101B900055FEFFF739FEFFF701FFFFF733FFFFF7B1
:101BA00051FFFFF783FF1D4B1B78012B02D0FFF77E
:101BB0007FFDF8E7FFF788FC5421194B1980562563
:101BC000184B1D805824184B1C800020FEF760FF26
:101BD00029460120FEF75CFF21460220FEF758FF50
:101BE000124B93ED000A4FF08040B8EEC00AFFF7A9
:101BF00001FD0F4801F07AFD0E4B1B78012BFBD144
:101C00000748FEF7F3FF0748FEF7F0FF0648FEF728
:101C1000EDFF084B00221A70EEE700BF44010020E0
:101C200028010020140100200001002014000020E1
:101C3000480200203C01002008B50B4B1A6842F412
:101C400000721A601A6842F480621A601A6842F4DC
:101C500080721A60032000F071F8032001F084FF05
:101C600001F0D0F8002008BD003C0240034A116892
:101C7000034B1B780B441360704700BFE402002045
:101C800024000020014B1868704700BFE4020020C8
:101C900038B50446FFF7F6FF0546B4F1FF3F02D022
:101CA000044B1B781C44FFF7EDFF401BA042FAD306
:101CB00038BD00BF24000020002807DB00F01F0211
:101CC000400901239340024A42F82030704700BF88
:101CD00000E100E0002808DB0901C9B200F1604022
:101CE00000F5614080F80013704700F00F00090113
:101CF000C9B2014B1954704714ED00E000B500F073
:101D00000700C0F1070CBCF1040F28BF4FF0040C12
:101D1000031D062B0FD9C31E4FF0FF3E0EFA0CF029
:101D200021EA000199400EFA03FE22EA0E0241EA7E
:101D300002005DF804FB0023EEE70000074AD368C9
:101D400023F4E0631B041B0C000200F4E060034377
:101D500043F0BF6343F40033D360704700ED00E00D
:101D600010B50446054BD868C0F30220FFF7C6FF44
:101D700001462046FFF7AEFF10BD00BF00ED00E0BA
:101D800008B5FFF799FF08BD10B40368D9B2103940
:101D90000C4AA2FB014212090B4CA25CC2655F29EE
:101DA00009D923F47F7323F0030304338365806D23
:101DB0005DF8044B704723F47F7323F003038365BE
:101DC000F5E700BFABAAAAAAC44F0008836A8269DC
:101DD00092B9012B0AD0022B02D00BB10020704720
:101DE000C36A13F0807F28D100207047C36AB3F123
:101DF000C07F24D000207047B2F5005F09D0022BCD
:101E000025D9032B25D1C36A13F0807F23D100206D
:101E10007047032B03D8DFE803F01404140A0020F2
:101E20007047C36A13F0807F0DD100207047C36AEA
:101E3000B3F1C07F09D00020704701207047012016
:101E40007047012070470120704701207047012032
:101E500070470020704701207047000070B50446AD
:101E6000FFF710FF002C5BD00546022384F83530C5
:101E7000002384F834302268136823F001031360D0
:101E800023681A6812F0010F0AD0FFF7FBFE431B0C
:101E9000052BF5D920236365032084F8350070BD38
:101EA0001A68204911406268A0680243E068024352
:101EB0002069024360690243A0690243E06902436A
:101EC000206A02430A43616A04291ED01A60266808
:101ED000756925F00705636A1D43042B07D1A36AC2
:101EE0001D43E36A1BB12046FFF770FF90B975618F
:101EF0002046FFF749FFE26D3F23934083600020B7
:101F00006065012384F83530C9E7E16A206B01433D
:101F10000A43DBE740236365012084F83500BEE710
:101F20000120BCE73F8010F0F0B583B004460023E9
:101F30000193724B1D68724BA3FB0535AD0A876D8B
:101F40003E68C26D08239340334210D003681A687C
:101F500012F0040F0BD01A6822F004021A60C26D4E
:101F600008239340BB60436D43F001034365E26D7A
:101F700001239340334209D02268526912F0800F46
:101F800004D0BB60636D43F002036365E26D04231C
:101F90009340334209D02268126812F0020F04D035
:101FA000BB60636D43F004036365E26D10239340EF
:101FB000334224D02268126812F0080F1FD0BB6091
:101FC00023681A6812F4802F0DD01B6813F4002FB9
:101FD00004D1236C9BB12046984710E0A36C73B1E9
:101FE000204698470BE01A6812F4807F03D11A68E4
:101FF00022F008021A60236C0BB120469847E26D6C
:1020000020239340334255D02268126812F0100FFB
:1020100050D0BB6094F83530DBB2052B0ED023686E
:102020001A6812F4802F33D01B6813F4002F2AD1C2
:10203000636C002B3ED0204698473BE02268136833
:1020400023F0160313602268536923F08003536161
:10205000236CA3B12268136823F008031360E26DB8
:102060003F239340BB60012384F83530002384F87C
:102070003430236D002B3FD0204698473CE0A36CC2
:10208000002BE7D1EBE7E36BA3B12046984711E0C3
:102090001A6812F4807F09D11A6822F010021A60BF
:1020A000012384F83530002384F83430E36B0BB11E
:1020B00020469847636DFBB1636D13F0010F17D095
:1020C000052384F835302268136823F00103136078
:1020D000019B01330193AB4204D823681B6813F0C2
:1020E000010FF5D1012384F83530002384F8343012
:1020F000E36C0BB12046984703B0F0BD2C000020E4
:10210000B5814E1B00230F2B00F2D78070B582B033
:1021100065E085684FEA430E032404FA0EF425EACD
:102120000405CC6804FA0EF42C438460446824EA65
:1021300002044A68C2F300129A40224342605CE003
:10214000DC08083450F8242003F00705AD004FF0F8
:102150000F0E0EFA05FE22EA0E0E0A69AA4042EAA6
:102160000E0240F824205CE0042200E0002202FA83
:102170000EF22A430234514D45F82420504A946807
:102180006FEA0C0224EA0C054E6816F4801F01D099
:102190004CEA04054A4CA560E46802EA04054E686E
:1021A00016F4001F01D04CEA0405454CE560646854
:1021B00002EA04054E6816F4003F01D04CEA04051B
:1021C0003F4C6560246822404D6815F4803F01D083
:1021D0004CEA04023A4C226001330F2B6BD80122E7
:1021E0009A400C6804EA020C32EA0404F4D14C6808
:1021F00004F00304013C012C8BD94A6802F003026D
:10220000032A09D0C4685D000322AA4024EA02041C
:102210008A68AA402243C2604A6802F00302022A86
:102220008ED004684FEA430E032202FA0EF224EA2B
:1022300002044A6802F0030202FA0EF2224302602C
:102240004A6812F4403FC7D0002201921D4A546CE4
:1022500044F480445464526C02F480420192019A26
:102260009C08A51C154A52F8255003F0030E4FEAAE
:102270008E0E0F2202FA0EF225EA0205124A904251
:102280003FF474AF02F5806290420ED002F5806296
:1022900090420CD002F5806290420AD002F5806232
:1022A00090423FF461AF072261E701225FE702221B
:1022B0005DE703225BE702B070BD70470038014064
:1022C000003C01400038024000000240036919420E
:1022D00001D001207047002070470AB1816170472A
:1022E000090481617047436901EA030221EA03019D
:1022F00041EA0241816170477047000008B5054B13
:102300005B69034200D108BD024B5861FFF7F4FF3F
:10231000F9E700BF003C014003685A6912F4806F7E
:1023200001D1002070476FF480625A61002303637B
:10233000202280F83D2080F83E30026C42F00402FA
:10234000026480F83C30012070472DE9F0410646D8
:102350000C46174698463BE0FFF794FC069BC01AD4
:10236000404502D8B8F1000F32D1012D18D03368A2
:102370009B6924EA03039BB2B3FA83F35B099F4290
:1023800026D100233363202286F83D2086F83E3094
:10239000326C42F02002326486F83C30012027E0A3
:1023A00033685B6924EA03039BB2B3FA83F35B09E6
:1023B000E5E733685B6924EA030C1FFA8CFCBCFA7E
:1023C0008CFC4FEA5C1C674511D1B8F1FF3FC3D1CB
:1023D000C4F30745012DECD033689B6924EA030C54
:1023E0001FFA8CFCBCFA8CFC4FEA5C1CEBE700206B
:1023F000BDE8F0812DE9F84305460E469046994622
:1024000053E01A6842F400721A602B686FF480621D
:102410005A6100232B63202285F83D2085F83E3049
:102420002A6C42F004022A6485F83C3001204AE01C
:10243000FFF728FCA0EB0900404502D8B8F1000FD7
:1024400033D1012F17D02B689B6926EA03039BB277
:10245000003B18BF012343B300232B63202285F8E0
:102460003D2085F83E302A6C42F020022A6485F82F
:102470003C30012027E02B685B6926EA03039BB20E
:10248000003B18BF0123E6E72B689C6926EA040499
:10249000A4B2003C18BF0124A4B12B685A6912F4FD
:1024A000806FAED1B8F1FF3FC2D1C6F30747012F0D
:1024B000EAD12B685C6926EA0404A4B2003C18BF88
:1024C0000124E9E70020BDE8F8830000F0B583B0FF
:1024D00004460D4616461F46C36A082B0DD0012B35
:1024E0000BD013F5803F08D0036B122B0AD1026882
:1024F000136843F48073136004E02268136843F4A4
:10250000807313600097334600224FF0011120467C
:10251000FFF71BFF80B92369B3F5804F16D12368FD
:1025200005F0FE051D613B46324613492046FFF784
:1025300061FFF8B903B0F0BD23681B6813F4807F16
:1025400002D04FF4007323640320F3E7EB112268F9
:1025500003F0060343F0F00313613B46324607499C
:102560002046FFF747FF18B92368EDB21D61DAE78F
:102570000120DFE70120DDE7020001000800010083
:102580002DE9F04184B004460D4616461F46C26A46
:1025900001680B6843F480630B60082A0DD0012AA0
:1025A0000BD012F5803F08D0036B112B0AD10268C3
:1025B000136843F48073136004E02268136843F4E3
:1025C000807313600097334600224FF001112046BC
:1025D000FFF7BBFE98B92369B3F5804F19D1236883
:1025E00045F00105EDB21D613B4632462A492046C1
:1025F000FFF700FF00284CD104B0BDE8F08123684C
:102600001B6813F4807F02D04FF40073236403200F
:10261000F2E74FEAE51808F00608236848F0F002F0
:102620001A613B4632461D492046FFF7E3FE08B1DA
:102630000120E1E72368EDB21D613B4632461649B1
:102640002046FFF7D7FE08B10120D5E7002203920C
:10265000236859690391996903910399196841F4B1
:1026600080711960009733464FF001112046FFF743
:102670006CFE20B9226848F0F1031361B4E72368C7
:102680001B6813F4807F02D04FF40073236403208F
:10269000B2E70120B0E700BF02000100080001001E
:1026A00070B504460D46164623685B6913F0800F2B
:1026B00021D12046FFF730FEF8B9B5F1FF3FF3D046
:1026C000FFF7E0FA801BA84201D8002DECD1236867
:1026D0005B6913F0800FE7D100232363202284F885
:1026E0003D2084F83E30226C42F02002226484F8BF
:1026F0003C30012000E0002070BD0120FCE770B5F7
:1027000004460D46164623685B6913F0040F21D179
:102710002046FFF701FEF8B9B5F1FF3FF3D0FFF710
:10272000B1FA801BA84201D8002DECD123685B6967
:1027300013F0040FE7D100232363202284F83D2007
:1027400084F83E30226C42F02002226484F83C304F
:10275000012000E0002070BD0120FCE770B50446B8
:102760000D46164614E06FF010025A6100232363F1
:10277000202284F83D2084F83E30226C226484F8C4
:102780003C30012025E023685B6913F0400F10D036
:102790002368586910F0400F1AD1586910F0100FD3
:1027A000E1D1FFF76FFA801BA842ECD8002DEFD1E2
:1027B000E9E700232363202284F83D2084F83E309B
:1027C000226C42F02002226484F83C30012000E0B8
:1027D000002070BD002800F0CC8070B5044690F851
:1027E0003D30002B77D0242384F83D3022681368D5
:1027F00023F0010313602268136843F4004313605D
:102800002268136823F40043136000F001FF62683C
:102810005A4B9A4264D85A4B98428CBF00230123EA
:10282000002B40F0A8805749A1FB00318B0C256894
:102830006A6822F03F0242EA91426A6021680A6AAD
:1028400022F03F0266684D4DAE424FD8013313432C
:102850000B622168CA6922F44F4222F0FF026568C8
:10286000464B9D424CD8431E6D00B3FBF5F301333C
:1028700040F6FC70034278D0C3F30B031A43CA61DD
:1028800021680B6823F0C003E269206A0243134306
:102890000B6021688B6823F4034323F0FF03226954
:1028A000E068024313438B602168CB6823F0FF0389
:1028B0006269A06902431343CB602268136843F046
:1028C0000103136000202064202384F83D3020633E
:1028D00084F83E0070BD80F83C3000F0B3FA82E727
:1028E000294B98428CBF0023012399E74FF496753A
:1028F00005FB03F3254DA5FB03539B090133A6E715
:10290000A668BEB9431E05EB450CB3FBFCF30133CF
:10291000C3F30B03B3FA83F35B0943BBC6B9431E8E
:1029200005EB4505B3FBF5F30133C3F30B0343F4A8
:102930000043A3E7431E05EB850C0CEB8C0CB3FBAB
:10294000FCF30133C3F30B03B3FA83F35B09E4E74E
:10295000431E05EB850505EB8505B3FBF5F3013358
:10296000C3F30B0343F4404388E7042386E70123C2
:1029700084E7012070470120ACE700BFA08601007A
:102980007F841E0083DE1B43FF083D00D34D621091
:102990002DE9F04385B004460F46914698460C9EBB
:1029A000FFF770F9054694F83D00C0B2202804D026
:1029B0000227384605B0BDE8F083009519230122AF
:1029C0004F492046FFF7C1FC002840F0928094F860
:1029D0003C30012B00F08F80012384F83C302368C9
:1029E0001A6812F0010F03D11A6842F001021A604E
:1029F0002268136823F400631360212384F83D30B8
:102A0000102384F83E3000232364C4F82490A4F8F3
:102A10002A80638D23853B4BE3622B463246394641
:102A20002046FFF753FD0746002866D10023039395
:102A300023685A6903929B690393039B11E0236CFB
:102A4000042B01D00127B4E72268136843F4007314
:102A50001360F7E72A4631462046FFF750FE00286C
:102A60002ED1238D002B36D02A4631462046FFF743
:102A700017FE0028E3D1626A236812781A61606A3F
:102A8000431C6362618D89B2013989B26185238DEE
:102A9000013B9BB223852268516911F0040FD9D004
:102AA000002BD7D043781361636A01336362638D6F
:102AB0009BB2013B9BB26385238D013B2385C9E714
:102AC000236C042B01D0012773E72268136843F4B9
:102AD00000731360F7E72268136843F40073136010
:102AE000202384F83D30002384F83E3084F83C30C5
:102AF0005FE702275DE702275BE7012759E700BF91
:102B0000020010000000FFFF2DE9F04387B00446EB
:102B10000F46914698460E9EFFF7B4F8054694F886
:102B20003D00C0B2202804D00227384607B0BDE8D7
:102B3000F08300951923012289492046FFF705FCFF
:102B4000002840F04F8194F83C30012B00F04C817C
:102B5000012384F83C3023681A6812F0010F03D176
:102B60001A6842F001021A602268136823F40063B5
:102B70001360222384F83D30102384F83E30002374
:102B80002364C4F82490A4F82A80638D2385754BB0
:102B9000E3622B46324639462046FFF7F1FC0746F2
:102BA000002840F02381238D5BB9029323685A6982
:102BB00002929A690292029A1A6842F400721A60AA
:102BC0007AE0012B0FD0022B1FD02268136843F448
:102BD000806313600023059323685A6905929B69FB
:102BE0000593059B68E02268136823F480631360F3
:102BF0000023039323685A6903929A690392039A04
:102C00001A6842F400721A6056E02268136823F4CE
:102C1000806313602268136843F400631360002329
:102C2000049323685A6904929B690493049B43E0CC
:102C30002A4631462046FFF791FD002840F0D88013
:102C400023681A69636A1A70636A01336362238DA9
:102C5000013B2385638D9BB2013B9BB263852BE0D7
:102C600000953346002240492046FFF76EFB0028BE
:102C700040F0C0802268136843F400731360236837
:102C80001A69636A1A70626A531C6362238D013B7E
:102C90002385638D9BB2013B9BB2638523681B69CF
:102CA0005370636A01336362238D013B2385638D17
:102CB0009BB2013B9BB26385218D002900F0898086
:102CC000032953D80129B3D00229C9D0009533462E
:102CD000002225492046FFF738FB002840F08C8071
:102CE0002268136823F48063136023681A69636A97
:102CF0001A70636A01336362238D013B2385618D02
:102D000089B2013989B2618500953346002216499E
:102D10002046FFF71AFB002870D12268136843F49D
:102D20000073136023681A69636A1A70626A531C1D
:102D30006362238D013B2385638D9BB2013B9BB274
:102D4000638523681B695370636A01336362238D53
:102D5000013B2385638D9BB2013B9BB26385ABE74F
:102D6000020010000000FFFF040001002A46314667
:102D70002046FFF7F3FC002842D123681A69636AF2
:102D80001A70636A01336362228D013A92B222851E
:102D9000638D9BB2013B9BB263852368596911F037
:102DA000040F89D0032A0FD023681A69636A1A7046
:102DB000636A01336362238D013B2385638D9BB27C
:102DC000013B9BB2638577E71A6822F480621A6040
:102DD000EAE7202384F83D30002384F83E3084F86D
:102DE0003C30A2E60227A0E602279EE601279CE6E9
:102DF00001279AE6012798E6012796E6012794E63F
:102E0000012792E600B583B0002100910C4B5A6C6B
:102E100042F480425A645A6C02F480420092009A52
:102E200001911A6C42F080521A641B6C03F08053BB
:102E30000193019B0520FEF781FF03B05DF804FBC1
:102E40000038024030B589B0002303930493059302
:102E5000069307930268144B9A4201D009B030BD23
:102E600000250195114C236B43F002032363236B70
:102E700003F002030193019B4FF440730393122369
:102E80000493032306930423079303A90848FFF739
:102E900039F90295236C43F400132364236C03F483
:102EA00000130293029BD9E700540040003802400F
:102EB0000004024000B583B00368B3F1804F05D031
:102EC000174A934217D003B05DF804FB002100912C
:102ED00003F50E331A6C42F001021A641B6C03F006
:102EE00001030093009B0A461C20FEF739FF1C20BB
:102EF000FEF746FFE7E7002101910A4B1A6C42F00A
:102F000008021A641B6C03F008030193019B0A4634
:102F10003220FEF725FF3220FEF732FFD3E700BF55
:102F2000000C00400038024030B589B00023039304
:102F300004930593069307930268214B9A4201D0AC
:102F400009B030BD04460025019503F5FA331A6C2B
:102F500042F400321A641A6C02F400320192019AAF
:102F600002951A6B42F001021A631B6B03F0010316
:102F70000293029B0C2303930223049307230793DA
:102F800003A91048FFF7BEF80F48104B03604FF03D
:102F9000006343608560C5604FF4806303614561F1
:102FA00085614FF48073C36105624562FEF756FF89
:102FB00018B9054BE3639C63C2E7FEF7EDFCF8E745
:102FC0000044004000000240580100208860024098
:102FD000002800F0E08170B582B00446036813F069
:102FE000010F3BD09F4B9B6803F00C03042B2CD0AC
:102FF0009C4B9B6803F00C03082B21D06368B3F54E
:10300000803F4FD0B3F5A02F52D0964B1A6822F4D0
:1030100080321A601A6822F480221A606368002BDA
:1030200050D0FEF72FFE05468E4B1B6813F4003F71
:1030300014D1FEF727FE401B6428F5D90320B1E127
:10304000884B5B6813F4800FD8D0864B1B6813F451
:10305000003F03D06368002B00F09F81236813F0CA
:10306000020F54D07F4B9B6813F00C0F3ED07D4B6A
:103070009B6803F00C03082B33D0E368002B68D067
:10308000794B01221A60FEF7FDFD0546754B1B6862
:1030900013F0020F54D1FEF7F5FD401B0228F5D9BD
:1030A00003207FE16F4A136843F480331360B5E770
:1030B0006C4B1A6842F480221A601A6842F480321B
:1030C0001A60ABE7FEF7DEFD0546664B1B6813F49E
:1030D000003FC3D0FEF7D6FD401B6428F5D903207E
:1030E00060E1604B5B6813F4800FC6D15D4B1B68D9
:1030F00013F0020F03D0E368012B40F05081594ACE
:10310000136823F0F803216943EAC10313602368BD
:1031100013F0080F42D063696BB3534B0122C3F81D
:10312000802EFEF7AFFD05464E4B5B6F13F0020F8E
:1031300034D1FEF7A7FD401B0228F5D9032031E169
:10314000484A136823F0F803216943EAC103136076
:10315000DDE7454B00221A60FEF794FD0546414B22
:103160001B6813F0020FD2D0FEF78CFD401B022823
:10317000F5D9032016E13C4B0022C3F8802EFEF760
:1031800081FD0546374B5B6F13F0020F06D0FEF74B
:1031900079FD401B0228F5D9032003E1236813F0D1
:1031A000040F77D02F4B1B6C13F0805F33D10023BB
:1031B00001932C4B1A6C42F080521A641B6C03F082
:1031C00080530193019B0125284B1B6813F4807FDA
:1031D00023D0A368012B34D0052B38D0214B1A6F94
:1031E00022F001021A671A6F22F004021A67A3681C
:1031F000002B3DD0FEF746FD06461A4B1B6F13F021
:10320000020F46D1FEF73EFD801B41F28833984203
:10321000F3D90320C6E00025D6E7144A136843F427
:1032200080731360FEF72EFD0646104B1B6813F4E7
:10323000807FCED1FEF726FD801B0228F5D9032022
:10324000B0E0084A136F43F001031367CFE7054B63
:103250001A6F42F004021A671A6F42F001021A67ED
:10326000C5E700BF00380240000047420070004040
:10327000FEF708FD0646524B1B6F13F0020F08D0F5
:10328000FEF700FD801B41F288339842F3D90320FA
:1032900088E0EDB9A369002B00F08380484A92686A
:1032A00002F00C02082A51D0022B17D0454B002205
:1032B0001A66FEF7E7FC0446414B1B6813F0007FDB
:1032C00042D0FEF7DFFC001B0228F5D9032069E09D
:1032D0003B4A136C23F080531364DBE7394B002225
:1032E0001A66FEF7CFFC0546354B1B6813F0007FCE
:1032F00006D0FEF7C7FC401B0228F5D9032051E099
:10330000E369226A1343626A43EA8213A26A52089B
:10331000013A43EA0243E26A43EA0263284A5360FD
:10332000284B01221A66FEF7ADFC0446244B1B68AD
:1033300013F0007F06D1FEF7A5FC001B0228F5D98B
:1033400003202FE000202DE000202BE0012B2BD0CC
:103350001B4B5B6803F48001E269914226D103F0C4
:103360003F02216A8A4223D1616A47F6C0721A403D
:10337000B2EB811F1ED103F44031A26A5208013A18
:10338000B1EB024F18D103F07063E26AB3EB026F46
:1033900014D1002006E001207047012002E0012046
:1033A00000E0002002B070BD0120FBE70120F9E73A
:1033B0000120F7E70120F5E70120F3E70120F1E71D
:1033C000003802400000474208B5334B9B6803F0C9
:1033D0000C03042B5BD0082B5BD12F4B5A6802F0F7
:1033E0003F025B6813F4800F2CD02B4B5868C0F35E
:1033F00088104FEA401CBCEB000C6EEB0E0E4FEA3F
:103400008E1343EA9C634FEA8C11B1EB0C0163EB22
:103410000E03DB0043EA5173C90011EB000C43F1CA
:103420000003590200234FEA4C2041EADC51FDF72A
:10343000F5FA194B5B68C3F3014301335B00B0FB42
:10344000F3F027E0144B5868C0F388104FEA401C93
:10345000BCEB000C6EEB0E0E4FEA8E1343EA9C633E
:103460004FEA8C11B1EB0C0163EB0E03DB0043EA76
:103470005173C90011EB000C43F1000399020023C2
:103480004FEA8C2041EA9C51FDF7C8FAD1E7034886
:1034900000E0034808BD00BF0038024000127A0077
:1034A0000024F400002800F09B8070B50D4604460F
:1034B0004F4B1B6803F007038B4208D2CBB24C4A38
:1034C0001370136803F007038B4240F08B8023686E
:1034D00013F0020F17D013F0040F04D0454A93687D
:1034E00043F4E0539360236813F0080F04D0414A7B
:1034F000936843F4604393603E4A936823F0F0037B
:10350000A1680B439360236813F0010F32D0636806
:10351000012B21D09A1E012A25D9364A126812F0B1
:10352000020F61D033498A6822F0030213438B6093
:10353000FEF7A8FB06462F4B9B6803F00C0362685E
:10354000B3EB820F16D0FEF79DFB801B41F2883350
:103550009842F0D9032042E0264A126812F4003F54
:10356000E0D101203BE0234A126812F0007FD9D15C
:10357000012034E01E4B1B6803F00703AB4207D960
:10358000EAB21B4B1A701B6803F00703AB422DD144
:10359000236813F0040F06D0164A936823F4E0530F
:1035A000E1680B439360236813F0080F07D0114ABA
:1035B000936823F46043216943EAC1039360FFF7F2
:1035C00003FF0C4B9B68C3F303130B4AD35CD84037
:1035D0000A4B18600A4B186800F0C6FA002070BD4C
:1035E000012070470120FAE70120F8E70120F6E703
:1035F000003C024000380240D44F00082C0000205C
:1036000028000020014B1868704700BF2C000020E4
:1036100008B5FFF7F7FF044B9B68C3F38223034A07
:10362000D35CD84008BD00BF00380240CC4F000832
:1036300008B5FFF7E7FF044B9B68C3F34233034A27
:10364000D35CD84008BD00BF00380240CC4F000812
:103650000F2303600B4B9A6802F0030242609A68E2
:1036600002F0F00282609A6802F4E052C2609B6845
:10367000DB0803F4E0530361034B1B6803F007030B
:103680000B60704700380240003C024010B4036AEF
:10369000046A24F001040462846924F0F00C4CEA0A
:1036A000021223F00A030B43826103625DF8044BAC
:1036B000704710B4036A046A24F010040462846939
:1036C00024F4704C4CEA023223F0A00343EA0113C5
:1036D000826103625DF8044B7047836823F07003D6
:1036E0000B4343F0070383607047000090F83D30C0
:1036F000DBB2012B2FD1022380F83D300268D36862
:1037000043F00103D3600368154A934218D0B3F124
:10371000804F15D0A2F57C42934211D002F5806211
:1037200093420DD002F58062934209D002F59A329D
:10373000934205D01A6842F001021A6000207047D7
:103740009A6802F00702062A07D01A6842F00102BE
:103750001A6000207047012070470020704700BFAA
:1037600000000140704770477047704770B50446CD
:103770000368DE681D6915F0020F10D016F0020F05
:103780000DD06FF002021A610123037703689B6971
:1037900013F0030F5ED0FFF7E6FF0023237715F049
:1037A000040F12D016F0040F0FD023686FF004023C
:1037B0001A610223237723689B6913F4407F4FD05B
:1037C0002046FFF7D0FF0023237715F0080F12D013
:1037D00016F0080F0FD023686FF008021A61042357
:1037E00023772368DB6913F0030F40D02046FFF7EF
:1037F000BAFF0023237715F0100F12D016F0100F28
:103800000FD023686FF010021A6108232377236812
:10381000DB6913F4407F31D02046FFF7A4FF00237B
:10382000237715F0010F02D016F0010F2DD115F0FE
:10383000800F02D016F0800F2FD115F0400F02D06C
:1038400016F0400F31D115F0200F02D016F0200FE6
:1038500033D170BDFFF786FF2046FFF785FF9CE759
:103860002046FFF77FFF2046FFF77EFFABE72046AD
:10387000FFF778FF2046FFF777FFBAE72046FFF70C
:1038800071FF2046FFF770FFC9E723686FF0010260
:103890001A612046FEF774F8C9E723686FF08002CA
:1038A0001A61204600F05FF9C7E723686FF0400215
:1038B0001A612046FFF759FFC5E723686FF0200221
:1038C0001A61204600F04EF9C3E700000368294A58
:1038D00090420ED0B0F1804F0BD0A2F57C429042C6
:1038E00007D002F58062904203D002F580629042D8
:1038F00003D123F070034A6813431E4A90421AD042
:10390000B0F1804F17D0A2F57C42904213D002F55F
:10391000806290420FD002F5806290420BD002F597
:103920009A32904207D002F58062904203D002F5AD
:103930008062904203D123F44073CA68134323F09A
:1039400080034A69134303608B68C3620B68836218
:10395000084B98420AD001234361036913F0010F19
:1039600003D0036923F00103036170470B6903630C
:10397000F1E700BF0000014040B310B5044690F8E5
:103980003D30F3B1022384F83D30214651F8040B59
:10399000FFF79CFF012384F8463084F83E3084F81A
:1039A0003F3084F8403084F8413084F8423084F865
:1039B000433084F8443084F8453084F83D300020AA
:1039C00010BD80F83C30FFF775FADBE70120704747
:1039D00010B4846824F47F4C42EA03220A4342EA8A
:1039E0000C0282605DF8044B704790F83C30012B6C
:1039F00078D010B50446012380F83C30022380F8CB
:103A00003D300268936823F47F4323F0770393608B
:103A10000B68602B4CD029D8402B54D00CD9502B9C
:103A200022D1CA6849680068FFF730FE502120683B
:103A3000FFF753FE002005E0202B0DD009D9302BD5
:103A40000AD00120012384F83D30002384F83C3063
:103A500010BD0BB1102B05D119462068FFF73DFEB4
:103A60000020EFE70120EDE70120EBE7B3F5805FF1
:103A700034D0B3F5005F0CD1CB684A688968006820
:103A8000FFF7A6FF2268936843F480439360002009
:103A9000D8E7702B24D1CB684A6889680068FFF7A3
:103AA00097FF2268936843F0770393600020C9E78B
:103AB000CA6849680068FFF7FCFD60212068FFF7CD
:103AC0000CFE0020BEE7CA6849680068FFF7DEFD0B
:103AD00040212068FFF701FE0020B3E70020B1E796
:103AE0000120AFE70220704790F83C20012A35D032
:103AF00010B40346012280F83C20022280F83D20C9
:103B000002685068946820F0700C086840EA0C0065
:103B100050601A681248824212D0B2F1804F0FD022
:103B2000A0F57C4082420BD000F58060824207D035
:103B300000F58060824203D000F59A30824204D1C1
:103B400024F08004496821439160012283F83D20DC
:103B5000002083F83C005DF8044B7047022070475A
:103B6000000001407047704730B589B00546002419
:103B700001941D4B5A6C42F001025A645B6C03F0D5
:103B800001030193019B02A903A8FFF761FDFFF761
:103B90004FFD164AA2FB00239B0C013B1448154A1B
:103BA000026040F2E732C260436004618460846175
:103BB000FFF7E2FE044610B1204609B030BD0C48C4
:103BC000FFF794FD04460028F6D11920FEF7D8F837
:103BD0000F2D01D90124EFE7002229461920FEF715
:103BE000BFF8054B1D60E7E70038024083DE1B434A
:103BF000E80200200000014028000020026802F1D5
:103C00000C0353E8003F23F490730C3242E8003178
:103C10000029F3D1026802F1140353E8003F23F0B6
:103C20000103143242E800310029F3D1036B012B68
:103C300005D0202380F842300023036370470268D8
:103C400002F10C0353E8003F23F010030C3242E86A
:103C500000310029F3D1ECE710B50446026813697E
:103C600023F44053C1680B431361836802691A430C
:103C700043691A43C3691A430168CB6823F41643A6
:103C800023F00C031343CB600268536923F44073A1
:103C900081690B4353610368314A934206D002F5B0
:103CA0008062934202D0FFF7B3FC01E0FFF7C0FC53
:103CB000E369B3F5004F29D00021031849411B18CF
:103CC00041F10001C90041EA5371DB001818636833
:103CD0004FEA83024FEA937341F10001FCF79EFE25
:103CE000204AA2FB00314909642303FB11031B0195
:103CF0003233A2FB03235B0903F0F00202EB011253
:103D000003F00F03216813448B6010BD00230218D9
:103D100043EB0301121841F10001C90041EA52715D
:103D2000D200101841F10001626892185B41FCF763
:103D300075FE0C4AA2FB00314909642303FB110301
:103D4000DB003233A2FB03235B095A0002F4F87252
:103D500002EB011203F00703216813448B60D4E7E0
:103D6000001001401F85EB512DE9F04383B005465B
:103D70000E4617469946DDF828802B681C6836EAFF
:103D800004040CBF01240024BC4228D1B8F1FF3F39
:103D9000F3D0FDF777FFA0EB0900404523D8B8F139
:103DA000000F22D02B68DA6812F0040FE5D0802EC5
:103DB000E3D0402EE1D01A6812F0080FDDD00024C5
:103DC00001941A6801925B680193019B2846FFF7F2
:103DD00015FF08236B6485F84040012000E00020B7
:103DE00003B0BDE8F0830320FAE70320F8E760B3EF
:103DF00010B5044690F8413013B3242384F84130C1
:103E00002268D36823F40053D3602046FFF724FFD1
:103E10002268136923F4904313612268536923F0E5
:103E20002A0353612268D36843F40053D36000200F
:103E30006064202384F8413084F84230606310BD10
:103E400080F84030FFF770F8D7E7012070472DE980
:103E5000F04182B01E4690F84130DBB2202B56D1A3
:103E600004460D469046002955D00AB901204FE07E
:103E700000234364212380F84130FDF703FF074608
:103E8000A4F82480A4F82680A368B3F5805F02D04C
:103E90004FF0000814E023692BB34FF000080FE047
:103EA000202384F84130032032E038F8023B2268B6
:103EB000C3F308035360E28C92B2013A92B2E284F7
:103EC000E38C9BB293B100963B46002280212046B2
:103ED000FFF74AFF0028E3D1002DE6D015F8012BAB
:103EE00023685A60E7E7A8460025E9E700963B46C5
:103EF000002240212046FFF737FF18B9202384F81D
:103F0000413005E0202384F84130032000E0022006
:103F100002B0BDE8F0810120FAE72DE9F04182B05E
:103F20001E4690F84230DBB2202B59D104460D4694
:103F30009046002958D00AB9012052E0002343647A
:103F4000222280F842200363FDF79CFE0746A4F876
:103F50002C80A4F82E80A368B3F5805F02D04FF0C8
:103F600000081CE0236913B14FF0000817E0A846D1
:103F7000002514E0202384F84230032031E0236838
:103F80005B68C3F3080328F8023B03E023685B681F
:103F90002B700135E28D92B2013A92B2E285E38D47
:103FA0009BB2C3B100963B46002220212046FFF77A
:103FB000DBFE0028DED1002DE1D0A368B3F5805FE1
:103FC000E4D013B92369002BE0D023685B6803F0C9
:103FD0007F032B70DDE7202384F84230002000E0CF
:103FE000022002B0BDE8F0810120FAE7FEE7FEE71B
:103FF000FEE7FEE7FEE7704770477047704708B579
:104000001020FEF77BF908BD08B50248FDF78CFFCC
:1040100008BD00BF5801002008B50248FFF7A6FB05
:1040200008BD00BFE802002010B50A4C0123237030
:10403000094A1370094A13680133136020210848A4
:10404000FEF751F9FDF75CFB002323700548FFF7ED
:104050008DFB10BD450100203C01002040010020E7
:10406000000002404802002008B54FF40050FEF75F
:1040700045F908BD08B50248FFF778FB08BD00BF49
:104080000002002010B503460C4A0D490D48006897
:1040900040B10C4800680344521A934206D8094ABA
:1040A000136010BD0748084C0460F2E700F00EF9F9
:1040B0000C2303604FF0FF30F3E700BF0000022045
:1040C000000400003003002080050020034AD2F8DD
:1040D000883043F47003C2F88830704700ED00E088
:1040E00000B583B002F10A03009393B20A46014679
:1040F0000248FEF74DFC03B05DF804FBAC00002065
:1041000000B583B002F10A03009393B20A4640F06F
:1041100001010348FEF7F8FC03B05DF804FB00BFA3
:10412000AC00002008B50B4607494FEA132C81F874
:1041300000C04B708A700322FFF7D2FF00B908BDA0
:104140006FF00C00FBE700BF3403002008B50B46FE
:1041500008494FEA132C81F800C04B70130A8B708A
:10416000CA700422FFF7BCFF00B908BD6FF00C0055
:10417000FBE700BF3403002008B50B460A494FEAAD
:10418000132C81F800C04B70130E8B70130CCB7086
:10419000130A0B714A710622FFF7A2FF00B908BD8E
:1041A0006FF00C00FBE700BF3403002038B5044675
:1041B0000B4615460A491A0A0A704B700222FFF78D
:1041C0008FFF30B9012229462046FFF799FF18B921
:1041D00038BD6FF00C00FBE76FF00C00F8E700BF94
:1041E0003403002038B504460B4615460D491A0A1B
:1041F0000A704B700222FFF773FF60B9022209496F
:104200002046FFF77DFF48B9064B1A785B7803EB31
:1042100002232B8038BD6FF00C00FBE76FF00C0021
:10422000F8E700BF34030020DFF834D0FFF74EFF7B
:104230000C480D490D4A002302E0D458C450043301
:10424000C4188C42F9D30A4A0A4C002301E01360D7
:104250000432A242FBD300F03FF8FDF793FC704715
:1042600000000220000000208000002028500008EC
:10427000800000207C050020FEE700000EB400B5A1
:104280009CB01DAB029006906FF000410948079169
:104290000491094953F8042B05910068019302A980
:1042A00000F0A2F9029B00221A701CB05DF804EB2A
:1042B00003B07047300000200802FFFF02440346AD
:1042C000934200D1704703F8011BF9E7014B1868CE
:1042D000704700BF3000002070B50D4D0D4C641BC1
:1042E000A4100026A64209D10B4D0C4C00F0F0FDA5
:1042F000641BA4100026A64205D170BD55F8043BEE
:1043000098470136EEE755F8043B98470136F2E747
:1043100020500008205000082050000824500008B9
:10432000704770470A44914200F1FF3300D1704753
:1043300010B511F8014B03F8014F9142F9D110BDAE
:1043400038B50546002941D051F8043C0C1F002B1C
:10435000B8BFE41800F0E0F81D4A136833B9636091
:1043600014602846BDE8384000F0DCB8A34208D904
:10437000206821188B4201BF19685B680918216009
:10438000EDE71A465B680BB1A342FAD911685018E1
:10439000A0420BD120680144501883421160E0D143
:1043A00018685B68536008441060DAE702D90C2390
:1043B0002B60D6E7206821188B4204BF19685B6820
:1043C000636004BF091821605460CAE738BD00BFAC
:1043D0007805002070B50F4E0C463168054611B9BE
:1043E00000F0B2FB30602146284600F0ADFB431CD4
:1043F00003D14FF0FF34204670BDC41C24F00304E9
:10440000A042F8D0211A284600F09EFB0130F2D1DC
:10441000EFE700BF740500202DE9F843CD1C25F01F
:10442000030508350C2D38BF0C25002D064601DB91
:10443000A94204D90C2333600020BDE8F883DFF8DB
:10444000D48000F069F8D8F800301C4644BB2946F7
:104450003046FFF7BFFF431C044658D1D8F8004050
:104460002746002F43D1002C4BD0236839463046D5
:1044700004EB030900F068FB814542D121686D1A05
:1044800029463046FFF7A6FF01303AD023682B4477
:104490002360D8F800305A6862BBC8F800700FE09B
:1044A0002268521B20D40B2A17D96119A342256018
:1044B00018BF5960636808BFC8F8001062514B60AC
:1044C000304600F02FF804F10B00231D20F0070008
:1044D000C21A1CBF1B1AA350AFE76268A3420CBFED
:1044E000C8F800205A60EBE723466468AEE73C4614
:1044F0007F68B6E71A465B68A342FBD1002353608E
:10450000DEE70C233360304600F00CF894E70560DA
:10451000D6E700BF780500200148FFF701BF00BFC4
:10452000700500200148FFF7FCBE00BF70050020A9
:104530002DE9F0478E681F46BE420B6882460C4646
:1045400090462DD8B1F90C2012F4906F26D06569F1
:10455000096905EB4505A3EB010905EBD5757B1C46
:104560004B446D109D4238BF1D46530527D5294643
:10457000FFF752FF064660B321694A46FFF7D2FEB5
:10458000A38923F4906343F08003A38126616561CE
:104590004E44A5EB09052660A5603E46BE4200D903
:1045A0003E4620683246414600F0B4FAA3689B1BA1
:1045B000A3602368334423600020BDE8F0872A46C7
:1045C00000F0D2FA06460028E0D121695046FFF7F4
:1045D000B7FE0C23CAF80030A38943F04003A3813F
:1045E0004FF0FF30E9E700002DE9F04F98468B8946
:1045F0001B069DB007460D46144610D50B6973B9CE
:104600004021FFF709FF2860286130B90C233B6087
:104610004FF0FF301DB0BDE8F08F40236B610023E9
:10462000099320238DF82930CDF80C803023DFF852
:104630009C818DF82A304FF0010923469A4613F8E1
:10464000012B0AB1252AF9D1BAEB040B0BD05B463A
:10465000224629463846FFF76BFF013000F0A7805D
:10466000099A5A4409929AF80030002B00F09F8072
:1046700000234FF0FF32CDE905230AF1010A04932C
:1046800007938DF853301A935446052214F8011BF2
:104690004E48FBF785FD049AD8B9D00644BF2023C5
:1046A0008DF85330110744BF2B238DF853309AF8FF
:1046B00000302A2B15D0079A544600204FF00A0CE0
:1046C000214611F8013B303B092B4BD9B0B1079281
:1046D00014E0A0EB080309FA03F313430493A24682
:1046E000D2E7039B191D1B680391002BBBBF5B42E4
:1046F00042F0020207930793B8BF049223782E2B4F
:104700000AD163782A2B32D1039B1A1D1B680392AE
:1047100043EAE37302340593DFF8C0A02178032253
:104720005046FBF73DFD38B1049BA0EB0A00402248
:10473000824013430134049314F8011B24488DF87C
:1047400028100622FBF72CFD002836D0214B1BBB7E
:10475000039B073323F0070308330393099B334478
:1047600009936AE70CFB02320C460120A8E70023FC
:104770000134059319464FF00A0C204610F8012B1E
:10478000303A092A03D9002BC6D00591C4E70CFBA7
:10479000012104460123F0E703AB00932A460E4BA8
:1047A00004A93846AFF30080421C0646D6D1AB8937
:1047B0005B063FF52DAF09982CE703AB00932A4623
:1047C000054B04A9384600F079F8EDE7E44F0008FE
:1047D000EE4F00080000000031450008EA4F0008D5
:1047E0002DE9F047164698468A680B69DDF8209057
:1047F0009342B8BF1346336091F8432007460C46F6
:104800000AB1013333602368990642BF336802332B
:104810003360256815F0060506D104F1190AE3682E
:1048200032689B1AAB4226DC94F843302268003B86
:1048300018BF012392062BD404F1430241463846A7
:10484000C84701301ED02368226903F00603042BF9
:1048500002BFE5683368ED1AA3680CBF25EAE57569
:1048600000259342C4BF9B1AED1800261A34B542A6
:104870001AD1002008E00123524641463846C84775
:10488000013003D14FF0FF30BDE8F0870135C6E7B6
:10489000E1185A1C302081F84300224494F8451056
:1048A00082F843100233C7E70123224641463846C7
:1048B000C8470130E6D00136D9E700002DE9FF47AF
:1048C0000F7E0C9E782F914680460C469A4601F149
:1048D000430207D8622F0AD8002F00F0DD80582F3E
:1048E00000F0C38004F1420684F842703AE0A7F178
:1048F0006303152BF6D801A151F823F055490008A0
:1049000069490008E5480008E5480008E54800084E
:10491000E548000869490008E5480008E54800083E
:10492000E5480008E54800087F4A0008F749000804
:10493000374A0008E5480008E5480008A14A000891
:10494000E5480008F7490008E5480008E548000880
:104950003F4A000833681A1D1B68326004F14206A2
:1049600084F842300123A8E031682368081D3060D4
:104970001E0601D50D6803E05D06FBD5B1F90050B8
:104980006168002D78DA2D20002984F84300A160A9
:104990002DDA5E486D420A231646B5FBF3F103FBA0
:1049A0001157C75D06F8017D2F46BB420D46F4D96D
:1049B000082B0BD12368DF0708D52369616899426A
:1049C000DEBF302306F8013C06F1FF36921B226160
:1049D000CDF800A04B4603AA21464046FFF700FF52
:1049E00001306FD14FF0FF3004B0BDE8F08723F005
:1049F00004032360CDE721683368080653F8045B9D
:104A000002D4490648BFADB26F2F4048336014BF8F
:104A10000A230823002184F843106668A660002E4C
:104A2000BADB216821F004012160002DB4D1002EF1
:104A3000B2D11646BCE7236843F020032360344814
:104A4000782784F84570236831681F0651F8045BA5
:104A500002D45F0648BFADB23160D90744BF43F00E
:104A6000200323601DB11023D4E72848E9E7236819
:104A700023F020032360F6E724480A23CDE73368B8
:104A800025686169181D30602E061B6801D5196004
:104A900002E06806FBD5198000232361164697E7DC
:104AA00033681A1D32601E68626800213046FBF7C9
:104AB00077FB08B1801B606063682361002384F882
:104AC000433085E72369324649464046D0470130A6
:104AD00088D023689B0714D4E068039B9842B8BF32
:104AE000184681E70123324649464046D047013007
:104AF0003FF478AF0135E36803995B1AAB42F1DC10
:104B0000EAE7002504F11906F5E700BFF54F0008B4
:104B100006500008884210B501EB020402D9844215
:104B2000234607D8431EA14208D011F8012B03F8F1
:104B3000012FF8E7024401468A4200D110BD13F864
:104B4000014D02F8014DF7E738B5064D0023044644
:104B500008462B60FFF796FA431C02D12B6803B17D
:104B6000236038BD6C0500202DE9F04180461546D4
:104B70000C4621B9BDE8F0411146FFF74DBC2AB9FA
:104B8000FFF7DEFB00242046BDE8F08100F01AF8B4
:104B90008542064602D8B5EB500FF4D82946404668
:104BA000FFF73AFC07460028ECD0B5422A462146DA
:104BB00028BF3246FFF7B6FB21464046FFF7C0FB51
:104BC0003C46E0E751F8043C181F002BBCBF0B58D3
:104BD000C0187047D0B5FBF797FC0C4B0022064677
:104BE0000F46FBF7E9FCFBF7F9FE0446FBF76AFC0E
:104BF000074B0022FBF7E0FC02460B4630463946E5
:104C0000FBF722FBFBF7EAFE2146D0BD0000F03D9A
:104C10000000F0412DE9F047089D0C46002B4ED1D5
:104C200094468C458646B2FA82F262D94AB1C2F104
:104C30002003914020FA03F30CFA02FC194300FA16
:104C400002FE4FEA1C471FFA8CF6B1FBF7F44FEA5D
:104C50001E4307FB141143EA014304FB06F199428A
:104C60000AD91CEB030304F1FF3080F01281994252
:104C700040F20F81023C6344591A1FFA8EF3B1FBD4
:104C8000F7F007FB101143EA014300FB06F69E42D2
:104C90000AD91CEB030300F1FF3180F0FC809E4237
:104CA00040F2F980634402389B1B40EA0440002133
:104CB0001DB1D3400022C5E90032BDE8F0878B4228
:104CC00005D90DB1C5E9000100210846F5E7B3FAA1
:104CD00083F1002946D1A34202D39042C0F0F08074
:104CE000861A64EB03030120002DE6D0C5E90063BA
:104CF000E3E7002A40F09080A1EB0C044FEA1C4847
:104D00001FFA8CF70121B4FBF8F64FEA1E4308FBAB
:104D1000164443EA044307FB06F0984208D91CEB0B
:104D2000030306F1FF3402D2984200F2CD802646FA
:104D30001C1A1FFA8EF3B4FBF8F008FB104443EA88
:104D4000044300FB07F79F4208D91CEB030300F163
:104D5000FF3402D29F4200F2B0802046DB1B40EAC3
:104D60000640A5E7C1F120068B4022FA06F71F4353
:104D700020FA06FC04FA01F343EA0C03F44000FABB
:104D800001F8380C4FEA1349B4FBF0FE1FFA87FC18
:104D900000FB1E4449EA04440EFB0CF9A14502FA4B
:104DA00001F20AD93C190EF1FF3A80F08480A14546
:104DB00040F28180AEF1020E3C44A4EB09041FFADC
:104DC00083F9B4FBF0F300FB134449EA044403FB0A
:104DD0000CFCA44507D93C1903F1FF3067D2A44568
:104DE00065D9023B3C4443EA0E40A0FB0293A4EB8E
:104DF0000C049C42CE469C4651D34ED055B1B8EBE4
:104E00000E0364EB0C0404FA06F6CB401E43CC40C0
:104E1000C5E90064002150E7C2F1200320FA03F144
:104E20000CFA02FC24FA03F394400C434FEA1C48AA
:104E300000FA02FE1FFA8CF7B3FBF8F008FB103102
:104E4000230C43EA014300FB07F1994208D91CEB0C
:104E5000030300F1FF362CD299422AD90238634469
:104E60005B1AA4B2B3FBF8F108FB113344EA034424
:104E700001FB07F3A34208D91CEB040401F1FF3640
:104E800013D2A34211D902396444E41A41EA004121
:104E900039E70446F0E6084606E7C845AED2B9EB66
:104EA000020E63EB070C0138A8E73146EDE7034635
:104EB00099E73046D4E7D6467FE7634402384DE7AA
:104EC0000646234608460FE7023E634430E700BF2C
:104ED000F8B500BFF8BC08BC9E467047F8B500BFE7
:084EE000F8BC08BC9E467047B7
:104EE800564C35334C3158204D6F64656C5F4944DE
:104EF8003A202558200A0000564C35334C315820AA
:104F08004D6F64756C655F547970653A202558203B
:104F18000A000000564C35334C31583A20255820A9
:104F28000A000000564C35334C315820496E6974DC
:104F380069616C697A656420616E642043616C699B
:104F48006272617465640000FFFFFF0502040107D7
:104F58000300FFFF090DFFFFFFFF0A06FFFF0B0C11
:104F68000000000102000208000810010100000012
:104F780000FF000F0000000000200B0000020A21C3
:104F880000000500000000C8000038FF010008000C
:104F98000001CC0F01F10D0168008008B800000085
:104FA800000F8900000000000000010F0D0E0E0028
:104FB8000002C7FF9B000000010000000006101659
:104FC80000061016000000000102030400000000A3
:104FD800000000000102030406070809232D302BF6
:104FE8002000686C4C0065666745464700303132E2
:104FF8003334353637383941424344454600303139
:105008003233343536373839616263646566000097
:0850180088B1FF7F01000000D8
:04502000750A000805
:04502400510A000825
:10502800040000000400000052000000FA00000024
:105038001E0001001E00000001000000415F4A0040
:105048004A5F410001000000100000000024F40045
:105058003400002000000000340400209C040020DC
:10506800040500200000000000000000000000000F
:105078000000000000000000000000000000000028
:105088000000000000000000000000000000000018
:105098000000000000000000000000000000000008
:040000050800422984
:00000001FF
