:020000040800F2
:100000000000022079200008C5200008C502000871
:10001000CD020008D5020008DD0200080000000043
:10002000000000000000000000000000BD580008B3
:10003000C52000080000000079580008B9570008E2
:10004000C5200008C5200008C5200008C5200008FC
:10005000C5200008C5200008C5200008C5200008EC
:10006000C5200008C5200008C5200008C5200008DC
:10007000C5200008C5200008C5200008C5200008CC
:10008000C5200008C5200008C520000800000000A9
:10009000000000000000000000000000C520000873
:1000A000C5200008C5200008C5200008C52000089C
:1000B000C5200008C5200008C5200008C52000088C
:1000C000C5200008C5200008C5200008C52000087C
:1000D000C5200008C5200008C52000080000000059
:1000E000C5200008C5200008C52000080000000049
:1000F000000000000000000000000000C520000813
:1001000000000000C5200008C5200008C520000828
:1001100000000000000000000000000000000000DF
:10012000C5200008C5200008C5200008C52000081B
:10013000C5200008000000000000000000000000D2
:10014000000000000000000000000000C5200008C2
:10015000C5200008C5200008C5200008C5200008EB
:10016000C5200008C52000080000000000000000B5
:10017000000000000000000000000000000000007F
:1001800000000000C5200008000000000000000082
:10019000C5200008C520000810B5054C237833B9E8
:1001A000044B13B10448AFF300800123237010BD4A
:1001B000E0070020000000008C78000808B5034B21
:1001C0001BB103490348AFF3008008BD00000000E5
:1001D000E40700208C780008A3F5803A704700BF40
:1001E000174B002B08BF134B9D46FFF7F5FF00216F
:1001F0008B460F461348144A121A06F0D7FB0E4BD3
:10020000002B00D098470D4B002B00D098470020C2
:10021000002104000D000D48002802D00C48AFF367
:10022000008006F02DFB2000290005F055F906F0AE
:1002300049F900BF00000800000000003D18000858
:1002400000000220E0070020A00C002000000000B9
:10025000000000000346006818B9186808B9181DA6
:1002600018607047024B1B6803B11847704700BF06
:10027000FC07002007B5019000F084FE01980121E1
:1002800000F05CF903B05DF804EB00F085BE07B543
:10029000019000F077FE0198002100F04FF903B0C3
:1002A0005DF804EB00F078BE07B5CDE9001000F072
:1002B00069FEDDE9001000F03DF903B05DF804EBE4
:1002C00000F06ABE4FF0100300F00CB84FF02003AE
:1002D00000F008B84FF0300300F004B84FF04003CE
:1002E00000F000B8EFF308804FF0040172460A42B4
:1002F00001D0EFF309809C46254B196802680A601B
:10030000043142680A60043182680A600431C268BC
:100310000A600431F0C147460F6004314F460F6058
:10032000043157460F6004315F460F6004310269A3
:100330000A60083142690A60043182690A60043146
:10034000C2690A600431034620334FF4007632421A
:1003500000D0043375464FF01006354200D14833C3
:100360000C46103C2360EFF309820A600431EFF37E
:1003700008820A60043172460A600431EFF3148285
:100380000A606046024B196800F07CFFFEE700003F
:100390005075000800207047036801221B69002186
:1003A0001847036800221B69114618476FF01500B3
:1003B000704703681B69184703689B6918470368FF
:1003C0009B6A184700290CBF6FF018000020704787
:1003D000012070476FF0150070476FF015007047EF
:1003E000704730B591FAA1F391FAA1F1B3FA83F312
:1003F00004685B000325B1FA81F105FA03F34900B3
:1004000024EA03038A401343036030BD7FB52B4BBE
:10041000002207284FD8DFE800F004121E2A364ECB
:100420004E4200921A6B264842F001021A631B6B7F
:1004300003F001030093009B07B05DF804FB0192F9
:100440001A6B204842F002021A631B6B03F002038E
:100450000193019BF0E702921A6B1B4842F00402E1
:100460001A631B6B03F004030293029BE4E70392FD
:100470001A6B164842F008021A631B6B03F008035C
:100480000393039BD8E704921A6B114842F01002C1
:100490001A631B6B03F010030493049BCCE70592D3
:1004A0001A6B0C4842F080021A631B6B03F0800346
:1004B0000593059BC0E7084800F010FE0038024095
:1004C000000002400004024000080240000C02400C
:1004D00000100240001C02405073000810B54FF499
:1004E0007071044604F00F0401F0E6FB0120A04007
:1004F00010BD00004B1C70B504460E46018216D09C
:10050000C1F30310FFF782FF05463046FFF7E6FF11
:10051000238A074A656103F00F03206052F82330F5
:10052000A36105F110031835C4E90255636070BD7D
:1005300020770008B0F9100001F03ABC0A46D0E973
:1005400005010AB9FFF74DBF0122FBE708B503F02B
:100550000DFB002008BD000008B50A4B1B684BB11D
:1005600001F060FB01F04CFB4FF47A72002305F0C0
:1005700027FE08BD044B586A4FF47A73B0FBF3F0C2
:10058000F7E700BFB8080020000C0040416830B415
:10059000034671B1D0E9032000F0010402B944B16F
:1005A000451001EB60000CB149598A58996830BC7C
:1005B000104730BC70470000036870B504460D4614
:1005C0001B68984704F13000C4F8C450294600F075
:1005D00035FA044B1C60236820465B68BDE8704018
:1005E000184700BF08080020036870B5094D1B6854
:1005F000044698472B68A34206D0D4F8C41004F1EF
:10060000300000F01BFA2C60236820465B68BDE8D0
:1006100070401847080800207FB51D46036804464F
:10062000CDE902211B6898472046FFF7DDFF9DF8C2
:10063000203083F00103DDE90221009304F1300052
:100640002B4600F039FB236806465B682046984736
:10065000A81B18BF012004B070BD7FB51D460368FC
:100660000446CDE902211B6898472046FFF7BCFFEE
:100670009DF8203083F00103DDE90221009304F1AD
:1006800030002B4600F0BCFA236806465B68204623
:100690009847A81B18BF012004B070BD70B505466F
:1006A000044655F8303B1B689847284600F089FA05
:1006B000236820465B68BDE87040184770B590B06D
:1006C0000D46144600211C2202A806F06FF90126EF
:1006D00000231A46294602A8009600F05AFE1C2262
:1006E000002109A806F062F900231A460096214667
:1006F00009A800F04EFE0A9B1A68099B1A4203D112
:100700006FF0010010B070BD039B1968029B194087
:1007100043D109A8FFF7C8FD09A8FFF7ABFD0A24DC
:10072000002109A8FFF7C0FD099B0C9A1B04136068
:10073000052001F085FA012109A8FFF7B5FD0B9B03
:10074000099A1A60052001F07BFA013CE8D102A861
:10075000FFF790FD029B059A1B041360052001F032
:100760006FFA0B9B099A1A60052001F069FA049B45
:10077000029A1A60052001F063FA02A8FFF787FDCC
:1007800009A8FFF784FD0A9B1A68099B1A42B7D093
:10079000039B1A68029B1A42B2D00020B2E7C368DA
:1007A00010B504460BB19B689847204610BD000069
:1007B000064B10B504460360806A08B1FFF752FD8E
:1007C000201DFFF7ECFF204610BD00BF7C73000822
:1007D00010B50446FFF7ECFF2046CC2101F014F8D9
:1007E000204610BD08B50248FFF734FD08BD00BF24
:1007F000000800201C4B2DE9F04104460D4616462A
:1008000040F8043B1022002106F0D0F804F1300833
:100810000021164BA185C4E90711C4E90911144F41
:1008200063619422A461404606F0C0F8114BC4F8FD
:10083000C4303846FFF70EFD32462946A4F8C850AA
:10084000A4F8CA602046FFF739FFB4F9CA20B4F90A
:10085000C810404600F0A6F9074B38461C60FFF769
:10086000F9FC2046BDE8F0817C7300088D05000886
:1008700000080020A08601000808002007B5054BED
:100880009868019001F044FF019803B05DF804EB13
:1008900002F09EBA0C08002007B5054B586801907D
:1008A00001F036FF019803B05DF804EB02F090BA56
:1008B0000C08002007B5054B1868019001F028FFCF
:1008C000019803B05DF804EB02F082BA0C08002036
:1008D00070B5244C90F96430A56890F9652003F157
:1008E000100645F8261002F11006A56845F82610F6
:1008F00090F86810002914BF10212021002BB5BFEB
:1009000003F00F0003F16040043800F56140B6BF0A
:10091000241880F800132176002A11DB02F16040D0
:1009200000F56140002B80F800130FDA0123510914
:1009300002F01F0203FA02F20B4B43F8212070BDB4
:100940000A4802F00F04002B0155F8DB580903F0A8
:100950001F0101238B40044941F82030002AE5DAC9
:10096000EDE700BF00ED00E000E100E014ED00E085
:1009700010B590F9654090F9640001F0E5FB204660
:10098000BDE8104001F0E0BB90F85830012B00F1B9
:10099000040109D0022B09D0002B054818BF002004
:1009A000044A42F8231070470348F9E70348F7E781
:1009B000B50800080C080020990800087D08000808
:1009C0001A4A03681268C16DB2FBF1F11422436048
:1009D0004A439969890701D5013AFAD1144A9342E9
:1009E00009D1144B1A6A42F400121A621A6A22F4EC
:1009F00000121A627047104A934204D002F58062D6
:100A0000934209D070470B4B1A6A42F480021A6273
:100A10001A6A22F48002ECE7064B1A6A42F40002DA
:100A20001A621A6A22F40002E3E700BFA80300205A
:100A3000005400400038024000580040F8B5124B06
:100A4000C26D1B68B3FBF2F21423534342680446A1
:100A50000E46071D9169890701D5013BFAD1002592
:100A60002946A660E560384602F072FA4FF48043EA
:100A7000C4E90535C4E908552561E561384601F04A
:100A800055FCE665F8BD00BFA8030020F0B50E4692
:100A9000044685B03D493046154600F0EDFC3C4922
:100AA0000746284600F0E8FCA4F860600146A4F878
:100AB0006250384600F0BEFC364B2060984212D19E
:100AC0000023019384F85830334B1A6C42F400121F
:100AD0001A641B6C03F400130193019B42F21F0381
:100AE000A4F8643006E02D4B98422BD003F58063C8
:100AF000984239D02549304600F07AFC24492846EE
:100B000000F076FC0421304601F052F90421284619
:100B100001F04EF9E36D0BB9214BE3652046FFF779
:100B20004FFFE16DFFF78AFF002384F8693084F8F6
:100B3000683084F86A3084F86730042384F86630BB
:100B400005B0F0BD012384F8583000230293124B06
:100B50001A6C42F480021A641B6C03F48003029343
:100B6000029B42F22123BBE7022384F85830002382
:100B70000393094B1A6C42F400021A641B6C03F4D1
:100B800000030393039B44F64813A9E71876000873
:100B9000DC75000800540040003802400058004056
:100BA000A086010070B504460D4616460021942229
:100BB00005F0FCFE324629462046BDE87040FFF7AE
:100BC00065BF016808B50A6842F400720A6090F8CF
:100BD0006620042A05D0B0F96220B0F96010FFF752
:100BE00055FF002008BD10B50446FFF7EAFFB4F931
:100BF0006220B4F960102046BDE81040FFF746BF00
:100C0000F0B51D4690F8663085B0042B0E460446BC
:100C10000A9900F1040701D0082B3FD100293BD0ED
:100C2000042384F86630002384F86730204603925A
:100C3000FFF7AAFE01462046FFF74AFE94F8663009
:100C40000093039AABB2B1B2384601F043FCF0B95D
:100C5000184B1E68E36DB6FBF3F605FB06631E2614
:100C60005E4394F8673013F01E0F01D1013E1DD191
:100C70002046FFF77DFE1EB194F86730082B08D0A0
:100C8000B4F96220B4F960102046FFF7FFFE6FF060
:100C90000105284605B0F0BD0123C2E7013B012B49
:100CA000C1D809B10823BCE70223BAE7012000F04C
:100CB000C7FFD6E7A8030020F0B51D4690F86630C0
:100CC00085B0042B0E4604460A9900F1040701D0B2
:100CD000082B3FD100293BD0042384F86630002341
:100CE00084F8673020460392FFF74EFE0146204607
:100CF000FFF7EEFD94F866300093039AABB2B1B201
:100D0000384601F081FBF0B9184B1E68E36DB6FB65
:100D1000F3F605FB06631E265E4394F8673013F076
:100D20001E0F01D1013E1DD12046FFF721FE1EB14D
:100D300094F86730082B08D0B4F96220B4F9601039
:100D40002046FFF7A3FE6FF00105284605B0F0BD71
:100D50000123C2E7013B012BC1D809B10823BCE73D
:100D60000223BAE7012000F06BFFD6E7A8030020BA
:100D7000436F07B50146ABB1D0F8843093B190F81A
:100D80006C20002A14BF0822022280F86220009200
:100D9000D0F88020B0F868109BB201F09BFB03B044
:100DA0005DF804FB082381F86330F8E7082380F836
:100DB0006330704738B5051D04460261284601F0CE
:100DC000B5FA2046FFF7E0FD01462046FFF780FD1B
:100DD0002846BDE8384001F0E9BB37B50446043881
:100DE00094F8645005B1E568B4F95E20B4F95C107C
:100DF0000190FFF74BFE01983DB1012384F8643068
:100E000000232A461946FFF7D5FF022384F86330F2
:100E100003B030BD19B9012380F86530704701294E
:100E200008BF80F866107047002380F8653070476F
:100E3000002380F86630704701F0B8BB10B5044657
:100E400050F80429536823F4E0635360FFF790FDE2
:100E5000022384F8633010BD83681A6843681A421D
:100E600014BF01200020704703460122D3E84F0F32
:100E7000C3E8412FC0B20029F8D17047D0E84F3FF6
:100E8000C0E8421FD8B2704700B589B000F07AF8C8
:100E9000052101A800F07AFA114E124D0424039B9B
:100EA000019A1A60304600F0CBFE019B049A1B04A5
:100EB0001360304600F0C4FE013CF0D10424039BD3
:100EC000019A1A60284600F0BBFE019B049A1B049D
:100ED0001360284600F0B4FE013CF0D1DEE700BF0D
:100EE000F0490200801A060007B501460022019071
:100EF000022000F0D5FB00F045F80199084605F006
:100F0000EEFF01990246022000F0CAFB03B05DF833
:100F100004EB00F041B8000000B5A3B002460B4658
:100F200001A8842106F010F8832806D9074B1A6817
:100F30001B79CDF883208DF88730002802DD01A8C9
:100F4000FFF7D2FF23B05DF804FB00BF8C730008ED
:100F50000FB407B504A951F8040B0191FFF7DCFFAA
:100F600003B05DF804EB04B07047EFF31080C043AA
:100F700000F001007047EFF30580003818BF012032
:100F80007047000008B500F013F8024A13680133F7
:100F9000136008BD20080020044A136823B1013BF8
:100FA00013600BB900F016B8704700BF200800208E
:100FB000EFF3108372B6054A117831B90449DB4367
:100FC00003F001030B700123137070472508002004
:100FD00024080020034B00221A70034B1B7803B136
:100FE00062B67047250800202408002008B50B4889
:100FF000FFF73AFF28B1FFF7C5FFBFF34F8F20BFC0
:10100000FDE7FFF7B8FF08B1FFF73EFFFFF7ADFFC1
:101010000028F9D0012005F055FA00BF740800201F
:1010200070B51D4C90B034EA200428BF04460D462C
:1010300016460021342203A805F0B8FCCDE900468D
:101040000295FFF79FFF154A13680133012B1360C8
:101050000BD16D460FCD124C0FC40FCD0FC40FCD69
:101060000FC495E80F0084E80F006C460FCC0D4DBF
:101070000FC50FCC0FC50FCC0FC594E80F0085E846
:101080000F00094B1B6813B1A5F130009847FFF71B
:1010900083FF002010B070BD0101FF8028080020F0
:1010A00034080020780800202C08002030B50A4DB4
:1010B000034600F13C04002013F8012B80EA026093
:1010C000082200284FEA4000B8BF6840013AF8D132
:1010D000A342F1D130BD00BFB71DC1040FB407B5A5
:1010E00001210648CDF804E0FFF7C8FE019A014649
:1010F00010B90348FFF794FFFFF778FF300800208E
:101100000001FF8008B5044601211D4876461546BA
:10111000FFF7B4FE20B9324629462046FFF780FF8C
:101120001848194C174DFFF7C1FF184BD3F8BC20D6
:1011300082420ABFD3F8B4300123013363632046EF
:101140000023A363FFF7B2FFE063FFF71BFF0FCCA1
:101150000FC50FCC0FC50FCC0FC594E80F0085E865
:101160000F00FFF719FFBFF34F8F0949094BCA68FA
:1011700002F4E0621343CB60BFF34F8F00BFFDE783
:101180003008002018020020780800209801002074
:1011900000ED00E00400FA05F0B52C4E2C4F85B0B0
:1011A00000243546214656F8042B38460134FFF713
:1011B000CFFE0D2CF6D1AB6C02936B6C01932B6CB4
:1011C000244C0093D5E90E23696B2348FFF7C0FE3A
:1011D00021682248FFF7BCFEE16AA26AA36AA06AFE
:1011E000266BE76B000CCDE901670090C3F3072382
:1011F0001B48D2B2FFF7ACFEA36A1E0603D5616B93
:101200001848FFF7A5FEA36A180403D5A16B16487A
:10121000FFF79EFEEB6C190712D51448FFF798FEF6
:101220002B6DDA070FD51248FFF792FEEB6C5B07C8
:101230004CBF1048104805B0BDE8F040FFF788BE2D
:101240000E48FFF785FE0E48EEE700BF980100202C
:101250009173000800ED00E09F730008EE73000832
:10126000FC7300084B740008597400086774000888
:1012700076740008A6740008B2740008967400081A
:101280008374000813B504461548FFF761FE302C3F
:1012900017D0402C1AD0202C1DD11248124CFFF729
:1012A00057FE1248FFF754FEFFF776FF1048FFF78E
:1012B0004FFE104A104900230093D26B2046FFF7DF
:1012C00021FF0E480E4CFFF743FEEAE70D480E4C97
:1012D000FFF73EFEE5E70D480D4CFFF739FEE0E76E
:1012E000BE740008E77400083E01FF801475000812
:1012F0001F750008980100203E750008F67400086C
:101300003F01FF80FF7400084001FF800A7500085C
:101310003D01FF8070B50E4604461546FFF7EAF81A
:10132000013609D020460021FFF708F9294620465A
:10133000BDE87040FFF7FEB870BD38B503680446DD
:101340000D465AB18268136020460121FFF7F6F876
:1013500029462046BDE83840FFF7ECB8C2681B04B8
:10136000F1E70022FFF7D6BF37B50D4604460192DC
:10137000FFF7C0F8013507D0019A0021204603B0DD
:10138000BDE83040FFF7D9BF03B030BD0022FFF702
:10139000EBBFF8B5069F04460E461D4662B91A46D5
:1013A000FFF7B8FF013603D0236817B1A2681360B6
:1013B000F8BDE2681B04FAE7FFF79CF80136F7D0A6
:1013C0003A4629462046BDE8F840FFF7B6BF000080
:1013D00008B502F079FB00F077FE02F067FB02F03F
:1013E00073FB024B01221A6008BD00BFB808002041
:1013F0001FB5431C10D105B05DF804FB83420AD130
:101400008968039000F058FC0398002105B05DF84E
:1014100004EB00F0CDBC0C31B1F900305A1CEDD119
:1014200000230246009302481946FFF76BFE00BFF7
:1014300030010180884207B502460AD0431C08D01B
:10144000013105D00023054800931946FFF75AFEE5
:101450000146084603B05DF804FB00BF300101807F
:10146000B1F900305A1C01D118467047834201D1AE
:10147000486870470C31F3E7421C13B504460AD0A4
:10148000FFF7EEFF431C06D10023044800932246D9
:101490001946FFF737FE02B010BD00BF30010180D2
:1014A0006FF01C0070476FF0150070470120704707
:1014B0000020704770470000F8B5074E15460C46EF
:1014C0008F18BC4205D014F8011B304600F0C2FD55
:1014D000F7E72846F8BD00BF2009002038B511F015
:1014E00001048DB205D0084800F0A6FC041E18BF08
:1014F0000124EB0605D5044800F0B4FC08B144F023
:101500001004204638BD00BF2009002010B5044655
:1015100005F0E6F9204610BD10B50C462AB1044886
:1015200000F086FD2070012010BD1046FCE700BFD2
:101530002009002038B51D46074B0360074B1B6888
:10154000044633B9064800F0DDFC0548294600F0A2
:10155000BFFC204638BD00BF5C75000808090020AC
:10156000200900200020704700207047074A0849E2
:1015700013681844884289BF064B10600C224FF054
:10158000FF308CBF1A601846704700BF9C030020D4
:1015900000FC01209C0C0020012070477047704720
:1015A00008B5FFF7FBFF08BD08B5FFF7F8FF08BD5A
:1015B000037803F00303012B09D0037803F003023F
:1015C000012A04D043F00203037001207047002079
:1015D0007047037823F0030343F00103037070475F
:1015E0003F2870B504462FDC184D55F820305A1CA2
:1015F00013D1022811DCFFF7B7FF034658B9204684
:10160000FFF7B0FF034630B9114E3378BFF35B8F5D
:10161000DB0704D50F4B45F82430184670BD304623
:10162000FFF7C6FF0028F5D04FF41653032202211E
:101630000848FFF77FFF3046FFF7CBFF064A074910
:101640000448FFF7A9FFE5E70023E6E79C02002036
:10165000BC080020C008002098020020B514000833
:1016600038B50546FFF7BCFF0B4B002443F8254077
:1016700030B904F021FF092303604FF0FF3038BD7B
:1016800003685B699847051E04DA04F015FF6D4294
:101690000560F2E72046F2E79C020020FFF7E0BF7A
:1016A00013B5CDE90021FFF79BFFDDE9002140B92B
:1016B00004F002FF092303604FF0FF34204602B01C
:1016C00010BD0368DB689847041EF7DA04F0F4FEE7
:1016D00064420460F0E708B5131E07DA04F0ECFE7C
:1016E000162303604FF0FF33184608BDFCD0FFF708
:1016F000D7FF40EAE073F7E713B5CDE90021FFF724
:101700006FFFDDE9002140B904F0D6FE0923036034
:101710004FF0FF34204602B010BD03689B68984725
:10172000041EF7DA04F0C8FE64420460F0E7002A01
:1017300008B503DBBDE80840FFF7DEBF04F0BCFEE0
:10174000162303604FF0FF3008BD13B5CDE900212B
:10175000FFF746FFDDE9002140B904F0ADFE0923A3
:1017600003604FF0FF34204602B010BD03681B69D0
:101770009847041EF7DA04F09FFE64420460F0E725
:10178000FFF7E3BF10B5FFF72BFF30B904F094FE6D
:10179000092303604FF0FF3010BD03689B69984731
:1017A000041E04DA04F088FE64420460F2E70020BC
:1017B000F2E700000A4D08B52B680446986804F06B
:1017C00057FF2B68D86804F053FF0120FFF7DAFFBA
:1017D0000220FFF7D7FF0CB1FFF756FBFEE700BF73
:1017E0006C0700201FB5039005F072F8039A0346BA
:1017F00020B9009001460348FFF784FC05B05DF86E
:1018000004FB00BF1F01018005F06AB870470000AB
:10181000084B094998684FF00053C21802F1604222
:10182000126843F8042B8B42F7D1024B4FF0005261
:101830009A60704700ED00E09801002008B5FFF7BE
:10184000E7FFFFF7C5FD02F0E5F9FFF7DFFF08BD91
:101850002DE9F74F446894F83A100646002955D10F
:101860000168496888477168096A814205464DD018
:10187000206AE168A6682562281A01403848864235
:101880008C464FF0000E39D094F83BB0D4E90A5A98
:101890000027A1FB0001BBF1000F46D0CBF12008CF
:1018A00001FA08F820FA0BFCABF1200E21FA0EFE2B
:1018B0004CEA080C4CEA0E0C2D1821FA0BFEABF189
:1018C00020094AEB010ACBF120080EFA0BF10CFAC1
:1018D00009F941EA09012CFA08F80CFA0BF02B1A65
:1018E00041EA080100936AEB01030193DDE900235B
:1018F000BB4208BFB2420CD2C4E90A23D4E90C01AE
:1019000010EB0C0041EB0E01C4E90C0103B0BDE883
:10191000F08F009B1CF1010C4EF1000E9A1B019BF5
:1019200063EB0703C4E90A23E8E732463B4604F0C9
:1019300047FC12EB050843EB0A09B94508BFB0455F
:1019400084468E4602D2C4E90A89D7E710F1010C19
:1019500041F1000EB8EB060269EB0703E2E700BFB6
:1019600040420F00824206D98A420BD9884294BF76
:10197000002001207047884206D98A428CBF00208F
:101980000120704701207047002070472DE9F74F74
:10199000D0F8048098F83A300746002B40F0818058
:1019A00098F83930002B7CD1FFF752FF7E683A68F7
:1019B00073680192002B66D0D6E90C01D3E90023AD
:1019C000994208BF904205D3019B5B6903B0BDE813
:1019D000F04F1847141A63EB0105D6E90623AB4212
:1019E00008BFA242D6F8109006D3B2682E4B9A4296
:1019F00019D1A14528BFA146326A019B9144F268E2
:101A00001B6909EA02021046019298473B685B682D
:101A10009847019A0146D8F82000FFF7A3FF002855
:101A20003FD03B68D1E796F83B30EBB1A3F1200CF7
:101A3000C3F1200224FA02F204FA03F005FA03F1DA
:101A400004FA0CFC194C41EA0C0111430019164A26
:101A50004FF000044FF0000344EB010104F0B0FB31
:101A6000814528BF8146C7E71048A2FB04AB02FBB3
:101A700005BB1AEB00004FF000010B4A4FF00003CA
:101A80004BEB0101EAE7D8F81030D8F82000D8F87D
:101A90000C201844019B1B69104003B0BDE8F04FB7
:101AA000184703B0BDE8F08F40420F003F420F00DF
:101AB0002DE9F04F436893F8382085B00546002A99
:101AC00063D193F83A30002B5FD103681B689847C5
:101AD0002B68DB69984703682BB92D4800931A4699
:101AE0001946FFF70FFB1F21012202FA01F4A3425E
:101AF0005FFA81FA02D00139F7D18A464668321F6F
:101B00001C2A05D90023234800931A461946E8E702
:101B10001C4614F1FF384FF000031F494FF0070730
:101B200043F1FF399740C1FB0789224640464946A9
:101B300004F046FB6B682A6803934FF00008C3E982
:101B400000885268894683469047039B01221862A9
:101B500002FA06F66B6800210020013EC3E90A0183
:101B6000C3E90C01C3E903672846C3E906B99C60D1
:101B700083F83BA01A8783F83A80FFF769FE28466E
:101B800005B0BDE8F04FFFF701BF05B0BDE8F08F2D
:101B90000E0104800501048040420F0070B5044628
:101BA000FFF7F0F92368DB689847636893F83A20F9
:101BB0001AB1BDE87040FFF7EFB9012283F8392070
:101BC00063685B68A3B12046FFF742FE65686E68F4
:101BD000D5E90C01D6E90023994208BF904207D30A
:101BE000F3686B602B68002BEAD0B0689847E7E792
:101BF0006368002283F839202046FFF7C7FED8E744
:101C000038B50446FFF754FFFFF7BCF92046FFF74D
:101C10001FFE6368D3E90C45FFF7BEF9204629464D
:101C200038BD704700487047B0750008024B1B680C
:101C30000BB1024818477047A0030020B075000898
:101C4000034B596A5A6A521A8242FBD3704700BF4B
:101C5000000C004030B591FAA1F391FAA1F1B3FA6A
:101C600083F384685B000325B1FA81F105FA03F37D
:101C7000490024EA03038A401343836030BD30B532
:101C800091FAA1F391FAA1F1B3FA83F3C4685B006E
:101C90000325B1FA81F105FA03F3490024EA0303AD
:101CA0008A401343C36030BD012A02D0022A18BF04
:101CB0000022FFF7E4BF00002DE9F84300F00F0217
:101CC0003A4B1FFA80F9C0F3031053F82270C1F3A6
:101CD000831801F007060D46FEF798FBB8F10F0FC9
:101CE0000CBF0322424639460446FFF7B3FF022EDB
:101CF00028D0032E58D0711E4B424B4197FAA7F2C1
:101D0000B2FA82F221685200032000FA02F221EABC
:101D1000020197FAA7F2B2FA82F252009340013E12
:101D20000B43012E236005D863682A074CBF3B4351
:101D3000BB436360C5F3011239462046BDE8F84352
:101D4000FFF7B2BF19F0080FC5F3832217D03B0A83
:101D500093FAA3F1B1FA81F1406A93FAA3F38900EF
:101D60004FF00F0CB3FA83F30CFA01F19B0020EA59
:101D7000010102FA03F30B4363620223BEE797FA01
:101D8000A7F1B1FA81F1036A89000F2000FA01F18D
:101D900023EA010197FAA7F3B3FA83F39B0002FA4F
:101DA00003F30B432362E8E73346A7E720770008F5
:101DB00038B500F00F021F4BC0F3031053F8225048
:101DC0000C46FEF723FB95FAA5F2B2FA82F35A000D
:101DD00001680323934095FAA5F2B2FA82F20B4010
:101DE0005200D340013B012B1AD8E31E022B43685B
:101DF00009D82B43032C43601AD101222946BDE8A0
:101E00003840FFF751BF23EA0503012C4360F4D0AB
:101E1000022C0BD029460022BDE83840FFF72FBF27
:101E200004F0FD03012BE8D0052CF1D10222E5E7F7
:101E3000052CEEE7207700084368094A9B0182B031
:101E4000D3581A68120706D5002201921A68019227
:101E50005A680192019A1868C0F3401002B07047A6
:101E60006C0900204368034A9B01D3581868C0F3EB
:101E7000C01070476C09002003464068134A810176
:101E800010B41C688C5002EB80109A684260DA68CB
:101E900082601A69C2605A6902611A6A826100220C
:101EA000C284C2618284C2858285B3F91A2001325C
:101EB00005D108235DF8044B436101F0B9BCB3F9C7
:101EC000183001330CBF04230C23F3E76C09002006
:101ED0008160FFF7D1BF0000094B98420BD0A3F5FA
:101EE0004C43984209D003F55043984214BF4FF039
:101EF000FF3002207047002070470120704700BF6C
:101F000000100140F0B50E4685B041490446304608
:101F10001546FFF7B1FA3F4907462846FFF7ACFAE6
:101F200001463846FFF786FA022E20600AD0032DBC
:101F300008D037490220FFF79FFAB84244D136480B
:101F4000FFF7CCF80127354B206898424FF000038B
:101F50003CD10193324B5A6C42F010025A645B6CD4
:101F600003F010030193019BFFF7B6FF284960605F
:101F70003046FFF73DFA28462649FFF739FA701C2C
:101F800003D001213046FFF713FF691C03D0012164
:101F90002846FFF70DFF00234FF41652C4E9022331
:101FA000C4E904332362268365832046FFF764FF78
:101FB0005FB31C4B1C4801221A6021464C2205B01D
:101FC000BDE8F04004F0E4BC0027BCE7174A9042AB
:101FD0000FD002F550429042C6D10393104B5A6C79
:101FE00042F020025A645B6C03F020030393039BCE
:101FF000BAE702930A4B1A6C42F400321A641B6C63
:1020000003F400330293029BAEE705B0F0BD00BFBE
:10201000CC76000878760008607700080010014050
:102020000038024008090020200900200044004038
:1020300038B5456804462046FFF7FEFE0028FAD072
:10204000AD01034B5B595868C0F3080038BD00BFB1
:102050006C09002070B5466805460C462846FFF717
:1020600001FF0028FAD0034BB601C4F308049B59C2
:102070005C6070BD6C090020DFF830D0002103E007
:102080000B4B5B58435004310A480B4B42189A42A1
:10209000F6D30A4A02E0002342F8043B084B9A4276
:1020A000F9D301F065FCFEF79BF8704700000220B1
:1020B0009878000898020020E0070020E007002040
:1020C000A00C0020FEE7704708B50B4B1A6842F4DD
:1020D00000721A601A6842F480621A601A6842F448
:1020E00080721A60032000F01DF80F20FEF72EFA10
:1020F000FFF7E9FF002008BD003C024038B5044668
:10210000FEF72AFA631C1CBF054B1B78054618BF57
:10211000E418FEF721FA431BA342FAD338BD00BFEF
:10212000A40300200749CA6822F4E06203021204F3
:1021300003F4E063120C134343F0BF6343F4003332
:10214000CB60704700ED00E000280DDB4309012261
:1021500000F01F0002FA00F02033044A42F8230086
:10216000BFF34F8FBFF36F8F704700BF00E100E0F8
:1021700090F83530022B03D080234365012070474F
:102180000268052380F83530136823F001031360DB
:10219000002070472DE9F74FDFF888815F4A002360
:1021A0004FF001090C6809FA03FA0AEA04053AEA51
:1021B000040440F0A4804C6824F0100EBEF1020F1D
:1021C00014D14FEAD30C00EB8C0C03F0070BDCF8B6
:1021D00020604FEA8B0B0F2707FA0BF726EA070759
:1021E0000E6906FA0BF63E43CCF82060D0F800B03A
:1021F0004FEA430C032707FA0CF72BEA070BFE43C1
:1022000004F0030707FA0CF70EF1FF3E47EA0B074D
:10221000BEF1010F076011D8876806EA070ECF6884
:1022200007FA0CF747EA0E078760476827EA0A0AA9
:10223000C4F300179F4047EA0A074760C768374062
:102240008E6806FA0CF63E43C660E60057D54FF09E
:10225000000BCDF804B0D8F84470314E47F48047F5
:10226000C8F84470D8F8447007F480470197019F7C
:1022700023F0030707F1804707F59C3703F0030EAF
:10228000D7F808A04FEA8E0E4FF00F0C0CFA0EFC98
:10229000B0422AEA0C0C39D006F58066B04237D03D
:1022A00006F58066B04235D006F58066B04233D080
:1022B00006F58066B0420CBF0426072606FA0EF625
:1022C00046EA0C06BE601668EF4314F4803F0CBF6C
:1022D0003E402E431660566814F4003F0CBF3E404B
:1022E0002E435660966814F4801F0CBF3E402E4368
:1022F0009660D668A40254BF3E402E43D660013398
:10230000102B7FF44FAF03B0BDE8F08F5E46D5E7EA
:102310000126D3E70226D1E70326CFE7003C0140A0
:1023200000000240003802407047000070B50446CB
:10233000002862D090F83D3003F0FF021BB980F80E
:102340003C20FFF7F1FF22682D4E2E4D242384F808
:102350003D30136823F00103136001F065F86368F2
:102360002268B0FBF5F5B34284BF4FF49671694320
:10237000556091BF691C4FF47A75B1FBF5F10131DD
:10238000B342116221D840F6FC715B00B0FBF3F35D
:102390000B4208BF0423D361D4E907310B43136018
:1023A000D4E903130B439360D4E905310B43D360A5
:1023B000136843F00103136000202023206484F895
:1023C0003D30206384F83E0070BDA16849B903EB3D
:1023D0004303B0FBF3F3C3F30B0161B143F40043D8
:1023E000D9E719214B43B0FBF3F3C3F30B0111B150
:1023F00043F44043CFE70123CDE70120E4E700BFEA
:10240000A086010040420F0073B50024009401949F
:1024100090F83D40069D202C02D0022002B070BDF5
:10242000042D01D0012D18D1294C46F2A81624689C
:10243000B4FBF6F6192474430194019C661E0196C0
:102440003CB92023046380F83C4080F83D300320F1
:10245000E4E70468A469A407EFD490F83C40012C99
:10246000DBD004682668F6075EBF266846F00106E2
:102470002660266826F400662660212680F83D60E6
:10248000102680F83E60002606644385C562438DB1
:1024900041640385036B0093009B4262122B01D0C1
:1024A000009B5BB9042D01D0012D04D1236843F4B6
:1024B0008073236002E0009B122BF7D0002380F88A
:1024C0003C30626842F4E06262601846A6E700BFF2
:1024D000A803002073B50024019490F83D40069DA8
:1024E000202C02D0022002B070BD042D01D0012D9D
:1024F00018D12D4C46F2A8162468B4FBF6F6192420
:1025000074430194019C661E01963CB92023046328
:1025100080F83C4080F83D300320E4E70468A4697B
:10252000A407EFD490F83C40012CDBD0012480F8C4
:102530003C4004682668F6075EBF266846F0010640
:102540002660266826F400662660222680F83D6014
:10255000102680F83E60002606644385C562438DE0
:1025600041640385036B4262112B01D0036B93B965
:10257000042D04D0012D02D015F5803F08D1236829
:1025800043F480632360236843F48073236002E094
:10259000036B112BF3D0002380F83C30626842F4C7
:1025A000E062626018469EE7A803002090F83D3084
:1025B000202B14D1282380F83D3003681A68D207F5
:1025C0005EBF1A6842F001021A601A6842F4806223
:1025D0001A605A6842F440725A6000207047022024
:1025E000704770477047000010B590F83D200368B1
:1025F000293A012A044639D800220263282280F8A9
:102600003D201A6822F400621A605A6812F40062CF
:1026100054D05A68606B22F400625A6090F83530EA
:10262000012B394B31D00365FFF7A2FD50B1226871
:10263000606B136823F001031360202384F83D309E
:10264000036D984794F83D30282B0ED1236C5B071F
:102650000BD52E4BE362202200232363204684F80F
:102660003D2084F83E30FEF7E7FB10BD90F83D209A
:10267000602A05D05A6812055CBF202280F83D20F0
:102680000022226384F83E20BBE7A06B0365FFF7BE
:102690006FFD0028D6D023685A69500604D51A6900
:1026A000636A591C61621A702268A06B136823F078
:1026B00001031360202384F83D30C1E794F83D10F6
:1026C000602914D1202184F83D1022645A695106F2
:1026D00004D51A69636A591C61621A70226813680A
:1026E00023F0010313602046FEF7A8FBAAE75A690E
:1026F000520604D51A69636A591C61621A70204631
:10270000FEF76BFB9EE700BF052F00080000FFFFF0
:10271000F0B503689D6959695A6890F83E40102CDD
:102720008DB0E6B202D0402E40F04A8211F0011F77
:1027300066D0970564D590F83E40402C43D1046D97
:10274000002C3BD1446C04F0FE041C61974E984C65
:102750002E400C40002E00F09A81964D0D40002D29
:1027600000F06181550540F15E81002C40F05D81F3
:1027700090F83D20058D90F83E10C46AD2B2C9B2DF
:10278000002D40F00581212A40F00481042C00F046
:102790006781082C00F0648114F5803F00F06081AF
:1027A0005A6822F4E0625A601123036380F83E50B5
:1027B000202380F83D30FEF7DBFA10E1446C44F052
:1027C0000104E4B2C1E70469B4F5804F05D190F883
:1027D0003D40212C446CF2D1B5E7046D34B9446C12
:1027E000E41104F0060444F0F004AEE7046D012C9B
:1027F000ACD1446CE41104F0060444F0F104A4E705
:102800006D4C0C401CB1960501D5446CD9E76B4C5E
:102810000C40002C9AD0940598D590F83E40C66A9A
:10282000D0F830C090F83D70222FE4B240F0A8807C
:10283000076D47B9402C06D101975C6901949C69EA
:102840000194019C82E7046D8CB90769B7F5404F8C
:102850000DD102945C6902949C690294029C1C68EC
:1028600044F480741C60046D013404656EE7448D8B
:10287000A4B254B903945C6903949C690394039CC7
:102880001C6844F400741C6019E0448DA4B2012C4F
:1028900042D116F5803F1BD11C6824F480641C6073
:1028A0005C6814F400640CD01C6824F480641C6020
:1028B000002404945C6904949C690494049C00249E
:1028C000D3E705945C6905949C690594059CD7E75A
:1028D000042E15D0082E13D0BCF1120F10D0C46AEC
:1028E000022C1C6814BF24F4806444F480641C60CF
:1028F000002406945C6906949C690694069CDEE7B5
:102900001C6824F480641C60002407945C690794AC
:102910009C690794079CB3E7448DA4B2022C1CD198
:10292000C46A022C1C681DBF24F480641C601C68EF
:1029300044F4806418BF44F400641C605C6827059C
:1029400042BF5C6844F480545C60002408945C6975
:1029500008949C690894089CB1E71C6844F480645E
:102960001C605C68260542BF5C6844F480545C606F
:10297000002409945C6909949C690994099C9EE768
:1029800000240A945C690A949C690A940A9CDDE616
:10299000212A03D0402922D1222A20D1428D92B26D
:1029A00072B95A6822F480625A6018E0040010007C
:1029B0000400010080000100080001000200010085
:1029C00090F83E20402A28D1026D82B9C26C012ABB
:1029D000826C06D1D2B21A61036D023303650DB069
:1029E000F0BDC2F307221A61036D0133F6E7026DF1
:1029F000012A02D1826CD2B2F5E7026D022AEED131
:102A000090F83D20222A04D11A6842F480721A609C
:102A1000E5E790F83D20212AE1D1426A511C41624C
:102A200012781A6193E0002CD9D09405D7D5C16AE9
:102A300090F83D20212AD2D1428D92B2002AECD1C9
:102A400004290DD008290BD011F5803F08D0596812
:102A500021F4E06159601123036380F83E20A7E66A
:102A60005A6822F4E0625A601A6842F400721A60EE
:102A700000232022036380F83D2090F83E2080F858
:102A80003E30402A7FF497AEFFF7ABFDA7E78E4DAF
:102A90000D40002D3FD051053DD5002C3ED190F882
:102AA0003D20222A9BD1428D92B2032A05D91A6970
:102AB000436A591C41621A7049E0023A012A1A68B5
:102AC00022F480621A6004D81A6842F400621A6024
:102AD00067E7C26A022A02BF1A6842F400621A60FB
:102AE0005A6822F4E0625A601A69436A591C4162CA
:102AF0001A70438D013B9BB24385202380F83D3003
:102B00000023036390F83E2080F83E30402A54D1E1
:102B1000FFF768FD63E7002C3FF461AF97057FF591
:102B20005EAFC26A458D416AADB2032D01F1010469
:102B300012D1042A04D0082A02D012F5803F03D112
:102B40001A6822F480621A601B6944620B70438D1C
:102B5000013B9BB2438542E7458DADB2022DF3D1D7
:102B6000042A26D0082A24D012F5803F21D01D68DF
:102B7000013A25F48065012A1D6003D81A6842F4E1
:102B800080721A601B6944620B70438D013B9BB2DB
:102B9000438503681A69436A591C41621A70438D60
:102BA0000268013B9BB24385536823F44073536032
:102BB000A3E71A6842F40072E3E7FEF7F7F80EE7BE
:102BC000424C0C4074B196050CD599699B6981F013
:102BD00004011D0654BF8289028BC1F38001FEF7F8
:102BE00019F9FCE63A4C0C40002C75D0940573D5CD
:102BF00090F83D20596821F4E061596000210B9163
:102C000059690B91196841F0010119600B99196814
:102C100021F48061196059680905D2B20CD590F889
:102C20003D10222903D090F83D102A292BD1816B29
:102C30000968496889B24185418D89B2E1B1596914
:102C40004F0708D51969436A5C1C44621970438DAB
:102C5000013B9BB24385036859694E0608D5196943
:102C6000436A5C1C44621970438D013B9BB24385EF
:102C7000036C43F004030364036C33B10DB0BDE88F
:102C8000F040FFF7B1BC416BD2E7A2F12801022965
:102C90000AD8104AC2622022036380F83D2080F8DF
:102CA0003E30FEF7C9F89AE6036B222B02D0222AA7
:102CB0007FF495AE00232022036380F83D2080F846
:102CC0003E30FEF7B5F88AE6400001000200010040
:102CD000100001000000FFFF394E3A4C2E400C401E
:102CE000002E36D0384D0D403DB3550525D53CBBA3
:102CF00090F83D10428D92B2C9B2002A3FF46FAEF7
:102D0000426A541C446212781A61428D013A92B2AE
:102D10004285428D92B2002A7FF461AE29297FF468
:102D20005EAE5A6822F480625A602123036328232E
:102D300080F83D30FEF778F851E6002C3FF44FAEB6
:102D400094057FF54CAE428D92B2002A3FF447AE17
:102D500063E61E4D0D4035B3510524D534BB90F8C4
:102D60003D20418D89B2D2B200293FF438AE1969B5
:102D7000436A5C1C44621970438D013B9BB24385DE
:102D8000438D9BB2002B7FF42AAE2A2A7FF427AE14
:102D90000268536823F4806353602223036328236B
:102DA00080F83D308DE7002C3FF419AE92057FF599
:102DB00016AE428D92B2002A3FF411AE77E600BF04
:102DC0000400100004000100800001004000010028
:102DD000F8B50368494A5E695D681642044608D042
:102DE000E80506D5226C42F0010222646FF480727D
:102DF0005A6116F4813F08D0E90506D5226C42F0ED
:102E0000020222646FF400725A6116F4823F36D0D7
:102E1000EA0534D594F83E70618D94F83D20206B1E
:102E2000202F89B2D2B258D1002956D102F0F70131
:102E3000212903D0282A50D121284ED194F83D20B1
:102E4000E16A0429D2B201D008292CD1282A2AD13A
:102E50002B4AE2625A6822F4E0625A606FF48062A0
:102E60005A611A6822F480621A60002320222363C8
:102E7000204684F83D2084F83E30FDF7DDFF16F44F
:102E8000843F09D0EB0507D5236C43F00803236486
:102E900023686FF400625A61236C73B32046BDE867
:102EA000F840FFF7A1BB212A23D11549E162226333
:102EB000202284F83D20002284F83E205A6822F423
:102EC000E0625A606FF480625A611A6822F480628C
:102ED0001A602046FDF7A8FFD1E7226C42F00402F9
:102EE000226494F83E20102A02BF1A6842F400724D
:102EF0001A606FF480625A61C1E7F8BD00010100F9
:102F00000000FFFF806B08B50368416B1A6822F46C
:102F100080621A60002242850A65816B0A6590F81A
:102F20003D1060294FF0200180F83D1080F83E20D0
:102F300007D102641A6822F001021A60FDF77EFFD1
:102F400008BD1A6822F001021A60FDF746FFF7E794
:102F500010B590F83D30202BDCB216D1242380F838
:102F60003D3003681A6822F001021A605A6A22F0A2
:102F700010025A625A6A114359621A6842F00102F9
:102F80001A6080F83D40002010BD0220FCE70000E0
:102F90002DE9F341044618B9012002B0BDE8F081E3
:102FA0000368DD0710D4236898075BD423681A07E9
:102FB00000F19D8023685B0700F1BB80A269002AB5
:102FC00040F01C810020E8E7A54B9A6802F00C0253
:102FD000042A07D09A6802F00C02082A0AD15A681B
:102FE000510207D59E4B1B689A03DCD56368002B02
:102FF000D9D1D1E76268B2F5803F11D11A6842F4A5
:1030000080321A60FDF7A8FA954E054633689B0397
:10301000C9D4FDF7A1FA401B6428F7D90320BCE707
:103020008F4DB2F5A02F2B6807D143F480232B607E
:103030002B6843F480332B60E4E723F480332B6068
:103040002B6823F480232B60002ADBD1FDF784FA60
:1030500006462B689F03A6D5FDF77EFA801B6428E1
:10306000F7D9DBE77E4B9A6812F00C0F07D09A680D
:1030700002F00C02082A11D15B685E020ED4784B74
:103080001A68950702D5E268012A85D11A68216974
:1030900022F0F80242EAC1021A6087E7E268714B47
:1030A000B2B101221A60FDF757FA6D4D06462B6842
:1030B000980707D52B68226923F0F80343EAC20377
:1030C0002B6073E7FDF748FA801B0228EFD9A5E7CC
:1030D0001A60FDF741FA624E0546336899077FF59D
:1030E00065AFFDF739FA401B0228F6D996E7626909
:1030F0005D4B7AB101221A60FDF72EFA584E054653
:10310000736F9F073FF556AFFDF726FA401B022865
:10311000F6D983E71A60FDF71FFA514E0546736F23
:1031200098077FF547AFFDF717FA401B0228F6D93D
:1031300074E74B4B1A6C12F0805228D101921A6C32
:1031400042F080521A641B6C03F080530193019B80
:103150000127464D2B68D9051BD5A368404D012B8F
:1031600027D12B6F43F001032B67FDF7F5F93C4E98
:10317000054641F28838336F9B0739D5002F3FF45D
:103180001DAF374A136C23F08053136416E70027F2
:10319000DFE72B6843F480732B60FDF7DDF906460B
:1031A0002B68DA05D9D4FDF7D7F9801B0228F7D9A7
:1031B00034E7052B04D12B6F43F004032B67D0E7D2
:1031C0002A6F22F001022A672A6F22F004022A677E
:1031D000002BCAD1FDF7C0F941F2883806462B6FA3
:1031E0009807CBD5FDF7B8F9801B4045F7D915E70F
:1031F000FDF7B2F9401B4045BDD90FE7184DAB684C
:1032000003F00C03082B3FF4C7AE194E0023022A2B
:10321000336035D1FDF7A0F907462B68990129D411
:10322000D4E907321343626A43EA8213E26A43EA4B
:103230000263A26A5208013A43EA02436B60012327
:103240003360FDF789F9064D04462B689A013FF576
:10325000B9AEFDF781F9001B0228F6D9DEE600BF02
:103260000038024000004742800E47420070004094
:1032700060004742FDF770F9C01B0228CDD9CDE6AA
:10328000FDF76AF904462B689B017FF59BAEFDF7BD
:1032900063F9001B0228F6D9C0E600BF134908B540
:1032A0008B6803F00C03042B1CD0082B1CD14A683C
:1032B0004B68496813F4800314BF0D480D48C1F3EF
:1032C000881118BF002302F03F02A1FB000102F0A9
:1032D00077FF064B5B68C3F3014301335B00B0FB30
:1032E000F3F008BD0248FCE70248FAE70038024064
:1032F00000127A000024F4002DE9F0410D46044646
:1033000010B90120BDE8F081434B1A6802F00F02AA
:103310008A4227D3226897072CD4D00740D43E4B4B
:103320001A6802F00F02AA4265D8226851076BD4CE
:10333000130707D5394A2169936823F4604343EAA8
:10334000C1039360FFF7AAFF344B354A9B68C3F370
:103350000313D35CD840334B18600F20FDF7F6F809
:103360000020CFE7CAB21A701B6803F00F038B422C
:10337000C7D1CFE7294B12F0040F1EBF996841F463
:10338000E0519960160742BF996841F46041996025
:103390002249A0688B6823F0F00303438B60BCE7ED
:1033A00062681E4B012A1CD11B6813F4003FA8D091
:1033B0001A4EB36823F003031343B360FDF7CCF850
:1033C00041F288380746B368626803F00C03B3EB38
:1033D000820FA4D0FDF7C0F8C01B4045F3D90320ED
:1033E00090E7911E01291B6802D813F0007FDEE7E9
:1033F00013F0020FDBE7EAB21A701B6803F00F0349
:10340000AB427FF47EAF90E70449E0688B6823F419
:10341000E05303438B608BE7003C024000380240DE
:10342000A9770008A8030020044B054A9B68C3F352
:103430008223D35C034A1068D840704700380240AA
:10344000B9770008A8030020044B054A9B68C3F322
:103450004233D35C034A1068D840704700380240BA
:10346000B9770008A80300200F2303600B4B9A686C
:1034700002F0030242609A6802F0F00282609A68E9
:1034800002F4E052C2609B68DB0803F4E05303617E
:10349000034B1B6803F00F030B60704700380240BA
:1034A000003C024070470000224A036890420ED060
:1034B000B0F1804F0BD0A2F57C42904207D002F5CC
:1034C0008062904203D002F58062904215D14A6832
:1034D00023F070031343174A904219D0B0F1804F84
:1034E00016D0A2F57C42904212D002F58062904242
:1034F0000ED002F5806290420AD00F4A904207D067
:1035000002F58062904203D002F58062904203D1BE
:10351000CA6823F44073134303608B68C3620B686B
:103520008362044B984204BF0B6903630123436128
:10353000704700BF000001400040014010B5044644
:10354000A0B190F8393003F0FF021BB980F83820A1
:10355000FFF7A8FF0223206884F83930211DFFF708
:10356000A3FF012384F83930002010BD0120FCE7BF
:10357000036A10B501248C4023EA04030362036A42
:1035800002FA01F10B43036210BD000010B50446BE
:1035900001220068FFF7ECFF2368064A934202BF4E
:1035A0005A6C42F400425A641A6842F001021A60EE
:1035B000002010BD000001402DE9F8430368C168F8
:1035C0001A69044622F440520A431A612569A26826
:1035D000D968C0692A43656921F416412A4321F05C
:1035E0000C0102430A43DA605A69A16922F440726D
:1035F0000A43B0F5004F5A61774A79D1934203D01C
:1036000002F58062934243D1FFF71EFF63681925DC
:103610004FF0640868435B00B0FBF3F3B3FBF8F3CF
:103620001F01FFF711FF636868435B00B0FBF3F60F
:10363000FFF70AFF636868435B00B0FBF3F3B3FB7B
:10364000F8F308FB1363DB003233B3FBF8F35B00E2
:1036500003F4F876FFF7F8FE626868435200B0FBA7
:10366000F2F9FFF7F1FE6368226868435B00B0FB84
:10367000F3F3B3FBF8F308FB1393DB003233B3FB34
:10368000F8F303F007033B4433449360BDE8F88349
:10369000FFF7CAFE636819254FF0640868435B00B2
:1036A000B0FBF3F3B3FBF8F31F01FFF7BDFE636854
:1036B00068435B00B0FBF3F6FFF7B6FE6368684350
:1036C0005B00B0FBF3F3B3FBF8F308FB1363DB0021
:1036D0003233B3FBF8F35B0003F4F876FFF7A4FE94
:1036E000626868435200B0FBF2F9FFF79DFEBAE74B
:1036F000934202D0394A93423FD1FFF7A5FE636857
:1037000019254FF0640868439B00B0FBF3F3B3FB4B
:10371000F8F31E01FFF798FE636868439B00B0FB57
:10372000F3F7FFF791FE636868439B00B0FBF3F388
:10373000B3FBF8F308FB13731B013233B3FBF8F34D
:1037400003F0F007FFF780FE626868439200B0FB69
:10375000F2F9FFF779FE6368226868439B00B0FBCB
:10376000F3F3B3FBF8F308FB13931B013233B3FB02
:10377000F8F303F00F033B4386E7FFF755FE63685A
:1037800019254FF0640868439B00B0FBF3F3B3FBCB
:10379000F8F31E01FFF748FE636868439B00B0FB27
:1037A000F3F7FFF741FE636868439B00B0FBF3F358
:1037B000B3FBF8F308FB13731B013233B3FBF8F3CD
:1037C00003F0F007FFF730FE626868439200B0FB39
:1037D000F2F9FFF729FEBEE7001001400014014096
:1037E000F8B504460E4617461D462268136836EAA9
:1037F000030301D1002014E06B1CF7D095B92368B6
:10380000DA6822F4D072DA605A6922F001025A6151
:10381000202384F8393084F83A30002384F8383093
:103820000320F8BDFCF798FEC01B8542DDD2E6E719
:1038300010B5044640B390F8393003F0FF021BB9CD
:1038400080F8382001F004FF2268242384F83930FE
:10385000D36823F40053D3602046FFF7ADFE2368FE
:103860001A6922F490421A615A6922F02A025A61B6
:10387000DA6842F40052DA6000202023E06384F822
:10388000393084F83A3010BD0120FCE773B5164694
:1038900090F839200093202A04460D4650D1002983
:1038A0004CD0002E4AD090F83820012A48D001226E
:1038B00080F838200022C263212280F83920FCF7EA
:1038C0004BFE009BA6840246E684E18C89B251B986
:1038D00040212046FFF784FFB8B9202384F839300F
:1038E00084F8380012E0E18C013989B2E184A168E2
:1038F000B1F5805FCDE900234FF08001204612D161
:10390000FFF76EFFDDE9002310B1032002B070BDA8
:1039100029882068C1F308014160216909B902358D
:10392000D3E70135D1E7FFF75BFF0028EDD1216830
:1039300015F8010B4860DDE90023C6E70120E5E743
:103940000220E3E77FB50F220223CDE90123032103
:1039500000234FF4805201A8CDE903320593FFF70D
:10396000CBFCB0FA80F0400907B05DF804FB000022
:103970000D4AD2F8883043F47003C2F888300B4BFC
:103980001A68002142F001021A6099601A6822F058
:10399000847222F480321A60054A5A601A6822F44E
:1039A00080221A60D960704700ED00E000380240C4
:1039B0001030002410B58EB01C4B002400941A6CFB
:1039C00042F080521A641B6C194A03F08053009332
:1039D000009B0194136823F4404343F400431360B5
:1039E000136803F440430193A042019B4FF001038D
:1039F00002930CBF4FF480334FF4A02302220393B1
:103A00004FF48003CDE908230423C822CDE90A320C
:103A10000C9308230DEB03000D93FFF7B9FA18B9C7
:103A2000FFF790FF0EB010BD2046FBE700380240C4
:103A30000070004010B58EB000241A4B00941A6C30
:103A400042F080521A641B6C174A03F080530093B3
:103A5000009B0194136823F4404343F40043136034
:103A60001368039403F440430193019B03230293DF
:103A700001230593102306930223C822CDE90834BD
:103A80000823CDE90A320DEB03000422CDE90C2313
:103A9000FFF77EFA18B9FFF755FF0EB010BD2046AC
:103AA000FBE700BF003802400070004008B501206D
:103AB000FFF780FF28B9FFF7BDFF10B90148FDF7F8
:103AC0000DFB08BD95770008174A1849936803F065
:103AD0000C03042B10B50DD0082B0DD0144B0B602C
:103AE000114B144A9B68C3F30313D25C0B68D34099
:103AF0000B6010BD104BF2E75468506852686302C7
:103B0000C2F388124CBF0C4B094B00F03F00B3FBD3
:103B1000F0F35343044A5268C2F3014201325200A7
:103B2000B3FBF2F3DBE700BF00380240A80300203C
:103B30000024F400A977000800127A00074B084A15
:103B400013601A69910707D5DA68920704D56FF0F8
:103B500002021A61FEF76AB8704700BF000C00400D
:103B6000300A002000487047C477000830B589B09B
:103B700001A903A8FFF778FCFFF756FC0023029386
:103B80001E4B01901A6C1E4C42F008021A641A6C0B
:103B900002F008020292029A1A6A42F008021A62BD
:103BA0001A6A22F008021A62069AA3F50B33236000
:103BB0004FF0FF33E360134BF2B9B0FBF3F0013881
:103BC000002560600E482561A5606561FFF7B6FCC1
:103BD0000D4B0E4A9B68C3F808210D4B4FF4802211
:103BE0005A6007482946FFF7D1FC2268D36823F0C2
:103BF0000203D36009B030BD4000DEE70038024068
:103C0000300A002040420F0000ED00E03D3B00087C
:103C100000E100E004480268D36823F00203D360A7
:103C20000021FFF7B3BC00BF300A0020014B586AE7
:103C3000704700BF000C0040054B1B686FF002028C
:103C400058631A61DA6842F00202DA60704700BF16
:103C5000300A0020064B1B686FF002021A615A6995
:103C600042F002025A61DA6842F00202DA607047FA
:103C7000300A0020034B1A68D36823F00203D36094
:103C8000704700BF300A0020024B1B686FF0020231
:103C90001A617047300A002082B001900091009BA9
:103CA000002B05D0019B9B68019A12681A6005E001
:103CB000019B1A68019BDB6812041A6000BF02B006
:103CC000704782B00190019B5B681A68019B1B687A
:103CD0001340002B01D0012300E00023184602B05E
:103CE000704700B583B001900B46ADF80230019BE0
:103CF0001A460023136053609360D36013615361CD
:103D00009361019BBDF9022011461846FDF729FB7E
:103D1000019B184603B05DF804FB00B583B0019029
:103D2000019B1846FFF7CDFF0346184603B05DF828
:103D300004FB00B583B001900B46ADF80230019B47
:103D40001A460023136053609360D360136153617C
:103D50009361019BBDF9022011461846FDF716FB41
:103D6000019B184603B05DF804FB00B583B00190D9
:103D70000091019B00991846FFF78EFF00BF03B02A
:103D80005DF804FB10B584B001900B468DF803304C
:103D9000002303935849019A13465B0013449B0088
:103DA0000B4408331B78002B5BD19DF80330002BAC
:103DB00025D11C20FDF716FD03461C464E49019AED
:103DC00013465B0013449B000B44B3F900301946C3
:103DD0002046FFF786FF4849019A13465B001344CB
:103DE0009B000B4404331C604349019A13465B005B
:103DF00013449B000B44083301221A7028E09DF8FD
:103E00000330012B24D11C20FDF7ECFC03461C469B
:103E10003949019A13465B0013449B000B44B3F9E4
:103E2000003019462046FFF784FF3349019A1346B4
:103E30005B0013449B000B4404331C602E49019A21
:103E400013465B0013449B000B44083302221A7094
:103E5000019A13465B0013449B00274A13440393C3
:103E600045E02549019A13465B0013449B000B442F
:103E700008331B78012B0CD19DF80330002B08D19F
:103E8000019A13465B0013449B001B4A134403939F
:103E90002DE01949019A13465B0013449B000B4423
:103EA00008331B78022B0CD19DF80330012B08D16D
:103EB000019A13465B0013449B000F4A134403937B
:103EC00015E00D49019A13465B0013449B000B4417
:103ED00008331B780A2B08D1019A13465B00134460
:103EE0009B00054A1344039301E000230393039BC3
:103EF000184604B010BD00BFE803002000B585B02F
:103F00000190019B0293029B002B15D0029B1B7A10
:103F10000A2B08D1029B5B681846FCF79DFF0346FD
:103F20008DF80F300BE0029B5B681846FFF7F5FE3B
:103F300003468DF80F3002E000238DF80F309DF816
:103F40000F30184605B05DF804FB00B585B0019050
:103F50000B468DF80330019B0393019B002B07D088
:103F6000039B5B689DF8032011461846FFF7FDFE92
:103F700000BF05B05DF804FB00B585B00190019B62
:103F80000393039B1B7A022B0BD1039B5B68002BD3
:103F900003D01C211846FDF737FC039B00221A7240
:103FA0000EE0039B1B7A012B0AD1039B5B68002B5D
:103FB00003D01C211846FDF727FC039B00221A7230
:103FC00000BF05B05DF804FB00B585B00390029119
:103FD00011461A460B46ADF806301346ADF80430CC
:103FE000039BBDF90420BDF906101846FCF702FC3E
:103FF0000E4A039B1A60039BBDF80620A3F8CC2051
:10400000039BBDF80420A3F8CE20039B029AC3F8BB
:10401000D420039B064AC3F8D020039B102283F8C8
:10402000D820039B184605B05DF804FBD477000840
:10403000A086010000B583B00190019B3033184683
:10404000FCF7BFFD019B30331846FCF7CCFD019B0C
:1040500003F13000019BB3F9CC10019BB3F9CE30D2
:104060001A46FCF79FFD019BD3F8D0301946019802
:1040700000F011F800BF03B05DF804FB82B00190BE
:104080000B468DF80330019B9DF8032083F8D82060
:1040900000BF02B0704700B583B001900091019B52
:1040A000009AC3F8D020019B00991846FCF784FAC7
:1040B00000BF03B05DF804FB82B00190019BD3F810
:1040C000D430184602B0704710B586B001900B4648
:1040D0008DF8033000230593019B042B77D803AAA6
:1040E00004AB1946019800F0AFF9049A3A49134617
:1040F0005B0013449B000B4408331B78002B53D107
:10410000DC20FDF76FFB03461C46039A3249134639
:104110005B0013449B000B44B3F90010049A2E4833
:1041200013465B0013449B000344B3F900300A4676
:1041300001992046FFF748FF049A274913465B0080
:1041400013449B000B4404331C600499039A2248D7
:104150000B465B000B449B000344043319681E4864
:1041600013465B0013449B00034404331960039A15
:10417000194913465B0013449B000B440833052286
:104180001A70049A144913465B0013449B000B44B5
:10419000083305221A70049A13465B0013449B00EF
:1041A0000D4A1344059312E0049A0B4913465B0031
:1041B00013449B000B4408331B78052B07D1049A4A
:1041C00013465B0013449B00034A13440593059B6D
:1041D000184606B010BD00BFE803002000B587B048
:1041E00001900091019B0493049B002B1DD0049B24
:1041F0005B681846FFF760FF03460099184600F019
:104200005DF90390049B5B68039A11461846FFF71B
:1042100042FF00238DF81730049B5B689DF8172040
:1042200011461846FFF72AFF02E010238DF81730D9
:104230009DF81730184607B05DF804FB00B589B04B
:104240000590039202930B46ADF8123000238DF8CF
:104250001F30059B0693069B002B2FD0069B5B68A7
:104260001846BDF812305900029A9DF82830002BEC
:1042700014BF01230023DBB200931346039AFCF71B
:10428000ECF90346002B14BF01230023DBB2002B03
:1042900008D0069B5B681846FFF7CCFE04238DF818
:1042A0001F3002E000238DF81F30069B5B689DF8ED
:1042B0001F2011461846FFF7E1FE02E010238DF89B
:1042C0001F309DF81F30184609B05DF804FB00B59B
:1042D00089B00590039202930B46ADF8123000238B
:1042E0008DF81F30059B0693069B002B2FD0069B55
:1042F0005B681846BDF812305900029A9DF82830C4
:10430000002B14BF01230023DBB200931346039A52
:10431000FCF782F90346002B14BF01230023DBB214
:10432000002B08D0069B5B681846FFF783FE04232A
:104330008DF81F3002E000238DF81F30069B5B686C
:104340009DF81F2011461846FFF798FE02E0102343
:104350008DF81F309DF81F30184609B05DF804FB3A
:1043600000B587B00190019B0593059B002B43D0BE
:10437000059B5B68002B3FD0059B5B681846FCF7EC
:104380008DF9059B5B681846FFF796FE03AA04AB00
:10439000194600F059F8039A194913465B00134473
:1043A0009B000B44083300221A70039A14491346E9
:1043B0005B0013449B000B44043300221A60049AF0
:1043C0000F4913465B0013449B000B440833002243
:1043D0001A70049A0A4913465B0013449B000B446D
:1043E000043300221A60059B5B68002B04D01A6816
:1043F0000C3212681846904700BF07B05DF804FB06
:10440000E803002000B583B00190064A019B1A60C2
:10441000019B1846FCF7CCF9019B184603B05DF8E8
:1044200004FB00BFD477000800B583B00190019869
:10443000FFF7E8FFDC210198FDF7E6F9019B18463C
:1044400003B05DF804FB000086B003900291019276
:10445000039B013B032B0BD801A252F823F000BFB2
:104460007B44000889440008934400089D440008E8
:104470000F2305930E23049317E04FF0FF330593AA
:104480004FF0FF33049310E00623059303230493B6
:104490000BE0072305930523049306E04FF0FF3359
:1044A00005934FF0FF33049300BF029B059A1A60F7
:1044B000019B049A1A6000BF06B0704784B0019057
:1044C0000091009B0393019B013B032B0AD801A29F
:1044D00052F823F0F7440008EB440008F1440008C8
:1044E000F7440008064B039306E0054B039303E0F3
:1044F000034B039300E000BF039B184604B07047D2
:10450000A08601000000000000B58DB00390039B61
:1045100000221A72039B01225A60EFF31083079363
:10452000079BA04A136162B600BF03994FF00002D7
:104530009D4BC1E91E23039B03F17802039B9A6103
:10454000039B9B690B93039B0022DA64039B0B9AEA
:104550001A65039B002283F86820039B6B2283F873
:104560006920039B00221A67039B03F17002039BDF
:10457000DA66039BDB6E0A93039B93F868308DF831
:104580002730884B00221A729DF82730854A127A0C
:1045900011461846FFF798FD02460A9B1A60039BD6
:1045A00003F16802039B5A65039B5B6D0893089BAC
:1045B0005B680A93089B5B788DF827300F238DF892
:1045C00013300A9B18689DF8273099B20DF1130239
:1045D00000230193012300930123FFF778FE034694
:1045E0008DF813309DF81330002B0DD10A9B1868FD
:1045F0009DF8273099B20DF1130201230193002396
:1046000000930123FFF71AFE039B5B6D0893089B41
:104610005B680A93089B5B788DF8273018238DF828
:10462000143038238DF815300A9B18689DF8273010
:1046300099B205AA00230193002300930223FFF7F8
:1046400046FE039B5B6D0893089B5B680A93089B7F
:104650005B788DF8273019238DF8143038238DF8C6
:1046600015300A9B18689DF8273099B205AA0023D7
:104670000193002300930223FFF729FE03994FF0D3
:1046800000024A4BC1E91623039B5B6D089310237C
:104690008DF81330089B5B680A93089B5B788DF854
:1046A000273000238DF812300A9B18689DF82730B8
:1046B00099B20DF11302002301930123009301230A
:1046C000FFF705FE03468DF813309DF81330002BDD
:1046D0000DD10A9B18689DF8273099B20DF112028E
:1046E00001230193002300930123FFF7A7FD039B00
:1046F0005B6D0893089B5B680A93089B5B788DF859
:10470000273010238DF814309DF812305BB223F05F
:104710000C035BB243F008035BB2DBB28DF81530DB
:104720000A9B18689DF8273099B205AA00230193C7
:10473000002300930223FFF7CAFD039B5B6D0893E0
:1047400010238DF81330089B5B680A93089B5B78F5
:104750008DF8273000238DF812300A9B18689DF8D9
:10476000273099B20DF11302002301930123009326
:104770000123FFF7ACFD03468DF813309DF813308D
:10478000002B15D10A9B18689DF8273099B20DF1BE
:10479000120201230193002300930123FFF74EFD32
:1047A00006E000BF500C00200000F0BF0000203FDA
:1047B000039B5B6D0893089B5B680A93089B5B787F
:1047C0008DF8273010238DF814309DF812305BB22D
:1047D00003F00F035BB243F040035BB2DBB28DF832
:1047E00015300A9B18689DF8273099B205AA002356
:1047F0000193002300930223FFF769FD039B5B6D88
:10480000089310238DF81330089B5B680A93089B6C
:104810005B788DF8273000238DF812300A9B1868DA
:104820009DF8273099B20DF1130200230193012363
:1048300000930123FFF74BFD03468DF813309DF8DD
:104840001330002B0DD10A9B18689DF8273099B2C0
:104850000DF1120201230193002300930123FFF7BE
:10486000EDFC039B5B6D0893089B5B680A93089BB8
:104870005B788DF8273010238DF814309DF81230B6
:1048800023F00203DBB28DF815300A9B18689DF8FF
:10489000273099B205AA0023019300230093022335
:1048A000FFF715FD039B5B6D089317238DF81330FD
:1048B000089B5B680A93089B5B788DF82730002380
:1048C0008DF812300A9B18689DF8273099B20DF1C7
:1048D000130200230193012300930123FFF7F7FC48
:1048E00003468DF813309DF81330002B0DD10A9B31
:1048F00018689DF8273099B20DF112020123019337
:10490000002300930123FFF799FC039B5B6D089341
:10491000089B5B680A93089B5B788DF82730172308
:104920008DF814309DF8123023F00803DBB28DF8B7
:1049300015300A9B18689DF8273099B205AA002304
:104940000193002300930223FFF7C1FC03999BA36B
:10495000D3E90023C1E91823039B5B6D089311235E
:104960008DF81330089B5B680A93089B5B788DF881
:10497000273000238DF812300A9B18689DF82730E5
:1049800099B20DF113020023019301230093012337
:10499000FFF79DFC03468DF813309DF81330002B74
:1049A0000DD10A9B18689DF8273099B20DF11202BB
:1049B00001230193002300930123FFF73FFC039B96
:1049C0005B6D0893089B5B680A93089B5B788DF886
:1049D000273011238DF814309DF8123023F00F0387
:1049E000DBB28DF815300A9B18689DF8273099B214
:1049F00005AA00230193002300930223FFF767FC1D
:104A0000039B5B6D089311238DF81330089B5B6843
:104A10000A93089B5B788DF8273000238DF81230BD
:104A20000A9B18689DF8273099B20DF113020023F4
:104A30000193012300930123FFF749FC03468DF8FE
:104A400013309DF81330002B0DD10A9B18689DF888
:104A5000273099B20DF11202012301930023009334
:104A60000123FFF7EBFB039B5B6D0893089B5B68DF
:104A70000A93089B5B788DF8273011238DF814304A
:104A80009DF812305BB203F00F035BB243F04003BA
:104A90005BB2DBB28DF815300A9B18689DF82730A1
:104AA00099B205AA00230193002300930223FFF784
:104AB0000EFC039B5B6D089313238DF81330089B4A
:104AC0005B680A93089B5B788DF8273000238DF88C
:104AD00012300A9B18689DF8273099B20DF1130225
:104AE00000230193012300930123FFF7F0FB03460A
:104AF0008DF813309DF81330002B0DD10A9B1868E8
:104B00009DF8273099B20DF1120201230193002381
:104B100000930123FFF792FB039B5B6D0893089BB7
:104B20005B680A93089B5B788DF8273013238DF818
:104B300014309DF8123023F00203DBB28DF81530EB
:104B40000A9B18689DF8273099B205AA00230193A3
:104B5000002300930223FFF7BAFB039B002283F894
:104B60004820039B03F14802039BDA61039B03F196
:104B70004002039B1A62039B03F13C02039B5A62AF
:104B8000039B03F13802039B9A62039B03F13402F7
:104B9000039BDA62084B1B690693069B83F310881C
:104BA00000BF039B01221A72039B00225A7200BFAE
:104BB0000DB05DF804FB00BF500C0020EC51B81E96
:104BC00085EB813F0000000000B58BB0694BD3E955
:104BD0000401694BD3E9022301F0C0FA0346002B1C
:104BE00005D1654BD3E902236249C1E90423614B36
:104BF0005B7A002B02D05F4B00225A725D4BDB695F
:104C00000893089BDB680793079B5B680693079BE9
:104C10005B788DF80A301E238DF80B30069B1868E0
:104C20009DF80A3099B20DF10B0200230193012384
:104C300000930123FFF74BFB03468DF80B309DF8E3
:104C40000B30002B0DD1069B18689DF80A3099B2E5
:104C50000DF10B0201230193002300930123FFF7C1
:104C6000EDFA089BDB680793079B5B680693079B3D
:104C70005B788DF80A300023099307E004AA099BAA
:104C8000134400221A70099B01330993099B052BD9
:104C9000F4DD28238DF80B30069B18689DF80A3048
:104CA00099B20DF10B02002301930123009301231C
:104CB000FFF70DFB03468DF80B309DF80B30002BF2
:104CC0000CD1069B18689DF80A3099B204AA0123FA
:104CD0000193002300930623FFF7B0FA9DF81130EB
:104CE0001B021BB21A469DF810301343184600F001
:104CF00063FF089BD3E9042300F0C8FF02460B467C
:104D00001E49C1E900239DF813301B021BB21A464D
:104D10009DF812301343184600F04EFF089BD3E96C
:104D2000042300F0B3FF02460B461449C1E90223F5
:104D30009DF815301B021BB21A469DF81430134320
:104D4000184600F039FF089BD3E9042300F09EFFCA
:104D500002460B460949C1E90423089BDB68079317
:104D6000079B5B680693079B5B788DF80A300023EE
:104D700009930DE0200B0020B0030020680C0020F8
:104D800004AA099B134400221A70099B013309935A
:104D9000099B052BF4DD22238DF80B30069B186848
:104DA0009DF80A3099B20DF10B0200230193012303
:104DB00000930123FFF78BFA03468DF80B309DF823
:104DC0000B30002B0CD1069B18689DF80A3099B265
:104DD00004AA01230193002300930623FFF72EFA70
:104DE0009DF811301B021BB21A469DF81030134378
:104DF000184600F0E1FE089BD3E9062300F046FFC9
:104E000002460B46B449C1E900239DF813301B024A
:104E10001BB21A469DF812301343184600F0CCFE20
:104E2000089BD3E9062300F031FF02460B46AA494E
:104E3000C1E902239DF815301B021BB21A469DF8EA
:104E400014301343184600F0B7FE089BD3E906233D
:104E500000F01CFF02460B469F49C1E904239E4B0C
:104E6000D3E9000198A3D3E9002300F00FFF024625
:104E70000B46104619464FF00002984B01F030F8EF
:104E800002460B469449C1E90023934BD3E9020142
:104E90008DA3D3E9002300F0F9FE02460B4610462D
:104EA00019464FF000028D4B01F01AF802460B46EE
:104EB0008949C1E90223884BD3E9040182A3D3E9DC
:104EC000002300F0E3FE02460B46104619464FF061
:104ED0000002824B01F004F802460B467E49C1E90C
:104EE0000423089BDB680793079B5B680693079B7B
:104EF0005B788DF80A3000238DF80C3000238DF894
:104F00000D3020238DF80B30069B18689DF80A3071
:104F100099B20DF10B0200230193012300930123A9
:104F2000FFF7D5F903468DF80B309DF80B30002BB9
:104F30000CD1069B18689DF80A3099B203AA012388
:104F40000193002300930223FFF778F99DF80D30B9
:104F50001B021BB21A469DF80C301343184600F092
:104F60002BFE4FF000025E4B00F090FE02460B4617
:104F7000104619464FF000025A4B00F0D1FC024691
:104F80000B465949C1E90023584BD3E9000150A30E
:104F9000D3E9002300F07AFE02460B465349C1E9EB
:104FA0000023524BD3E9020149A3D3E9002300F0C7
:104FB0006DFE02460B464D49C1E902234B4BD3E936
:104FC000040143A3D3E9002300F060FE02460B4630
:104FD0004649C1E90423464BD3E92801454BD3E9AF
:104FE000042301F0BBF80346002B05D1414BD3E964
:104FF00004233F49C1E9282368238DF80A309DF82E
:105000000A308DF80B303A4BD3F898000DF10B02B3
:10501000002301930123009301231E21FFF757F979
:1050200003468DF80A309DF80A30002B12D1304B20
:10503000D3F8980004AA01230193002300930623C8
:105040001E21FFF7FBF804AB062219462A4801F09F
:105050009FFC08E0284B00221A80274B00225A8030
:10506000254B00229A8080220021244801F09EFCDA
:105070001F4BD3E92E011F4BD3E9002301F06EF83B
:105080000346002B05D11B4BD3E900231849C1E986
:105090002E23174BD3F8B4301846FEF72FFF0346E4
:1050A0008DF81730124BD3F8EC309DF817201146CD
:1050B0001846FEF74AFF00F065FA00BF0BB05DF836
:1050C00004FB00BFAFF30080182D4454FB210940BE
:1050D0001F85EB51B89E2340800A00200080664067
:1050E0000000703F00003940780A0020680C002062
:1050F000200B0020B0030020980A0020A00A002006
:1051000000B589B0924BD3E90A239249C1E9002343
:105110008F4BD3E906239049C1E900238C4BD3E997
:1051200008238E49C1E90023894BB3F930208C4B09
:105130001A80874BD3E906238749C1E90223844BB0
:10514000D3E908238549C1E90223814BB3F9302013
:10515000834B5A807E4BD3E906237F49C1E9042360
:105160007B4BD3E908237D49C1E90423784BB3F98C
:1051700030207B4B9A807B4B0022DA600BE0794B2E
:10518000DB68734A518E784A22F81310754BDB683E
:105190000133744AD360734BDB683F2BEFDD00F0C3
:1051A0002FFA724968A3D3E90023C1E934236F4B76
:1051B000002283F8C0206E4B07936C4B0122C3F88A
:1051C000C420684B00221A70664B00225A60654B5F
:1051D0005B68644A127811461846FEF775FF02466E
:1051E000079B9A61614B634AC3F8CC205F4BD3F8AD
:1051F000D8305E4AD2F8CC2011461846FEF7EEFFB2
:105200005A4B012283F8C820584B012283F84820CA
:10521000564B00225A60554B00221A704C4BD3E972
:1052200002235249C1E904235048FFF76DF94F4961
:1052300045A3D3E90023C1E924234C4B002283F882
:105240008020434BD3E904234849C1E928234A4B32
:105250000693464B0122C3F88420424B00221A7069
:10526000404B00225A603F4B5B683E4A1278114621
:105270001846FEF729FF0246069B9A613B4B3D4AC2
:10528000C3F88C20394BD3F89830384AD2F88C20A8
:1052900011461846FEF7A2FF344B012283F88820FE
:1052A000324B002283F8A820294BD3E900232F4951
:1052B000C1E92E23314B05932C4B0122C3F8AC20BE
:1052C000284B41225A60274B5B6800211846FEF7A5
:1052D00059FD0246059BDA60244B012283F8B02079
:1052E000224B002283F8E020254B04931F4B012220
:1052F000C3F8E4201B4B0D225A601A4B5B68012156
:105300001846FEF73FFD0246049BDA60174B012268
:1053100083F8E82060238DF80C300D4B93F834307F
:105320008DF80D30114BD3F8D80003AA0023019358
:105330000023009302231E21FEF7C9FF00F022F98B
:1053400000BF09B05DF804FB00000000006A1841CE
:10535000B0030020780A0020680C0020800A00209A
:10536000980A0020500C0020A00A0020200B0020EA
:10537000E00B0020A0860100A00B0020C80B00203D
:10538000000C002000B583B03F4B1B78002B02D1EE
:105390003D4B01221A703D4B0193019B1B78002B62
:1053A00009D1019B01221A70019B5B68012B02D17C
:1053B000019B02225A60344B93F88030002B13D1AA
:1053C000314B012283F880202F4BD3F88430012BFE
:1053D0000AD12D4B93F88830002B05D02A4BD3F8F7
:1053E00098301846FEF7BCFF274B93F8A830002BE7
:1053F00013D1254B012283F8A820234BD3F8AC30DE
:10540000012B0AD1204B93F8B030002B05D01E4B56
:10541000D3F8B4301846FEF7AFFD1B4B93F8E030DD
:10542000002B13D1184B012283F8E020164BD3F840
:10543000E430012B0AD1144B93F8E830002B05D04F
:10544000114BD3F8EC301846FEF796FD0E4B93F84F
:10545000C030002B13D10C4B012283F8C0200A4B23
:10546000D3F8C430012B0AD1074B93F8C830002B76
:1054700005D0054BD3F8D8301846FEF771FF00BFB2
:1054800003B05DF804FB00BF200B0020680B002078
:1054900008B50F4B1B785A1CD1B20D4A1170002B66
:1054A00009D00C4B01221A60094B1B78013BDAB280
:1054B000074B1A700BE062B600BFFFF785FB72B6B0
:1054C00000BF034B1B78013BDAB2014B1A7008BDD9
:1054D000140900201009002000B583B0244B01936B
:1054E000244B0093244B00221A70244B00221A7084
:1054F00001DFFCF7E9FDFEF7E7FA214B1B6800220C
:105500001A60FFF7FDFD9DED010A00F05FF91C4BED
:105510001B681B68002B0CBF01230023DBB21A465B
:10552000164B1A7062B600BF15E0154B1B681B685E
:10553000002B14BF01230023DBB21A460E4B1A7056
:105540000D4B1B78DBB2002B0CBF01230023DBB219
:105550001A460A4B1A70094B1B78DBB2002BE4D1B8
:10556000FFF710FF0023184603B05DF804FB00BFEF
:105570000AD7233C0000C842810C0020800C002088
:10558000E477000808B54FF0FF33032215491648A9
:10559000FEF77CF94FF0FF33182214491248FEF74A
:1055A00075F94FF0FF33182211490F48FEF76EF9D5
:1055B0004FF0FF3308220F490B48FEF767F94FF011
:1055C000FF3306220C490848FEF760F94FF0FF331D
:1055D00004220A490448FEF759F91420FCF78EFD0D
:1055E00000BF08BDE8770008100C0020680C002000
:1055F000800A0020780A0020980A0020EC77000832
:1056000008B5114B114A1A600F4B4FF416425A60FD
:105610000D4B00229A600C4B0022DA600A4B0022EC
:105620001A61094B0C225A61074B00229A61064B02
:105630000022DA610448FEF7FBF80346002B01D094
:1056400000F04AF800BF08BD100C002000440040E4
:1056500000B58BB0019005AB00221A605A609A60C9
:10566000DA601A61019B1B68184A93422AD1002311
:105670000493174B1B6C164A43F400331364144B0A
:105680001B6C03F400330493049B00230393104B1F
:105690001B6B0F4A43F0010313630D4B1B6B03F0AD
:1056A00001030393039B0C2305930223069300231A
:1056B0000793032308930723099305AB194605486D
:1056C000FCF768FD00BF0BB05DF804FB0044004030
:1056D000003802400000024072B600BFFEE7000042
:1056E00082B0034600918DF807309DF90730002BFA
:1056F0000ADB009BDAB20C499DF907301201D2B2E5
:105700000B4483F800230BE0009BDAB207499DF8B5
:10571000073003F00F03043B1201D2B20B441A7698
:1057200000BF02B0704700BF00E100E000ED00E004
:1057300000B583B00190019B013BB3F1807F01D3A1
:1057400001230FE0094A019B013B53600F214FF0F9
:10575000FF30FFF7C5FF054B00229A60034B07227D
:105760001A600023184603B05DF804FB10E000E067
:1057700008B5BFF34F8F00BFBFF36F8F00BF0C4B57
:105780001A680C4B1B689A4202D3094B00221A601C
:10579000074B1B685A1C06490A60002B05D172B6DC
:1057A00000BFFFF775FE62B600BF00BF08BD00BFB7
:1057B000880C0020840C0020034B5B68024A43F0F5
:1057C0008053536000BF704700ED00E000B585B026
:1057D0008DED010A224B1B6807EE903AB8EE677A0E
:1057E000DDED017A67EE277AFCEEE77A17EE903A64
:1057F0000393039BB3F1807F18D3039B07EE903A8A
:10580000B8EE677ADFED176AC7EE267AFCEEE77A24
:1058100017EE903A0133144A1360134B1B68039A36
:10582000B2FBF3F31846FFF783FF05E00E4B0022AF
:105830001A600398FFF77CFF0C4B00221A600C4A99
:105840000C4B1A600F216FF00400FFF749FF0F2186
:105850006FF00100FFF744FF00BF05B05DF804FBE7
:10586000A8030020FFFF7F4B840C0020880C002041
:10587000715700088C0C0020EFF3008001B5EFF3A6
:10588000118003B41EF0100F08BFB0EE400A0A48A2
:10589000006803B488B004A006904FF080700790B1
:1058A0006FF006008646704703BC8047BFF36F8FDA
:1058B00000DFFEE700BF00008C0C00201EF0100F80
:1058C00008BFB0EE400A1EF0040F0CBFEFF30880D3
:1058D000EFF30980816911F8020C10B101280DD095
:1058E0000BE01EF0100F0CBF1AB008B003BC80F321
:1058F000118803BC80F300880847FEE74EF6145178
:10590000CEF200010A6842F001020A607047F4E733
:1059100000BF00BF81F0004102E000BF83F0004300
:1059200030B54FEA41044FEA430594EA050F08BF3A
:1059300090EA020F1FBF54EA000C55EA020C7FEAFE
:10594000645C7FEA655C00F0E2804FEA5454D4EB7B
:105950005555B8BF6D420CDD2C4480EA020281EA45
:10596000030382EA000083EA010180EA020281EA7D
:105970000303362D88BF30BD11F0004F4FEA0131CF
:105980004FF4801C4CEA113102D0404261EB4101DE
:1059900013F0004F4FEA03334CEA133302D0524264
:1059A00063EB430394EA050F00F0A780A4F1010420
:1059B000D5F1200E0DDB02FA0EFC22FA05F280185A
:1059C00041F1000103FA0EF2801843FA05F3594140
:1059D0000EE0A5F120050EF1200E012A03FA0EFCBF
:1059E00028BF4CF0020C43FA05F3C01851EBE371E9
:1059F00001F0004507D54FF0000EDCF1000C7EEB06
:105A000000006EEB0101B1F5801F1BD3B1F5001F43
:105A10000CD349085FEA30004FEA3C0C04F1010462
:105A20004FEA445212F5800F80F09A80BCF1004F8B
:105A300008BF5FEA500C50F1000041EB045141EA0D
:105A4000050130BD5FEA4C0C404141EB0101013CD6
:105A500028BFB1F5801FE9D291F0000F04BF0146C5
:105A60000020B1FA81F308BF2033A3F10B03B3F197
:105A700020020CDA0C3208DD02F1140CC2F10C0227
:105A800001FA0CF021FA02F10CE002F11402D8BF85
:105A9000C2F1200C01FA02F120FA0CFCDCBF41EA51
:105AA0000C019040E41AA2BF01EB0451294330BD20
:105AB0006FEA04041F3C1CDA0C340EDC04F11404FD
:105AC000C4F1200220FA04F001FA02F340EA0300D4
:105AD00021FA04F345EA030130BDC4F10C04C4F11A
