:020000040800F2
:10000000000001204D780008196D00081D6D0008E2
:10001000396D00083B6D00083D6D000800000000D0
:100020000000000000000000000000003F6D00081C
:10003000416D000800000000436D0008456D000898
:100040009D7800089D7800089D7800089D7800083C
:100050009D7800089D7800089D7800089D7800082C
:100060009D7800089D7800089D7800089D7800081C
:100070009D780008496D00089D7800089D7800086B
:100080009D7800089D7800089D7800089D780008FC
:10009000596D00089D7800089D7800089D7800083B
:1000A0009D780008696D00089D7800089D7800081B
:1000B000796D00089D7800089D7800089D780008FB
:1000C0009D7800089D7800089D7800089D780008BC
:1000D0009D7800089D7800089D780008B16D0008A3
:1000E0009D7800089D7800089D7800089D7800089C
:1000F0009D7800089D7800089D7800089D7800088C
:100100009D78000800000000000000009D780008B5
:100110009D7800089D7800089D7800089D7800086B
:100120009D7800089D7800089D7800089D7800085B
:100130009D7800089D780008000000000000000085
:100140009D7800089D7800089D7800080000000058
:10015000000000000000000000000000000000009F
:100160009D7800089D7800089D7800089D7800081B
:100170009D7800089D7800089D7800089D7800080B
:100180009D7800089D780008000000000000000035
:040190009D7800084E
:1001940010B5054C237833B9044B13B10448AFF3BD
:1001A40000800123237010BDD40000200000000053
:1001B400F878000808B5034B1BB103490348AFF3B3
:1001C400008008BD00000000D8000020F878000876
:1001D400F0B585B0114F4FF0FF360296012401941B
:1001E4000F4D009523460D223321384603F09AFE25
:1001F400029601940B4E009623460E223321384674
:1002040003F090FE33781B021BB22878184300F0E9
:10021400F5FC054B83ED000A05B0F0BD7406002023
:10022400F5000020F4000020F000002082B08DF8DA
:1002340004008DF805108DF806208DF807309DED2B
:10024400010A02B0704782B08DF804008DF80510E1
:100254008DF806208DF80730019802B0704708B574
:100264000221012001F0B4FA08BD000008B5054AD6
:100274000221012001F06CFB0028F8D1FFF7A8FF50
:1002840008BD00BF0802002038B5044683794279CE
:100294000179C078FFF7D7FF05460B4B1860A37AA6
:1002A400627A217AE079FFF7C1FF084C84ED000AF5
:1002B4002A460221012001F0A1FB94ED000A02214B
:1002C400012001F071FB38BDFC000020F800002083
:1002D40038B51A4C4FF0FF3303221949204606F073
:1002E40081FB184D4FF0FF3304222946204606F0C7
:1002F40079FB4FF0FF330422A918204606F072FB65
:100304004FF0FF33042205F10801204606F06AFB92
:100314004FF0FF3304220C49204606F063FB4FF0F4
:10032400FF3304220949204606F05CFB4FF0FF33FB
:1003340003220749204606F055FB38BD2C05002052
:100344000400002008020020F0000020F00100203A
:100354000000002001230B70002048708870C870D2
:10036400486010238B60C86000230B61014A4A6116
:100374008B6170470000C84480F8381080F8392039
:10038400DFED267AB4EEE70AF1EE10FA33D9F2EE95
:10039400097AB4EEE70AF1EE10FA30D9F3EE097AED
:1003A400B4EEE70AF1EE10FA2BD9DFED1D7AB4EEC4
:1003B400E70AF1EE10FA26D9DFED1A7AB4EEE70A6D
:1003C400F1EE10FA21D9DFED187AB4EEE70AF1EE76
:1003D40010FA1CD9DFED157AB4EEE70AF1EE10FA43
:1003E40017D9DFED137AB4EEE70AF1EE10FA12D85A
:1003F40017EE903A00E00F4B4363002070470E4B1A
:10040400FAE70E4BF8E70E4BF6E70E4BF4E70E4B0C
:10041400F2E70E4BF0E70E4BEEE700BFCDCCCC3F3E
:10042400000048420000C842000048430000C8439E
:1004340000004844CDCCCC3F000048410000C841F6
:10044400000048420000C842000048430000C8437E
:100454000000C84410B54469007BA04710BD10B526
:100464000469007BA04710BD2DE9F0412DED028BFE
:100474000446B0EE408A0D4616464B1E032B03D8A5
:10048400DFE803F0135B6B7C012E0BD04FF0040804
:10049400F2EE097AB4EEE78AF1EE10FA10D5B2EE74
:1004A400098A0DE04FF01408F2E7012E42D04FF014
:1004B4000308DFED517AB4EEE78AF1EE10FA6EDC50
:1004C400DFED4E7AB4EEE78AF1EE10FA6AD9F2EE75
:1004D400097AB4EEE78AF1EE10FA79D9F3EE097AE3
:1004E400B4EEE78AF1EE10FA74D9DFED457AB4EE92
:1004F400E78AF1EE10FA6FD9DFED427AB4EEE78ABB
:10050400F1EE10FA6AD9DFED3C7AB4EEE78AF1EE47
:1005140010FA65D9DFED3C7AB4EEE78AF1EE10FA11
:1005240060D9DFED3A7AB4EEE78AF1EE10FA5BD8DF
:10053400082138E04FF01308BBE7012E0AD08846A3
:10054400DFED2D7AB4EEE78AF1EE10FAB8DD9FED17
:100554002A8AB5E74FF01208F2E7012E0BD04FF0CC
:100564000108DFED257AB4EEE78AF1EE10FAA7DD93
:100574009FED218AA4E74FF01108F2E7012E0BD07A
:100584004FF00008DFED1C7AB4EEE78AF1EE10FAC2
:1005940096DD9FED198A93E74FF01008F2E79FED7F
:1005A400168A8DE7012104F12007384600F0DDFBAF
:1005B400E0B94146384600F031FBD0B984ED0D8AEC
:1005C40084F8385084F83960BDEC028BBDE8F081C2
:1005D4000221E8E70321E6E70421E4E70521E2E755
:1005E4000621E0E70721DEE70921DCE74FF0FF30D1
:1005F400EAE74FF0FF30E7E700004843CDCCCC3FBB
:10060400000048420000C8420000C84300004844BB
:1006140090F83130012B0ED010B5044690F83920F3
:1006240090F8381090ED0D0AFFF71EFF28B901234A
:1006340084F8313010BD002070474FF0FF30F9E7E7
:1006440090F831300BB90020704710B504460021F2
:10065400203000F08AFB10B984F8310010BD4FF04F
:10066400FF30FBE710B50446FFF7EAFF48B9002363
:100674006363002384F8383084F8393084F83030E8
:1006840010BD4FF0FF30FBE738B5044600F12005FC
:100694000121284600F074FC10BB0121284600F01B
:1006A400F2FB00BB0021284600F083FCF0B90421D2
:1006B400284600F0B3FAE0B9124B6363002184F8D2
:1006C400381084F83910284600F04FFBA0B90021F7
:1006D400284600F0F1FB90B9012384F8303038BD8E
:1006E4004FF0FF30FBE74FF0FF30F8E74FF0FF30FB
:1006F400F5E74FF0FF30F2E74FF0FF30EFE74FF050
:10070400FF30ECE70000C84208B5022905DD0429E2
:1007140009DD082909DC022100E00021203000F075
:10072400CBFB20B908BD0121F8E70321F6E74FF020
:10073400FF30F7E708B5203000F01BFC00B908BD16
:100744004FF0FF30FBE710B582B00C460DF1070106
:10075400203000F0CAFBC0B99DF80730032B10D835
:10076400DFE803F00206090C0223236002B010BD87
:1007740004232360FAE708232360F7E710232360A8
:10078400F4E74FF0FF302060F0E74FF0FF30EDE783
:1007940030B583B00D4600F120040DF10701204669
:1007A40000F0A3FB00284CD10DF10601204600F017
:1007B40072FA002848D19DF806201B2A09D8012383
:1007C400934003F01E3222F010220ABB13F0013FC3
:1007D40005D11F4B2B604FF0FF3003B030BD9DF8A7
:1007E4000730032B0FD8DFE803F00205080B194B81
:1007F4002B60F2E7184B2B60EFE7184B2B60ECE70C
:10080400174B2B60E9E7124B2B604FF0FF30E4E706
:100814009DF80730032B0FD8DFE803F00205080B1F
:10082400104B2B60D9E7104B2B60D6E7094B2B609C
:10083400D3E7094B2B60D0E7054B2B604FF0FF301B
:10084400CBE74FF0FF30C8E74FF0FF30C5E700BFFC
:10085400000080BF23DB793F23DBF93F23DB7940B2
:1008640023DBF94023DB793E23DBF93E30B583B04B
:100874000D4600F120040DF10701204600F0ABFA0B
:10088400002840F095800DF10601204600F003FA9F
:10089400002840F090809DF80730222B00F28380DE
:1008A400DFE803F012162D303336393C536A818168
:1008B4008181818181811281818181818181818193
:1008C400818181818181120000232B6003B030BDBE
:1008D4009DF806201B2A0AD80123934013F00F3FEA
:1008E40002D0364B2B60F1E713F0101F04D1344BC8
:1008F4002B604FF0FF30E9E7324B2B60E6E7314BDA
:100904002B60E3E7304B2B60E0E7304B2B60DDE7F7
:100914002F4B2B60DAE72F4B2B60D7E79DF806208F
:100924001B2A0AD80123934013F00F3F02D0294B0E
:100934002B60CBE713F0101F04D1214B2B604FF039
:10094400FF30C3E7244B2B60C0E79DF806201B2A29
:100954000AD80123934013F00F3F02D01D4B2B60A4
:10096400B4E713F0101F04D1154B2B604FF0FF3088
:10097400ACE71A4B2B60A9E79DF806201B2A0AD87E
:100984000123934013F00F3F02D0124B2B609DE7DD
:1009940013F0101F04D10A4B2B604FF0FF3095E782
:1009A4000F4B2B6092E7064B2B604FF0FF308DE727
:1009B4004FF0FF308AE74FF0FF3087E7CDCCCC3FD4
:1009C400000080BF000048410000C84100004842C8
:1009D4000000C842000048430000C84300004844E7
:1009E4000000C84430B585B00D4600F120040DF177
:1009F4000701204600F04FF9002849D102A92046FA
:100A040000F095FA002846D19DF807201B2A45D806
:100A14000123934003F01E3222F01022FAB913F09E
:100A2400013F02D14FF0FF3011E0BDF90830002B37
:100A34000FDB1B112B80BDF90A30002B0BDB1B11C4
:100A44006B80BDF90C30002B07DB1B11AB8005B0AC
:100A540030BD0F33EDE70F33F1E70F33F5E7BDF9A1
:100A64000830002B0EDB9B102B80BDF90A30002BC5
:100A74000ADB9B106B80BDF90C30002B06DB9B104E
:100A8400AB80E4E70333EEE70333F2E70333F6E73F
:100A94004FF0FF30DBE74FF0FF30D8E74FF0FF3087
:100AA400D5E730B585B005460C460023019302A96D
:100AB400FFF798FF60BB01A92846FFF769FE50BB0A
:100AC400BDF9083007EE103AB8EEC77ADDED017AC9
:100AD40027EE277ABDEEC77A84ED007ABDF90A3095
:100AE40007EE103AB8EEC77A27EE277ABDEEC77A3A
:100AF40084ED017ABDF90C3007EE103AB8EEC77AEE
:100B040067EE877AFDEEE77AC4ED027A05B030BD70
:100B14004FF0FF30FAE74FF0FF30F7E708B590F8F1
:100B24003130012B02D0FFF727FC08BDFFF79CFCF6
:100B3400FBE708B500221146FFF7F0FF08BD00B53A
:100B440083B08DF8072001230DF10702203000F057
:100B54004CF810B903B05DF804FB4FF0FF30F9E72F
:100B640000282BD010B504460B6803604A68426025
:100B74008A6882600A7B02730A6902614A69426177
:100B84008A698261124A4262124A0262CA698262B4
:100B9400C062B3B19847B8B9A368022B00D010BDA6
:100BA40094F83030002BFAD1052221212046FFF79A
:100BB400C6FF0028F3D04FF0FF30F0E74FF0FF30CE
:100BC40070474FF0FF30EAE74FF0FF30E7E700BF30
:100BD400590400086304000820B110B54468C068D3
:100BE400A04710BD4FF0FF30704720B110B5046826
:100BF400C068A04710BD4FF0FF30704707EE900A61
:100C0400F8EEE77A9FED047A67EE877AB3EE090A85
:100C140037EE800A704700BF0000803B30B583B0D8
:100C240005460C46012301AA2021FFF7D5FF034600
:100C340018B103B3184603B030BDC4F381039DF863
:100C4400042063F383028DF80420D3B264F3010318
:100C54008DF80430012301AA20212846FFF7C5FF9F
:100C640003460028E6D101236A4625212846FFF7DA
:100C7400B3FF0346DDE7C4F300119DF8003061F3D0
:100C840082038DF8003001236A4625212846FFF7A8
:100C9400ACFF0346CEE730B583B004460D460123CE
:100CA40001AA2021FFF798FF08B103B030BD01234A
:100CB4006A4625212046FFF78FFF9DF80010C1F3F7
:100CC40080019DF8042002F00C0303EB011302F0F1
:100CD400030213441B2B45D8DFE803F01A17141141
:100CE4000E4444442623201D4444444435322F2CCE
:100CF40029444444413E3B3804232B70D5E7032365
:100D04002B70D2E702232B70CFE701232B70CCE7A3
:100D140000232B70C9E70B232B70C6E70A232B7023
:100D2400C3E709232B70C0E708232B70BDE7142306
:100D34002B70BAE713232B70B7E712232B70B4E799
:100D440011232B70B1E710232B70AEE71B232B70FC
:100D5400ABE71A232B70A8E719232B70A5E71823F8
:100D64002B70A2E704232B709FE730B583B00546B0
:100D74000C46012301AA2021FFF72EFF034618B1D8
:100D8400CBB1184603B030BD9DF8043064F30713AB
:100D94008DF80430012301AA20212846FFF725FFFE
:100DA40003460028EDD101236A4622212846FFF795
:100DB40013FF0346E4E7C4F301119DF8003061F327
:100DC40001038DF8003001236A4622212846FFF7EB
:100DD4000CFF0346D5E730B583B004460D46012326
:100DE40001AA2021FFF7F8FE08B103B030BD0123AA
:100DF4006A4622212046FFF7EFFE9DF8002002F00C
:100E040003029DF804301B0903EB0213222B37D88D
:100E1400DFE803F01215181B1E2124272A2D36366D
:100E24003636363636363036363636363636363664
:100E3400363636363636330000232B70D5E7012399
:100E44002B70D2E702232B70CFE703232B70CCE760
:100E540004232B70C9E705232B70C6E706232B70E8
:100E6400C3E707232B70C0E708232B70BDE70923D2
:100E74002B70BAE712232B70B7E722232B70B4E749
:100E840000232B70B1E730B583B004460D4601232F
:100E940001AA2121FFF7A0FE08B103B030BD9DF8DF
:100EA400043065F3C3038DF80430012301AA212122
:100EB4002046FFF79AFEF0E730B583B004460D46AE
:100EC400012301AA2521FFF787FE08B103B030BD35
:100ED4009DF8043065F305138DF80430012301AA4D
:100EE40025212046FFF781FEF0E710B582B00C46BD
:100EF400012301AA2521FFF76FFE9DF80430C3F3F7
:100F04000113032B10D8DFE803F00206090C0023B9
:100F1400237002B010BD01232370FAE7022323706B
:100F2400F7E703232370F4E700232370F1E710B5F8
:100F340082B00C4606236A462821FFF74DFE9DF831
:100F4400012022809DF8003003EB022323809DF8CA
:100F5400032062809DF8023003EB022363809DF836
:100F64000520A2809DF8043003EB0223A38002B085
:100F740010BD08B50A4601230F21FFF72DFE08BD59
:100F840030B583B004460D46012301AA2121FFF7A1
:100F940023FE08B103B030BD9DF8043065F382032D
:100FA4008DF80430012301AA21212046FFF71DFEFC
:100FB400F0E730B583B004460D46012301AA2E2183
:100FC400FFF70AFE08B103B030BD9DF8043065F3A5
:100FD40047138DF80430012301AA2E212046FFF780
:100FE40004FEF0E700200870487001238B70C8707D
:100FF400486088603223CB6000230B614B61014B56
:101004008B6170470000C8424FF07F530B60002093
:10101400704732230B60002070470020704710B5E2
:1010240084682CB9446941F08001007BA04710BD5D
:10103400446941F04001007BA047F8E710B584689B
:101044002CB9046941F08001007BA04710BD0469FC
:1010540041F04001007BA047F8E790F83130012BC4
:101064000AD010B504460021203000F04BF928B90D
:10107400012384F8313010BD002070474FF0FF3059
:10108400F9E790F831300BB90020704710B50446E9
:101094000221203000F036F910B984F8310010BD77
:1010A4004FF0FF30FBE710B50446FFF7EAFF10B935
:1010B40084F8300010BD4FF0FF30FBE708B5F2EEC6
:1010C400047AB4EEE70AF1EE10FA0FD9F3EE047ADB
:1010D400B4EEE70AF1EE10FA0ED9DFED0B7AB4EEB6
:1010E400E70AF1EE10FA09D8022100E000212030CD
:1010F40000F021F920B908BD0121F8E70321F6E742
:101104004FF0FF30F7E700BF0000484238B504460F
:1011140000F120050121284600F048F990B9022188
:10112400284600F0EFF880B90321284600F003F9BF
:1011340070B90021284600F07BF960B9012384F8D6
:10114400303038BD4FF0FF30FBE74FF0FF30F8E7A9
:101154004FF0FF30F5E74FF0FF30F2E708B52030ED
:1011640000F05FF900B908BD4FF0FF30FBE7000065
:1011740010B582B00C460DF10701203000F0F4F8F0
:10118400A0B99DF80730032B13D8DFE803F002065B
:10119400090C094B236002B010BD084B2360FAE729
:1011A400074B2360F7E7074B2360F4E74FF0FF306A
:1011B400F1E74FF0FF30EEE7000020410000A041CE
:1011C400000048420000C84210B582B00C4669468F
:1011D400203000F004F950B9BDF900302380BDF986
:1011E40002306380BDF90430A38002B010BD4FF01B
:1011F400FF30FAE770B584B005460C46002301932E
:1012040002A9203000F0EBF868BB064601A9284685
:10121400FFF7FAFEBDF9083007EE103AB8EEC77AC8
:10122400DDED017A27EE277ABDEEC77A84ED007AE8
:10123400BDF90A3007EE103AB8EEC77A27EE277ADE
:10124400BDEEC77A84ED017ABDF90C3007EE103A91
:10125400B8EEC77A67EE877AFDEEE77AC4ED027AD4
:10126400304604B070BD4FF0FF36F9E7002829D0AE
:1012740010B504460B6803604A6842608A6882605D
:101284000A7B02730A6902614A6942618A6982615E
:10129400114A4262114A0262CA698262C062A3B1FF
:1012A4009847A8B9A36813B194F8303003B110BDBE
:1012B400012104F1200000F0D4F80028F7D04FF009
:1012C400FF30F4E74FF0FF3070474FF0FF30EEE7A8
:1012D4004FF0FF30EBE700BF231000084110000877
:1012E40020B110B54468C068A04710BD4FF0FF306E
:1012F400704720B110B50468C068A04710BD4FF016
:10130400FF30704730B583B004460D46012301AA6F
:101314006021FFF7E5FF08B103B030BD9DF804304C
:1013240065F301038DF80430012301AA60212046EE
:10133400FFF7DFFFF0E730B583B004460D46012325
:1013440001AA6021FFF7CCFF08B103B030BD9DF8BE
:10135400043065F383038DF80430012301AA60216E
:101364002046FFF7C6FFF0E710B582B00C46012314
:1013740001AA6021FFF7B4FF9DF80430C3F3810391
:10138400032B10D8DFE803F00206090C00232370B6
:1013940002B010BD01232370FAE702232370F7E79C
:1013A40003232370F4E700232370F1E730B583B0FF
:1013B40004460D46012301AA6221FFF791FF08B1FB
:1013C40003B030BD9DF8043065F304138DF8043088
:1013D400012301AA62212046FFF78BFFF0E710B535
:1013E40082B00C4606236A466821FFF779FF9DF810
:1013F400012022809DF8003003EB022323809DF816
:10140400032062809DF8023003EB022363809DF881
:101414000520A2809DF8043003EB0223A38002B0D0
:1014240010BD08B50A4601234F21FFF759FF08BD37
:1014340030B583B004460D46012301AA6221FFF7AB
:101444004FFF08B103B030BD9DF8043065F341038C
:101454008DF80430012301AA62212046FFF749FFD9
:10146400F0E730B583B004460D46012301AA62219A
:10147400FFF736FF08B103B030BD9DF8043065F3C3
:1014840045138DF80430012301AA62212046FFF799
:1014940030FFF0E770B590B0044600230A93D723D9
:1014A4008DF82C30394B0893394B0993394B0D93F4
:1014B400394B0C93394B0E93394B0F9308A9394888
:1014C40000F076FF002852D10021364800F0ACFF2E
:1014D40000284FD10DF11F01324800F0EDFC064603
:1014E40000284AD19DF81F306B2B49D12D4D6946F8
:1014F400284600F0AFFA9DF801209DF8003042EA3A
:1015040043039DF8021043EA810327490B60274BEC
:101514001D60274B2749196014F0010F01D0012ADF
:101524000CD014F0020F03D09DF80030012B10D022
:1015340014F0040F27D1304610B070BD1E4B1F4A63
:101544001A600B68284698470028EAD06FF0040612
:10155400F1E7194B1A4A5A60154B1B681B68134A6A
:10156400106898470028E3D06FF00406E3E76FF0B3
:101574000606E0E76FF00606DDE76FF00606DAE739
:101584006FF00606D7E76FF00406D4E7E1770008AA
:10159400DD76000851770008157700088D7700087C
:1015A400E932000870010020A8010020E4010020B5
:1015B400B4010020B8000020C00100207000002009
:1015C4009400002070B590B0044600230A9333239E
:1015D4008DF82C30304B0893304B0993304B0D93DE
:1015E400304B0C93304B0E93304B0F9308A930487B
:1015F400FFF7B6FA002842D10DF11F012C48FFF77E
:1016040099F8054600283DD19DF81F30442B3CD164
:10161400274E69463046FEF79DFE9DF801209DF851
:10162400001042EA41039DF8020043EA8003214886
:101634004360214B5E60214B2148586014F0010F38
:1016440001D0012A18D014F0020F01D0012906D0CC
:1016540015B914F0040F1BD1284610B070BD194BF6
:10166400194A1A61164B1B68114898470546002809
:10167400EFD06FF00405EFE76FF00405E8E76FF0D3
:101684000605E9E76FF00605E6E76FF00605E3E710
:101694006FF00405E0E700BFE1770008DD7600089D
:1016A40051770008157700088D770008E9320008A3
:1016B40034010020A8010020E4010020B40100202E
:1016C4002C000020C00100200800002070B590B05C
:1016D400044600230A933D238DF82C302F4B0893A6
:1016E4002F4B09932F4B0D932F4B0C932F4B0E9392
:1016F4002F4B0F9308A92F48FFF7B8FD002841D1BD
:101704000DF11F012B48FFF729FD054600283CD1A8
:101714009DF81F30402B3BD1264E69463046FFF7DB
:1017240061FC9DF801209DF8001042EA41039DF8F8
:10173400020043EA800320488360204B9E60204BD4
:101744002048986014F0010F01D0012A14D014F03D
:10175400020F01D001291ED05DB914F0040F08D086
:10176400194B1A4A1A62174B1B68124898470546C8
:1017740028B9284610B070BD6FF00405ECE76FF08F
:101784000405F6E76FF00605F3E76FF00605F0E7EA
:101794006FF00605EDE76FF00405EAE7E17700086E
:1017A400DD76000851770008157700088D7700086A
:1017B400E932000800010020A8010020E401002013
:1017C400B401002060000020C00100203C00002083
:1017D4002DE9F04188B004460F46012830D0022894
:1017E40055D010B16FF0010095E00846FFF752FEA6
:1017F400002840F09380524B53F82430DB6801A951
:10180400504A52F824009847002840F08A809DF8F6
:101814000430012B0BD0A0469DF80530012B09D0D4
:101824009DF80630012B08D00026012557E04FF023
:101834000208F1E748F00108F2E748F00408F3E78A
:101844000846FFF7BFFE00286ED13D4B53F8243005
:10185400DB6801A93B4A52F824009847002866D166
:101864009DF80430012B0CD04FF000089DF8053092
:10187400012B09D09DF80630012BD5D148F004087E
:10188400D2E74FF00208F1E748F00108F2E7084612
:10189400FFF71CFF00284DD1294B53F82430DB6897
:1018A40001A9284A52F824009847002845D19DF8F8
:1018B4000430012B0CD04FF000089DF80530012BAB
:1018C40008D09DF80630012BAED148F00408ABE7F0
:1018D400A046F2E748F00108F3E76D000136022E56
:1018E40018D835EA0703F8D135EA0803F5D1164BC1
:1018F40053F8252004EB44031344144A52F82330CC
:101904001B68104A52F8240098470028E5D06FF06D
:10191400040000E0002008B0BDE8F0814FF0FF3083
:10192400F9E76FF00600F6E74FF0FF30F3E76FF0EA
:101934000600F0E74FF0FF30EDE76FF00600EAE74E
:10194400B4010020E401002010790008C001002047
:1019540002281BD808B50B4611460F4A52F820201E
:1019640033EA020215D10D4A52F8232000EB40035A
:1019740013440B4A52F82330DB690A4A52F8200018
:10198400984700B908BD6FF00400FBE76FF0010051
:1019940070476FF00100F5E7A801002010790008F6
:1019A400C0010020E4010020022819D808B50F4B1B
:1019B40053F8203031EA030315D10D4B53F821209D
:1019C40000EB400313440B4A52F823301B690A4AC4
:1019D40052F82000984700B908BD6FF00400FBE7F7
:1019E4006FF0010070476FF00100F5E7A8010020D7
:1019F40010790008C0010020E401002002281BD84F
:101A040008B50B4611460F4A52F8202033EA020269
:101A140015D10D4A52F8232000EB400313440B4A1E
:101A240052F823309B690A4A52F82000984700B9BB
:101A340008BD6FF00400FBE76FF0010070476FF022
:101A44000100F5E7A801002010790008C00100207A
:101A5400E401002001230B704B7000208870C870D3
:101A64004FF47A634B6010238B60C860024B0B61A8
:101A74004B6100238B6170470058D045F2EE097A20
:101A8400B4EEE70AF1EE10FA39D9F3EE0A7AB4EEBD
:101A9400E70AF1EE10FA37D9DFED237AB4EEE70A5C
:101AA400F1EE10FA32D9DFED217AB4EEE70AF1EE65
:101AB40010FA2DD9DFED1E7AB4EEE70AF1EE10FA32
:101AC40028D9DFED1C7AB4EEE70AF1EE10FA23D937
:101AD400DFED197AB4EEE70AF1EE10FA1ED9DFED64
:101AE400177AB4EEE70AF1EE10FA19D9DFED147A99
:101AF400B4EEE70AF1EE10FA14D8092300E001234A
:101B040080F83330002070470223F9E70323F7E716
:101B14000423F5E70523F3E70623F1E70723EFE7BB
:101B24000823EDE70A23EBE7000050420000D0420F
:101B3400000050430000D043004050440040D044D3
:101B440000405045F2EE097AB4EEE70AF1EE10FADD
:101B540039D9F3EE0A7AB4EEE70AF1EE10FA37D97E
:101B6400DFED237AB4EEE70AF1EE10FA32D9DFEDB5
:101B7400217AB4EEE70AF1EE10FA2DD9DFED1E7AE0
:101B8400B4EEE70AF1EE10FA28D9DFED1C7AB4EED0
:101B9400E70AF1EE10FA23D9DFED197AB4EEE70A79
:101BA400F1EE10FA1ED9DFED177AB4EEE70AF1EE82
:101BB40010FA19D9DFED147AB4EEE70AF1EE10FA4F
:101BC40014D8092300E0012380F834300020704742
:101BD4000223F9E70323F7E70423F5E70523F3E7F3
:101BE4000623F1E70723EFE70823EDE70A23EBE7F2
:101BF400000050420000D042000050430000D04397
:101C0400004050440040D0440040504510B5446961
:101C1400007BA04710BD10B50469007BA04710BD30
:101C240090F83130012B0BD010B5044690F83310E6
:101C3400203000F0F4FE28B9012384F8313010BDBF
:101C4400002070474FF0FF30F9E7000008B5F2EECE
:101C5400097AB4EEE70AF1EE10FA39D9F3EE0A7A0A
:101C6400B4EEE70AF1EE10FA38D9DFED267AB4EED5
:101C7400E70AF1EE10FA33D9DFED237AB4EEE70A7E
:101C8400F1EE10FA2ED9DFED217AB4EEE70AF1EE87
:101C940010FA29D9DFED1E7AB4EEE70AF1EE10FA54
:101CA40024D9DFED1C7AB4EEE70AF1EE10FA1FD95D
:101CB400DFED197AB4EEE70AF1EE10FA1AD9DFED86
:101CC400177AB4EEE70AF1EE10FA15D8092100E00C
:101CD4000121203000F0A3FE80B908BD0221F8E7FD
:101CE4000321F6E70421F4E70521F2E70621F0E7F2
:101CF4000721EEE70821ECE70A21EAE74FF0FF307D
:101D0400EBE700BF000050420000D0420000504307
:101D14000000D043004050440040D04400405045AF
:101D240008B590F83130012B02D0FFF7A7FE08BDAB
:101D3400FFF78CFFFBE708B5022905DD042909DD5F
:101D4400082909DC032100E00021203000F0F2FB27
:101D540020B908BD0221F8E70121F6E74FF0FF3072
:101D6400F7E790F83230012B0BD010B5044690F809
:101D74003410203000F03AFF28B9012384F83230BF
:101D840010BD002070474FF0FF30F9E708B5F2EEC0
:101D9400097AB4EEE70AF1EE10FA39D9F3EE0A7AC9
:101DA400B4EEE70AF1EE10FA38D9DFED267AB4EE94
:101DB400E70AF1EE10FA33D9DFED237AB4EEE70A3D
:101DC400F1EE10FA2ED9DFED217AB4EEE70AF1EE46
:101DD40010FA29D9DFED1E7AB4EEE70AF1EE10FA13
:101DE40024D9DFED1C7AB4EEE70AF1EE10FA1FD91C
:101DF400DFED197AB4EEE70AF1EE10FA1AD9DFED45
:101E0400177AB4EEE70AF1EE10FA15D8092100E0CA
:101E14000121203000F0EAFE80B908BD0221F8E774
:101E24000321F6E70421F4E70521F2E70621F0E7B0
:101E34000721EEE70821ECE70A21EAE74FF0FF303B
:101E4400EBE700BF000050420000D04200005043C6
:101E54000000D043004050440040D044004050456E
:101E640008B590F83230012B02D0FFF76BFE08BDA5
:101E7400FFF78CFFFBE708B57D290CDDFA2910DD9F
:101E8400B1F5FA7F0FDDB1F57A7F0EDDB1F5FA6FAA
:101E94000DDC0C2100E00221203000F0C3FB40B92E
:101EA40008BD0021F8E70421F6E70821F4E7012141
:101EB400F2E74FF0FF30F3E708B5203000F0C1FC43
:101EC40000B908BD4FF0FF30FBE738B590F831306A
:101ED4000BB9002038BD044600F1200500F13301A0
:101EE400284600F062FB38B90021284600F097FD2F
:101EF40028B984F83100EDE74FF0FF30EAE74FF0FE
:101F0400FF30E7E710B582B00C460DF10701203031
:101F140000F04BFB002830D19DF807300B2B2FD855
:101F2400DFE803F0060A0D101316191C1F222528DA
:101F34000023236002B010BD134B2360FAE7134B58
:101F44002360F7E7124B2360F4E7124B2360F1E7B9
:101F5400114B2360EEE7114B2360EBE7104B23603A
:101F6400E8E7104B2360E5E70F4B2360E2E70F4BF4
:101F74002360DFE70E4B2360DCE74FF0FF30D9E747
:101F84004FF0FF30D6E700BF000048410000D041C9
:101F9400000050420000D042000050430000D043F3
:101FA400004050440040D044004050450058D045C3
:101FB400CDCCCC3F10B582B00C460DF107012030DA
:101FC40000F0D1FAA0B99DF80730032B13D8DFE84D
:101FD40003F0020C0609094B236002B010BD084B44
:101FE4002360FAE7074B2360F7E7074B2360F4E726
:101FF4004FF0FF30F1E74FF0FF30EEE723DB793DA0
:1020040023DBF93D23DB793E23DBF93E10B582B0B7
:102014000C460DF10701203000F0A5FAA0B99DF897
:102024000730032B13D8DFE803F0020C0609022360
:10203400236002B010BD04232360FAE70823236061
:10204400F7E710232360F4E74FF0FF30F1E74FF098
:10205400FF30EEE710B582B00C466946203000F040
:102064009CFB50B9BDF900302380BDF90230638078
:10207400BDF90430A38002B010BD4FF0FF30FAE781
:1020840030B585B005460C460023019302A92030E3
:1020940000F083FB60BB01A92846FFF78BFF50BB10
:1020A400BDF9083007EE103AB8EEC77ADDED017AD3
:1020B40027EE277ABDEEC77A84ED007ABDF90A309F
:1020C40007EE103AB8EEC77A27EE277ABDEEC77A44
:1020D40084ED017ABDF90C3007EE103AB8EEC77AF8
:1020E40067EE877AFDEEE77AC4ED027A05B030BD7B
:1020F4004FF0FF30FAE74FF0FF30F7E738B590F8CC
:1021040032300BB9002038BD044600F1200500F13F
:102114003401284600F0CCFA38B90021284600F0F2
:1021240065FD28B984F83200EDE74FF0FF30EAE7A7
:102134004FF0FF30E7E710B50446FFF7C6FE50B98D
:102144002046FFF7DBFF48B984F8330084F83400F5
:1021540084F8300010BD4FF0FF30FBE74FF0FF3044
:10216400F8E7000010B582B00C460DF107012030ED
:1021740000F09EFA00282DD19DF807300A2B2CD8A8
:10218400DFE803F0060A0D101316191C1F222500A0
:102194000023236002B010BD114B2360FAE7114BFA
:1021A4002360F7E7104B2360F4E7104B2360F1E75B
:1021B4000F4B2360EEE70F4B2360EBE70E4B2360DE
:1021C400E8E70E4B2360E5E70D4B2360E2E70D4B98
:1021D4002360DFE74FF0FF30DCE74FF0FF30D9E753
:1021E400000048410000D041000050420000D042AD
:1021F400000050430000D043004050440040D0440D
:10220400004050450058D04510B582B00C460DF141
:102214000701203000F01FFAF0B99DF807300C2BAD
:102224001DD8DFE803F00A16071C0D1C1C1C101C2B
:102234001C1C13000C4B236013E00C4B236010E0B8
:102244000B4B23600DE00B4B23600AE00A4B236029
:1022540007E00A4B236004E04FF0FF3001E04FF049
:10226400FF3002B010BD00BF00008C4000000C41E4
:1022740000008C4100000C4200008C4200000C4322
:1022840010B582B00C460DF10701203000F0E3F9DF
:1022940010BB9DF807300C2B21D8DFE803F00A1996
:1022A40007200D2020201120202015007D232360ED
:1022B40017E0FA23236014E04FF4FA73236010E06C
:1022C4004FF47A7323600CE04FF4FA63236008E060
:1022D4004FF47A63236004E04FF0FF3001E04FF0E5
:1022E400FF3002B010BD10B582B00C4669462030F4
:1022F40000F031FA50B9BDF900302380BDF9023045
:102304006380BDF90430A38002B010BD4FF0FF30EC
:10231400FAE730B585B005460C460023019302A9BF
:10232400203000F018FA60BB01A92846FFF76CFFC3
:1023340050BBBDF9083007EE103AB8EEC77ADDEDB0
:10234400017A27EE277ABDEEC77A84ED007ABDF9CB
:102354000A3007EE103AB8EEC77A27EE277ABDEEB8
:10236400C77A84ED017ABDF90C3007EE103AB8EE65
:10237400C77A67EE877AFDEEE77AC4ED027A05B094
:1023840030BD4FF0FF30FAE74FF0FF30F7E700B50C
:1023940083B08DF8072001230DF10702203000F0EF
:1023A400C0F810B903B05DF804FB4FF0FF30F9E753
:1023B40000282BD010B504460B6803604A684260BD
:1023C4008A6882600A7B02730A6902614A6942610F
:1023D4008A698261124A4262124A0262CA6982624C
:1023E400C062B3B19847B8B9A368022B00D010BD3E
:1023F40094F83030002BFAD10C2212212046FFF73A
:10240400C6FF0028F3D04FF0FF30F0E74FF0FF3065
:1024140070474FF0FF30EAE74FF0FF30E7E700BFC7
:10242400111C00081B1C000808B5012902D0022950
:1024340000D00021203000F0EBF900B908BD4FF0C6
:10244400FF30FBE738B5054600F1200401212046A2
:1024540000F0C5F9D8BB00212846FFF7E5FFC8BB4B
:102464000121204600F00DFAB8BB0121204600F0FE
:10247400EFF9A8BB0121204600F003FA98BB012123
:10248400204600F04FF988BB0021204600F012FAE4
:1024940078BB042385F833300021204600F0BFFACE
:1024A40050BB0021204600F045F840BB042385F8CA
:1024B40034300021204600F099FB18BB0C21204643
:1024C40000F0B0F808BB012385F8303038BD4FF078
:1024D400FF30FBE74FF0FF30F8E74FF0FF30F5E750
:1024E4004FF0FF30F2E74FF0FF30EFE74FF0FF30EF
:1024F400ECE74FF0FF30E9E74FF0FF30E6E74FF04D
:10250400FF30E3E74FF0FF30E0E74FF0FF30DDE767
:1025140020B110B54468C068A04710BD4FF0FF302B
:10252400704720B110B50468C068A04710BD4FF0D3
:10253400FF30704730B583B004460D46012301AA2D
:102544001021FFF7E5FF08B103B030BD9DF804305A
:1025540065F383038DF80430012301AA102120467A
:10256400FFF7DFFFF0E710B582B00C46012301AAA4
:102574001021FFF7CDFF9DF80430C3F38103032B33
:1025840010D8DFE803F00206090C0023237002B020
:1025940010BD01232370FAE702232370F7E7032316
:1025A4002370F4E700232370F1E710B582B00C46E2
:1025B400012301AA1021FFF7ABFF9DF804301B098A
:1025C4000B2B2CD8DFE803F0060A0D101316191C88
:1025D4001F2225280023237002B010BD012323707D
:1025E400FAE702232370F7E703232370F4E70423B5
:1025F4002370F1E705232370EEE706232370EBE74E
:1026040007232370E8E708232370E5E709232370F1
:10261400E2E70A232370DFE70B232370DCE70023C0
:102624002370D9E730B583B004460D46012301AACF
:102634001121FFF76DFF08B103B030BD9DF80430E0
:1026440065F303038DF80430012301AA1121204608
:10265400FFF767FFF0E710B582B00C46012301AA2B
:102664001121FFF755FF9DF8043003F00F030C2BE5
:102674001BD8DFE803F00B17071A0E1A1A1A111ADF
:102684001A1A14000223237002B010BD0023237011
:10269400FAE704232370F7E708232370F4E70C23F5
:1026A4002370F1E701232370EEE702232370EBE7A5
:1026B40010B582B00C46012301AA1121FFF728FFAF
:1026C4009DF804301B090A2B29D8DFE803F0060A19
:1026D4000D101316191C1F2225000023237002B0AD
:1026E40010BD01232370FAE702232370F7E70323C5
:1026F4002370F4E704232370F1E705232370EEE746
:1027040006232370EBE707232370E8E708232370ED
:10271400E5E709232370E2E70A232370DFE70023B8
:102724002370DCE730B583B004460D46012301AACB
:102734001221FFF7EDFE08B103B030BD9DF804305F
:1027440065F386138DF80430012301AA1221204673
:10275400FFF7E7FEF0E710B582B00C4606236A46A1
:102764002221FFF7D5FE9DF8012022809DF800303C
:1027740003EB022323809DF8032062809DF802303E
:1027840003EB022363809DF80520A2809DF80430AA
:1027940003EB0223A38002B010BD10B582B00C4637
:1027A40006236A462821FFF7B3FE9DF80120228004
:1027B4009DF8003003EB022323809DF80320628000
:1027C4009DF8023003EB022363809DF80520A2806C
:1027D4009DF8043003EB0223A38002B010BD30B592
:1027E40083B004460D46012301AA1821FFF790FE89
:1027F40008B103B030BD9DF8043065F341038DF892
:102804000430012301AA18212046FFF78AFEF0E7CD
:1028140030B583B004460D46012301AA1946FFF7DB
:1028240077FE08B103B030BD9DF8043065F387131B
:102834008DF80430012301AA19462046FFF771FEE2
:10284400F0E708B50A4601230F21FFF761FE08BD32
:1028540030B583B004460D46012301AA1221FFF7C7
:1028640057FE08B103B030BD9DF8043065F3000392
:102874008DF80430012301AA12212046FFF751FEEE
:10288400F0E730B583B004460D46012301AA1221B6
:10289400FFF73EFE08B103B030BD9DF8043065F388
:1028A40082038DF80430012301AA12212046FFF788
:1028B40038FEF0E730B583B004460D46012301AA83
:1028C4000A21FFF725FE08B103B030BD9DF804309E
:1028D40065F302038DF80430012301AA0A2120467E
:1028E400FFF71FFEF0E738B504460D460221FFF757
:1028F4008FFF034610B193B1184638BD01232A4611
:1029040046212046FFF704FE03460028F4D10123A4
:10291400EA1847212046FFF7FBFD0346EBE70021B9
:102924002046FFF775FF0346E6E730B583B004465B
:102934000D460221FFF76CFF48B19DF80430C3F344
:10294400C103032B1DD8DFE803F00F13161901236D
:1029540001AA5F212046FFF7DBFD0028EDD100210D
:102964002046FFF755FFE8E700232B7003B030BD86
:1029740001232B70FAE702232B70F7E703232B7054
:10298400F4E700232B70F1E730B583B004460D461D
:102994000221FFF73DFF08B103B030BD012301AAB6
:1029A40005212046FFF7B4FD0028F5D1002120467B
:1029B400FFF72EFF9DF80430C3F300132B70EBE7F1
:1029C40030B583B005460C460221FFF721FF08B15C
:1029D40003B030BD012301AA60212846FFF798FD0A
:1029E4000028F5D19DF80430C3F30113032B13D849
:1029F400DFE803F002090C0F0023237000212846AE
:102A0400FFF706FFE4E701232370F7E702232370AF
:102A1400F4E703232370F1E700232370EEE7F0B516
:102A240083B005460C4601A9FFF75DFF0246002866
:102A340060D19DF8041001F00103C1F34000034389
:102A4400C1F380000343C1F3C0000343C1F300108A
:102A54000343C1F340100343C1F38010034343EA2B
:102A6400D1139DF8051001F001000343C1F34000A8
:102A74000343C1F380000343C1F3C0000343C1F324
:102A840000100343C1F340100343C1F38010034318
:102A940053EAD11301D126462DE00DF10301284656
:102AA400FFF743FF024678BB9DF80330032B2DD874
:102AB400DFE803F002050C1554BB01261BE04CB300
:102AC400012C01D0264616E0022614E024B3012C82
:102AD40024D0022C01D026460DE003260BE0FCB1E5
:102AE400022C1FD0032C1FD0012C01D0264602E05B
:102AF400042600E0264600238DF80230B2B1002AF5
:102B040066D0104603B0F0BD2646F4E72646F2E749
:102B14002646F0E70226EEE70326ECE70326EAE77B
:102B24000426E8E70426E6E70426E4E70DF10201BB
:102B34002846FFF729FF02469DF80270012F09D0AD
:102B4400002ADED101236A4610212846FFF7E0FC63
:102B54000246D4E70DF101012846FFF731FF024692
:102B64000028CED19DF80130032B21D8DFE803F0F3
:102B740002050C15F4B93E46E2E7ECB1012C01D094
:102B84002646DDE70226DBE7C4B1012C18D0022C6F
:102B940001D02646D4E70326D2E79CB1022C13D0F9
:102BA400032C13D0012C01D02646C9E70426C7E71D
:102BB4002646C5E72646C3E70226C1E70326BFE744
:102BC4000326BDE70426BBE70426B9E70426B7E7D6
:102BD4009DF8003066F307138DF8003001236A4630
:102BE40010212846FFF79DFC02468AE7F0B583B022
:102BF40005460C4601A9FFF776FE0246002860D17F
:102C04009DF8041001F00103C1F340000343C1F334
:102C140080000343C1F3C0000343C1F30010034326
:102C2400C1F340100343C1F38010034343EAD113BB
:102C34009DF8051001F001000343C1F34000034374
:102C4400C1F380000343C1F3C0000343C1F3001088
:102C54000343C1F340100343C1F38010034353EA19
:102C6400D11301D126462DE00DF103012846FFF7CB
:102C74005CFE024678BB9DF80330032B2DD8DFE8B9
:102C840003F002050C1554BB01261BE04CB3012CC8
:102C940001D0264616E0022614E024B3012C24D0E9
:102CA400022C01D026460DE003260BE0FCB1022CD9
:102CB4001FD0032C1FD0012C01D0264602E004268D
:102CC40000E0264600238DF80230B2B1002A66D017
:102CD400104603B0F0BD2646F4E72646F2E7264642
:102CE400F0E70226EEE70326ECE70326EAE70426EC
:102CF400E8E70426E6E70426E4E70DF102012846A6
:102D0400FFF742FE02469DF80270012F09D0002A07
:102D1400DED101236A4611212846FFF7F9FB02465A
:102D2400D4E70DF101012846FFF74AFE02460028C8
:102D3400CED19DF80130032B21D8DFE803F0020542
:102D44000C15F4B93E46E2E7ECB1012C01D026465D
:102D5400DDE70226DBE7C4B1012C18D0022C01D038
:102D64002646D4E70326D2E79CB1022C13D0032CC9
:102D740013D0012C01D02646C9E70426C7E726460E
:102D8400C5E72646C3E70226C1E70326BFE70326B5
:102D9400BDE70426BBE70426B9E70426B7E79DF898
:102DA400003066F307138DF8003001236A461121C1
:102DB4002846FFF7B6FB02468AE700002DE9F041FA
:102DC4008EB0002409940A940B940C940D94674BD0
:102DD4005A6942F400125A615A6902F400120192CB
:102DE400019A5A6942F400225A615A6902F4002293
:102DF4000292029A5A6942F480325A615A6902F480
:102E040080320392039A5A6942F480025A615A69E1
:102E140002F480020492049A5A6942F400325A611C
:102E24005A6902F400320592059A5A6942F48022E2
:102E34005A615A6902F480220692069A5A6942F447
:102E440000025A615A6902F400020792079A5A6909
:102E540042F480125A615B6903F480130893089B5F
:102E6400434F224644F28101384600F029FD414E89
:102E740022464021304600F023FD4FF6FF730993AC
:102E840003250A950B9409A93B4800F095FB4FF4E0
:102E9400005309934FF488130A930B94DFF8E880E6
:102EA40009A9404600F088FB072309930A950B946F
:102EB40009A9324800F080FB4FF6FE7309930A9586
:102EC4000B9409A92E4800F077FB41F6FF73099390
:102ED4000A950B9409A9404600F06EFB48F2FF7373
:102EE40009930A950B9409A94FF0904000F064FBF4
:102EF40044F2810309934FF00108CDF828800B9424
:102F04000C9409A9384600F057FB4BF67643099315
:102F14000A950B9409A9384600F04EFB4FF63F730F
:102F240009930A950B9409A9304600F045FB4FF626
:102F3400FF4309930A950B9409A9124800F03CFB3E
:102F440040230993CDF828800B940C9409A93046AA
:102F540000F032FB802309930A940B9409A93046AC
:102F640000F02AFB0EB0BDE8F08100BF0010024063
:102F7400000400480018004800100048001C0048E5
:102F840000140048000C00480008004800B583B055
:102F94000A4B5A6942F001025A615B6903F001036A
:102FA4000193019B002211460D2000F0F5F90D203C
:102FB40000F002FA03B05DF804FB00BF0010024009
:102FC400DFED107AC7EE806ADFED0F7A66EEA77A3E
:102FD400FCEEE77A17EE903AB3F5803F01D34FF653
:102FE400FF735A1C07EE102AB8EE477AC6EE877AAA
:102FF400FCEEE77A4FF080429362C2ED0B7A012334
:10300400536170474054094C0000803710B5194C87
:103014004FF0FF330E222146174803F047FD237873
:103024004A2B00D010BD63785F2BFBD1A378412BD2
:10303400F8D1E37A412BF5D1237B5F2BF2D1637B6B
:103044004A2BEFD10D4B1B78002BEBD12046FDF71B
:103054001BF9012211460A4800F032FC074B0122F9
:103064001A70084B93ED000AFFF7AAFF064802F016
:103074004DFED7E7F80100202C050020F4010020C4
:1030840000040048F8000020B405002008B50268D8
:10309400034B9A4200D008BD00F012F9FBE700BFD1
:1030A400002C014072B6FEE708B50948094B0360DD
:1030B400002343607F228260FF22C2600361436178
:1030C400836102F0A5FD00B908BDFFF7EBFF00BF67
:1030D400000600200028004008B50E480E4B03608F
:1030E4004FF4E11343604FF4805383604FF4005373
:1030F400C3604FF4806303610C2343610023836145
:10310400C3610362436203F0C0FD00B908BDFFF769
:10311400C9FF00BF2C0500200048004008B509483D
:10312400094B03600823037102234371C371002315
:1031340043728372C37201F07DF900B908BDFFF7D1
:10314400B1FF00BF14020020005C004000B589B04C
:103154000023049305930693079301930293039327
:1031640013484FF080420260632242608360C26071
:1031740003618023836102F041FF90B94FF48053CF
:10318400049304A90A4802F077FF60B9002301936D
:10319400039301A9064802F0EFFF30B909B05DF8C6
:1031A40004FBFFF77FFFFFF77DFFFFF77BFF00BF07
:1031B400B405002000B5A7B0282200211CA804F003
:1031C4006CFB00211791189119911A911B915822A7
:1031D40001A804F062FB0B231C934FF4A0231D935E
:1031E40001231F93102220922193022322934FF450
:1031F400803323934FF4E01324931CA801F0C6FEFC
:10320400F0B90F23179302211891002319934FF457
:1032140080621A921B9317A802F004FA90B90B4B20
:1032240001930023059308934FF4007202921693BE
:103234000F9301A802F01AFB30B927B05DF804FB24
:10324400FFF730FFFFF72EFFFFF72CFF24001300DA
:1032540008B500F023F8FFF7ADFF002201210D4867
:1032640000F02EFBFFF7AAFDFFF790FEFFF71CFF0F
:10327400FFF732FFFFF752FFFFF768FFFCF7EFFF9E
:1032840001E0FFF7C3FE044B1B78012BF9D1FCF7D7
:10329400EDFFFCE700040048F401002008B5074AEC
:1032A400136843F010031360032000F063F80F2049
:1032B40002F0B6FF00F06EFF002008BD00200240BF
:1032C400034A1168034B1B780B441360704700BF1B
:1032D40020060020C8000020014B1868704700BF7A
:1032E4002006002038B50446FFF7F6FF0546B4F182
:1032F400FF3F02D0044B1B781C44FFF7EDFF401B3B
:10330400A042FAD338BD00BFC8000020002808DB63
:103314000901C9B200F1604000F5614080F8001372
:10332400704700F00F000901C9B2014B19547047EE
:1033340014ED00E000B500F00700C0F1070CBCF18B
:10334400040F28BF4FF0040C031D062B0FD9C31E16
:103354004FF0FF3E0EFA0CF021EA000199400EFAFC
:1033640003FE22EA0E0241EA02005DF804FB002398
:10337400EEE70000074AD36823F4E0631B041B0C48
:10338400000200F4E060034343F0BF6343F40033FE
:10339400D360704700ED00E010B50446054BD868D3
:1033A400C0F30220FFF7C6FF01462046FFF7AEFF39
:1033B40010BD00BF00ED00E0002807DB00F01F0295
:1033C400400901239340024A42F82030704700BF6D
:1033D40000E100E002680C4B9A420AD80B4B1344FC
:1033E4000B4AA2FB03231B099B000364094BC36321
:1033F4007047094B1344064AA2FB03231B099B0095
:103404000364064BC363704707040240F8FFFDBF23
:10341400CDCCCCCC00000240F8FBFDBF0004024040
:1034240020B310B50446022380F8213001680A68ED
:1034340022F47F5222F03002436880680343E0683C
:1034440003432069034360690343A0690343E069BC
:10345400034313430B602046FFF7BCFF0020A06327
:10346400012384F8213084F8200010BD0120704726
:10347400034600B390F82120022A06D00422826376
:10348400002280F820200120704701680A6822F099
:103494000E020A6001680A6822F001020A60026CE6
:1034A400C06B012101FA02F2426083F8211000206E
:1034B40083F8200070470120704708B590F8213048
:1034C400022B03D004238363012008BD0268136820
:1034D40023F00E0313600268136823F001031360E2
:1034E400036CC16B012202FA03F34B6080F82120C4
:1034F400002380F82030436B13B198470020E4E7A1
:103504000020E2E738B5C36B1A6804682568016CCB
:1035140004238B40134213D015F0040F10D02368FA
:1035240013F0200F03D1236823F004032360016CFC
:10353400C26B04238B405360C36A03B1984738BD00
:1035440002238B4013421AD015F0020F17D02368C0
:1035540013F0200F06D1236823F00A03236001230C
:1035640080F82130016CC26B02238B40536000232E
:1035740080F82030836A002BE1D09847DFE70823E6
:103584008B401342DBD015F0080FD8D0236823F00A
:103594000E032360026CC16B012303FA02F24A603A
:1035A400836380F82130002380F82030036B002BE4
:1035B400C5D09847C3E70000F0B583B0002362E0AC
:1035C40085685E000324B44025EA0405CC68B44051
:1035D4002C438460456825EA0C054C68C4F3001448
:1035E4009C402C4344605FE0DD08083550F82540DA
:1035F40003F0070C4FEA8C0C4FF00F0E0EFA0CFE82
:1036040024EA0E0E0C6904FA0CF444EA0E0440F8A1
:10361400254060E0062400E0002404FA0EF42C4364
:103624000CF1020C584D45F82C40584CA568D44375
:1036340025EA02064F6817F4801F01D042EA050606
:10364400524DAE60ED6804EA05064F6817F4001F9A
:1036540001D042EA05064D4DEE606D6804EA0506A8
:103664004F6817F4003F01D042EA0506474D6E60EB
:103674002D682C404E6816F4803F01D042EA0504C0
:10368400424A146001330A6832FA03F47AD04FF0E4
:10369400010C0CFA03FC1CEA0202F3D04C6804F09F
:1036A4000304013C012C8BD94C6804F00304032C63
:1036B4000CD0C4685D004FF0030C0CFA05FC24EA3E
:1036C4000C0C8C68AC4044EA0C04C4604C6804F0F4
:1036D4000304022C88D004684FEA430E4FF0030C15
:1036E4000CFA0EFC24EA0C0C4C6804F0030404FAF3
:1036F4000EF444EA0C0404604C6814F4403FC1D056
:10370400234CA56945F00105A561A46904F00104F1
:103714000194019C4FEA930C0CF102051A4C54F8E5
:10372400255003F0030E4FEA8E0E0F2404FA0EF414
:1037340025EA0405B0F1904F3FF46EAF154CA0425A
:1037440016D004F58064A04214D004F58064A0422D
:1037540012D004F58064A04210D004F58064A04225
:103764000ED004F58064A0423FF454AF072454E71C
:10377400012452E7022450E703244EE704244CE7D3
:1037840005244AE703B0F0BD0000014000040140F5
:103794000010024000040048002331FA03F200F054
:1037A4008780F0B52EE0062500E0002505FA0CF52B
:1037B400A54261D004685D004FF0030C0CFA05FCCF
:1037C40024EA0C0404604FEAD30E0EF1080E50F8FC
:1037D4002E4003F00706B6000F25B54024EA050481
:1037E40040F82E40C46824EA0C04C460446824EA07
:1037F40002024260826822EA0C028260013331FADA
:1038040003F254D001229A4012EA0107F6D04FEA9B
:10381400930E0EF10205274C54F8254003F0030CD7
:103824004FEA8C0C0F2505FA0CF63440B0F1904F9A
:10383400BBD0214DA84215D005F58065A84213D010
:1038440005F58065A84211D005F58065A8420FD022
:1038540005F58065A8420DD005F58065A842A2D083
:103864000725A3E70125A1E702259FE703259DE797
:1038740004259BE7052599E7104C256825EA0705EB
:103884002560656825EA07056560E56825EA07059A
:10389400E560A56825EA0705A560064F0EF1020458
:1038A40057F8245025EA060547F8245082E7F0BD6E
:1038B400704700BF000001400004004800040140BC
:1038C4000AB18161704781627047436901EA03026A
:1038D40021EA030141EA02418161704703689A6960
:1038E40012F0020F01D000229A6203689A6912F062
:1038F400010F03D19A6942F001029A61704710B432
:10390400019CC1F3090141EA02411943214321F019
:10391400004102685368640D04F4806444F07F74C9
:1039240044F4583444F47F7444F0030423EA040355
:103934000B4353605DF8044B70472DE9F041044696
:1039440003689E6916F010067CD00D46904610223E
:10395400DA61002637462368986910F0200F30D1C9
:103964007FBBB5F1FF3FF6D0FFF7B6FCA0EB080034
:10397400A84201D8002DEED121684B6803F480439E
:1039840094F84220D2B2886910F4004F02D00BB9E7
:10399400202A0ED123689B6913F0200FDBD1FFF797
:1039A4009BFCA0EB08001928F4D946F02006012757
:1039B400D1E74B6843F480434B60FFF78DFC8046AE
:1039C400E8E70FB92022DA6146F0040601252268EF
:1039D400936913F4807F05D046F001064FF480719B
:1039E400D161012513F4806F06D046F008062268E1
:1039F4004FF48061D161012513F4007F24D046F097
:103A0400020623684FF40072DA6101252046FFF7AD
:103A140065FF2268536823F0FF7323F48B3323F488
:103A2400FF7323F001035360636C33436364202307
:103A340084F84130002384F8423084F8403028462A
:103A4400BDE8F0810025C2E7002DF8D0DEE770B5AF
:103A540004460D46164623689B6913F0020F22D1D3
:103A6400324629462046FFF768FFF0B9B5F1FF3F1B
:103A7400F1D0FFF731FC801BA84201D8002DEAD118
:103A840023689B6913F0020FE5D1636C43F02003B4
:103A94006364202384F84130002384F8423084F89E
:103AA4004030012000E0002070BD0120FCE72DE93A
:103AB400F8430546884617461E46DDF820902B68D5
:103AC4009C6938EA04040CBF01230023BB4227D1BC
:103AD4004A4631462846FFF730FF20BBB6F1FF3F88
:103AE400EDD0FFF7F9FBA0EB0900B04201D8002E9E
:103AF400E5D12B689B6938EA03030CBF012300233B
:103B0400BB42DCD16B6C43F020036B64202385F84B
:103B14004130002385F8423085F84030012000E030
:103B24000020BDE8F8830120FBE700002DE9F04107
:103B340082B0044690461D46089E099F194B009387
:103B44004FF08073EAB2FFF7DAFE3A463146204678
:103B5400FFF77DFFF8B9012D0ED123685FFA88F2D3
:103B64009A6200973346002280212046FFF79FFF88
:103B7400A8B902B0BDE8F08123684FEA18229A621E
:103B84003A4631462046FFF762FF30B923685FFAB0
:103B940088F29A62E5E70120EBE70120E9E70120DA
:103BA400E7E700BF002000802DE9F04182B0044621
:103BB40090461D46089E099F184B00930023EAB2C5
:103BC400FFF79DFE3A4631462046FFF740FFF8B91D
:103BD400012D0ED123685FFA88F29A62009733466A
:103BE400002240212046FFF762FFA8B902B0BDE8D9
:103BF400F08123684FEA18229A623A4631462046F9
:103C0400FFF725FF30B923685FFA88F29A62E5E787
:103C14000120EBE70120E9E70120E7E7002000802D
:103C240070B504460D46164604E023689B6913F0FC
:103C3400200F12D023689B6913F0200F1BD132464A
:103C440029462046FFF779FEB8B9FFF745FB801BEC
:103C5400A842EAD8002DEDD1E7E7636C43F02003D6
:103C64006364202384F84130002384F8423084F8CC
:103C74004030012000E0002070BD0120FCE77047C7
:103C840000285FD010B5044690F84130002B48D08E
:103C9400242384F841302268136823F0010313605D
:103CA4006368226823F0706313612268936823F4C5
:103CB40000439360E368012B38D0A368226843F47F
:103CC40004439360E368022B36D02268536823F4DC
:103CD400006353602268536843F0007343F4004365
:103CE40053602268D36823F40043D3602369626974
:103CF4001343A169226843EA0123D360E369216A7B
:103D040022680B4313602268136843F001031360B5
:103D140000206064202384F84130206384F842004A
:103D240010BD80F84030FFF7AAFFB1E7A36822680E
:103D340043F400439360C5E72268536843F4006387
:103D44005360C7E7012070477047A8B110B5044617
:103D5400242380F841300268136823F001031360C0
:103D6400FFF7F2FF0020606484F84100206384F8C8
:103D7400420084F8400010BD012070472DE9F04F47
:103D840083B00E46BDF834A00E9D90F84110C9B220
:103D9400202940F0BB800446904699460C9BCBB149
:103DA400BAF1000F16D090F84030012B00F0B28029
:103DB4004FF0010B80F840B0FFF78EFA07460090F1
:103DC40019235A464FF400412046FFF770FE30B1E4
:103DD40001209CE04FF400736364012097E02123E9
:103DE40084F84130402384F84230002363640C9A01
:103DF4006262A4F82AA06363019700954B46424689
:103E040031462046FFF792FE70B9638D9BB2FF2BBB
:103E14000FD9FF222285002300934FF0807331468F
:103E24002046FFF76CFD21E0002384F8403058461B
:103E34006DE0628D92B22285002300934FF00073EF
:103E4400D2B231462046FFF75AFD0FE0628D92B29E
:103E54002285002300934FF00073D2B231462046EE
:103E6400FFF74DFD638D9BB2002B33D03A462946B4
:103E74002046FFF7ECFD00284ED1626A23681278D1
:103E84009A62636A01336362638D9BB2013B9BB2A6
:103E94006385238D013B9BB22385628D92B2002AF8
:103EA400E0D0002BDED100972B4600228021204653
:103EB400FFF7FDFD90BB638D9BB2FF2BC6D9FF229C
:103EC4002285002300934FF0807331462046FFF78C
:103ED40016FDC7E73A4629462046FFF7A1FEF8B982
:103EE40023682022DA6121684B6823F0FF7323F4EE
:103EF4008B3323F4FF7323F001034B6084F84120D8
:103F0400002384F8423084F8403000E0022003B0FB
:103F1400BDE8F08F0220FAE70120F8E70120F6E778
:103F24000120F4E72DE9F04F83B00E46BDF834A02C
:103F34000E9D90F84110C9B2202940F0BC8004467F
:103F4400904699460C9BCBB1BAF1000F16D090F86D
:103F54004030012B00F0B3804FF0010B80F840B0EB
:103F6400FFF7BAF90746009019235A464FF4004167
:103F74002046FFF79CFD30B101209DE04FF4007313
:103F84006364012098E0222384F84130402384F8BC
:103F94004230002363640C9A6262A4F82AA063632B
:103FA400019700954B46424631462046FFF7FCFDFB
:103FB40070B9638D9BB2FF2B0FD901222285444B2C
:103FC40000934FF0807331462046FFF798FC21E0C0
:103FD400002384F8403058466EE0628D92B2228508
:103FE4003B4B00934FF00073D2B231462046FFF7AB
:103FF40086FC0FE0628D92B22285002300934FF07D
:104004000073D2B231462046FFF779FC638D9BB230
:10401400002B34D000972B46002204212046FFF7C2
:1040240046FD00284DD123685A6A636A1A70636A90
:1040340001336362228D013A92B22285638D9BB271
:10404400013B9BB26385638D9BB2002BDED0002ABB
:10405400DCD100972B4680212046FFF728FD90BB3A
:10406400638D9BB2FF2BC5D90122228500230093C7
:104074004FF0807331462046FFF741FCC6E73A46CD
:1040840029462046FFF7CCFDF8B923682022DA61DF
:1040940021684B6823F0FF7323F48B3323F4FF73FD
:1040A40023F001034B6084F84120002384F842305C
:1040B40084F8403000E0022003B0BDE8F08F022015
:1040C400FAE70120F8E70120F6E70120F4E700BF52
:1040D4000024008090F841007047406C704703460C
:1040E40090F84120D2B2202A23D190F84020012A0E
:1040F40021D0012280F84020242280F84120006849
:10410400026822F0010202601868026822F48052F8
:104114000260186802681143016019680A6842F075
:1041240001020A60202283F84120002083F8400025
:1041340070470220704702207047034690F84120E0
:10414400D2B2202A21D190F84020012A1FD0012286
:1041540080F84020242280F841200068026822F080
:10416400010202601868026822F4706242EA0122C5
:10417400026019680A6842F001020A60202283F88A
:104184004120002083F8400070470220704702203D
:104194007047000082B00A4B9A6942F001029A61AA
:1041A4009A6902F001020092009ADA6942F08052A0
:1041B400DA61DB6903F080530193019B02B070471D
:1041C400001002400268084B9A4200D070474FF436
:1041D400004292FAA2F2B2FA82F2044B13449B0018
:1041E40001221A60F2E700BF00280040008190100D
:1041F4000368B3F1804F00D0704700B583B003F576
:104204000433DA6942F00102DA61DB6903F0010385
:104214000193019B002211461C20FFF7BDF81C20CE
:10422400FFF7CAF803B05DF804FB000010B588B0CE
:104234000023039304930593069307930268234B87
:104244009A4201D008B010BD044603F5E433DA699C
:1042540042F48022DA61DA6902F480220192019A3E
:104264005A6942F480125A615B6903F48013029321
:10427400029B4FF440730393022304930323069396
:104284000723079303A91248FFF796F91148124B25
:1042940003600023436083608022C2600361436142
:1042A40020228261C361FFF7BBF858B9094B6367E9
:1042B4005C62002211462720FFF76EF82720FFF7E3
:1042C4007BF8BFE7FEF7EEFEF0E700BF00480040D2
:1042D400000C0048E80400203000024002680E4B45
:1042E4009A4200D0704700B583B003F5DA33DA6937
:1042F40042F40002DA61DB6903F400030193019BD9
:10430400002211461420FFF747F81420FFF754F851
:1043140003B05DF804FB00BF005C004038B512F444
:10432400804F43D00468B4F8503091F800C04FEA8D
:10433400CC0E1EFA83F32344B3F80244C4F30904F5
:104344008B69A34228D31B1B8B618B697BB90568DE
:1043540035F82C309BB223F4804323F0700383F4AC
:10436400005343F4004343F0800325F82C3012F04B
:10437400400F0ED002680D7832F825309BB223F43A
:10438400E04323F0700343F4004343F0C00322F8F6
:10439400253024B9204638BD00238B61D5E7234658
:1043A4000A894969006803F02BF9F3E70468B4F853
:1043B400503091F800C04FEACC0E1EFA83F3234428
:1043C400B3F80644C4F309048B69A3422FD31B1B1F
:1043D4008B618B697BB9056835F82C309BB223F46B
:1043E400804323F0700383F4005343F4004343F009
:1043F400800325F82C3012F0400F0FD1026891F899
:1044040000C032F82C309BB223F4E04323F0700355
:1044140043F4004343F0C00322F82C30002CB9D0FD
:1044240023464A894969006803F0EAF8B2E70023A1
:104434008B61CEE700284DD010B5044690F8913238
:104444003BB1032384F89132206802F0B7FC0023C7
:1044540015E080F89032FFF741FFF2E703EB8302A7
:1044640004EBC2020121517413740021D17411624E
:104474005162013303EB8302D200A150DBB22079F5
:104484009842EBD8002316E003EB830204EBC2024C
:10449400002182F8511182F8503182F85311C2F888
:1044A4006011C2F8641103EB830204EBC202C2F888
:1044B40068110133DBB29842E6D8234653F8040B63
:1044C40093E8060002F084FC00202073012384F8A2
:1044D400913210BD012070477047704770B5054692
:1044E4000C46164612F0400F00F00A810268B2F83A
:1044F40050300978C80010FA83F31344B3F8022447
:10450400C2F30902A36993424DD99B1AA361A3691B
:10451400002B64D16378002B48D12A68B2F850305C
:1045240012FA83F30344B3F80224C2F30902A3F892
:104534000224B3F802246FEA42426FEA524292B272
:10454400A3F802242A686378002B3BD1B2F85030D8
:1045540012FA83F3227803EBC203B3F80624C2F3FE
:104564000902A3F80624B3F806246FEA42426FEA6C
:10457400524292B2A3F8062421782846FFF7ADFFF1
:1045840016F4804F40D02A68217832F821309BB24B
:1045940023F4E04323F0700343F4404343F08003E7
:1045A40022F8213030E00023A361B0E7012BC9D108
:1045B4002A68B2F8503012FA83F303440022A3F8B5
:1045C4000224BFE7012BD7D1B2F8503012FA83F39B
:1045D400227803EBC2030022A3F80624CCE716F4E6
:1045E400804F0DD0286830F821309BB223F4E0438B
:1045F40023F0700343F4404343F0800320F8213058
:1046040094F82430012B12D02A68217832F8213012
:104614009BB223F4E04323F0400383F0300343F4DC
:10462400004343F0800322F82130002070BD636909
:1046340013446361E3691344E361216A2369994282
:104644001DD3C91A21626278002A44D12968B1F8BD
:10465400502011FA82F2217802EBC102B2F802145E
:10466400C1F30901A2F80214ABB9B2F802146FEA5B
:1046740041416FEA514189B2A2F802142DE021B9F7
:10468400002384F824301346DDE7002384F8243023
:1046940023620B46D7E73E2B0DD8590813F0010FC0
:1046A40000D00131B2F8020480B2890289B2014318
:1046B400A2F8021411E0580913F01F0F00D10138B9
:1046C400B2F8021489B2800280B2014341F400417D
:1046D400A2F8021401E0012A06D09BB22289616982
:1046E400286802F090FB8FE72968B1F8502011FA8E
:1046F40082F2217802EBC10299B2A2F80214ECE72B
:104704000268B2F850300978C80010FA83F31344F1
:10471400B3F80624C2F30902A36993424ED39B1A49
:10472400A361A369002B65D16378002B49D12A6862
:10473400B2F8503012FA83F30344B3F80224C2F3FC
:104744000902A3F80224B3F802246FEA42426FEA92
:10475400524292B2A3F802242A686378002B3CD117
:10476400B2F8503012FA83F3227803EBC203B3F8A1
:104774000624C2F30902A3F80624B3F806246FEA58
:1047840042426FEA524292B2A3F8062421782846A4
:10479400FFF7A3FE16F4804F7FF436AF2A68217822
:1047A40032F821309BB223F4E04323F0700343F446
:1047B400404343F0800322F8213025E70023A3611E
:1047C400AFE7012BC8D12A68B2F8503012FA83F34C
:1047D40003440022A3F80224BEE7012BD6D1B2F889
:1047E400503012FA83F3227803EBC2030022A3F8B9
:1047F4000624CBE716F4804F0DD1286830F8213019
:104804009BB223F4E04323F0700343F4404343F0AA
:10481400800320F8213094F82430012B7FF4F4AE87
:10482400636913446361E3691344E361216A23699F
:1048340099421DD3C91A216229686278002A43D19A
:10484400B1F8502011FA82F2217802EBC102B2F8D9
:104854000614C1F30901A2F80614ABB9B2F80614A0
:104864006FEA41416FEA514189B2A2F806142DE082
:1048740021B9002384F824301346DDE700232362A2
:1048840084F824300B46D7E73E2B0DD8590813F093
:10489400010F00D00131B2F8060480B2890289B256
:1048A4000143A2F8061411E0580913F01F0F00D1B8
:1048B4000138B2F8061489B2800280B2014341F48F
:1048C4000041A2F8061401E0012A06D09BB26289D5
:1048D4006169286802F097FA96E6B1F8502011FA57
:1048E40082F2217802EBC10299B2A2F80614EDE734
:1048F40070472DE9F04105462868B0F8443013F4B8
:10490400004F00F08F82B0F84440A3B214F00F04BB
:1049140040F0D98013F0100F63D003889AB213F4D7
:10492400006F40F08F8012F4004FE5D0038823F02D
:1049340070031B051B0D43F0800303802868B0F847
:10494400503095F85021D20012FA83F30344B3F89F
:104954000634C3F30903C5F86C318BB1D5F864117F
:1049640071B1B5F8562102F04BFED5F86431D5F893
:104974006C211344C5F8643100212846FFF7ACFDCF
:104984002A68138899B213F4006FB5D101F4405129
:10499400B1F5405FB0D0B2F8503012FA83F3B3F8F7
:1049A4000624C2F30902A3F80624D5F86021002ADC
:1049B40069D1B3F806246FEA42426FEA524292B2D6
:1049C400A3F806242A6813889BB223F4804323F0B7
:1049D400700383F4405343F4004343F08003138093
:1049E4008AE703889BB223F4E14323F070036FEA60
:1049F40043436FEA53439BB203802968B1F85030B4
:104A04002A7CD20012FA83F30B44B3F80234C3F3C2
:104A14000903EB626A6A1A446A6200212846FFF7B6
:104A24005CFD2B7B002B3FF467AFAB6A002B7FF45C
:104A340063AF2B7B2A6843F08003A2F84C30002339
:104A44002B7359E7B0F8503095F85021D20012FA80
:104A540083F30344B3F80634C3F30903C5F86C3194
:104A6400B5F8562105F5267102F0CAFD2A681388A7
:104A740023F070031B051B0D43F0800313802846AD
:104A8400FFF736FF38E73E2A0DD8510812F0010F20
:104A940000D00131B3F8062490B28A0292B20243E4
:104AA400A3F806248EE7510912F01F0F00D1013933
:104AB400B3F8062492B2890289B20A4342F400424E
:104AC400A3F806247EE730F824309EB213F4004F96
:104AD4004ED116F0800F3FF40FAF04EB8401C900F0
:104AE400103129442A6832F824309BB223F4E1437C
:104AF40023F070036FEA43436FEA53439BB222F8F7
:104B0400243004EB840305EBC303DB7C012B00F0AE
:104B1400E98016F4807F40F080812868B0F8503036
:104B240004EB840205EBC202167CF20012FA83F352
:104B34000344B3F80234C3F30903621C02EB820298
:104B440055F832209A4240F24B81671C07EB8707E5
:104B5400D21A45F83720621C02EB820255F8322043
:104B6400002A40F0448131462846FFF7B6FCC3E6EC
:104B740030F8243023F070031B051B0D43F0800331
:104B840020F8243004EB8401C90001F5A87105EB79
:104B9400010804EB840305EBC30393F85C31002B99
:104BA40040D12868B0F8503004EB840205EBC2020F
:104BB40092F85021D20012FA83F30344B3F8067436
:104BC400C7F3090717BB04EB840305EBC303D3F84E
:104BD4006C213A44C3F86C21D3F864213A44C3F8F5
:104BE4006421D3F868313BB104EB840305EBC303C0
:104BF400D3F860319F4270D204EB840305EBC30306
:104C040093F850112846FFF767FC62E704EB840130
:104C140005EBC1013B46B1F85621D1F8641102F00D
:104C2400EFFCD0E704EB840305EBC30393F85331A3
:104C3400022B33D0296804EB840205EBC20292F8FC
:104C4400500131F820309BB223F4E04323F0700389
:104C540043F4004343F0C00321F82030286892F85D
:104C6400503130F8232012F4804F1ED0B0F8502079
:104C7400DB0013FA82F30344B3F80274C7F30907A1
:104C8400002FA0D004EB840105EBC1013B46B1F831
:104C94005821D1F8641102F0B3FC94E7324641463E
:104CA4002846FFF73BFB07468DE7B0F85020DB00B2
:104CB40013FA82F30344B3F80674C7F30907002F09
:104CC40081D004EB840105EBC1013B46B1F85A21C4
:104CD400D1F8641102F094FC75E74146286802F0AB
:104CE400A4F8F6E6631C03EB8303DB000022EA501E
:104CF40004EB840305EBC3031B7F1BB316F0400FC7
:104D04003BD004EB840305EBC3035B7C1BBB2A6829
:104D1400B2F8503012FA83F304EB840205EBC202BA
:104D2400127C03EBC203B3F80224C2F30902A3F812
:104D34000224B3F802246FEA42426FEA524292B26A
:104D4400A3F8022404EB840405EBC404217C284664
:104D5400FFF7C3FBD0E5012BF4D12A68B2F8503039
:104D640012FA83F304EB840205EBC202127C03EB18
:104D7400C2030022A3F80224E4E72A6804EB8403B4
:104D840005EBC3035B7CD3B9B2F8503012FA83F35A
:104D940004EB840205EBC202127C03EBC203B3F8FA
:104DA4000624C2F30902A3F80624B3F806246FEA22
:104DB40042426FEA524292B2A3F80624C2E7012BA0
:104DC400C0D1B2F8503012FA83F304EB840205EB3D
:104DD400C202127C03EBC2030022A3F80624B1E74B
:104DE400621C02EB8202D2000027AF50B3E604EB50
:104DF400840205EBC202566A1E445662013404EB77
:104E0400840205EBC202526804EB840405EBC4047B
:104E14001344636002F009F86EE532462846FFF752
:104E24005DFB69E50020BDE8F0817047704770477D
:104E3400704790F89032012B0CD010B50446012332
:104E440080F890320173006801F0D3FF002084F8E9
:104E5400900210BD0220704710B50446006801F0AE
:104E6400CEFF10F4004F1ED110F4806F1FD110F448
:104E7400804F2DD110F4005F34D110F4805F3BD10A
:104E840010F4006F57D110F4007F71D110F4807FBB
:104E940027D02268B2F844309BB223F480739BB2CB
:104EA400A2F844301DE02046FFF723FD19E02268F4
:104EB400B2F844309BB223F480639BB2A2F844302E
:104EC4002046FFF7B3FF00212046FFF7B2FF08E0BA
:104ED4002268B2F844309BB223F480439BB2A2F818
:104EE400443010BD2268B2F844309BB223F400531E
:104EF4009BB2A2F84430F4E72268B2F840309BB287
:104F040023F004039BB2A2F840302268B2F8403088
:104F14009BB223F008039BB2A2F840302046FFF76F
:104F240087FF2268B2F844309BB223F480539BB2CB
:104F3400A2F84430D5E72268B2F840309BB243F07F
:104F44000803A2F840302268B2F844309BB223F43C
:104F540000639BB2A2F844302268B2F840309BB29E
:104F640043F00403A2F840302046FFF760FFB8E79F
:104F74002268B2F844309BB223F400739BB2A2F8C7
:104F840044302046FFF751FFABE70000002800F053
:104F9400088370B582B00446036813F0010F3DD056
:104FA400B24B5B6803F00C03042B20D0AF4B5B685F
:104FB40003F00C03082B13D06368B3F5803F6AD069
:104FC400002B40F08D8003F1804303F504331A680D
:104FD40022F480321A601A6822F480221A605FE098
:104FE400A24B5B6803F4C033B3F5803FE4D14FF4C4
:104FF400003393FAA3F39D4B19684FF4003393FAEB
:10500400A3F3B3FA83F303F01F03012202FA03F3B9
:105014000B4203D06368002B00F0C582236813F0B1
:10502400020F00F0BF80914B5B6813F00C0F00F08F
:1050340097808E4B5B6803F00C03082B00F088808C
:10504400E368002B00F0EB80012292FAA2F3B3FA9A
:1050540083F303F1845303F584139B001A60FEF772
:105064003BF90546022393FAA3F3804B1968022304
:1050740093FAA3F3B3FA83F303F01F03012202FAB2
:1050840003F30B4240F0BD80FEF726F9401B0228D3
:10509400E8D9032090E2754A136843F4803313601F
:1050A4006368002B36D0FEF717F905464FF400333A
:1050B40093FAA3F36D4B19684FF4003393FAA3F3F7
:1050C400B3FA83F303F01F03012202FA03F30B4242
:1050D400A4D1FEF701F9401B6428E7D903206BE251
:1050E400B3F5A02F09D0614B1A6822F480321A60FC
:1050F4001A6822F480221A60D2E703F18043A3F5F0
:105104003C331A6842F480221A601A6842F48032EE
:105114001A60C5E7FEF7E0F805464FF4003393FA4A
:10512400A3F3524B19684FF4003393FAA3F3B3FA81
:1051340083F303F01F03012202FA03F30B423FF44B
:105144006DAFFEF7C9F8401B6428E6D9032033E2AB
:10515400464B5B6803F4C033B3F5004F7FF470AF84
:10516400022393FAA3F3414B1968022393FAA3F39E
:10517400B3FA83F303F01F03012202FA03F30B4291
:1051840003D0E368934240F010823848036823F068
:10519400F8032169F82292FAA2F2B2FA82F291405B
:1051A4000B430360236813F0080F00F08B806369DE
:1051B400002B5FD0012191FAA1F2B2FA82F22C4BBA
:1051C40013449B001960FEF787F80546022393FAFF
:1051D400A3F293FAA3F293FAA3F2244A516A93FA3C
:1051E400A3F3B3FA83F303F01F03012202FA03F3D8
:1051F4000B4267D1FEF770F8401B0228E6D9032062
:10520400DAE11A48036823F0F8032169F82292FAD4
:10521400A2F2B2FA82F291400B430360C2E7012387
:1052240093FAA3F3B3FA83F303F1845303F58413DA
:105234009B0000221A60FEF74FF80546022393FAFA
:10524400A3F30A4B1968022393FAA3F3B3FA83F383
:1052540003F01F03012202FA03F30B42A2D0FEF76C
:105264003BF8401B0228E9D90320A5E100100240C5
:1052740020819010012292FAA2F2B2FA82F29C4B9F
:1052840013449B0000221A60FEF726F80546022309
:1052940093FAA3F293FAA3F293FAA3F2954A516A0A
:1052A40093FAA3F3B3FA83F303F01F03012202FA80
:1052B40003F30B4206D0FEF70FF8401B0228E6D991
:1052C400032079E1236813F0040F00F0A980894BCF
:1052D400DB6913F0805F20D1864BDA6942F080529B
:1052E400DA61DB6903F080530193019B0125824B52
:1052F4001B6813F4807F12D0A368012B23D073BBE7
:1053040003F1804303F504331A6A22F001021A629E
:105314001A6A22F004021A621AE00025E7E7764AC4
:10532400136843F480731360FDF7D6FF0646724B8F
:105334001B6813F4807FDFD1FDF7CEFF801B642848
:10534400F5D9032038E16B4A136A43F00103136271
:10535400A368002B3CD0FDF7BFFF06462EE0052BCB
:1053640009D0644B1A6A22F001021A621A6A22F006
:1053740004021A62ECE75F4B1A6A42F004021A62F2
:105384001A6A42F001021A62E2E7022393FAA3F3D3
:10539400584B596A022393FAA3F3B3FA83F303F045
:1053A4001F03012202FA03F3194238D1FDF794FFD7
:1053B400801B41F28833984200F2F980022393FA69
:1053C400A3F293FAA3F3002BDFD04A4B196AE1E767
:1053D400FDF782FF064618E0022393FAA3F3454B38
:1053E400596A022393FAA3F3B3FA83F303F01F0376
:1053F400012202FA03F3194211D0FDF76DFF801B5D
:1054040041F28833984200F2D480022393FAA3F243
:1054140093FAA3F3002BDFD0364B196AE1E7B5BB4F
:10542400A369002B00F0C780324A526802F00C02D4
:10543400082A00F0A080022B2FD04FF0807393FA3B
:10544400A3F3B3FA83F303F1845303F584139B00AA
:1054540000221A60FDF740FF04464FF0007393FAF0
:10546400A3F3244B19684FF0007393FAA3F3B3FA30
:1054740083F303F01F03012202FA03F3194278D0E5
:10548400FDF72AFF001B0228E7D9032094E0194AFC
:10549400D36923F08053D361C2E74FF0807393FA4A
:1054A400A3F3B3FA83F303F1845303F584139B004A
:1054B40000221A60FDF710FF05464FF0007393FABF
:1054C400A3F30C4B19684FF0007393FAA3F3B3FAE8
:1054D40083F303F01F03012202FA03F319420DD0F0
:1054E400FDF7FAFE401B0228E7D9032064E000BF61
:1054F400208190100010024000700040334AD36AAB
:1055040023F00F03616A0B43D362536823F47613C9
:10551400216AE06901430B4353604FF0807393FAAF
:10552400A3F3B3FA83F303F1845303F584139B00C9
:1055340001221A60FDF7D0FE04464FF0007393FA7F
:10554400A3F3224B19684FF0007393FAA3F3B3FA51
:1055540083F303F01F03012202FA03F3194206D175
:10556400FDF7BAFE001B0228E7D9032024E000203F
:1055740022E0002020E0012B20D0144A5368D06A96
:1055840003F4C031E26991421AD103F47013226A20
:10559400934217D100F00F00636A984214D100209F
:1055A4000AE001207047012006E0012004E0032006
:1055B40002E0032000E0002002B070BD0120FBE700
:1055C4000120F9E70120F7E70120F5E70010024088
:1055D400104B5B6803F00C02082A01D00E48704798
:1055E400C3F383420D49885C0A4AD26A02F00F026F
:1055F4000B498A5C13F4803F05D0074BB3FBF2F3ED
:1056040003FB00F07047044BB3FBF2F303FB00F021
:10561400704700BF0010024000127A00447900086D
:1056240034790008002800F0BE8070B50D460446A9
:10563400614B1B6803F007038B420BD25E4A13686D
:1056440023F007030B431360136803F007038B4233
:1056540040F0AB80236813F0020F06D0574A53681A
:1056640023F0F003A1680B435360236813F0010F88
:105674005AD06368012B2DD0022B40D0022292FA1B
:10568400A2F24E4A1068022292FAA2F2B2FA82F20E
:1056940002F01F02012101FA02F2104200F0878099
:1056A40046494A6822F0030213434B60FDF714FE97
:1056B4000646424B5B6803F00C036268B3EB820F4F
:1056C40032D0FDF709FE801B41F288339842F0D9AD
:1056D400032067E04FF4003292FAA2F2374A1068CE
:1056E4004FF4003292FAA2F2B2FA82F202F01F02EE
:1056F400012101FA02F20242D2D1012052E04FF01C
:10570400007292FAA2F22D4A10684FF0007292FAD7
:10571400A2F2B2FA82F202F01F02012101FA02F2AD
:105724001042BDD101203DE0234B1B6803F0070369
:10573400AB420AD9204A136823F007032B431360B2
:10574400136803F00703AB4233D1236813F0040F4B
:1057540006D01A4A536823F4E063E1680B435360AC
:10576400236813F0080F07D0144A536823F46053D6
:10577400216943EAC1035360FFF72AFF0F4B5B68BB
:1057840003F0F003F02292FAA2F2B2FA82F2D340CA
:105794000B4AD35CD8400B4B18600B4B186800F0D5
:1057A4003FFD002070BD012070470120FAE7012071
:1057B400F8E70120F6E700BF002002400010024095
:1057C4005C790008D0000020CC000020014B186850
:1057D400704700BFD000002008B5FFF7F7FF074B64
:1057E4005B6803F4E0634FF4E06292FAA2F2B2FA67
:1057F40082F2D340024AD35CD84008BD0010024074
:105804005479000808B5FFF7E1FF074B5B6803F420
:1058140060534FF4605292FAA2F2B2FA82F2D34089
:10582400024AD35CD84008BD0010024054790008F5
:105834000F2303600B4B5A6802F0030242605A685C
:1058440002F0F00282605A6802F4E062C2605B68AF
:10585400DB0803F4E0630361034B1B6803F00703F5
:105864000B6070470010024000200240F0B583B086
:105874000446036813F4803F48D0A14BDB6913F05E
:10588400805F40F021819E4BDA6942F08052DA61F8
:10589400DB6903F080530193019B0125994B1B683D
:1058A40013F4807F00F01281954B1B6A13F440734C
:1058B40022D0626802F440729A421DD09048016A74
:1058C40021F440764FF4803393FAA3F2B2FA82F2D1
:1058D4008D4F3A4492004FF0010CC2F800C093FA85
:1058E400A3F3B3FA83F33B449B0000221A600662DD
:1058F40011F0010F40F0FF80814A136A23F44073D2
:1059040061680B431362002D40F02381236813F078
:10591400010F06D07A4A136B23F00303A1680B43EB
:105924001363236813F0020F06D0754A136B23F434
:105934004033E1680B431363236813F0040F06D06C
:105944006F4A136B23F4402321690B4313632368C9
:1059540013F0200F06D06A4A136B23F01003E16999
:105964000B431363236813F4003F06D0644A53685F
:1059740023F48003616D0B435360236813F0400FDD
:1059840006D05F4A136B23F02003216A0B43136391
:10599400236813F4802F06D0594A136B23F0400375
:1059A400616A0B431363236813F0080F06D0544A4B
:1059B400136B23F4401361690B431363236813F0DF
:1059C400100F06D04E4A136B23F44003A1690B4316
:1059D4001363236813F4007F06D0494A536823F401
:1059E4000003216B0B435360236813F0800F06D030
:1059F400434AD36A23F4F873A16A0B43D36223683E
:105A040013F4807F06D03E4AD36A23F47853E16AC4
:105A14000B43D362236813F4805F06D0384A136BB8
:105A240023F48073616B0B431363236813F4005FE7
:105A340006D0334A136B23F40073216C0B431363B6
:105A4400236813F4801F06D02D4A136B23F0807350
:105A5400A16B0B431363236813F4001F06D0284A79
:105A6400136B23F00073E16B0B431363236813F48C
:105A7400800F06D0224A136B23F48063616C0B43BE
:105A84001363236813F4000F06D01D4A136B23F429
:105A94000063A16C0B431363236813F0807F06D06B
:105AA400174A136B23F40053E16C0B43136323680D
:105AB40013F0007F54D0124A136B23F40043216D7A
:105AC4000B43136300204CE00025E7E60D4A1368FE
