:020000040800F2
:1000000000000220E1540008E3350008E53500084F
:10001000E7350008E9350008EB350008000000006E
:10002000000000000000000000000000ED350008A6
:10003000EF35000800000000F1350008F335000836
:100040003155000831550008315500083155000878
:100050003155000831550008315500083155000868
:100060003155000831550008F535000831550008B4
:100070003155000831550008315500083155000848
:1000800031550008315500083155000800000000C6
:1000900000000000000000000000000031550008D2
:1000A0003155000801360008315500083155000867
:1000B0001136000831550008315500083155000847
:1000C00031550008315500083155000831550008F8
:1000D0003155000831550008315500080000000076
:1000E000293600083155000831550008000000008D
:1000F0000000000000000000000000003155000872
:100100000000000031550008315500083155000845
:1001100000000000000000000000000000000000DF
:100120003155000831550008315500083155000897
:100130003155000800000000000000000000000031
:100140000000000000000000000000003155000821
:100150003155000831550008315500083155000867
:100160003155000831550008000000000000000073
:10017000000000000000000000000000000000007F
:1001800000000000315500080000000000000000E1
:0801900031550008315500084B
:1001980053B94AB9002908BF00281CBF4FF0FF31E6
:1001A8004FF0FF3000F00CB8ADF1080C6DE904CE4B
:1001B80005F076FEDDF804E0DDE9022304B07047BF
:1001C800704700BF10B5054C237833B9044B13B101
:1001D8000448AFF300800123237010BDA80000205D
:1001E800000000006461000808B5034B1BB1034917
:1001F8000348AFF3008008BD00000000AC000020F9
:100208006461000830B589B004465223ADF8103057
:10021800224B0293224B0393224B0593224B0693C6
:10022800224B07934FF42E63214D03FB005502A97F
:10023800284603F027FE28BB1E4B1F4A1A601F4B97
:1002480043F8245001A9284603F098FBE8B9019A1D
:100258004FF20C039A421BD1164B1B681B68174AB6
:1002680052F824009847B0B9124B1B68DB68144950
:10027800124A52F82400984708B909B030BD6FF007
:100288000400FAE76FF00400F7E76FF00400F4E702
:100298006FF00600F1E76FF00400EEE7C9370008D9
:1002A800E13600081937000855370008913700086B
:1002B800C4000020742100201400002078210020B0
:1002C80064210020022803D808B5FFF79BFF08BD6A
:1002D8006FF001007047000002280ED808B5084BDF
:1002E8001B689B68074A52F820009847002801DBE2
:1002F800002008BD6FF00400FBE76FF001007047B5
:10030800742100207821002002280ED808B5084B57
:100318001B68DB68074A52F820009847002801DB71
:10032800002008BD6FF00400FBE76FF00100704784
:10033800742100207821002002280ED808B5084B27
:100348001B681B69074A52F820009847002801DB00
:10035800002008BD6FF00400FBE76FF00100704754
:10036800742100207821002002280ED808B5084BF7
:100378001B68DB69074A52F820009847002801DB10
:10038800002008BD6FF00400FBE76FF00100704724
:10039800742100207821002002280ED808B5084BC7
:1003A8001B681B6A074A52F820009847002801DB9F
:1003B800002008BD6FF00400FBE76FF001007047F4
:1003C800742100207821002038B5224C0022802199
:1003D800204600F001FE022000F070FB012280217F
:1003E800204600F0F9FD022000F068FB04F5806467
:1003F80000220121204600F0EFFD022000F05EFB04
:1004080001221146204600F0E7FD022000F056FBCD
:100418000120FFF757FF104B186018B10F4805F07F
:100428009DF9FEE70E490120FFF756FF0D4901200F
:10043800FFF76AFF0C4903250D601E234B6001245A
:10044800CC600C612046FFF777FF29462046FFF76E
:10045800A3FF38BD00000240A4210020E864000882
:1004680084210020A82100209021002082B08DF84E
:1004780004008DF805108DF806208DF807309DEDE5
:10048800010A02B0704782B08DF804008DF805109B
:100498008DF806208DF80730019802B070470000EB
:1004A80008B502490120FFF75FFF08BDD0210020F1
:1004B8002DE9F0414FF0FF3303222349234802F08E
:1004C800BDFF00242DE0A60004EB84039900DFF8AB
:1004D800888041441D4F4FF0FF33042208313846CD
:1004E80002F0ACFF33199D00083545444FF0FF3347
:1004F800042205F10801384602F0A0FF2644B100A5
:10050800103141444FF0FF3304221144384602F0C1
:1005180095FF4FF0FF330422A918384602F08EFFEA
:1005280001343F2CCFDD094C4FF0FF33042208493A
:10053800204602F083FF4FF0FF330322054920468F
:1005480002F07CFFBDE8F08104000020D4260020E2
:10055800B821002000000020D0210020054B0322F4
:100568001A60054AD2ED007AFCEEE77AC3ED027A0A
:10057800704700BF902100208821002010B5044654
:10058800837942790179C078FFF77DFF064B1860BF
:10059800A37A627A217AE079FFF768FF034B83ED4B
:1005A800000AFFF7DBFF10BD8C2100208821002006
:1005B800154BD3ED007AF8EE677AC7EE806ADFED67
:1005C800137A66EEA77AFCEEE77A17EE903AB3F55F
:1005D800803F01D34FF6FF735A1C07EE102AB8EE7E
:1005E800477AC6EE877AFCEEE77A17EE902AB2F5DC
:1005F800803F01D34FF6FF724FF080418B62CA6291
:1006080001234B61704700BF1000002000008037B5
:1006180010B5154C01230E222146144802F074FF30
:1006280023784A2B00D010BD63785F2BFBD1A378C9
:10063800412BF8D1E37A412BF5D1237B5F2BF2D103
:10064800637B4A2BEFD10A4B01221A702046FFF731
:1006580095FF084B93ED020AB8EE400AFFF7A8FF92
:10066800054802F039F8DEE7C0210020D426002032
:10067800BC210020902100201C2700202DE9F041FA
:100688008AB0002405940694079408940994009469
:10069800574B1A6B42F004021A631A6B02F00402F9
:1006A8000092009A01941A6B42F080021A631A6B46
:1006B80002F080020192019A02941A6B42F0010240
:1006C8001A631A6B02F001020292029A03941A6BDF
:1006D80042F002021A631A6B02F002020392039AB2
:1006E80004941A6B42F008021A631B6B03F00803A8
:1006F8000493049B3F4D22462021284600F06CFCC1
:100708000122C021284600F067FCDFF8F4800122AE
:1007180040F21141404600F05FFC4FF4005305934E
:100728004FF4881306930794334E05A9304600F01A
:100738006BFA41F6FF73059303270697079405A9FB
:10074800304600F061FA49F603730593069707945B
:1007580005A9284600F058FA102305934FF404130E
:100768000693079405A9284600F04EFA202305931E
:10077800012606960794089405A9284600F044FA2D
:10078800C023059306960796089405A9284600F005
:100798003BFA40F21143059306960796089405A97B
:1007A800404600F031FA4FF2EE030593069707949E
:1007B80005A9404600F028FA0423059306970794F4
:1007C80005A90E4800F020FA224621460A2000F02A
:1007D800E9F90A2000F00AFA22462146282000F00A
:1007E800E1F9282000F002FA0AB0BDE8F08100BF64
:1007F800003802400000024000080240000C02409D
:100808000004024008B50268034B9A4200D008BDB4
:1008180000F042F9FBE700BF0000014072B6FEE7B6
:1008280000B587B0002302930393049305930093C4
:10083800019314484FF08042026040F2E732426070
:100848008360C26003618023836102F0B3F890B9CA
:100858004FF48053029302A90A4802F055F960B98F
:100868000023009301936946064802F075FB30B9EE
:1008780007B05DF804FBFFF7D1FFFFF7CFFFFFF7E5
:10088800CDFF00BF1C27002008B50D480D4B0360A5
:100898004FF4E11343604FF4805383604FF40053E7
:1008A800C3604FF4806303610C23436100238361B9
:1008B800C36102F041FD00B908BDFFF7AFFF00BFFB
:1008C800D42600200044004000B595B03022002115
:1008D80008A805F023F800230393049305930693CF
:1008E800079301931F4A116C41F080511164126CF7
:1008F80002F080520192019A02931B4B1A6842F44B
:1009080040421A601B6803F440430293029B012390
:1009180008934FF48033099302220E924FF4800318
:100928000F9304231093642111911292139308A832
:1009380001F05CFA88B90F23039302230493002380
:1009480005934FF4805206920793032103A801F000
:100958003DFD20B915B05DF804FBFFF75FFFFFF719
:100968005DFF00BF003802400070004008B500F08D
:1009780079F8FFF7A9FFFFF781FEFFF751FFFFF7AF
:1009880083FF0E4B1B78012B02D0FFF741FEF8E7DF
:10099800FFF71AFDFFF784FD094B1B78012BF9D1EE
:1009A800084A1368013313602021074800F030FB20
:1009B800FFF77EFD024B00221A70EBE7BC210020F6
:1009C800BD210020B821002000000240704710B56A
:1009D800846801230088A047C0B210BD10B582B05A
:1009E8008DF80720446801230DF107020088A0470D
:1009F800C0B202B010BD10B544689BB20088A047D1
:100A0800C0B210BD10B584689BB20088A047C0B2C0
:100A180010BD0022914217D900B500EB020C10F866
:100A280002E09CF801301B0443EA0E639CF802E0E4
:100A380043EA0E239CF803C043EA0C0383500432B4
:100A48009142EAD85DF804FB704770B504460E463B
:100A5800C36898470546E3689847401BB042FAD3F5
:100A6800002070BD08B50B4B1A6842F400721A607A
:100A78001A6842F480621A601A6842F480721A6036
:100A8800032000F071F8002002F0E0FA01F038F9D4
:100A9800002008BD003C0240034A1168034B1B7844
:100AA8000B441360704700BF642700200800002033
:100AB800014B1868704700BF6427002038B504460A
:100AC800FFF7F6FF0546B4F1FF3F02D0044B1B7851
:100AD8001C44FFF7EDFF401BA042FAD338BD00BF0E
:100AE80008000020002807DB00F01F02400901234E
:100AF8009340024A42F82030704700BF00E100E00E
:100B0800002808DB0901C9B200F1604000F5614026
:100B180080F80013704700F00F000901C9B2014BBB
:100B28001954704714ED00E000B500F00700C0F15B
:100B3800070CBCF1040F28BF4FF0040C031D062B53
:100B48000FD9C31E4FF0FF3E0EFA0CF021EA000148
:100B580099400EFA03FE22EA0E0241EA02005DF80D
:100B680004FB0023EEE7000010B50446C31E042B67
:100B78000FD80A4AD36823F4E0631B041B0C240231
:100B880004F4E064234343F0BF6343F40033D360C9
:100B980010BD90210248FFF719FFEAE700ED00E0D9
:100BA8000C65000870B506460C4615460F2A0ED887
:100BB8000F2C11D80B4BD8682A462146C0F30220C7
:100BC800FFF7B2FF01463046FFF79AFF70BDA82134
:100BD8000548FFF7FBFEEBE7A9210348FFF7F6FE00
:100BE800E8E700BF00ED00E00C65000810B5041E42
:100BF80003DB2046FFF776FF10BDBC210148FFF755
:100C0800E5FEF6E70C6500082DE9F04182B00746DD
:100C18000E469B4B984217D003F58063984213D039
:100C280003F5806398420FD003F5806398420BD098
:100C380003F58063984207D003F54063984203D0D8
:100C4800AC219048FFF7C2FE33689AB212B1B3F5EF
:100C5800803F03D3AD218B48FFF7B8FE7368012BA3
:100C680010D9B3F5041F0DD011D8B3F5881F09D0DA
:100C780003D9B3F5901F05D012E0032B04D9113B1B
:100C8800012B0DD800248AE0022B09D3FAE7B3F52B
:100C9800441FF7D0B3F5481FF4D0B3F5081FF1D0BF
:100CA800AE217848FFF792FEECE7F368032B13D8E0
:100CB800BA68610003238B4022EA0302F3688B4081
:100CC8001343BB607A6822EA05027368C3F3001312
:100CD800A34013437B6073E0C0216A48FFF776FEA8
:100CE800E6E7D1216748FFF771FE71E0336943B148
:100CF8000F2B17D849F2F67222FA03F313F0010FFB
:100D080010D0E208083257F8220004F007018900E1
:100D18000F238B4020EA030033698B40034347F8D5
:100D2800223065E0DE215748FFF750FEE9E704234B
:100D380000E000238B4003430232534941F822303C
:100D4800524B9A686FEA080322EA0801706810F4A7
:100D5800801F01D048EA02014C4A9160D26803EA38
:100D68000201706810F4001F01D048EA0201474AE6
:100D7800D160526803EA0201706810F4003F01D0A4
:100D880048EA0201414A516012681340716811F43F
:100D9800803F01D048EA02033C4A136001340F2C1B
:100DA8006BD80125A540336803EA050835EA030333
:100DB800F4D1736803F00303013B012B7FF675AF91
:100DC800736803F00303032B0CD0B368022B88D895
:100DD800FA68610003238B4022EA0302B3688B4060
:100DE8001343FB60736803F00303022B3FF47EAFE9
:100DF8003A68610003238B4022EA0302736803F018
:100E080003038B4013433B60736813F4403FC5D022
:100E1800002301931E4B5A6C42F480425A645B6C67
:100E280003F480430193019BA208911C164B53F8CD
:100E3800210004F0030189000F238B4020EA0300FE
:100E48000F4B9F423FF475AF03F580639F420ED06E
:100E580003F580639F420CD003F580639F420AD05C
:100E680003F580639F423FF462AF072362E70123E3
:100E780060E702235EE703235CE702B0BDE8F08188
:100E8800000002404465000800380140003C014071
:100E980000380240F8B504460D464B4B984218D02E
:100EA80003F58063984214D003F58063984210D00C
:100EB80003F5806398420CD003F58063984208D00C
:100EC80003F54063984204D04FF497713F48FFF709
:100ED8007DFD00232AE0042600E0002606FA01F141
:100EE800814255D020685E000321B14020EA01000C
:100EF8002060D808083054F8206003F0070E4FEA45
:100F08008E0E4FF00F0C0CFA0EFC26EA0C0644F875
:100F18002060E06820EA0100E060606820EA0202E0
:100F28006260A26822EA0102A26001330F2B4AD84C
:100F380001229A4002EA050C32EA0501F5D14FEA8E
:100F4800930E0EF10200224951F8200003F003012C
:100F580089000F2606FA01F738401B4EB442BCD070
:100F680006F58066B4420DD006F58066B4420BD013
:100F780006F58066B44209D006F58066B442AAD068
:100F88000726ABE70126A9E70226A7E70326A5E778
:100F98001049086820EA0C000860486820EA0C003C
:100FA8004860C86820EA0C00C860886820EA0C001D
:100FB8008860074E0EF1020156F8210020EA07006A
:100FC80046F821008EE7F8BD00000240446500089D
:100FD80000380140003C014070B5054614460E46F5
:100FE80021B1012C08D86CB1AE6170BD40F29D11E1
:100FF8000648FFF7EBFCF4E74FF4CF710348FFF71F
:10100800E5FCF0E73604AE61EFE700BF4465000891
:1010180038B505460C4641B16B6904EA030224EA77
:10102800030444EA0244AC6138BD4FF4DB71024862
:10103800FFF7CCFCF0E700BF4465000870470000EC
:1010480008B5054B5B69034200D108BD024B5861E6
:10105800FFF7F4FFF9E700BF003C014003685A6955
:1010680012F4806F01D1002070476FF480625A61DA
:1010780000230363202280F83D2080F83E30026C74
:1010880042F00402026480F83C30012070472DE9E8
:10109800F04106460C46174698463BE0FFF708FD28
:1010A800069BC01A404502D8B8F1000F32D1012D75
:1010B80018D033689B6924EA03039BB2B3FA83F31D
:1010C8005B099F4226D100233363202286F83D2006
:1010D80086F83E30326C42F02002326486F83C30AA
:1010E800012027E033685B6924EA03039BB2B3FA63
:1010F80083F35B09E5E733685B6924EA030C1FFAAD
:101108008CFCBCFA8CFC4FEA5C1C674511D1B8F129
:10111800FF3FC3D1C4F30745012DECD033689B6969
:1011280024EA030C1FFA8CFCBCFA8CFC4FEA5C1C0A
:10113800EBE70020BDE8F0812DE9F84305460E46AF
:101148009046994653E01A6842F400721A602B6878
:101158006FF480625A6100232B63202285F83D20BA
:1011680085F83E302A6C42F004022A6485F83C3047
:1011780001204AE0FFF79CFCA0EB0900404502D89B
:10118800B8F1000F33D1012F17D02B689B6926EADD
:1011980003039BB2003B18BF012343B300232B6317
:1011A800202285F83D2085F83E302A6C42F0200246
:1011B8002A6485F83C30012027E02B685B6926EA21
:1011C80003039BB2003B18BF0123E6E72B689C6929
:1011D80026EA0404A4B2003C18BF0124A4B12B6879
:1011E8005A6912F4806FAED1B8F1FF3FC2D1C6F38D
:1011F8000747012FEAD12B685C6926EA0404A4B2E8
:10120800003C18BF0124E9E70020BDE8F88370B569
:1012180004460D46164623685B6913F0800F21D1FA
:101228002046FFF71BFFF8B9B5F1FF3FF3D0FFF7F2
:101238003FFC801BA84201D8002DECD123685B69D4
:1012480013F0800FE7D100232363202284F83D2088
:1012580084F83E30226C42F02002226484F83C304C
:10126800012000E0002070BD0120FCE72DE9F043DB
:1012780085B004460D4691461F46DDF830800D9E28
:101288000368196841F4807119600096434600228A
:101298004FF00111FFF7FBFE60B9236805F0FE056A
:1012A8001D613346424626492046FFF745FF68B18F
:1012B800012008E023681B6813F4807F02D04FF4F4
:1012C80000732364032005B0BDE8F0830023039373
:1012D80023685A6903929B690393039B32464146EC
:1012E8002046FFF794FF30B9012F0FD123685FFA2A
:1012F80089F61E61E7E7236C042B01D00120E2E7A1
:101308002268136843F400731360F7E723684FEA11
:1013180019221A61324641462046FFF778FF20B964
:1013280023685FFA89F61E61CDE7236C042B01D090
:101338000120C8E72268136843F400731360F7E7D5
:10134800020001002DE9F04784B004460D46164618
:1013580099460C9FDDF834800268136843F4806373
:1013680013600368196841F480711960CDF8008032
:101378003B4600224FF00111FFF789FE70B95FFA72
:1013880085FA236805F0FE051D6143463A46414942
:101398002046FFF7D1FE68B1012008E023681B68EA
:1013A80013F4807F02D04FF400732364032004B049
:1013B800BDE8F0870023039323685A6903929B6969
:1013C8000393039B424639462046FFF720FF80B926
:1013D800B9F1010F18D12368F6B21E6142463946A9
:1013E8002046FFF714FF68B3236C042B24D0012098
:1013F800DDE7236C042B01D00120D8E722681368AD
:1014080043F400731360F7E72368320A1A6142460F
:1014180039462046FFF7FBFE18B92368F6B21E616D
:10142800DCE7236C042B01D00120C0E72268136895
:1014380043F400731360F7E72268136843F40073FA
:101448001360D4E72268136843F480731360CDF8FF
:1014580000803B4600224FF001112046FFF717FE9F
:1014680068B922684AF00103136143463A460949BC
:101478002046FFF761FE002899D0012097E72368EE
:101488001B6813F4807F02D04FF400732364032099
:101498008DE700BF0200010070B504460D461646F0
:1014A80023685B6913F0040F21D12046FFF7D6FDAE
:1014B800F8B9B5F1FF3FF3D0FFF7FAFA801BA8425D
:1014C80001D8002DECD123685B6913F0040FE7D134
:1014D80000232363202284F83D2084F83E30226CC8
:1014E80042F02002226484F83C30012000E0002011
:1014F80070BD0120FCE770B504460D46164614E0A1
:101508006FF010025A6100232363202284F83D20E3
:1015180084F83E30226C226484F83C30012025E0B7
:1015280023685B6913F0400F10D02368586910F0E6
:10153800400F1AD1586910F0100FE1D1FFF7B8FA2F
:10154800801BA842ECD8002DEFD1E9E700232363E4
:10155800202284F83D2084F83E30226C42F020029C
:10156800226484F83C30012000E0002070BD704700
:10157800002800F0338170B504460368994A934205
:101588000CD002F58062934208D002F58062934243
:1015980004D040F2C9119448FFF718FA6368013B78
:1015A800924A93426ED8A36813B1B3F5804F6FD1B6
:1015B800E368B3F5806F71D22369B3F5804F02D029
:1015C800B3F5404F70D16369012B73D8A36933F029
:1015D800FE0375D1E3690BB1402B77D1236A0BB1B8
:1015E800802B79D194F83D30002B7BD0242384F8CC
:1015F8003D302268136823F00103136022681368E2
:1016080043F4004313602268136823F40043136013
:1016180000F0F4FF6268764B9A4269D8754B98429D
:101628008CBF00230123002B40F0DA807249A1FB14
:1016380000318B0C25686A6822F03F0242EA914229
:101648006A6021680A6A22F03F026668684DAE4205
:1016580054D8013313430B622168CA6922F44F42FC
:1016680022F0FF026568624B9D4251D8431E6D000F
:10167800B3FBF5F3013340F6FC7003427ED0C3F3AD
:101688000B037CE04FF4E5715748FFF79FF98AE7B1
:1016980040F2CB115448FFF799F989E74FF4E67106
:1016A8005148FFF793F987E740F2CD114E48FFF70D
:1016B8008DF988E74FF4E7714B48FFF787F985E71D
:1016C80040F2CF114848FFF781F983E74FF4E871FA
:1016D8004548FFF77BF981E740F2D1114248FFF70F
:1016E80075F97FE784F83C302046FFF740FF7DE737
:1016F800424B98428CBF0023012394E74FF4967520
:1017080005FB03F33E4DA5FB03539B090133A1E7FA
:10171800A668C6B9431E05EB450CB3FBFCF30133C1
:10172800C3F30B03B3FA83F35B09002B54D1C6B997
:10173800431E05EB4505B3FBF5F30133C3F30B0378
:1017480043F400431BE0431E05EB850C0CEB8C0CAB
:10175800B3FBFCF30133C3F30B03B3FA83F35B0965
:10176800E3E7431E05EB850505EB8505B3FBF5F3BC
:101778000133C3F30B0343F4404300E004231A434B
:10178800CA6121680B6823F0C003E269206A02433A
:1017980013430B6021688B6823F4034323F0FF0392
:1017A8002269E068024313438B602168CB6823F009
:1017B800FF036269A06902431343CB602268136880
:1017C80043F00103136000202064202384F83D3097
:1017D800206384F83E0070BD0123D0E701207047E4
:1017E8000120F8E7005400407C6500087F1A0600D5
:1017F800A08601007F841E0083DE1B43FF083D0096
:10180800D34D62107047000038B310B50446036822
:10181800134A93420CD002F58062934208D002F535
:101828008062934204D040F239210E48FFF7CEF887
:10183800242384F83D302268136823F001031360E1
:101848002046FFF7DFFF0020206484F83D00206376
:1018580084F83E0084F83C0010BD0120704700BFAA
:10186800005400407C6500082DE9F04383B004462D
:10187800884691461F460C9EFFF71AF90546012F28
:1018880001D0102F08D194F83D30DBB2202B09D0BD
:10189800022003B0BDE8F08340F6CD114E48FFF7B3
:1018A80095F8F0E70095192301224C492046FFF7E7
:1018B800EEFB002840F0898094F83C30012B00F0C2
:1018C8008680012384F83C3023681A6812F0010FDF
:1018D80003D11A6842F001021A602268136823F4DF
:1018E80000631360212384F83D30402384F83E30A0
:1018F800002323640A9B6362BDF82C306385638DE3
:101908002385374BE362019500963B464A4641469C
:101918002046FFF7ABFC00285BD1238D002B35D088
:101928002A4631462046FFF772FC20BB626A2368CC
:1019380012781A61626A531C6362218D013989B277
:101948002185638D9BB2013B9BB2638523685869EF
:1019580010F0040FE1D00029DFD052781A61636AD1
:1019680001336362238D013B2385638D9BB2013B69
:101978009BB26385D1E7236C042B01D0012088E753
:101988002268136843F400731360F7E72A46314668
:101998002046FFF781FD50B1236C042B01D00120B4
:1019A80077E72268136843F400731360F7E7226847
:1019B800136843F400731360202384F83D30002338
:1019C80084F83E3084F83C3063E7022061E7022067
:1019D8005FE701205DE700BF7C650008020010009A
:1019E8000000FFFF2DE9F04387B004468846914682
:1019F8001F46109EFFF75CF80546012F01D0102FF7
:101A080009D194F83D30DBB2202B0AD002273846A2
:101A180007B0BDE8F08340F648218C48FEF7D6FFB2
:101A2800EFE700951923012289492046FFF72FFB8C
:101A3800002840F04F8194F83C30012B00F04C8195
:101A4800012384F83C3023681A6812F0010F03D18F
:101A58001A6842F001021A602268136823F40063CE
:101A68001360222384F83D30402384F83E3000235D
:101A780023640E9B6362BDF83C306385638D2385C8
:101A8800744BE362019500963B464A464146204620
:101A9800FFF758FC0746002840F02081238D5BB9EA
:101AA800029323685A6902929A690292029A1A6802
:101AB80042F400721A6075E0012B0AD0022B1AD08A
:101AC8000023059323685A6905929B690593059B32
:101AD80068E02268136823F480631360002303938B
:101AE80023685A6903929A690392039A1A6842F41E
:101AF80000721A6056E02268136823F4806313604A
:101B08002268136843F40063136000230493236876
:101B18005A6904929B690493049B43E02A46314620
:101B28002046FFF7E8FC002840F0DA8023681A69AD
:101B3800636A1A70636A01336362238D013B2385EC
:101B4800638D9BB2013B9BB263852BE000953346C6
:101B5800002241492046FFF79AFA002840F0C28047
:101B68002268136843F40073136023681A69636A70
:101B78001A70626A531C6362238D013B2385638D4F
:101B88009BB2013B9BB2638523681B695370636AF0
:101B980001336362238D013B2385638D9BB2013B37
:101BA8009BB26385238D002B00F08B80032B55D8C7
:101BB800012BB3D0022BC9D0009533460022264909
:101BC8002046FFF764FA002840F08E8022681368E8
:101BD80023F48063136023681A69636A1A70636A5E
:101BE80001336362238D013B2385638D9BB2013BE7
:101BF8009BB2638500953346002217492046FFF7BC
:101C080046FA002872D12268136843F400731360FF
:101C180023681A69636A1A70626A531C6362238DA7
:101C2800013B2385638D9BB2013B9BB2638523688F
:101C38001B695370636A01336362238D013B2385FB
:101C4800638D9BB2013B9BB26385ABE77C65000863
:101C5800020010000000FFFF040001002A46314680
:101C68002046FFF748FC002842D123681A69636AB6
:101C78001A70636A01336362228D013A92B2228537
:101C8800638D9BB2013B9BB263852368596911F050
:101C9800040F87D0032A0FD023681A69636A1A7061
:101CA800636A01336362238D013B2385638D9BB295
:101CB800013B9BB2638575E71A6822F480621A605B
:101CC800EAE7202384F83D30002384F83E3084F886
:101CD8003C309CE602279AE6022798E6012796E61A
:101CE800012794E6012792E6012790E601278EE670
:101CF80001278CE690F83D007047006C70470000A3
:101D080000B583B0002100910C4B5A6C42F480421C
:101D18005A645A6C02F480420092009A01911A6C3B
:101D280042F080521A641B6C03F080530193019BAC
:101D38000720FEF719FF03B05DF804FB00380240E6
:101D48000368B3F1804F00D0704700B583B000211D
:101D5800019103F50E331A6C42F001021A641B6CF0
:101D680003F001030193019B0A461C20FEF71AFFAA
:101D78001C20FEF73BFF03B05DF804FB00B589B0FB
:101D88000023039304930593069307930268154B66
:101D98009A4202D009B05DF804FB0021019103F5D5
:101DA800FA331A6C42F400321A641A6C02F40032E4
:101DB8000192019A02911A6B42F001021A631B6B9D
:101DC80003F001030293029B0C2303930223049361
:101DD800032306930723079303A90348FEF714FF79
:101DE800D8E700BF0044004000000240002800F08F
:101DF800618270B582B0044603680F2B39D8236816
:101E080013F0010F4DD063682BB1B3F5803F02D0BA
:101E1800B3F5A02F32D1804B9B6803F00C03042B41
:101E280036D07D4B9B6803F00C03082B2BD06368DE
:101E3800B3F5803F5FD0B3F5A02F62D0764B1A6818
:101E480022F480321A601A6822F480221A606368C9
:101E5800002B60D0FEF72CFE05466F4B1B6813F471
:101E6800003F1ED1FEF724FE401B6428F5D903204D
:101E780027E2E6216948FEF7A9FDC0E7EB2167489C
:101E8800FEF7A4FDC7E7644B5B6813F4800FCED060
:101E9800614B1B6813F4003F03D06368002B00F00C
:101EA8000B82236813F0020F66D0E368012B41D838
:101EB80023691F2B44D8584B9B6813F00C0F4AD04A
:101EC800554B9B6803F00C03082B3FD0E368002BAD
:101ED80077D0534B01221A60FEF7EAFD05464E4BB8
:101EE8001B6813F0020F63D1FEF7E2FD401B0228C6
:101EF800F5D90320E5E1484A136843F480331360B9
:101F0800A5E7454B1A6842F480221A601A6842F421
:101F180080321A609BE7FEF7CBFD05463E4B1B68F7
:101F280013F4003FBDD0FEF7C3FD401B6428F5D96C
:101F38000320C6E140F21D113848FEF747FDB7E718
:101F48004FF48F713548FEF741FDB4E7324B5B68BB
:101F580013F4800FBAD1304B1B6813F0020F03D073
:101F6800E368012B40F0AA812B4A136823F0F80399
:101F7800216943EAC1031360236813F0080F51D0A5
:101F88006369012B2FD863699BB3254B0122C3F8E2
:101F9800802EFEF78DFD05461F4B5B6F13F0020F79
:101FA80040D1FEF785FD401B0228F5D9032088E1C2
:101FB800194A136823F0F803216943EAC10313603F
:101FC800DAE7174B00221A60FEF772FD0546124B3E
:101FD8001B6813F0020FCFD0FEF76AFD401B0228E2
:101FE800F5D903206DE14FF4AF710C48FEF7EEFC14
:101FF800C9E70B4B0022C3F8802EFEF759FD0546B2
:10200800054B5B6F13F0020F0CD0FEF751FD401B20
:102018000228F5D9032054E100380240B4650008CD
:1020280000004742236813F0040F7CD0A368012BFB
:1020380001D9052B38D1A54B1B6C13F0805F39D122
:1020480000230193A14B1A6C42F080521A641B6C56
:1020580003F080530193019B01259D4B1B6813F4EA
:10206800807F29D0A368012B3AD0052B3ED0974B0F
:102078001A6F22F001021A671A6F22F004021A6717
:10208800A368002B3CD0FEF713FD06468F4B1B6F51
:1020980013F0020F45D1FEF70BFD801B41F2883388
:1020A8009842F3D903200CE14FF4C5718948FEF733
:1020B8008DFCC0E70025D0E7854A136843F4807398
:1020C8001360FEF7F5FC0646814B1B6813F4807F0E
:1020D800C8D1FEF7EDFC801B0228F5D90320F0E0FB
:1020E8007A4A136F43F001031367C9E7774B1A6FF6
:1020F80042F004021A671A6F42F001021A67BFE73A
:10210800FEF7D6FC0646714B1B6F13F0020F08D082
:10211800FEF7CEFC801B41F288339842F3D90320A6
:10212800CFE0002D3FD1A369022B42D8A369002B31
:1021380000F0C680654A926802F00C02082A00F096
:102148009480022B7DD1E36913B1B3F5800F36D1AA
:10215800236A023B3D2B38D8636A323BB3F5BF7F15
:1021680039D8A36A022B08D0082B3AD84FF4A872A2
:1021780022FA03F313F0010F33D0E36A023B0D2B6D
:1021880035D8554B00221A66FEF792FC05464F4B90
:102198001B6813F0007F30D0FEF78AFC401B022832
:1021A800F5D903208DE0494A136C23F0805313645A
:1021B800B9E740F2CD114748FEF708FCB6E74FF4FF
:1021C800EB714448FEF702FCC2E740F2D7114148E0
:1021D800FEF7FCFBC0E74FF4EC713E48FEF7F6FB58
:1021E800BFE740F2D9113B48FEF7F0FBC5E74FF4D3
:1021F800ED713848FEF7EAFBC3E7E369226A134347
:10220800626A43EA8213A26A5208013A43EA024325
:10221800E26A43EA02632D4A53602F4B01221A6691
:10222800FEF746FC0446294B1B6813F0007F06D1D5
:10223800FEF73EFC001B0228F5D9032041E00020F0
:102248003FE0254B00221A66FEF732FC04461F4B7E
:102258001B6813F0007F06D0FEF72AFC001B02283B
:10226800F5D903202DE000202BE0012B2BD0174BB4
:102278005B6803F48001E26991422FD103F03F02C9
:10228800216A8A422CD1616A47F6C0721A40B2EBC1
:10229800811F27D103F44031A26A5208013AB1EBF9
:1022A800024F21D103F07063E26AB3EB026F1DD1D4
:1022B800002006E001207047012002E0012000E034
:1022C800002002B070BD0120FBE700BF00380240CB
:1022D80000700040B4650008000047420120F0E7A4
:1022E8000120EEE70120ECE70120EAE70120E8E71A
:1022F80008B5334B9B6803F00C03042B5BD0082B09
:102308005BD12F4B5A6802F03F025B6813F4800FD1
:102318002CD02B4B5868C0F388104FEA401CBCEBFC
:10232800000C6EEB0E0E4FEA8E1343EA9C634FEAE5
:102338008C11B1EB0C0163EB0E03DB0043EA517324
:10234800C90011EB000C43F10003590200234FEAC6
:102358004C2041EADC51FDF71BFF194B5B68C3F3C6
:10236800014301335B00B0FBF3F027E0144B5868DE
:10237800C0F388104FEA401CBCEB000C6EEB0E0E4D
:102388004FEA8E1343EA9C634FEA8C11B1EB0C01C0
:1023980063EB0E03DB0043EA5173C90011EB000C39
:1023A80043F10003990200234FEA8C2041EA9C5133
:1023B800FDF7EEFED1E7034800E0034808BD00BF83
:1023C8000038024000127A000024F400002800F0CF
:1023D800FA8070B50D4604460368013B0E2B30D8D1
:1023E800072D34D87C4B1B6803F00703AB4208D297
:1023F800EBB2794A1370136803F00703AB4240F05D
:10240800E480236813F0020F32D013F0040F04D0D5
:10241800724A936843F4E0539360236813F0080FFB
:1024280004D06E4A936843F460439360A368C3B1D1
:10243800C02B16D049D8A02B13D00ED9B02B10D052
:1024480049E040F25A216648FEF7C0FAC8E740F270
:102458005B216348FEF7BAFAC4E7802B01D0902BC2
:1024680039D15E4A936823F0F003A1680B43936067
:10247800236813F0010F48D06368032B31D86368D1
:10248800012B34D09A1E012A38D9544A126812F006
:10249800020F00F09C8051498A6822F0030213431E
:1024A8008B60FEF705FB06464C4B9B6803F00C035C
:1024B8006268B3EB820F28D0FEF7FAFA801B41F26C
:1024C80088339842F0D9032070E0E02BC9D0F02B74
:1024D800C7D0D02BC5D040F27E214148FEF776FA0E
:1024E800BFE740F285213E48FEF770FAC7E73B4A4E
:1024F800126812F4003FCED1012057E0374A126823
:1025080012F0007FC7D1012050E0334B1B6803F065
:102518000703AB4207D9EAB22F4B1A701B6803F0C6
:102528000703AB4255D1236813F0040F14D0E368B6
:102538005BB1B3F5805F08D0B3F5A05F05D0B3F504
:10254800C05F02D0B3F5E05F31D1244A936823F429
:10255800E053E1680B439360236813F0080F15D02C
:1025680023695BB1B3F5805F08D0B3F5A05F05D0F0
:10257800B3F5C05F02D0B3F5E05F1ED1174A936888
:1025880023F46043216943EAC1039360FFF7B0FE77
:10259800124B9B68C3F30313124AD35CD840124B07
:1025A8001860124B186800F051FD002070BD40F211
:1025B800C3210B48FEF70AFAC7E740F2CA210848C8
:1025C800FEF704FADAE7012070470120EEE7012060
:1025D800ECE70120EAE700BF003C02400038024077
:1025E800B46500089C660008100000200C0000205C
:1025F800014B1868704700BF1000002008B5FFF7AE
:10260800F7FF044B9B68C3F38223034AD35CD8408B
:1026180008BD00BF003802409466000808B5FFF7FF
:10262800E7FF044B9B68C3F34233034AD35CD840AB
:1026380008BD00BF00380240946600080F230360FD
:102648000B4B9A6802F0030242609A6802F0F002AB
:1026580082609A6802F4E052C2609B68DB0803F467
:10266800E0530361034B1B6803F007030B607047DB
:1026780000380240003C024010B4036A046A24F0A7
:1026880001040462846924F0F00C4CEA021223F07D
:102698000A030B43826103625DF8044B704710B470
:1026A800036A046A24F010040462846924F4704CF8
:1026B8004CEA023223F0A00343EA01138261036269
:1026C8005DF8044B7047836823F070030B4343F0B5
:1026D800070383607047000010B5044603682E4A5C
:1026E80093421FD0B3F1804F1CD0A2F57C42934295
:1026F80018D002F58062934214D002F580629342AA
:1027080010D002F59A3293420CD002F580629342BF
:1027180008D002F58062934204D04FF4E8711F4854
:10272800FEF754F994F83D30DBB2012B2FD1022388
:1027380084F83D302268D36843F00103D3602368EE
:10274800154A934218D0B3F1804F15D0A2F57C42B8
:10275800934211D002F5806293420DD002F5806257
:10276800934209D002F59A32934205D01A6842F092
:1027780001021A6000200BE09A6802F00702062A9C
:1027880007D01A6842F001021A60002000E0012018
:1027980010BD0020FCE700BF00000140EC65000808
:1027A800704770477047704770B504460368DE6825
:1027B8001D6915F0020F10D016F0020F0DD06FF042
:1027C80002021A610123037703689B6913F0030F60
:1027D8005ED0FFF7E6FF0023237715F0040F12D031
:1027E80016F0040F0FD023686FF004021A61022359
:1027F800237723689B6913F4407F4FD02046FFF767
:10280800D0FF0023237715F0080F12D016F0080F19
:102818000FD023686FF008021A6104232377236816
:10282800DB6913F0030F40D02046FFF7BAFF0023FF
:10283800237715F0100F12D016F0100F0FD0236861
:102848006FF010021A61082323772368DB6913F4F9
:10285800407F31D02046FFF7A4FF0023237715F0EF
:10286800010F02D016F0010F2DD115F0800F02D004
:1028780016F0800F2FD115F0400F02D016F0400F40
:1028880031D115F0200F02D016F0200F33D170BDD2
:10289800FFF786FF2046FFF785FF9CE72046FFF7F6
:1028A8007FFF2046FFF77EFFABE72046FFF778FF64
:1028B8002046FFF777FFBAE72046FFF771FF20466B
:1028C800FFF770FFC9E723686FF001021A6120461D
:1028D800FDF798FFC9E723686FF080021A61204668
:1028E80000F0B3FBC7E723686FF040021A61204687
:1028F800FFF759FFC5E723686FF020021A612046E9
:1029080000F0A2FBC3E700000368294A90420ED0FA
:10291800B0F1804F0BD0A2F57C42904207D002F56F
:102928008062904203D002F58062904203D123F086
:1029380070034A6813431E4A90421AD0B0F1804F80
:1029480017D0A2F57C42904213D002F580629042E3
:102958000FD002F5806290420BD002F59A32904275
:1029680007D002F58062904203D002F5806290425F
:1029780003D123F44073CA68134323F080034A69E0
:10298800134303608B68C3620B688362084B9842E9
:102998000AD001234361036913F0010F03D00369CF
:1029A80023F00103036170470B690363F1E700BF7C
:1029B80000000140002800F0918010B5044603682B
:1029C800474A93421FD0B3F1804F1CD0A2F57C42F6
:1029D800934218D002F58062934214D002F58062C7
:1029E800934210D002F59A3293420CD002F58062DD
:1029F800934208D002F58062934204D040F213114A
:102A08003848FDF7E3FFA3683BB1102B05D0202B16
:102A180003D0402B01D0602B17D123692BB1B3F51C
:102A2800807F02D0B3F5007F15D12368B3F1804FC2
:102A380017D02D4A934214D0E368013B4FF6FE723B
:102A480093428CBF002301230FE04FF48A7125487D
:102A5800FDF7BCFFE1E740F215112248FDF7B6FF8C
:102A6800E3E7E368003B18BF01232BB3A3690BB16D
:102A7800802B27D194F83D3053B3022384F83D309E
:102A8800214651F8040BFFF73FFF012384F8463035
:102A980084F83E3084F83F3084F8403084F8413080
:102AA80084F8423084F8433084F8443084F8453060
:102AB80084F83D30002010BD4FF48B710948FDF7B4
:102AC80085FFD3E740F217110648FDF77FFFD1E7EE
:102AD80084F83C302046FFF733F9CEE701207047F1
:102AE80000000140EC650008000C004010B4846848
:102AF80024F47F4C42EA03220A4342EA0C02826031
:102B08005DF8044B7047000038B590F83C30012B55
:102B180000F01C8204460D46012380F83C30022355
:102B280080F83D300B68B3F5805F18D0602B16D065
:102B380010D8402B13D0502B11D083B1102B0ED0AE
:102B4800202B0CD0302B0AD041F2C3419E48FDF710
:102B58003DFF04E0702B02D0B3F5005FEDD1226891
:102B6800936823F47F4323F0770393602B68602BEB
:102B780000F05E8170D8402B00F0998136D9502B37
:102B880068D12368914A934217D0B3F1804F14D08B
:102B9800A2F57C42934210D002F5806293420CD099
:102BA80002F58062934208D002F59A32934204D02B
:102BB80041F202518448FDF709FF6B68B3F5004FF5
:102BC80005D023B1022B02D00A2B40F02581EB68F7
:102BD8000F2B00F22781EA6869682068FFF74CFD2F
:102BE80050212068FFF76FFD002005E0202B0DD055
:102BF80009D9302B0AD00120012384F83D30002365
:102C080084F83C3038BD0BB1102B21D123686F4AB2
:102C1800934217D0B3F1804F14D0A2F57C4293426F
:102C280010D002F5806293420CD002F58062934284
:102C380008D002F59A32934204D041F235516248E5
:102C4800FDF7C4FE29682068FFF73DFD0020D3E7A3
:102C58000120D1E70120CFE7B3F5805F00F086803F
:102C6800B3F5005F3ED12368584A934213D0B3F1BD
:102C7800804F10D0A2F57C4293420CD002F58062BE
:102C8800934208D002F58062934204D041F2EE41AB
:102C98004D48FDF79BFEAB684BB1B3F5805F06D09E
:102CA800B3F5005F03D0B3F5405F40F0A3806B68D5
:102CB800B3F5004F05D023B1022B02D00A2B40F008
:102CC8009F80EB680F2B00F2A180EB686A68A96807
:102CD8002068FFF70BFF2268936843F480439360F2
:102CE800002089E7702B3FD12368384A934217D0D8
:102CF800B3F1804F14D0A2F57C42934210D002F574
:102D0800806293420CD002F58062934208D002F5AB
:102D18009A32934204D041F2D6412B48FDF756FE31
:102D2800AB6843B1B3F5805F05D0B3F5005F02D05F
:102D3800B3F5405F4CD16B68B3F5004F04D01BB1BD
:102D4800022B01D00A2B49D1EB680F2B4CD8EB682A
:102D58006A68A9682068FFF7C9FE2268936843F08B
:102D680077039360002047E7012045E72368174A67
:102D7800934200F0DB80B3F1804F00F0D980A2F5D8
:102D88007C42934200F0D68002F58062934200F0C4
:102D9800D38002F58062934200F0D08002F59A3227
:102DA800934200F0CD8002F58062934200F0CA8021
:102DB80002F58062934200F0C78041F2CF41024899
:102DC800FDF704FE002017E7EC650008000001404D
:102DD80041F2D9415E48FDF7F9FDACE741F2DA412D
:102DE8005B48FDF7F3FDAFE741F2DB415848FDF7DB
:102DF800EDFDACE741F2F1415548FDF7E7FD56E737
:102E080041F2F2415248FDF7E1FD5AE741F2F34140
:102E18004F48FDF7DBFD58E741F205514C48FDF7F7
:102E2800D5FDD4E641F206514948FDF7CFFDD2E67B
:102E38002368484A934217D0B3F1804F14D0A2F5C3
:102E48007C42934210D002F5806293420CD002F586
:102E58008062934208D002F59A32934204D041F23C
:102E680012513B48FDF7B2FD6B68B3F5004F04D033
:102E78001BB1022B01D00A2B0DD1EB680F2B10D8F8
:102E8800EA6869682068FFF70AFC60212068FFF794
:102E98001AFC0020B0E641F215512D48FDF796FDC9
:102EA800EBE741F216512A48FDF790FDE8E7236861
:102EB800284A934217D0B3F1804F14D0A2F57C4230
:102EC800934210D002F5806293420CD002F58062E2
:102ED800934208D002F59A32934204D041F222512B
:102EE8001B48FDF773FD6B68B3F5004F04D01BB1A9
:102EF800022B01D00A2B0DD1EB680F2B10D8EA68F2
:102F080069682068FFF7B8FB40212068FFF7DBFB02
:102F1800002071E641F225510D48FDF757FDEBE71A
:102F280041F226510A48FDF751FDE8E7002063E623
:102F3800002061E600205FE600205DE600205BE6F9
:102F4800002059E6002057E6002055E6022059E601
:102F5800EC6500080000014038B504460D460368DA
:102F6800374A934213D0B3F1804F10D0A2F57C4278
:102F780093420CD002F58062934208D002F5806239
:102F8800934204D040F2A9712E48FDF71FFD2B682B
:102F9800A3B1402B12D00BD8202B0FD0302B0DD043
:102FA800102B0BD040F2AA712648FDF70FFD05E063
:102FB800602B03D0702B01D0502BF3D16B68802B82
:102FC80000D0A3BB94F83C30012B36D0012384F801
:102FD8003C30022384F83D3023685968986821F012
:102FE80070012A680A435A602368154A934212D02E
:102FF800B3F1804F0FD0A2F57C4293420BD002F57B
:103008008062934207D002F58062934203D002F5B2
:103018009A32934204D120F080006A6802439A6091
:10302800012384F83D30002084F83C0038BD40F28C
:10303800AB710448FDF7CAFCC4E70220F6E700BFFD
:1030480000000140246600087047704730B589B019
:103058000546002401941D4B5A6C42F001025A6443
:103068005B6C03F001030193019B02A903A8FFF71E
:10307800E5FAFFF7D3FA164AA2FB00239B0C013BA3
:103088001448154A026040F2E732C26043600461A6
:1030980084608461FFF78EFC044610B1204609B0B5
:1030A80030BD0C48FFF718FB04460028F6D119205C
:1030B800FDF79CFD0F2D01D90124EFE700222946D9
:1030C8001920FDF76FFD054B1D60E7E7003802404A
:1030D80083DE1B4368270020000001400C0000200D
:1030E800026802F10C0353E8003F23F490730C329A
:1030F80042E800310029F3D1026802F1140353E8D1
:10310800003F23F00103143242E800310029F3D1D3
:10311800036B012B05D0202380F842300023036382
:103128007047026802F10C0353E8003F23F01003D4
:103138000C3242E800310029F3D1ECE710B504461F
:103148004268574B9A423FD8E36813B1B3F5005F22
:1031580040D123692BB1B3F5806F02D0B3F5C06FAE
:103168003ED163694FF6F372134200D123B940F69A
:1031780078614C48FDF72AFC2268136923F4405310
:10318800E1680B431361A36822691A4363691A4310
:10319800E3691A432168CB6823F4164323F00C0330
:1031A8001343CB602268536923F44073A1690B432E
:1031B800536123683C4A934218D002F580629342D7
:1031C80014D0FFF71BFA13E040F675613548FDF798
:1031D800FDFBB9E740F676613248FDF7F7FBB8E743
:1031E80040F677612F48FDF7F1FBBAE7FFF716FACB
:1031F800E369B3F5004F29D00021031849411B1892
:1032080041F10001C90041EA5371DB0018186368F5
:103218004FEA83024FEA937341F10001FCF7B8FFCC
:10322800224AA2FB00314909642303FB11031B0155
:103238003233A2FB03235B0903F0F00202EB011215
:1032480003F00F03216813448B6010BD002302189C
:1032580043EB0301121841F10001C90041EA527120
:10326800D200101841F10001626892185B41FCF726
:103278008FFF0E4AA2FB00314909642303FB1103A7
:10328800DB003233A2FB03235B095A0002F4F87215
:1032980002EB011203F00703216813448B60D4E7A3
:1032A800A037A0005C660008001001401F85EB51A4
:1032B8002DE9F04383B005460E4617469946DDF8DA
:1032C80028802B681C6836EA04040CBF01240024FB
:1032D800BC4228D1B8F1FF3FF3D0FDF7E9FBA0EBE2
:1032E8000900404523D8B8F1000F22D02B68DA68CE
:1032F80012F0040FE5D0802EE3D0402EE1D01A68FA
:1033080012F0080FDDD0002401941A6801925B685E
:103318000193019B2846FFF7E3FE08236B6485F8B9
:103328004040012000E0002003B0BDE8F083032006
:10333800FAE70320F8E70000002878D010B5044623
:1033480083690BB303683B4A93420CD0A2F54C4205
:10335800934208D002F55042934204D040F27311D0
:103368003548FDF733FBA369FBB1B3F5807F1CD06B
:10337800B3F5007F19D0B3F5407F16D04FF4BA717A
:103388002D48FDF723FB10E003682A4A93420CD02E
:10339800A2F54C42934208D002F55042934204D021
:1033A8004FF4BC712448FDF711FBA36813B1B3F5C2
:1033B800805F2AD1E36913B1B3F5004F2BD194F89C
:1033C800413073B3242384F841302268D36823F44E
:1033D8000053D3602046FFF7B1FE2268136923F437
:1033E800904313612268536923F02A0353612268CA
:1033F800D36843F40053D36000206064202384F82A
:10340800413084F84230606310BD4FF4BD710A4802
:10341800FDF7DCFACEE740F27B110748FDF7D6FA54
:10342800CDE784F840302046FEF7A8FCCAE7012023
:10343800704700BF001001405C6600082DE9F041AC
:1034480082B01E4690F84130DBB2202B56D104469C
:103458000D469046002955D00AB901204FE00023B7
:103468004364212380F84130FDF722FB0746A4F886
:103478002480A4F82680A368B3F5805F02D04FF0BB
:10348800000814E023692BB34FF000080FE0202355
:1034980084F84130032032E038F8023B2268C3F355
:1034A80008035360E28C92B2013A92B2E284E38C50
:1034B8009BB293B100963B46002280212046FFF73D
:1034C800F7FE0028E3D1002DE6D015F8012B23687C
:1034D8005A60E7E7A8460025E9E700963B46002240
:1034E80040212046FFF7E4FE18B9202384F8413034
:1034F80005E0202384F84130032000E0022002B0D8
:10350800BDE8F0810120FAE72DE9F04182B01E46BE
:1035180090F84230DBB2202B59D104460D46904634
:10352800002958D00AB9012052E00023436422221E
:1035380080F842200363FDF7BBFA0746A4F82C8005
:10354800A4F82E80A368B3F5805F02D04FF000087E
:103558001CE0236913B14FF0000817E0A8460025C6
:1035680014E0202384F84230032031E023685B68AC
:10357800C3F3080328F8023B03E023685B682B7059
:103588000135E28D92B2013A92B2E285E38D9BB2A7
:10359800C3B100963B46002220212046FFF788FE53
:1035A8000028DED1002DE1D0A368B3F5805FE4D018
:1035B80013B92369002BE0D023685B6803F07F030D
:1035C8002B70DDE7202384F84230002000E0022041
:1035D80002B0BDE8F0810120FAE7FEE7FEE7FEE76A
:1035E800FEE7FEE7704770477047704708B5102040
:1035F800FDF726FD08BD000008B50248FFF7D4F81E
:1036080008BD00BF6827002008B5034B01221A70C7
:103618000248FFF7C9F808BDBD2100201C2700207B
:1036280008B54FF40050FDF70BFD08BD2DE9F04338
:1036380089B0002501951B4C236B43F002032363DB
:10364800236B03F002030193019B4FF480730393F0
:103658004FF01209CDF8109005954FF00308CDF8FA
:10366800188004270797104E03A93046FDF7CCFAB7
:103678004FF400730393CDF810900595CDF818809A
:10368800079703A93046FDF7BFFA0295236C43F468
:1036980000132364236C03F400130293029B09B004
:1036A800BDE8F083003802400004024010B5084A23
:1036B800136C23F400131364064C4FF480712046F6
:1036C800FDF7E8FB4FF400712046FDF7E3FB10BD62
:1036D80000380240000402400B4B1B687BB1013BE1
:1036E800094A13600BB10020704710B5074C2046FB
:1036F800FFF7DCFF2046FEF787F810B910BD002061
:1037080070476FF00700F9E7B0270020B4270020C2
:1037180010B584B04FF480540294019300921023A2
:103728000A4601460848FEF79FF810B9002004B081
:1037380010BD0548FEF7E1FA042802D06FF0030037
:10374800F5E76FF06500F2E7B427002010B584B004
:103758004FF4805402940193009210230A460146C4
:103768000848FEF73FF910B9002004B010BD05481D
:10377800FEF7C3FA042802D06FF06500F5E76FF092
:103788000300F2E7B427002008B5FDF791F908BD5A
:1037980008B5094A0260094A426000228260C26094
:1037A8004FF48041016142618261C2610262FDF7AA
:1037B800DFFE00B1012008BD00540040801A060059
:1037C8000E4B0F4A1A600F4A1368591C11600BB14F
:1037D8000020704710B50948FEF78CFA08B10020A0
:1037E80010BD064C2046FFF721FF2046FFF7D0FF0B
:1037F80008B90020F4E76FF00700F1E7B4270020CC
:1038080000540040B027002070B50C46164600252D
:1038180006E0AFF30080214601F8010B01350C46A4
:10382800B542F6DB304670BD70B50C46164600252D
:1038380004E014F8010BAFF300800135B542F8DB62
:10384800304670BD4FF0FF3070474FF400534B6067
:1038580000207047012070470020704710B50346CC
:103868000C4A0D490D48006840B10C4800680344F3
:10387800521A934206D8094A136010BD0748084CEB
:103888000460F2E702F098F80C2303604FF0FF3071
:10389800F3E700BF00000220000400000828002011
:1038A800A8310020034AD2F8883043F47003C2F8E4
:1038B8008830704700ED00E058B110B5044690F824
:1038C800D83A012B08D14368984740B984F8D80AF8
:1038D80010BD6FF0010070474FF0FF30F8E74FF070
:1038E800FF30F5E740B151B140230B6001234B6035
:1038F80000208860CB6070476FF0010070476FF060
:10390800010070476FF00300704720B131B103899F
:103918000B60002070476FF0010070476FF00100E6
:103928007047052805D0092805D000B17047FF2049
:103938007047002070470020F8E7B0B110B5044682
:1039480090F8D83AA3B9183000F08CFF98B984F8E9
:10395800D90A84F8DA0A84F8DB0A84F8DC0A84F8DD
:10396800DD0A012384F8D83A10BD6FF001007047D2
:103978004FF0FF30F8E74FF0FF30F5E770B582B051
:1039880000238DF807308DF8063098B30D460646AB
:1039980099B318361A4647F6FF713046FDF71EF8F8
:1039A80004460DF1070200213046FDF710F80443E4
:1039B800E4B20DF1060201213046FDF708F8044390
:1039C800E4B2022247F6FF713046FDF707F80443D8
:1039D80014F0FF0F09D19DF807209DF8063003EB7E
:1039E80002232B60002002B070BD00232B604FF033
:1039F800FF30F8E76FF00100F5E76FF00100F2E73C
:103A08002DE9F047002848D00C468046002947D0C9
:103A18000D78D1F8049091F808A06B1E032B11D8EB
:103A2800DFE803F00215080C102100269EB130468D
:103A3800BDE8F087012540210026F7E7032540214E
:103A48000026F3E7002529466FF00106EEE7032577
:103A580010210026EAE708F11807384601F060FB54
:103A680008BB2946384601F0DDFBF8B94946384617
:103A780001F042FCE8B95146384601F029FCD8B9B2
:103A8800E368003B18BF012388F8DC3A2369003B50
:103A980018BF012388F8DD3AC9E76FF00106C6E7C9
:103AA8006FF00106C3E74FF0FF36C0E74FF0FF366F
:103AB800BDE74FF0FF36BAE74FF0FF36B7E7000033
:103AC80000285AD030B583B00C460546002957D097
:103AD8000B68FF2B07D018350DF10701284600F0B9
:103AE8003DFE002326E00021183001F024FC08B92F
:103AF80000203DE04FF0FF303AE0234A03EB43015A
:103B080002EB810083724FF0010C80F808C094F832
:103B180000C080F809C04FF0000C80F80BC0606846
:103B280042F82100A16803EB430002EB80025160D8
:103B38000133DBB29DF807209A42DED8124903EB25
:103B4800430201EB8202927A03EB430301EB830306
:103B580062F07F029A72284601F022FC0446012195
:103B6800284601F0E8FB044314F0FF0F02D10020BF
:103B780003B030BD4FF0FF30FAE76FF00100704737
:103B88006FF00100F4E700BF5C2D002070B582B033
:103B980000238DF80730B0B10E46044643699847B4
:103BA80005460DF1070104F1180000F028FC9DF806
:103BB8000730012B0AD063699847401BB042F0D305
:103BC8006FF0020003E06FF0010000E0002002B097
:103BD80070BD0000002800F092802DE9F04F83B0FE
:103BE8000E468046002900F08D8000F118040DF182
:103BF8000701204600F0B2FD002840F086804649C3
:103C0800204600F02DFC8246002840F081809DF877
:103C18000790C6F8009007465FE03F4B03EB84032C
:103C2800D3ED017AF8EE677A04EB84032B44023370
:103C380006EB8303C3ED027A37E004EB84035B44AD
:103C4800043306EB830300215960334B134493F884
:103C58008404FFF766FE04EB84035B44023306EB3F
:103C6800830358600135EDB22B4B234493F804319C
:103C7800AB4230D9EA1902F5F071274B03EB410347
:103C8800B3F90410AB4604EB84032B4406EB83031F
:103C9800996098F8DC3A012BBFD004EB84032B44DD
:103CA800023306EB83030021996098F8DD3A012B73
:103CB800C3D102F19001184B03EB8103D3ED017AD4
:103CC800F8EE677A04EB84035B44043306EB830362
:103CD800C3ED017AB9E70137FFB2B9450BD93C46C4
:103CE8000D4B3B4493F8042107EB870306EB830352
:103CF8001A715546B8E7002003B0BDE8F08F6FF0A1
:103D0800010070476FF00100F6E74FF0FF30F3E76E
:103D18004FF0FF30F0E700BF0C280020E0B138B5C5
:103D28000C46054681B190F8D93AC3B190F8DA3A11
:103D3800012B04D00021FFF729FF40B138BD41F223
:103D48008831FFF723FFF8E76FF00100F5E7214618
:103D58002846FFF73FFFF1E76FF0010070474FF08B
:103D6800FF30EBE788B338B50C460546183001F04C
:103D7800D7F868BB012385F8D93A611E03291ED8F4
:103D8800DFE801F002091017012385F8DB3A85F80E
:103D9800DA3A002038BD002085F8DB0A012385F8CF
:103DA800DA3AF7E7012385F8DB3A002085F8DA0AE2
:103DB800F0E7002085F8DB0A85F8DA0AEAE700234D
:103DC80085F8D93A6FF00100E4E76FF00100704719
:103DD8004FF0FF30DEE758B110B5044690F8D93AF5
:103DE8004BB1183000F07FFA40B984F8D90A10BDF9
:103DF8006FF0010070474FF0FF30F8E74FF0FF30E9
:103E0800F5E748B138B50546CCB22146183000F080
:103E180015FA20B92C8138BD6FF0010070474FF0BA
:103E2800FF30F8E760B108B501290CD8C9B21830DD
:103E380000F0E4FF08B9002008BD4FF0FF30FBE7B1
:103E48006FF0010070476FF00100F5E7A0B110B501
:103E580082B00C4699B10DF10701183000F009FA4B
:103E680028B99DF807302360002002B010BD002358
:103E780023604FF0FF30F8E76FF0010070476FF0F4
:103E88000100F2E7C8B108B50346C9B10A68026083
:103E98004868586008891881C868D8600869186136
:103EA800486958610889188308691862C868D86120
:103EB800496959623AB1904708BD6FF001007047EF
:103EC8006FF00100F8E74FF0FF30F5E770B582B00A
:103ED8000646002425460DE001213046FCF7B5FDD5
:103EE8000134A4B29DF8073013F0010F1BD1B4F5CB
:103EF800FA7F18D20DF1070206213046FCF767FD5C
:103F08002843C5B29DF90730002BE5DA0DF106020A
:103F180007213046FCF75BFD2843C5B29DF8063003
:103F280013F0010FD8D0284602B070BD2DE9F84F24
:103F380006460F46914698469DF828B09DF82CA055
:103F480000252C460CE044F0010422E00135EDB2D6
:103F580006EB090393F8103503EA0B03534518D011
:103F68003B4606F5A26241463046FCF74BFD04434A
:103F7800E4B20A213046FCF768FD0443E4B2C72DD9
:103F8800E1D8032FE2D996F812357E2BDED944F01A
:103F980042042046BDE8F88F2DE9F04FE7B004460B
:103FA8000E4604AA5A4B93E8030082E8030002AACB
:103FB800083393E8030082E8030004F5A2654FF490
:103FC800F47204F12001284601F023FD102E01D0DF
:103FD80000237AE004AB03CBC4F82005C4F8241509
:103FE8004FF4F4712846FCF714FD04F24C574FF4D3
:103FF8008072394626A801F00CFD04F5CA6B8022B0
:10400800594606A801F005FD002035E09B1006AAD8
:1040180022F81930013149B203292BDC01EBC00227
:104028004FEA420E0DF1980C5CF82E300EF10108A3
:104038005CF828603344043252005CF82260334450
:104048000EF1090A5CF82A60334401EB80099B08E9
:104058004CF829300DF1180C3CF91E303CF918E0E9
:1040680073443CF9122013443CF91A209B18CDD50F
:104078000333CBE7013040B2032801DC0021CBE752
:10408800602200210EA801F049FCC022002136A8B8
:1040980001F044FC4FF4807226A9384601F0B9FCBF
:1040A800802206A9584601F0B4FC4FF4F471284662
:1040B800FCF7AFFC8CE703F10802224492F81015D4
:1040C800E21882F8101501339BB2B3F5F27FF2D3F0
:1040D80002AB03CBC4F8F006C4F8F4164FF4F4733B
:1040E8002A4642F618612046FCF785FC054603235C
:1040F8000193FF2300934FF43053012204212046FB
:10410800FFF714FF2843C0B267B0BDE8F08F00BFC7
:104118007C610008F0B5C9B004460E46444B93E8EC
:10412800030048AB03E9030044AB424A92E80300AA
:1041380083E80300404B439304F5A2654FF44272B1
:1041480004F50271284601F064FC102E17D04FF4D4
:1041580042732A4642F6F8412046FCF74CFC0546D5
:1041680003230193FF2300934FF4305301220421CA
:104178002046FFF7DBFE2843C0B249B0F0BD46AB8E
:1041880003CBC4F81805C4F81C1544AB03CBC4F81A
:104198003005C4F834154FF442712846FCF739FC51
:1041A80004F244564FF48072314603A801F031FC02
:1041B8004FF0000E20E002EBCE0C4FEA4C0003A9B2
:1041C80051F82030471C51F827703B440CF1040C7F
:1041D80051F83C703B44093051F82000034402EB8D
:1041E8008E009B0841F82030013252B2032AE2DDEA
:1041F8000EF1010E4FFA8EFEBEF1030F01DC002214
:10420800F4E7C022002113A801F088FB4FF4807264
:1042180003A9304601F0FDFB4FF442712846FCF734
:10422800F8FB439BC4F844360023C4F888358EE76E
:10423800AC6600088C610008A0FC010070B505465A
:104248000E46002247F6FF71FCF7C8FB0446C6F38A
:10425800470204212846FCF7C1FB0443E4B22E8040
:10426800022247F6FF712846FCF7B8FB2043C0B28C
:1042780070BD70B582B005460E46002247F6FF7144
:10428800FCF7ACFB04460DF1070209212846FCF7B0
:104298009EFB0443E4B29DF80730022B0DD0042B9B
:1042A8001DD101233370022247F6FF712846FCF71F
:1042B80095FB2043C0B202B070BD0DF107020F217B
:1042C8002846FCF784FB2043C4B29DF80730432BF3
:1042D80002D000233370E6E702233370E3E70023BC
:1042E8003370FF24DFE770B582B0054600238DF8F0
:1042F8000730009304236A4642F6FC71FCF782FB00
:104308000446009A40F2FF439A4202D095F8BC3A1C
:1043180093B30DF1070206212846FCF758FB044326
:10432800E4B29DF90730002B58DB002247F6FF71F5
:104338002846FCF753FB0443E4B200221421284624
:10434800FCF74CFB0443E4B2002215212846FCF795
:1043580045FB0443E4B2042209212846FCF73EFB4E
:104368000443E4B2022247F6FF712846FCF736FB05
:104378002043C0B202B070BD002247F6FF71284644
:10438800FCF72CFB0443E4B2162215212846FCF75F
:1043980025FB0443E4B2012214212846FCF71EFB46
:1043A8000443E4B200269DF90730002BB1DB0DF180
:1043B800070206212846FCF70AFB0443E4B20A2157
:1043C8002846FCF742FB0443E4B20136B6B2B6F520
:1043D800FA7FE8D99DF807301C439AE70DF10702E8
:1043E80007212846FCF7F3FA0443E4B29DF80720B6
:1043F80002F17C03DBB2012B97D9144395E738B55A
:1044080004460D46042300F5A2620021FCF7FAFADF
:1044180094F81035227C934205D0FF2B03D094F8F2
:104428001135052B06D094F91335002B13DB002327
:104438002B7038BD94F8123503F00503052BF2D123
:1044480094F8133513F0100FEDD001232B7094F866
:1044580010352374EDE794F812351843C0B2E6E737
:104468002DE9F04105460C4600F5A26743693A4636
:104478000021FCF7C7FA064695F810352B74A98A6F
:104488003846FCF7C6FA4FF010083FE0EF5AC7F37A
:104498000B174FE045F2B44293422ED045F2D0427A
:1044A800934230D108F214513A462944201D01F0B4
:1044B800B0FA28E04EF24402934272D00CD94EF280
:1044C800840293421FD108F214513A46294404F257
:1044D800844001F09EFA16E04DF6C462934257D02C
:1044E8004DF6447293420ED108F214513A462944CB
:1044F80004F5717001F08DFA05E008F10C032B4406
:1045080093F910352370474407F104086B69434554
:1045180059D908F5A263E918EF5C07F00F0707F10E
:104528000E0202F00F020A2AB0D8EB5AC3F30B139B
:1045380003FB07F74B884DF6C43293421FD0B9D816
:1045480045F2D052934211D0A4D94DF65802934265
:1045580030D04DF684329342D5D108F214513A4600
:10456800294404F5827001F054FACCE708F214519A
:104578003A46294404F5A27001F04BFAC3E708F261
:1045880014513A46294404F5117001F042FABAE789
:1045980008F214513A46294404F5517001F039FAE9
:1045A800B1E708F214513A46294404F2444001F0B4
:1045B80030FAA8E708F214513A46294404F2C440F4
:1045C80001F027FA9FE7002305E004EB83014A681E
:1045D800D20A4A6001333F2BF7D9002316E089102D
:1045E8009180E11891F84424520881F8442403F595
:1045F800D07204EB42029188C909918003F19002BC
:1046080004EB82025168C90A516001333F2B0AD872
:1046180003F5F07204EB4202B2F9040001460028E7
:10462800DDDAC11CDBE7002308E099182144FF20EC
:1046380081F884040132002AF7D001333F2B06D8D1
:10464800E21892F80421002AF7D10022F3E70021AA
:104658001F290BD801F5997204EB82029368104860
:10466800A0FB0303DB0B93600131F1E795F81835E4
:1046780095F8192542EA03226B69191F294491F814
:104688001015033B1D4495F8103543EA01239A425F
:1046980002D046F00206F6B23046BDE8F08100BF0F
:1046A800018000802DE9F04186B005460E46174688
:1046B8001C4603F10C08284B93E8070006AB03E9F6
:1046C8000700B4F5B46F04D9FF27384606B0BDE833
:1046D800F081C7F307238DF80C308DF80D70C4F303
:1046E80007138DF80E30E3B21B018DF80F300C2341
:1046F8000DEB030242F6F4712846FCF77CF90746F5
:1047080003230193FF2300934FF430530122042124
:104718002846FFF70BFC0743FFB205F5A2624346A4
:10472800904642F604412846FCF76CF90743FFB26D
:1047380004F10C0189B24046FCF76BF9002207E04E
:1047480002F1040CAC449CF81035B354013212B297
:1047580023B29342F4DCB8E79461000838B5044604
:104768000D46082345F2504200F5A261FFF79AFF73
:1047780094F8103594F8112513FB02F32B7038BD0B
:10478800F0B587B00E461C46002305938DF80C3013
:104798008DF80D308DF80E300F238DF80F3005236E
:1047A8008DF8103001238DF8113004F10803C3F39C
:1047B80007238DF81230E3B203F108018DF81310C6
:1047C800B4F5B46F03D9FF25284607B0F0BD0546F8
:1047D800C4F53F573437BFB2C2F307218DF8141020
:1047E8008DF81520C4F307128DF816201B018DF8DB
:1047F800173021463046FCF70CF9621E12B207E06A
:1048080002F1040CB35CAC448CF81035013A12B2D6
:10481800002AF5DA059BC5F8103504F2145205EBA9
:10482800020C03AB03CBA850CCF8041004F10C0322
:1048380005F5A26239462846FCF7DDF8074603234A
:104848000193FF2300934FF430530122042128469B
:10485800FFF76CFB47EA0005EDB221463046FCF74E
:10486800D8F8B1E7F0B587B005464FF001130493C7
:1048780001260396544BC361544B8361002780F88B
:10488800BC7A3A4647F6FF71FCF7A8F804460422BA
:1048980009212846FCF7A2F80443E4B240220F217C
:1048A8002846FCF79BF80443E4B203220A21284671
:1048B800FCF794F80443E4B20DF1170247F6FF71D0
:1048C8002846FCF784F80443E4B232460C21284613
:1048D800FCF784F80443E4B23A4640F20111284652
:1048E800FCF77CF80443E4B23A464FF48171284659
:1048F800FCF774F80443E4B232464FF48571284655
:10490800FCF76CF80443E4B2324644F2020128464C
:10491800FCF764F80443E4B23A4644F2020128463C
:10492800FCF75CF80443E4B203224FF4857128468F
:10493800FCF754F80443E4B2324640F20311284627
:10494800FCF74CF80443E4B23A460C212846FCF73D
:1049580045F80443E4B243220F212846FCF73EF809
:104968000443E4B231462846FCF76FF80443E4B246
:1049780040220F212846FCF731F80443E4B23246BE
:104988000A212846FCF72AF80443E4B264212846A1
:10499800FCF75BF80443E4B23A4647F6FF71284651
:1049A800FCF71CF80443E4B20196FF2300930623A6
:1049B8003A4631462846FFF7B9FA044314F0FF0493
:1049C80006D0204607B0F0BDE0660008E869000898
:1049D80032460E212846FCF701F80443E4B20222CD
:1049E80047F6FF712846FBF7F9FF0443E4B2324665
:1049F80047F6FF712846FBF7F1FF0443E4B232465D
:104A080006212846FBF7EAFF0443E4B20423019396
:104A1800FF23009321233A4631462846FFF786FABA
:104A28000443E4B23A4647F6FF712846FBF7D6FF3F
:104A38000443E4B20DF1170247F6FF712846FBF76D
:104A4800C6FF0443E4B232460C212846FBF7C6FFF2
:104A58000443E4B23A4647F6FF712846FBF7BEFF27
:104A68000443E4B23A4640F201112846FBF7B6FF88
:104A78000443E4B23A464FF481712846FBF7AEFF8F
:104A88000443E4B232464FF485712846FBF7A6FF8B
:104A98000443E4B2324644F202012846FBF79EFF83
:104AA8000443E4B23A4644F202012846FBF796FF73
:104AB8000443E4B203224FF485712846FBF78EFFC6
:104AC8000443E4B2324640F203112846FBF786FF5E
:104AD8000443E4B23A4644F20F012846FBF77EFF4E
:104AE8000443E4B2432240F21A212846FBF776FF3A
:104AF8000443E4B2032240F21A212846FBF76EFF72
:104B08000443E4B2324640F21A212846FBF766FF16
:104B18000443E4B23A4640F21A212846FBF75EFF06
:104B28000443E4B23A4640F219212846FBF756FFFF
:104B38000443E4B23A4640F21B212846FBF74EFFF5
:104B48000443E4B23A4647F6FF712846FBF746FFAE
:104B58000443E4B20DF1170247F6FF712846FBF74C
:104B680036FF0443E4B2324647F6FF712846FBF7A6
:104B780035FF0443E4B2092247F6FF712846FBF7E4
:104B88002DFF0443E4B2994E4FF4004332463946B0
:104B98002846FBF730FF0443E4B20A2247F6FF71C8
:104BA8002846FBF71BFF0443E4B24FF40043F21816
:104BB80039462846FBF71FFF0443E4B20B2247F6A9
:104BC800FF712846FBF70AFF0443E4B24FF4A04301
:104BD80006F5803239462846FBF70DFF0443E4B258
:104BE800012247F6FF712846FBF7F8FE0443E4B2BA
:104BF800012247F6FF712846FBF7F0FE0443E4B2B2
:104C0800032206212846FBF7E9FE0443E4B2052106
:104C18002846FBF71AFF0443E4B23A4647F6FF7109
:104C28002846FBF7DBFE0443E4B20DF1170247F612
:104C3800FF712846FBF7CBFE0443E4B201220C21A6
:104C48002846FBF7CBFE0443E4B23A4647F6FF7129
:104C58002846FBF7C3FE0443E4B23A464FF48A7190
:104C68002846FBF7BBFE0443E4B23A4640F215116E
:104C78002846FBF7B3FE0443E4B242224FF48B719B
:104C88002846FBF7ABFE0443E4B23A4640F217115C
:104C98002846FBF7A3FE0443E4B23A460B21284614
:104CA800FBF79CFE0443E4B20DF1170247F6FF71CF
:104CB8002846FBF78CFE0443E4B23A460C2128460A
:104CC800FBF78CFE0443E4B201220B212846FBF7D4
:104CD80085FE0443E4B22846FFF7F8F8044314F0CD
:104CE800FF047FF46EAE022247F6FF712846FBF7F9
:104CF80075FE0443E4B205F5A2660423324642F683
:104D0800FC712846FBF77EFE0443E4B204213046DA
:104D1800FBF77FFED5F81025354B9A4202D044F0B8
:104D280005044EE62823334A42F6D8712846FBF795
:104D380062FE0443E4B202230193FF2700974FF475
:104D48003053002204212846FFF7F0F80443E4B268
:104D58004FF4F673324642F604412846FBF752FEFA
:104D68000443E4B24FF4F472314605F1200000F038
:104D780050FE10212846FFF70FF90443E4B24FF420
:104D880042721D4905F5027000F043FE10212846C5
:104D9800FFF7C0F90443E4B24FF47373AA6942F60B
:104DA80034412846FBF727FE0443E4B2032301936A
:104DB80000974FF43053012204212846FFF7B6F834
:104DC8000443E4B204234DF6803204A92846FFF7D1
:104DD800D7FC0443E4B204234DF6641203A9284621
:104DE800FFF7CEFC0443E4B2EBE500BFB46D000866
:104DF8009E6C0B0CB8660008A061000870B584B002
:104E080005460E460DF10F01FFF733FA04469DF8EB
:104E18000F30B3420ED0012E0FD0022E5ED0002EDE
:104E280042D0FF24022247F6FF712846FBF7D6FD41
:104E38000443E4B2204604B070BD002247F6FF7177
:104E48002846FBF7CBFD0443E4B204220921284697
:104E5800FBF7C4FD0443E4B20DF10E020F2128460E
:104E6800FBF7B5FD0443E4B29DF80E30432B13D095
:104E7800012101910091062300222846FFF756F8E8
:104E88000443E4B29DF80E30432BCBD12846FFF7FC
:104E9800E9FC0443E4B2C5E740220F212846FBF7AA
:104EA8009DFD0443E4B2E3E7002247F6FF7128467C
:104EB800FBF794FD0443E4B2022209212846FBF7DC
:104EC8008DFD0443E4B200220192012100910623E2
:104ED8002846FFF72BF80443E4B2A3E7002247F67D
:104EE800FF712846FBF77AFD0443E4B20222092148
:104EF8002846FBF773FD0443E4B200220192012126
:104F0800009106232846FFF711F80443E4B2432230
:104F18000F212846FBF762FD0443E4B282E7000054
:104F28002DE9F04196B005460024139414944FF4EB
:104F3800407312930DF15701FFF710FC06466C61A0
:104F48004FF0FF0885F81080744F0DF1380C07F505
:104F58004B730FCB8CE80F000DF1080E07F54F7C53
:104F6800BCE80F00AEE80F00BCE80F00AEE80F0089
:104F78009CE80F008EE80F000F230E931F230E935B
:104F88003F230E937F230E93CDF8388040F2FF1312
:104F98000E9340F2FF330E9340F2FF730E9340F6E8
:104FA800FF730E9310E09DF85770585A67F30F106F
:104FB800585239E06A695B5AC3F30B131A446A61A1
:104FC8006B6904336B6101340B2C35D816AB03EBDA
:104FD800840353F8503C002BF5D0630916AA02EB62
:104FE800830353F8203C04F01F02D34013F0010F51
:104FF800E9D002ABA10003EB840013F8242012F0DF
:105008000F0FD7D002F00F020C2AD3D84088A0F592
:10501800A940503880B2B0F5707FC4D29DF857705F
:10502800585A67F30F10585268695B5AC3F30B1349
:1050380003FB02006861C3E76B6918336B613023B7
:105048004DF6801202A92846FFF79AFB0643F6B2EE
:105058006B6913930134149408234DF6681213A94D
:105068002846FFF78DFB46EA0004E4B210234DF60C
:1050780070120EA92846FFF783FB0443E4B200220E
:1050880047F6FF712846FBF7A9FC0443E4B2052262
:1050980009212846FBF7A2FC0443E4B2022247F6A2
:1050A800FF712846FBF79AFC0443E4B2042312AAD2
:1050B80042F6FC712846FBF79EFC0443E4B2032346
:1050C8000193FF2300934FF4305301220421284613
:1050D800FEF72CFF0443E4B205F5A2660C2345F263
:1050E800404231462846FFF7DDFA0443E4B2B5F8FA
:1050F80018256B699A4200D0FF2408234EF2C40297
:1051080031462846FFF7CEFA2043C0B295F8163547
:105118000BB140F0030016B0BDE8F0817C610008D7
:105128002DE9F04105460E46102910D0402944D0FB
:105138007F2431462846FEF72FFF0443E4B2314668
:105148002846FEF7E7FF2043C0B2BDE8F08100F52E
:10515800A26710234AF638523946FFF7A3FA0446E5
:10516800402385F8143585F816354FF0040885F87E
:10517800198510234AF6385239462846FFF700FBAE
:105188000443E4B2082345F2504239462846FFF763
:1051980089FA0443E4B285F8108585F81185082357
:1051A80085F8143585F8153545F2504239462846B4
:1051B800FFF7E6FA0443E4B2BBE700F5A267102361
:1051C8004AF638523946FFF76DFA0446102385F837
:1051D800143585F81635012285F819254AF638520E
:1051E80039462846FFF7CCFA0443E4B2082345F2CF
:1051F800504239462846FFF755FA0443E4B20823DB
:1052080085F8103585F81135042285F8142585F8B8
:10521800152545F2504239462846FFF7B1FA0443AE
:10522800E4B286E7F0B583B006460D460023019345
:1052380000F5A26708234AF630523946FFF732FADA
:105248000446012D17D0032D1ED07F2408234AF6CB
:10525800305239463046FFF793FA0443E4B2042348
:105268004DF664120DEB03013046FFF789FA20432F
:10527800C0B203B0F0BD012386F81135032386F8C8
:10528800133500230193E1E7032386F81135022340
:1052980086F8133501230193D8E72DE9F041064636
:1052A8000D4617469846FFF7FDF90446BDF81C2041
:1052B8000699BDF82000284400F0ABFB43463A4667
:1052C80029463046FFF75CFA2043C0B2BDE8F081BA
:1052D80000B587B08DF817100123029301930DF1E3
:1052E80017030093042345F2584200F5A261FFF723
:1052F800D4FF07B05DF804FB00B587B005918A1E9E
:1053080040F2E6339A4203D97F2007B05DF804FBE8
:105318004FF47A7303FB01F10591002302930423F0
:10532800019305AB0093142345F25C4200F5A2619A
:10533800FFF7B3FFE9E770B586B005464FF00113F4
:105348000493012924D00C238DF8173005F5A266A3
:10535800002302930423019304AB009308234BF228
:10536800E06231462846FFF798FF0446112302936E
:10537800012301930DF117030093142345F288428A
:1053880031462846FFF789FF2043C0B206B070BDFA
:1053980001238DF8113004238DF81730D6E700006B
:1053A80070B582B005460C464A4B93E8030002AB41
:1053B80003E9030000230CE003EB4302900004EB35
:1053C80082022158890021505168890051600133B7
:1053D800DBB23F2B6AD8227A013A122AF7D801A108
:1053E80051F822F0C153000839540008D753000877
:1053F80051540008D7530008D7530008D753000862
:1054080069540008D7530008D7530008D753000839
:10541800D753000881540008D7530008D753000811
:10542800D7530008D7530008D753000899540008E9
:1054380003EB4302900004EB82022158C902215079
:105448005168C9025160C2E703EB4302900004EBC4
:1054580082022158C90121505168C9015160B6E73B
:1054680003EB4302900004EB82022158C902215049
:105478005168C9025160AAE703EB4302900004EBAC
:1054880082022158090221505168090251609EE7A1
:1054980003EB4302900004EB82022158C1EB014167
:1054A80021505168C1EB0141516090E708234BF648
:1054B800F01269462846FFF763F906464FF4407331
:1054C8004BF2E86221462846FFF75AF93043C0B24A
:1054D80002B070BDB4BD0108DFF834D0FEF7E2F9C0
:1054E8000C480D490D4A002302E0D458C450043337
:1054F800C4188C42F9D30A4A0A4C002301E013600D
:105508000432A242FBD300F05DFAFBF72FFA704792
:105518000000022000000020A8000020D0BD0108E3
:10552800A8000020A8310020FEE70000002310B5E5
:105538000446C0E90033C0E90433836081814366CF
:10554800C2818361194608225C3000F0E7F90D4BEF
:1055580063620D4BA3620D4BE3620D4B23630D4B4E
:1055680024629C4206D003F16802944202D0D033F0
:105578009C4205D104F15800BDE8104000F046BA3D
:1055880010BD00BF7557000897570008CF5700088F
:10559800F35700085C300020024A0349034800F032
:1055A80069B800BF4C000020315D00085C00002095
:1055B80041680C4B994210B5044601D000F0B4FB89
:1055C800A168094B994202D0204600F0ADFBE16882
:1055D800064B994204D02046BDE8104000F0A4BB19
:1055E80010BD00BF5C300020C43000202C310020EA
:1055F80010B50B4B0B4C0C4A1A60204600220421B4
:10560800FFF794FF04F1680001220921FFF78EFFDC
:1056180004F1D0000222BDE810401221FFF786BF36
:10562800943100205C300020A1550008014800F0AA
:10563800EEB900BF9D310020014800F0E9B900BF74
:105648009D31002010B50446FFF7F0FF236A1BB117
:10565800BDE81040FFF7F0BF044B2362044B1B6802
:10566800002BF5D1FFF7C4FFF2E700BFB9550008DA
:10567800943100202DE9F843074688461446002651
:10568800D4E90195B9F1010905D52468002CF7D1B1
:105698003046BDE8F883AB89012B07D9B5F90E3040
:1056A800013303D029463846C04706436835E9E741
:1056B800036A70B5846805460E460BB9FFF7C2FF4A
:1056C800636EDB0705D4A389980502D4A06D00F0AA
:1056D8009EF9A389190702D52369002B35D12146E4
:1056E800284600F0C5F880B34FF0FF35636EDA073F
:1056F80005D4A3899B0502D4A06D00F089F928463A
:1057080070BD002B15DB23685A1C22601970A36832
:1057180016F8011F013BA3600029F2D1002B16DA0D
:1057280022460A21284600F064F80130DCD00A2518
:10573800DCE7A2699A4201DC0A29E4D1224628461C
:1057480000F057F80130E2D1CEE7013EDFE72368E9
:105758005A1C22600A221A70E9E70000024B01462F
:105768001868FFF7A5BF00BF5800002010B50C4609
:10577800B1F90E1000F0FCF80028ABBF636DA389E7
:105788001B1823F48053ACBF6365A38110BD2DE9BA
:10579800F0411F468B89DB0505460C46164605D5A4
:1057A800B1F90E100223002200F0D0F8A389B4F951
:1057B8000E1023F48053A38132463B462846BDE8A9
:1057C800F04100F0E7B810B50C46B1F90E1000F042
:1057D800BDF8431CA38915BF606523F4805343F4C7
:1057E8008053A38118BFA38110BDB1F90E1000F03A
:1057F8009DB8F8B50E461446054618B1036A0BB9AC
:10580800FFF720FFA369A360A3891A0701D52369BD
:1058180043B92146284600F02BF818B14FF0FF375E
:105828003846F8BD23682269981A6369F6B283423C
:10583800374605DC2146284600F076FA0028EDD1E7
:10584800A368013BA36023685A1C22601E7062692A
:10585800431C9A4204D0A389DB07E1D50A2EDFD185
:105868002146284600F060FA0028D9D0D6E7000083
:1058780038B5294B054618680C4618B1036A0BB9A8
:10588800FFF7E0FEB4F90C30190722D4DA0607D482
:1058980009222A6043F04003A3814FF0FF3033E030
:1058A800580712D5616B41B104F14403994202D003
:1058B800284600F0BDF800236363A38923F024037E
:1058C800A3810023636023692360A38943F008034D
:1058D800A38123694BB9A38903F42073B3F5007F2F
:1058E80003D02146284600F06DFAB4F90C3013F0C5
:1058F80001020AD00022A26062695242A2612269B2
:1059080042B913F08000C5D138BD990758BF626904
:10591800A260F4E70020F7E758000020024403469D
:10592800934200D1704703F8011BF9E738B5064DDB
:105938000023044608462B60FDF784FF431C02D170
:105948002B6803B1236038BD9831002038B5074D66
:1059580004460846114600222A601A46FDF77CFFD5
:10596800431C02D12B6803B1236038BD9831002055
:1059780038B5074D04460846114600222A601A46E3
:10598800FDF742FF431C02D12B6803B1236038BDE9
:105998009831002038B5074D0446084611460022C4
:1059A8002A601A46FDF740FF431C02D12B6803B159
:1059B800236038BD98310020014B1868704700BF3C
:1059C8005800002070B50D4D0D4C641BA410002626
:1059D800A64209D10B4D0C4C00F0C0FB641BA4106F
:1059E8000026A64205D170BD55F8043B98470136FC
:1059F800EEE755F8043B98470136F2E7C8BD0108C1
:105A0800C8BD0108C8BD0108CCBD01087047704772
:105A180070470A44914200F1FF3300D1704710B536
:105A280011F8014B03F8014F9142F9D110BD000064
:105A380038B50546002941D051F8043C0C1F002B0D
:105A4800B8BFE41800F0E0F81D4A136833B9636082
:105A580014602846BDE8384000F0DCB8A34208D9F5
:105A6800206821188B4201BF19685B6809182160FA
:105A7800EDE71A465B680BB1A342FAD911685018D2
:105A8800A0420BD120680144501883421160E0D134
:105A980018685B68536008441060DAE702D90C2381
:105AA8002B60D6E7206821188B4204BF19685B6811
:105AB800636004BF091821605460CAE738BD00BF9D
:105AC800A431002070B50F4E0C463168054611B957
