:020000040800F2
:1000000000000220E9E900087D3A00087F3A000874
:10001000813A0008833A0008853A00080000000091
:10002000000000000000000000000000873A000807
:10003000893A0008000000008B3A00088D3A000859
:1000400039EA000839EA000839EA000839EA000804
:1000500039EA000839EA000839EA000839EA0008F4
:1000600039EA000839EA00088F3A000839EA00083E
:1000700039EA000839EA000839EA000839EA0008D4
:10008000993A000839EA000839EA0008000000003F
:1000900000000000000000000000000039EA000835
:1000A00039EA0008A93A000839EA000839EA0008E4
:1000B000B93A000839EA000839EA000839EA0008C4
:1000C00039EA000839EA000839EA000839EA000884
:1000D00039EA000839EA000839EA0008000000009F
:1000E000F93A000839EA000839EA0008000000007F
:1000F00000000000000000000000000039EA0008D5
:100100000000000039EA0008053B000839EA000851
:1001100000000000000000000000000000000000DF
:1001200039EA000839EA000839EA000839EA000823
:1001300039EA000800000000000000000000000094
:1001400000000000000000000000000039EA000884
:1001500039EA000839EA000839EA000839EA0008F3
:1001600039EA000839EA0008000000000000000039
:10017000000000000000000000000000000000007F
:100180000000000039EA0008000000000000000044
:0801900039EA000839EA000811
:100198007BB972B90029BEBF00204FF0004106E0CC
:1001A80008BF00281CBF6FF000414FF0FF3000F07F
:1001B80081B9ADF1080C6DE904CE002909DB002BEB
:1001C8001ADB0EF0A3FCDDF804E0DDE9022304B03D
:1001D8007047404261EB4101002B1BDB0EF096FC9F
:1001E800DDF804E0DDE9022304B0404261EB41019F
:1001F800524263EB43037047524263EB43030EF0F2
:1002080085FCDDF804E0DDE9022304B0404261EB3F
:1002180041017047524263EB43030EF077FCDDF86F
:1002280004E0DDE9022304B0524263EB4303704764
:1002380053B94AB9002908BF00281CBF4FF0FF3145
:100248004FF0FF3000F036B9ADF1080C6DE904CE7F
:100258000EF05CFCDDF804E0DDE9022304B0704731
:1002680070B54FF0FF0C4CF4E06C1CEA11541DBF44
:100278001CEA135594EA0C0F95EA0C0F00F0DEF80F
:100288002C4481EA030621EA4C5123EA4C5350EAF4
:10029800013518BF52EA033541F4801143F4801345
:1002A80038D0A0FB02CE4FF00005E1FB02E506F0D6
:1002B8000042E0FB03E54FF00006E1FB03569CF02B
:1002C800000F18BF4EF0010EA4F1FF04B6F5007F31
:1002D80064F5407404D25FEA4E0E6D4146EB0606A3
:1002E80042EAC62141EA55514FEAC52040EA5E502C
:1002F8004FEACE2EB4F1FD0C88BFBCF5E06F1ED8D6
:10030800BEF1004F08BF5FEA500E50F1000041EB0C
:10031800045170BD06F0004646EA010140EA0200B9
:1003280081EA0301B4EB5C04C2BFD4EB0C0541EADB
:10033800045170BD41F480114FF0000E013C00F3F0
:10034800AB8014F1360FDEBF002001F0004170BD14
:10035800C4F10004203C35DA0C341BDC04F114042D
:10036800C4F1200500FA05F320FA04F001FA05F2B9
:1003780040EA020001F0004221F0004110EBD37086
:1003880021FA04F642EB06015EEA430E08BF20EAB2
:10039800D37070BDC4F10C04C4F1200500FA04F355
:1003A80020FA05F001FA04F240EA020001F00041E7
:1003B80010EBD37041F100015EEA430E08BF20EA5A
:1003C800D37070BDC4F1200500FA05F24EEA020EA2
:1003D80020FA04F301FA05F243EA020321FA04F0D1
:1003E80001F0004121FA04F220EA020000EBD37088
:1003F8005EEA430E08BF20EAD37070BD94F0000F88
:100408000FD101F00046400041EB010111F4801FBB
:1004180008BF013CF7D041EA060195F0000F18BF6C
:10042800704703F00046520043EB030313F4801FA8
:1004380008BF013DF7D043EA0603704794EA0C0F62
:100448000CEA135518BF95EA0C0F0CD050EA410678
:1004580018BF52EA4306D1D181EA030101F00041F5
:100468004FF0000070BD50EA410606BF104619461D
:1004780052EA430619D094EA0C0F02D150EA013629
:1004880013D195EA0C0F05D152EA03361CBF10466A
:1004980019460AD181EA030101F0004141F0FE4109
:1004A80041F470014FF0000070BD41F0FE4141F48D
:1004B800780170BD704700BF81F0004102E000BFC5
:1004C80083F0004330B54FEA41044FEA430594EA0C
:1004D800050F08BF90EA020F1FBF54EA000C55EA47
:1004E800020C7FEA645C7FEA655C00F0E2804FEA18
:1004F8005454D4EB5555B8BF6D420CDD2C4480EAFA
:10050800020281EA030382EA000083EA010180EA29
:10051800020281EA0303362D88BF30BD11F0004F77
:100528004FEA01314FF4801C4CEA113102D04042AD
:1005380061EB410113F0004F4FEA03334CEA1333E8
:1005480002D0524263EB430394EA050F00F0A78000
:10055800A4F10104D5F1200E0DDB02FA0EFC22FAFB
:1005680005F2801841F1000103FA0EF2801843FAEF
:1005780005F359410EE0A5F120050EF1200E012AE0
:1005880003FA0EFC28BF4CF0020C43FA05F3C0181E
:1005980051EBE37101F0004507D54FF0000EDCF197
:1005A800000C7EEB00006EEB0101B1F5801F1BD340
:1005B800B1F5001F0CD349085FEA30004FEA3C0C44
:1005C80004F101044FEA445212F5800F80F09A803A
:1005D800BCF1004F08BF5FEA500C50F1000041EB3E
:1005E800045141EA050130BD5FEA4C0C404141EB42
:1005F8000101013C28BFB1F5801FE9D291F0000F3D
:1006080004BF01460020B1FA81F308BF2033A3F1EB
:100618000B03B3F120020CDA0C3208DD02F1140CE2
:10062800C2F10C0201FA0CF021FA02F10CE002F11D
:100638001402D8BFC2F1200C01FA02F120FA0CFC16
:10064800DCBF41EA0C019040E41AA2BF01EB04515F
:10065800294330BD6FEA04041F3C1CDA0C340EDC5D
:1006680004F11404C4F1200220FA04F001FA02F3A0
:1006780040EA030021FA04F345EA030130BDC4F15E
:100688000C04C4F1200220FA02F001FA04F340EA53
:100698000300294630BD21FA04F0294630BD94F004
:1006A800000F83F4801306BF81F480110134013DEB
:1006B8004EE77FEA645C18BF7FEA655C29D094EA5C
:1006C800050F08BF90EA020F05D054EA000C04BFDA
:1006D8001946104630BD91EA030F1EBF00210020C5
:1006E80030BD5FEA545C05D14000494128BF41F064
:1006F800004130BD14F580043CBF01F5801130BDC8
:1007080001F0004545F0FE4141F470014FF0000052
:1007180030BD7FEA645C1ABF194610467FEA655C03
:100728001CBF0B46024650EA013406BF52EA0335A5
:1007380091EA030F41F4002130BD00BF90F0000F93
:1007480004BF0021704730B54FF4806404F13204CF
:100758004FF000054FF0000150E700BF90F0000F88
:1007680004BF0021704730B54FF4806404F13204AF
:1007780010F0004548BF40424FF000013EE700BF7F
:1007880042004FEAE2014FEA31014FEA02701FBF0F
:1007980012F07F4393F07F4F81F06051704732F041
:1007A8007F4208BF704793F07F4F04BF41F4002198
:1007B800704730B54FF4607401F0004521F00041F6
:1007C8001CE700BF50EA010208BF704730B54FF080
:1007D80000050AE050EA010208BF704730B511F081
:1007E800004502D5404261EB41014FF4806404F1B9
:1007F80032045FEA915C3FF4D8AE4FF003025FEA3F
:10080800DC0C18BF03325FEADC0C18BF033202EBC2
:10081800DC02C2F1200300FA03FC20FA02F001FA1C
:1008280003FE40EA0E0021FA02F11444BDE600BFBF
:100838004A0011D212F5001211D20DD56FF4787357
:10084800B3EB62520ED44FEAC12343F0004343EAAC
:10085800505323FA02F070474FF00000704750EAF7
:10086800013002D14FF0FF3070474FF00000704761
:1008780010B5054C237833B9044B13B10448AFF3D2
:1008880000800123237010BD7800002000000000C4
:10089800D0ED000808B5034B1BB103490348AFF37B
:1008A800008008BD000000007C000020D0ED00089A
:1008B800354B1B78012B62D02DE9F04387B0002619
:1008C8000096324B1A6B42F002021A631B6B03F05C
:1008D80002030093009B4FF48078CDF804804FF01A
:1008E8001109CDF8089001250395294C01A9204646
:1008F80001F0DAF84FF400770197CDF808900395E6
:1009080001A9204601F0D0F82A464146204601F0C8
:100918003EFA2A463946204601F039FA20E01C4DB5
:1009280000224FF48071284601F031FA012000F0CE
:1009380081FE01224FF48071284601F028FA012037
:1009480000F078FE0134E4B2092CE8D90136F6B299
:100958004FF400710E4801F013FA18B9062E01D8A9
:100968000024F1E74FF40071094801F009FA40B199
:10097800054B01221A70002007B0BDE8F083002063
:1009880070476FF00400F7E7940000200038024039
:100998000004024070B584B016461D468DF80F104D
:1009A80084B26421009101230DF10F022146084809
:1009B80001F064FD08B104B070BD642305FB03F3C6
:1009C8000093ABB232462146014801F013FEF2E72C
:1009D800A452012030B587B00546084611461C468A
:1009E8008DF808001A460DF109000EF061F8631C35
:1009F800642200929BB202AAA9B2024801F03EFD0D
:100A080007B030BDA452012008B50223064A1221BE
:100A18008620FFF7DFFF00B108BD0223034A122139
:100A28008420FFF7D7FFF7E7980000209A000020FE
:100A38002B4A1368591C11600BB10020704710B580
:100A480082B0FFF735FF044603F02AF9204301D0AE
:100A580002B010BD022301AA00218620FFF79AFFE9
:100A68000028F5D19DF80430002BF1D19DF8053010
:100A7800162BEDD1022301AA00218420FFF78AFF5B
:100A88000028E5D19DF80430002BE1D19DF8053010
:100A9800162BDDD1134B00221A60FF238DF804308A
:100AA8008DF80530022301AA14218620FFF792FF52
:100AB8000028CDD1FF238DF80430BF238DF80530F1
:100AC800022301AA14218420FFF784FF0028BFD144
:100AD800044B6FF0C0221A60FFF796FFB8E700BF1B
:100AE8009C0000209800002008B5012805D00228A5
:100AF80023D090B14FF0FF3008BD184AD37803F0E7
:100B08007F03D37011B163F07F03D3700123144ABC
:100B180013218420FFF75EFFEEE7104A537803F0B5
:100B2800BF03537011B143F04003537001230D4AC2
:100B380013218620FFF74EFFDEE7084A537803F0BB
:100B48007F03537011B163F07F0353700123054A8B
:100B580013218620FFF73EFFCEE700BF9800002054
:100B68009B0000209900002030B589B0054652232B
:100B7800ADF81030204B0293204B0393204B059384
:100B8800204B0693204B079346F678731F4C03FBC4
:100B9800004402A920460DF00AFF08BB01A920461F
:100BA8000DF00CFDF8B9019A4EF6CC239A421DD1EE
:100BB800174B184A1360184A42F825401B6820460C
:100BC8009847B0B9134B1B68DB681449124A52F8AE
:100BD8002500984708B909B030BD6FF00400FAE75E
:100BE8006FF00400F7E76FF00400F4E76FF0060019
:100BF800F1E76FF00400EEE7A93C0008C13B0008EC
:100C0800F93B0008353C0008713C0008A0000020B2
:100C180040000020184F01201C4F0120084F0120E0
:100C280002280ED808B5084B1B689B68074A52F87B
:100C380020009847002801DB002008BD6FF0040061
:100C4800FBE76FF001007047184F01201C4F01208F
:100C580002280ED808B5084B1B681B69074A52F8CA
:100C680020009847002801DB002008BD6FF0040031
:100C7800FBE76FF001007047184F01201C4F01205F
:100C8800022811D808B50B4B9B6883B10A4B1B6827
:100C98005B690A4A52F820009847002801DB0020C7
:100CA80008BD6FF00400FBE76FF0010070476FF0BC
:100CB8000A00F5E7084F0120184F01201C4F0120BA
:100CC80002280ED808B5084B1B68DB69074A52F89A
:100CD80020009847002801DB002008BD6FF00400C1
:100CE800FBE76FF001007047184F01201C4F0120EF
:100CF80002280ED808B5084B1B681B6A074A52F829
:100D080020009847002801DB002008BD6FF0040090
:100D1800FBE76FF001007047184F01201C4F0120BE
:100D280002280ED808B5084B1B689B6A074A52F878
:100D380020009847002801DB002008BD6FF0040060
:100D4800FBE76FF001007047184F01201C4F01208E
:100D5800022819D808B561B101291BD10021C0B2F8
:100D6800FFF7C2FE002818DB022000F063FC002019
:100D780008BD0121C0B2FFF7B7FE002807DB02203B
:100D880000F058FC0020F3E76FF0010070476FF0A7
:100D98000300EDE76FF00100EAE76FF00300E7E713
:100DA800022810D810B50446FFF742FE70B9012199
:100DB8002046FFF7CDFF00212046FFF7C9FF204658
:100DC800FFF7D2FE10BD6FF0010070476FF003000F
:100DD800F8E70000F0B583B0002405E001212046C3
:100DE800FFF7B6FF0134E4B2022CF7D9002401E082
:100DF8000134E4B2022C1BD800212046FFF7A8FFDB
:100E08002046FFF7CDFF294B1860B0FA80F0400963
:100E1800274B18550028EBD004F12A01490089B264
:100E28002046FFF77DFF01A92046FFF7F9FEDFE71F
:100E3800204B93ED007ADFED206AC6EE877A1F4DCE
:100E4800FCEEE77AC5ED017A0027AF600126EE6077
:100E58002E611B4C082323700C226270A270E37071
:100E680029463846FFF7F4FE29463046FFF7F0FEDC
:100E780029460220FFF7ECFE21463846FFF700FF1F
:100E880021463046FFF7FCFE21460220FFF7F8FE18
:100E980003213846FFF72CFF03213046FFF728FFD0
:100EA80003210220FFF724FF03B0F0BD0450012006
:100EB800005001200C50012000007A4430500120DD
:100EC8000850012082B08DF804008DF805108DF8C7
:100ED80006208DF807309DED010A02B0704782B0F8
:100EE8008DF804008DF805108DF806208DF8073070
:100EF800019802B07047000038B52D490020FFF76F
:100F0800DFFE2C490120FFF7DBFE2B490220FFF70B
:100F1800D7FE002402E0FF2D0FD00134032C12DC91
:100F2800221D234B03EB82039D68002DF3D1482239
:100F38001F4922480DF0BCFDEDE748221C491F4817
:100F48000DF0B6FDE9E7002402E0FF2D0FD00134D3
:100F5800032C12DC221D174B03EB82039D68002D26
:100F6800F3D14822134916480DF0A2FDEDE74822B7
:100F7800104913480DF09CFDE9E7002402E0FF2D1D
:100F88000FD00134032C12DC221D0B4B03EB820320
:100F98009D68002DF3D1482207490A480DF088FDC5
:100FA800EDE74822044907480DF082FDE9E738BD1E
:100FB800B84F0120704F0120284F0120D450012044
:100FC8008C5001204450012038B54F4C4FF0FF336E
:100FD80003224E49204602F07EFC4D4D69680139D6
:100FE80005EB81014FF0FF3304220831204602F05F
:100FF80072FC6968073105EB81014FF0FF33042269
:101008000831204602F067FC69680B3105EB810165
:101018004FF0FF3304220831204602F05CFC6B6875
:10102800033305EB83014FF0FF33042208312046D8
:1010380002F051FC374D6968013905EB81014FF029
:10104800FF3304220831204602F045FC6968073165
:1010580005EB81014FF0FF3304220831204602F0EE
:101068003AFC69680B3105EB81014FF0FF3304222C
:101078000831204602F02FFC6B68033305EB83012F
:101088004FF0FF3304220831204602F024FC224DA1
:101098006968013905EB81014FF0FF3304220831FB
:1010A800204602F018FC6968073105EB81014FF012
:1010B800FF3304220831204602F00DFC69680B3129
:1010C80005EB81014FF0FF3304220831204602F07E
:1010D80002FC6B68033305EB83014FF0FF330422F6
:1010E8000831204602F0F7FB4FF0FF3304220B498A
:1010F800204602F0F0FB4FF0FF3303220849204658
:1011080002F0E9FB38BD00BF7C510120040000203B
:10111800D45001208C500120445001201850012047
:10112800000000200A4B1B68012B04D0022B06D0BC
:10113800032B08D07047074A01211160F6E7054ADA
:1011480002211160F4E7034B03221A60F2E700BFA3
:10115800105001203050012010B50446837942799F
:101168000179C078FFF7BBFE064B1860A37A627A54
:10117800217AE079FFF7A6FE034B83ED000AFFF71B
:10118800D1FF10BD105001200C50012038B5054684
:10119800114BD3ED007AF8EE677A87EE807ADFEDAF
:1011A8000F7A67EE277AFCEEE77A17EE904AB4F5E5
:1011B800803F01D34FF6FF74631C07EE903AF8EEB8
:1011C800677AC7EE277A17EE900A0DF07FFCAC62BB
:1011D800E86201236B6138BD1000002000008037F1
:1011E80010B5154C01230E222146144802F0D9FBF4
:1011F80023784A2B00D010BD63785F2BFBD1A378EE
:10120800412BF8D1E37A412BF5D1237B5F2BF2D127
:10121800637B4A2BEFD10A4B01221A702046FFF755
:101228009BFF4FF08040074B93ED000AFFF7AEFF9E
:10123800054801F09FFFDEE7205001207C51012086
:101248001C5001200C5001200C52012000B583B025
:1012580000210191094B1A6B42F400121A631B6BAF
:1012680003F400130193019B0A46102000F04AFA88
:10127800102000F057FA03B05DF804FB0038024074
:10128800F0B58BB00024059406940794089409944B
:101298000094474B1A6B42F004021A631A6B02F06F
:1012A80004020092009A01941A6B42F080021A63B9
:1012B8001A6B02F080020192019A02941A6B42F0B2
:1012C80001021A631A6B02F001020292029A039455
:1012D8001A6B42F002021A631A6B02F002020392BE
:1012E800039A04941A6B42F008021A631B6B03F00A
:1012F80008030493049B2F4E22462021304600F019
:1013080046FD4FF4005305934FF488130693079452
:10131800294F05A9384600F0C7FB41F6FF7305932E
:1013280003250695079405A9384600F0BDFB49F644
:10133800C37305930695079405A9304600F0B4FBDE
:10134800102305934FF4041306930127079705A963
:10135800304600F0A9FB20230593069707940894CC
:1013680005A9304600F0A0FB4FF2F7430593069518
:10137800079405A9114800F097FB042305930695E7
:10138800079405A90E4800F08FFB224621460A2043
:1013980000F0B8F90A2000F0C5F9224621462820B5
:1013A80000F0B0F9282000F0BDF90BB0F0BD00BF87
:1013B80000380240000002400008024000040240D9
:1013C800000C024008B50268034B9A4200D008BDE1
:1013D80000F01EF9FBE700BF0000014072B6FEE70F
:1013E80000B587B0002302930393049305930093F9
:1013F800019314484FF08042026040F2E7324260A5
:101408008360C26003618023836101F0F9FF90B9B2
:101418004FF48053029302A90A4802F02AF860B9EF
:101428000023009301936946064802F0A1F830B9F9
:1014380007B05DF804FBFFF7D1FFFFF7CFFFFFF719
:10144800CDFF00BF0C52012008B50D480D4B0360BD
:101458004FF4E11343604FF4805383604FF400531B
:10146800C3604FF4806303610C23436100238361ED
:10147800C36102F000FA00B908BDFFF7AFFF00BF73
:101488007C5101200044004000B587B0002302933E
:10149800039304930593009301931348134A02603E
:1014A800436083604FF0FF32C26003618023836131
:1014B80001F0A6FF90B94FF48053029302A90A489D
:1014C80001F0D7FF60B900230093019369460648ED
:1014D80002F04EF830B907B05DF804FBFFF77EFF65
:1014E800FFF77CFFFFF77AFFC4510120000C004092
:1014F80000B595B03022002108A80DF09AFA002313
:101508000393049305930693079301931E4A116C62
:1015180041F080511164126C02F080520192019ADC
:1015280002931A4A116841F440411160126802F4AA
:1015380040420292029A0222089201210B91102144
:101548000C910E920F930823109364231193129217
:101558000423139308A801F07FFA88B90F23039393
:1015680002230493002305934FF4805206920793B5
:10157800032103A801F0DAFC20B915B05DF804FBDB
:10158800FFF72CFFFFF72AFF0038024000700040E9
:1015980008B500F023F8FFF7ABFFFFF771FEFFF780
:1015A80055FEFFF71DFFFFF74FFFFFF76DFF094BD4
:1015B8001B78012B02D0FFF713FEF8E7FFF70AFCB0
:1015C800054B1B78012BFBD1FFF796FC024B002241
:1015D8001A70F5E71C5001201450012008B50B4B78
:1015E8001A6842F400721A601A6842F480621A603B
:1015F8001A6842F480721A60032000F071F8032020
:1016080001F0F6FF01F07AF9002008BD003C024025
:10161800034A1168034B1B780B441360704700BFE3
:101628005452012008000020014B1868704700BF81
:101638005452012038B50446FFF7F6FF0546B4F1C9
:10164800FF3F02D0044B1B781C44FFF7EDFF401B03
:10165800A042FAD338BD00BF08000020002807DBED
:1016680000F01F02400901239340024A42F820304B
:10167800704700BF00E100E0002808DB0901C9B29B
:1016880000F1604000F5614080F80013704700F0F9
:101698000F000901C9B2014B1954704714ED00E05D
:1016A80000B500F00700C0F1070CBCF1040F28BF1B
:1016B8004FF0040C031D062B0FD9C31E4FF0FF3E3D
:1016C8000EFA0CF021EA000199400EFA03FE22EA14
:1016D8000E0241EA02005DF804FB0023EEE7000079
:1016E800074AD36823F4E0631B041B0C000200F4D0
:1016F800E060034343F0BF6343F40033D3607047B3
:1017080000ED00E010B50446054BD868C0F3022090
:10171800FFF7C6FF01462046FFF7AEFF10BD00BF2A
:1017280000ED00E008B5FFF799FF08BD10B40368A5
:10173800D9B210390C4AA2FB014212090B4CA25C27
:10174800C2655F2909D923F47F7323F003030433A7
:101758008365806D5DF8044B704723F47F7323F035
:1017680003038365F5E700BFABAAAAAAE8ED000862
:10177800836A826992B9012B0AD0022B02D00BB17D
:1017880000207047C36A13F0807F28D1002070477B
:10179800C36AB3F1C07F24D000207047B2F5005F60
:1017A80009D0022B25D9032B25D1C36A13F0807FDA
:1017B80023D100207047032B03D8DFE803F014047B
:1017C800140A00207047C36A13F0807F0DD10020EF
:1017D8007047C36AB3F1C07F09D000207047012069
:1017E8007047012070470120704701207047012091
:1017F80070470120704700207047012070470000A3
:1018080070B50446FFF710FF002C5BD00546022395
:1018180084F83530002384F834302268136823F0C4
:101828000103136023681A6812F0010F0AD0FFF74A
:10183800FBFE431B052BF5D920236365032084F8A1
:10184800350070BD1A68204911406268A0680243DB
:10185800E06802432069024360690243A0690243C9
:10186800E0690243206A02430A43616A04291ED0E0
:101878001A602668756925F00705636A1D43042BFD
:1018880007D1A36A1D43E36A1BB12046FFF770FF27
:1018980090B975612046FFF749FFE26D3F239340F9
:1018A800836000206065012384F83530C9E7E16A68
:1018B800206B01430A43DBE740236365012084F87A
:1018C8003500BEE70120BCE73F8010F0F0B583B0DB
:1018D800044600230193724B1D68724BA3FB053528
:1018E800AD0A876D3E68C26D08239340334210D01D
:1018F80003681A6812F0040F0BD01A6822F0040269
:101908001A60C26D08239340BB60436D43F0010326
:101918004365E26D01239340334209D0226852693E
:1019280012F0800F04D0BB60636D43F0020363655F
:10193800E26D04239340334209D02268126812F002
:10194800020F04D0BB60636D43F004036365E26D6E
:1019580010239340334224D02268126812F0080FF3
:101968001FD0BB6023681A6812F4802F0DD01B6843
:1019780013F4002F04D1236C9BB12046984710E044
:10198800A36C73B1204698470BE01A6812F4807F65
:1019980003D11A6822F008021A60236C0BB12046A2
:1019A8009847E26D20239340334255D0226812684D
:1019B80012F0100F50D0BB6094F83530DBB2052B15
:1019C8000ED023681A6812F4802F33D01B6813F4E2
:1019D800002F2AD1636C002B3ED0204698473BE06D
:1019E8002268136823F0160313602268536923F0F2
:1019F80080035361236CA3B12268136823F00803A2
:101A08001360E26D3F239340BB60012384F83530B7
:101A1800002384F83430236D002B3FD020469847AC
:101A28003CE0A36C002BE7D1EBE7E36BA3B12046C6
:101A3800984711E01A6812F4807F09D11A6822F0D9
:101A480010021A60012384F83530002384F83430FA
:101A5800E36B0BB120469847636DFBB1636D13F0E0
:101A6800010F17D0052384F835302268136823F056
:101A780001031360019B01330193AB4204D823682F
:101A88001B6813F0010FF5D1012384F835300023CA
:101A980084F83430E36C0BB12046984703B0F0BDAE
:101AA80010000020B5814E1B00230F2B00F2D780B9
:101AB80070B582B065E085684FEA430E032404FAE6
:101AC8000EF425EA0405CC6804FA0EF42C4384606D
:101AD800446824EA02044A68C2F300129A40224386
:101AE80042605CE0DC08083450F8242003F0070565
:101AF800AD004FF00F0E0EFA05FE22EA0E0E0A692F
:101B0800AA4042EA0E0240F824205CE0042200E0E9
:101B1800002202FA0EF22A430234514D45F82420DD
:101B2800504A94686FEA0C0224EA0C054E6816F4D1
:101B3800801F01D04CEA04054A4CA560E46802EA1B
:101B480004054E6816F4001F01D04CEA0405454C04
:101B5800E560646802EA04054E6816F4003F01D0A7
:101B68004CEA04053F4C6560246822404D6815F432
:101B7800803F01D04CEA04023A4C226001330F2B1B
:101B88006BD801229A400C6804EA020C32EA040479
:101B9800F4D14C6804F00304013C012C8BD94A6849
:101BA80002F00302032A09D0C4685D000322AA4098
:101BB80024EA02048A68AA402243C2604A6802F002
:101BC8000302022A8ED004684FEA430E032202FA67
:101BD8000EF224EA02044A6802F0030202FA0EF244
:101BE800224302604A6812F4403FC7D000220192A3
:101BF8001D4A546C44F480445464526C02F480428C
:101C08000192019A9C08A51C154A52F8255003F028
:101C1800030E4FEA8E0E0F2202FA0EF225EA020593
:101C2800124A90423FF474AF02F5806290420ED09F
:101C380002F5806290420CD002F5806290420AD090
:101C480002F5806290423FF461AF072261E701220A
:101C58005FE702225DE703225BE702B070BD7047D1
:101C680000380140003C01400038024000000240BA
:101C780000230F2B7CD8F0B52DE0042500E00025CB
:101C880005FA0CF5A54257D004685D004FF0030C27
:101C98000CFA05FC24EA0C0404604FEAD30E0EF19A
:101CA800080E50F82E4003F00706B6000F25B54081
:101CB80024EA050440F82E40C46824EA0C04C460F1
:101CC800446824EA02024260826822EA0C028260C6
:101CD80001330F2B4BD801229A4002EA010632EA5F
:101CE8000104F5D14FEA930E0EF10205214C54F888
:101CF800254003F0030C4FEA8C0C0F2505FA0CF76E
:101D08003C401D4DA842BAD005F58065A8420DD0CB
:101D180005F58065A8420BD005F58065A84209D075
:101D280005F58065A842A8D00725A9E70125A7E7FA
:101D38000225A5E70325A3E7104C256825EA060533
:101D48002560656825EA06056560E56825EA0605F3
:101D5800E560A56825EA0605A560064E0EF10204B1
:101D680056F8245025EA070546F824508CE7F0BDBC
:101D7800704700BF0038014000000240003C0140AD
:101D88000369194201D001207047002070470AB149
:101D980081617047090481617047436901EA030260
:101DA80021EA030141EA024181617047704700005E
:101DB80008B5054B5B69034200D108BD024B586169
:101DC800FFF7F4FFF9E700BF003C014003685A69D8
:101DD80012F4806F01D1002070476FF480625A615D
:101DE80000230363202280F83D2080F83E30026CF7
:101DF80042F00402026480F83C30012070472DE96B
:101E0800F04106460C46174698463BE0FFF70CFCA7
:101E1800069BC01A404502D8B8F1000F32D1012DF7
:101E280018D033689B6924EA03039BB2B3FA83F39F
:101E38005B099F4226D100233363202286F83D2088
:101E480086F83E30326C42F02002326486F83C302C
:101E5800012027E033685B6924EA03039BB2B3FAE5
:101E680083F35B09E5E733685B6924EA030C1FFA2F
:101E78008CFCBCFA8CFC4FEA5C1C674511D1B8F1AC
:101E8800FF3FC3D1C4F30745012DECD033689B69EC
:101E980024EA030C1FFA8CFCBCFA8CFC4FEA5C1C8D
:101EA800EBE70020BDE8F0812DE9F84305460E4632
:101EB8009046994653E01A6842F400721A602B68FB
:101EC8006FF480625A6100232B63202285F83D203D
:101ED80085F83E302A6C42F004022A6485F83C30CA
:101EE80001204AE0FFF7A0FBA0EB0900404502D81B
:101EF800B8F1000F33D1012F17D02B689B6926EA60
:101F080003039BB2003B18BF012343B300232B6399
:101F1800202285F83D2085F83E302A6C42F02002C8
:101F28002A6485F83C30012027E02B685B6926EAA3
:101F380003039BB2003B18BF0123E6E72B689C69AB
:101F480026EA0404A4B2003C18BF0124A4B12B68FB
:101F58005A6912F4806FAED1B8F1FF3FC2D1C6F30F
:101F68000747012FEAD12B685C6926EA0404A4B26A
:101F7800003C18BF0124E9E70020BDE8F883000011
:101F8800F0B583B004460D4616461F46C36A082BB3
:101F98000DD0012B0BD013F5803F08D0036B122B0B
:101FA8000AD10268136843F48073136004E022685E
:101FB800136843F4807313600097334600224FF090
:101FC80001112046FFF71BFF80B92369B3F5804F45
:101FD80016D1236805F0FE051D613B4632461349BC
:101FE8002046FFF761FFF8B903B0F0BD23681B680E
:101FF80013F4807F02D04FF4007323640320F3E7C7
:10200800EB11226803F0060343F0F00313613B462B
:10201800324607492046FFF747FF18B92368EDB253
:102028001D61DAE70120DFE70120DDE7020001009A
:10203800080001002DE9F04184B004460D4616461B
:102048001F46C26A01680B6843F480630B60082A64
:102058000DD0012A0BD012F5803F08D0036B112B4D
:102068000AD10268136843F48073136004E022689D
:10207800136843F4807313600097334600224FF0CF
:1020880001112046FFF7BBFE98B92369B3F5804FCD
:1020980019D1236845F00105EDB21D613B46324672
:1020A8002A492046FFF700FF00284CD104B0BDE8BC
:1020B800F08123681B6813F4807F02D04FF400730B
:1020C80023640320F2E74FEAE51808F006082368BE
:1020D80048F0F0021A613B4632461D492046FFF798
:1020E800E3FE08B10120E1E72368EDB21D613B463C
:1020F800324616492046FFF7D7FE08B10120D5E73A
:1021080000220392236859690391996903910399FD
:10211800196841F480711960009733464FF0011136
:102128002046FFF76CFE20B9226848F0F1031361DE
:10213800B4E723681B6813F4807F02D04FF4007360
:1021480023640320B2E70120B0E700BF02000100CA
:102158000800010070B504460D46164623685B6901
:1021680013F0800F21D12046FFF730FEF8B9B5F102
:10217800FF3FF3D0FFF758FA801BA84201D8002D83
:10218800ECD123685B6913F0800FE7D10023236348
:10219800202284F83D2084F83E30226C42F0200250
:1021A800226484F83C30012000E0002070BD01204A
:1021B800FCE770B504460D46164623685B6913F0C4
:1021C800040F21D12046FFF701FEF8B9B5F1FF3F12
:1021D800F3D0FFF729FA801BA84201D8002DECD1D3
:1021E80023685B6913F0040FE7D1002323632022DF
:1021F80084F83D2084F83E30226C42F020022264AC
:1022080084F83C30012000E0002070BD0120FCE78C
:1022180070B504460D46164614E06FF010025A6178
:1022280000232363202284F83D2084F83E30226C6A
:10223800226484F83C30012025E023685B6913F0B0
:10224800400F10D02368586910F0400F1AD1586910
:1022580010F0100FE1D1FFF7E7F9801BA842ECD886
:10226800002DEFD1E9E700232363202284F83D20E5
:1022780084F83E30226C42F02002226484F83C301C
:10228800012000E0002070BD70470000002800F029
:10229800CC8070B5044690F83D30002B77D02423CD
:1022A80084F83D302268136823F001031360226824
:1022B800136843F4004313602268136823F400434F
:1022C800136000F0E9FE62685A4B9A4264D85A4B90
:1022D80098428CBF00230123002B40F0A880574967
:1022E800A1FB00318B0C25686A6822F03F0242EAA4
:1022F80091426A6021680A6A22F03F0266684D4D81
:10230800AE424FD8013313430B622168CA6922F4E5
:102318004F4222F0FF026568464B9D424CD8431E4F
:102328006D00B3FBF5F3013340F6FC70034278D03F
:10233800C3F30B031A43CA6121680B6823F0C00377
:10234800E269206A024313430B6021688B6823F417
:10235800034323F0FF032269E068024313438B60C1
:102368002168CB6823F0FF036269A0690243134325
:10237800CB602268136843F00103136000202064D7
:10238800202384F83D30206384F83E0070BD80F837
:102398003C30FFF779FF82E7294B98428CBF002336
:1023A800012399E74FF4967505FB03F3254DA5FB2B
:1023B80003539B090133A6E7A668BEB9431E05EB84
:1023C800450CB3FBFCF30133C3F30B03B3FA83F3FC
:1023D8005B0943BBC6B9431E05EB4505B3FBF5F3E3
:1023E8000133C3F30B0343F40043A3E7431E05EB98
:1023F800850C0CEB8C0CB3FBFCF30133C3F30B0320
:10240800B3FA83F35B09E4E7431E05EB850505EBA7
:102418008505B3FBF5F30133C3F30B0343F44043E2
:1024280088E7042386E7012384E701207047012019
:10243800ACE700BFA08601007F841E0083DE1B433B
:10244800FF083D00D34D62107047A8B110B504468F
:10245800242380F83D300268136823F001031360D9
:10246800FFF7F2FF0020206484F83D00206384F821
:102478003E0084F83C0010BD012070472DE9F04370
:1024880085B004460F46914698460C9EFFF7CCF857
:10249800054694F83D00C0B2202804D002273846EB
:1024A80005B0BDE8F0830095192301224F49204665
:1024B800FFF7A5FC002840F0928094F83C30012BEF
:1024C80000F08F80012384F83C3023681A6812F0EA
:1024D800010F03D11A6842F001021A6022681368DA
:1024E80023F400631360212384F83D30102384F81B
:1024F8003E3000232364C4F82490A4F82A80638D16
:1025080023853B4BE3622B46324639462046FFF78C
:1025180037FD0746002866D10023039323685A69CC
:1025280003929B690393039B11E0236C042B01D056
:102538000127B4E72268136843F400731360F7E7D0
:102548002A4631462046FFF734FE00282ED1238D37
:10255800002B36D02A4631462046FFF7FBFD0028DF
:10256800E3D1626A236812781A61606A431C636265
:10257800618D89B2013989B26185238D013B9BB296
:1025880023852268516911F0040FD9D0002BD7D0C8
:1025980043781361636A01336362638D9BB2013BC5
:1025A8009BB26385238D013B2385C9E7236C042BEC
:1025B80001D0012773E72268136843F4007313609E
:1025C800F7E72268136843F400731360202384F844
:1025D8003D30002384F83E3084F83C305FE7022722
:1025E8005DE702275BE7012759E700BF02001000FB
:1025F8000000FFFF2DE9F04387B004460F469146DF
:1026080098460E9EFFF710F8054694F83D00C0B2B4
:10261800202804D00227384607B0BDE8F08300958B
:102628001923012289492046FFF7E9FB002840F0D9
:102638004F8194F83C30012B00F04C81012384F841
:102648003C3023681A6812F0010F03D11A6842F06F
:1026580001021A602268136823F4006313602223BE
:1026680084F83D30102384F83E3000232364C4F8F6
:102678002490A4F82A80638D2385754BE3622B464A
:10268800324639462046FFF7D5FC0746002840F079
:102698002381238D5BB9029323685A6902929A6950
:1026A8000292029A1A6842F400721A607AE0012BC8
:1026B8000FD0022B1FD02268136843F48063136085
:1026C8000023059323685A6905929B690593059B26
:1026D80068E02268136823F480631360002303937F
:1026E80023685A6903929A690392039A1A6842F412
:1026F80000721A6056E02268136823F4806313603E
:102708002268136843F4006313600023049323686A
:102718005A6904929B690493049B43E02A46314614
:102728002046FFF775FD002840F0D88023681A6915
:10273800636A1A70636A01336362238D013B2385E0
:10274800638D9BB2013B9BB263852BE000953346BA
:10275800002240492046FFF752FB002840F0C08085
:102768002268136843F40073136023681A69636A64
:102778001A70626A531C6362238D013B2385638D43
:102788009BB2013B9BB2638523681B695370636AE4
:1027980001336362238D013B2385638D9BB2013B2B
:1027A8009BB26385218D002900F08980032953D8C5
:1027B8000129B3D00229C9D0009533460022254902
:1027C8002046FFF71CFB002840F08C802268136825
:1027D80023F48063136023681A69636A1A70636A52
:1027E80001336362238D013B2385618D89B20139F1
:1027F80089B2618500953346002216492046FFF7C5
:10280800FEFA002870D12268136843F4007313603D
:1028180023681A69636A1A70626A531C6362238D9B
:10282800013B2385638D9BB2013B9BB26385236883
:102838001B695370636A01336362238D013B2385EF
:10284800638D9BB2013B9BB26385ABE7020010002E
:102858000000FFFF040001002A4631462046FFF72A
:10286800D7FC002842D123681A69636A1A70636A20
:1028780001336362228D013A92B22285638D9BB245
:10288800013B9BB263852368596911F0040F89D015
:10289800032A0FD023681A69636A1A70636A0133BE
:1028A8006362238D013B2385638D9BB2013B9BB201
:1028B800638577E71A6822F480621A60EAE72023C2
:1028C80084F83D30002384F83E3084F83C30A2E69A
:1028D8000227A0E602279EE601279CE601279AE642
:1028E800012798E6012796E6012794E6012792E654
:1028F80090F83D007047006C7047000000B583B049
:10290800002100910C4B5A6C42F480425A645A6C74
:1029180002F480420092009A01911A6C42F08052AF
:102928001A641B6C03F080530193019B0520FEF78A
:10293800D7FE03B05DF804FB0038024000B583B051
:102948000368B3F1804F05D0174A934217D003B0FC
:102958005DF804FB0021009103F50E331A6C42F078
:1029680001021A641B6C03F001030093009B0A46E2
:102978001C20FEF7C7FE1C20FEF7D4FEE7E7002167
:1029880001910A4B1A6C42F008021A641B6C03F09E
:1029980008030193019B0A463220FEF7B3FE32205A
:1029A800FEF7C0FED3E700BF000C0040003802402D
:1029B80030B589B0002303930493059306930793D6
:1029C8000268214B9A4201D009B030BD0446002567
:1029D800019503F5FA331A6C42F400321A641A6C42
:1029E80002F400320192019A02951A6B42F0010238
:1029F8001A631B6B03F001030293029B0C230393DE
:102A0800022304930723079303A91048FFF74CF800
:102A18000F48104B03604FF0006343608560C5604A
:102A28004FF480630361456185614FF48073C3612E
:102A380005624562FEF7E4FE18B9054BE3639C6343
:102A4800C2E7FEF7CBFCF8E7004400400000024074
:102A58001C51012088600240002800F0E08170B518
:102A680082B00446036813F0010F3BD09F4B9B686C
:102A780003F00C03042B2CD09C4B9B6803F00C0335
:102A8800082B21D06368B3F5803F4FD0B3F5A02F52
:102A980052D0964B1A6822F480321A601A6822F4CF
:102AA80080221A606368002B50D0FEF7BDFD0546F2
:102AB8008E4B1B6813F4003F14D1FEF7B5FD401B85
:102AC8006428F5D90320B1E1884B5B6813F4800FC3
:102AD800D8D0864B1B6813F4003F03D06368002BE3
:102AE80000F09F81236813F0020F54D07F4B9B683E
:102AF80013F00C0F3ED07D4B9B6803F00C03082BA2
:102B080033D0E368002B68D0794B01221A60FEF7B6
:102B18008BFD0546754B1B6813F0020F54D1FEF769
:102B280083FD401B0228F5D903207FE16F4A136813
:102B380043F480331360B5E76C4B1A6842F4802283
:102B48001A601A6842F480321A60ABE7FEF76CFD2F
:102B58000546664B1B6813F4003FC3D0FEF764FDBF
:102B6800401B6428F5D9032060E1604B5B6813F4CF
:102B7800800FC6D15D4B1B6813F0020F03D0E368CA
:102B8800012B40F05081594A136823F0F80321695A
:102B980043EAC1031360236813F0080F42D0636946
:102BA8006BB3534B0122C3F8802EFEF73DFD05465B
:102BB8004E4B5B6F13F0020F34D1FEF735FD401B0F
:102BC8000228F5D9032031E1484A136823F0F803B5
:102BD800216943EAC1031360DDE7454B00221A600F
:102BE800FEF722FD0546414B1B6813F0020FD2D0B9
:102BF800FEF71AFD401B0228F5D9032016E13C4BCD
:102C08000022C3F8802EFEF70FFD0546374B5B6F99
:102C180013F0020F06D0FEF707FD401B0228F5D976
:102C2800032003E1236813F0040F77D02F4B1B6CAC
:102C380013F0805F33D1002301932C4B1A6C42F0C0
:102C480080521A641B6C03F080530193019B012589
:102C5800284B1B6813F4807F23D0A368012B34D042
:102C6800052B38D0214B1A6F22F001021A671A6F10
:102C780022F004021A67A368002B3DD0FEF7D4FCAB
:102C880006461A4B1B6F13F0020F46D1FEF7CCFC19
:102C9800801B41F288339842F3D90320C6E000250F
:102CA800D6E7144A136843F480731360FEF7BCFC3C
:102CB8000646104B1B6813F4807FCED1FEF7B4FC98
:102CC800801B0228F5D90320B0E0084A136F43F0AF
:102CD80001031367CFE7054B1A6F42F004021A6726
:102CE8001A6F42F001021A67C5E700BF00380240B8
:102CF8000000474200700040FEF796FC0646524B23
:102D08001B6F13F0020F08D0FEF78EFC801B41F2F8
:102D180088339842F3D9032088E0EDB9A369002BE2
:102D280000F08380484A926802F00C02082A51D0C9
:102D3800022B17D0454B00221A66FEF775FC044695
:102D4800414B1B6813F0007F42D0FEF76DFC001B5F
:102D58000228F5D9032069E03B4A136C23F080531D
:102D68001364DBE7394B00221A66FEF75DFC054663
:102D7800354B1B6813F0007F06D0FEF755FC401B4F
:102D88000228F5D9032051E0E369226A1343626AF5
:102D980043EA8213A26A5208013A43EA0243E26A0A
:102DA80043EA0263284A5360284B01221A66FEF759
:102DB8003BFC0446244B1B6813F0007F06D1FEF74A
:102DC80033FC001B0228F5D903202FE000202DE05A
:102DD80000202BE0012B2BD01B4B5B6803F48001F8
:102DE800E269914226D103F03F02216A8A4223D147
:102DF800616A47F6C0721A40B2EB811F1ED103F414
:102E08004031A26A5208013AB1EB024F18D103F0DF
:102E18007063E26AB3EB026F14D1002006E0012070
:102E28007047012002E0012000E0002002B070BDE0
:102E38000120FBE70120F9E70120F7E70120F5E78A
:102E48000120F3E70120F1E7003802400000474283
:102E580008B5334B9B6803F00C03042B5BD0082B9D
:102E68005BD12F4B5A6802F03F025B6813F4800F66
:102E78002CD02B4B5868C0F388104FEA401CBCEB91
:102E8800000C6EEB0E0E4FEA8E1343EA9C634FEA7A
:102E98008C11B1EB0C0163EB0E03DB0043EA5173B9
:102EA800C90011EB000C43F10003590200234FEA5B
:102EB8004C2041EADC51FDF7BBF9194B5B68C3F3C1
:102EC800014301335B00B0FBF3F027E0144B586873
:102ED800C0F388104FEA401CBCEB000C6EEB0E0EE2
:102EE8004FEA8E1343EA9C634FEA8C11B1EB0C0155
:102EF80063EB0E03DB0043EA5173C90011EB000CCE
:102F080043F10003990200234FEA8C2041EA9C51C7
:102F1800FDF78EF9D1E7034800E0034808BD00BF7C
:102F28000038024000127A000024F400002800F063
:102F38009B8070B50D4604464F4B1B6803F0070392
:102F48008B4208D2CBB24C4A1370136803F00703C4
:102F58008B4240F08B80236813F0020F17D013F0D8
:102F6800040F04D0454A936843F4E0539360236800
:102F780013F0080F04D0414A936843F46043936008
:102F88003E4A936823F0F003A1680B4393602368DB
:102F980013F0010F32D06368012B21D09A1E012A49
:102FA80025D9364A126812F0020F61D033498A686F
:102FB80022F0030213438B60FEF736FB06462F4BC5
:102FC8009B6803F00C036268B3EB820F16D0FEF720
:102FD8002BFB801B41F288339842F0D9032042E052
:102FE800264A126812F4003FE0D101203BE0234A50
:102FF800126812F0007FD9D1012034E01E4B1B6803
:1030080003F00703AB4207D9EAB21B4B1A701B68DF
:1030180003F00703AB422DD1236813F0040F06D049
:10302800164A936823F4E053E1680B4393602368DE
:1030380013F0080F07D0114A936823F460432169FD
:1030480043EAC1039360FFF703FF0C4B9B68C3F38C
:1030580003130B4AD35CD8400A4B18600A4B186814
:1030680000F0C6FA002070BD012070470120FAE781
:103078000120F8E70120F6E7003C02400038024052
:10308800F8ED0008100000200C000020014B186823
:10309800704700BF1000002008B5FFF7F7FF044B8A
:1030A8009B68C3F38223034AD35CD84008BD00BFA2
:1030B80000380240F0ED000808B5FFF7E7FF044BC1
:1030C8009B68C3F34233034AD35CD84008BD00BFB2
:1030D80000380240F0ED00080F2303600B4B9A689C
:1030E80002F0030242609A6802F0F00282609A6875
:1030F80002F4E052C2609B68DB0803F4E05303610A
:10310800034B1B6803F007030B607047003802404D
:10311800003C024010B4036A046A24F0010404620B
:10312800846924F0F00C4CEA021223F00A030B43E2
:10313800826103625DF8044B704710B4036A046A45
:1031480024F010040462846924F4704C4CEA0232BE
:1031580023F0A00343EA0113826103625DF8044B84
:103168007047836823F070030B4343F007038360C1
:103178007047000090F83D30DBB2012B2FD10223BD
:1031880080F83D300268D36843F00103D3600368D8
:10319800154A934218D0B3F1804F15D0A2F57C425E
:1031A800934211D002F5806293420DD002F58062FD
:1031B800934209D002F59A32934205D01A6842F038
:1031C80001021A60002070479A6802F00702062A76
:1031D80007D01A6842F001021A60002070470120E7
:1031E80070470020704700BF0000014070477047DB
:1031F8007047704770B504460368DE681D6915F0AE
:10320800020F10D016F0020F0DD06FF002021A61F3
:103218000123037703689B6913F0030F5ED0FFF760
:10322800E6FF0023237715F0040F12D016F0040FE1
:103238000FD023686FF004021A61022323772368F2
:103248009B6913F4407F4FD02046FFF7D0FF00233F
:10325800237715F0080F12D016F0080F0FD0236847
:103268006FF008021A61042323772368DB6913F0DF
:10327800030F40D02046FFF7BAFF0023237715F04D
:10328800100F12D016F0100F0FD023686FF0100235
:103298001A61082323772368DB6913F4407F31D050
:1032A8002046FFF7A4FF0023237715F0010F02D073
:1032B80016F0010F2DD115F0800F02D016F0800FF7
:1032C8002FD115F0400F02D016F0400F31D115F074
:1032D800200F02D016F0200F33D170BDFFF786FF04
:1032E8002046FFF785FF9CE72046FFF77FFF204633
:1032F800FFF77EFFABE72046FFF778FF2046FFF792
:1033080077FFBAE72046FFF771FF2046FFF770FF07
:10331800C9E723686FF001021A612046FEF752F8E8
:10332800C9E723686FF080021A61204600F05FF950
:10333800C7E723686FF040021A612046FFF759FF7C
:10334800C5E723686FF020021A61204600F04EF9A5
:10335800C3E700000368294A90420ED0B0F1804FBD
:103368000BD0A2F57C42904207D002F580629042D1
:1033780003D002F58062904203D123F070034A68BB
:1033880013431E4A90421AD0B0F1804F17D0A2F5CD
:103398007C42904213D002F5806290420FD002F531
:1033A800806290420BD002F59A32904207D002F523
:1033B8008062904203D002F58062904203D123F4E8
:1033C8004073CA68134323F080034A6913430360B8
:1033D8008B68C3620B688362084B98420AD001234A
:1033E8004361036913F0010F03D0036923F001035C
:1033F800036170470B690363F1E700BF00000140F8
:1034080040B310B5044690F83D30F3B1022384F878
:103418003D30214651F8040BFFF79CFF012384F847
:10342800463084F83E3084F83F3084F8403084F8E1
:10343800413084F8423084F8433084F8443084F8CA
:10344800453084F83D30002010BD80F83C30FFF74F
:1034580075FADBE70120704710B4846824F47F4CC8
:1034680042EA03220A4342EA0C0282605DF8044BF6
:10347800704790F83C30012B78D010B504460123F2
:1034880080F83C30022380F83D300268936823F4CA
:103498007F4323F0770393600B68602B4CD029D8C7
:1034A800402B54D00CD9502B22D1CA6849680068E7
:1034B800FFF730FE50212068FFF753FE002005E09B
:1034C800202B0DD009D9302B0AD00120012384F8F4
:1034D8003D30002384F83C3010BD0BB1102B05D1D2
:1034E80019462068FFF73DFE0020EFE70120EDE7D1
:1034F8000120EBE7B3F5805F34D0B3F5005F0CD162
:10350800CB684A6889680068FFF7A6FF2268936855
:1035180043F4804393600020D8E7702B24D1CB6814
:103528004A6889680068FFF797FF2268936843F044
:10353800770393600020C9E7CA6849680068FFF705
:10354800FCFD60212068FFF70CFE0020BEE7CA687A
:1035580049680068FFF7DEFD40212068FFF701FE9B
:103568000020B3E70020B1E70120AFE70220704751
:1035780090F83C20012A35D010B40346012280F887
:103588003C20022280F83D2002685068946820F0B0
:10359800700C086840EA0C0050601A6812488242B1
:1035A80012D0B2F1804F0FD0A0F57C4082420BD0F0
:1035B80000F58060824207D000F58060824203D027
:1035C80000F59A30824204D124F0800449682143EE
:1035D8009160012283F83D20002083F83C005DF8CB
:1035E800044B704702207047000001407047704745
:1035F80030B589B00546002401941D4B5A6C42F041
:1036080001025A645B6C03F001030193019B02A958
:1036180003A8FFF761FDFFF74FFD164AA2FB002341
:103628009B0C013B1448154A026040F2E732C26025
:103638004360046184608461FFF7E2FE044610B1D0
:10364800204609B030BD0C48FFF794FD0446002819
:10365800F6D11920FEF766F80F2D01D90124EFE7FE
:10366800002229461920FEF74DF8054B1D60E7E7B3
:103678000038024083DE1B435852012000000140FD
:103688000C000020026802F10C0353E8003F23F409
:1036980090730C3242E800310029F3D1026802F13C
:1036A800140353E8003F23F00103143242E80031C9
:1036B8000029F3D1036B012B05D0202380F8423079
:1036C800002303637047026802F10C0353E8003FCC
:1036D80023F010030C3242E800310029F3D1ECE763
:1036E80010B504460268136923F44053C1680B43BC
:1036F8001361836802691A4343691A43C3691A4309
:103708000168CB6823F4164323F00C031343CB6002
:103718000268536923F4407381690B43536103685A
:10372800314A934206D002F58062934202D0FFF7F5
:10373800B3FC01E0FFF7C0FCE369B3F5004F29D003
:103748000021031849411B1841F10001C90041EA51
:103758005371DB00181863684FEA83024FEA9373CA
:1037680041F10001FCF764FD204AA2FB0031490940
:10377800642303FB11031B013233A2FB03235B0900
:1037880003F0F00202EB011203F00F032168134467
:103798008B6010BD0023021843EB0301121841F19E
:1037A8000001C90041EA5271D200101841F100012C
:1037B800626892185B41FCF73BFD0C4AA2FB0031A2
:1037C8004909642303FB1103DB003233A2FB032303
:1037D8005B095A0002F4F87202EB011203F00703C6
:1037E800216813448B60D4E7001001401F85EB511A
:1037F8002DE9F04383B005460E4617469946DDF895
:1038080028802B681C6836EA04040CBF01240024B5
:10381800BC4228D1B8F1FF3FF3D0FDF705FFA0EB7C
:103828000900404523D8B8F1000F22D02B68DA6888
:1038380012F0040FE5D0802EE3D0402EE1D01A68B4
:1038480012F0080FDDD0002401941A6801925B6819
:103858000193019B2846FFF715FF08236B6485F841
:103868004040012000E0002003B0BDE8F0830320C1
:10387800FAE70320F8E760B310B5044690F8413042
:1038880013B3242384F841302268D36823F4005307
:10389800D3602046FFF724FF2268136923F490437E
:1038A80013612268536923F02A0353612268D3689D
:1038B80043F40053D36000206064202384F841302F
:1038C80084F84230606310BD80F84030FFF770F82C
:1038D800D7E7012070472DE9F04182B01E4690F8E5
:1038E8004130DBB2202B56D104460D4690460029C4
:1038F80055D00AB901204FE000234364212380F802
:103908004130FDF791FE0746A4F82480A4F82680EC
:10391800A368B3F5805F02D04FF0000814E0236974
:103928002BB34FF000080FE0202384F84130032028
:1039380032E038F8023B2268C3F308035360E28C94
:1039480092B2013A92B2E284E38C9BB293B10096B0
:103958003B46002280212046FFF74AFF0028E3D19A
:10396800002DE6D015F8012B23685A60E7E7A84632
:103978000025E9E700963B46002240212046FFF754
:1039880037FF18B9202384F8413005E0202384F854
:103998004130032000E0022002B0BDE8F0810120A0
:1039A800FAE72DE9F04182B01E4690F84230DBB2CA
:1039B800202B59D104460D469046002958D00AB903
:1039C800012052E000234364222280F8422003634E
:1039D800FDF72AFE0746A4F82C80A4F82E80A368D9
:1039E800B3F5805F02D04FF000081CE0236913B1E3
:1039F8004FF0000817E0A846002514E0202384F8BB
:103A08004230032031E023685B68C3F3080328F8D9
:103A1800023B03E023685B682B700135E28D92B2AC
:103A2800013A92B2E285E38D9BB2C3B100963B4660
:103A3800002220212046FFF7DBFE0028DED1002DE2
:103A4800E1D0A368B3F5805FE4D013B92369002BF4
:103A5800E0D023685B6803F07F032B70DDE7202349
:103A680084F84230002000E0022002B0BDE8F08176
:103A78000120FAE7FEE7FEE7FEE7FEE7FEE770470C
:103A880070477047704708B51020FEF791F908BDD8
:103A980008B50248FDF71AFF08BD00BF1C510120F8
:103AA80008B50248FFF7A6FB08BD00BF5852012021
:103AB80010B50A4C01232370094A1370094A136888
:103AC8000133136020210848FEF767F9FDF77CFAF7
:103AD800002323700548FFF78DFB10BD1D50012002
:103AE8001450012018500120000002400C520120FF
:103AF80008B54FF40050FEF75BF908BD08B5024859
:103B0800FFF778FB08BD00BFC45101202DE9F04341
:103B180089B0002501951B4C236B43F002032363F6
:103B2800236B03F002030193019B4FF4807303930B
:103B38004FF01209CDF8109005954FF00308CDF815
:103B4800188004270797104E03A93046FDF7ACFFED
:103B58004FF400730393CDF810900595CDF81880B5
:103B6800079703A93046FDF79FFF0295236C43F49E
:103B780000132364236C03F400130293029B09B01F
:103B8800BDE8F083003802400004024010B5084A3E
:103B9800136C23F400131364064C4FF48071204611
:103BA800FEF766F84FF400712046FEF761F810BD85
:103BB80000380240000402400B4B1B687BB1013BFC
:103BC800094A13600BB10020704710B5074C204616
:103BD800FFF7DCFF2046FEF738FC10B910BD0020C7
:103BE80070476FF00700F9E7A0520120A4520120A6
:103BF80000B583B013464FF4805200920A4601463E
:103C08000948FEF73BFC18B9002003B05DF804FB37
:103C18000548FEF770FE042802D06FF06500F4E74F
:103C28006FF00300F1E700BFA452012000B583B094
:103C380013464FF4805200920A4601460948FEF79F
:103C4800D9FC18B9002003B05DF804FB0548FEF75D
:103C580052FE042802D06FF06500F4E76FF003000D
:103C6800F1E700BFA452012008B5FDF7DDFC08BD4F
:103C780008B5094A0260094A426000228260C260AF
:103C88004FF48041016142618261C2610262FEF7C4
:103C9800FDFA00B1012008BD00540040801A06005A
:103CA8000E4B0F4A1A600F4A1368591C11600BB16A
:103CB8000020704710B50948FEF71AFE08B1002029
:103CC80010BD064C2046FFF721FF2046FFF7D0FF26
:103CD80008B90020F4E76FF00700F1E7A4520120CB
:103CE80000540040A0520120034AD2F8883043F41F
:103CF8007003C2F88830704700ED00E082B0019090
:103D08009DF804300F2B0DD89DF805200F2A17D8E1
:103D18009DF806200F2A16D89DF807200F2A15D8D7
:103D2800002001E06FF003009DF80620934210D8B0
:103D38009DF805209DF807309A420DD302B07047D0
:103D48006FF00300F0E76FF00300EDE76FF003009A
:103D5800EAE76FF00300F1E76FF00300EEE7000019
:103D680086B0334B1B68ADF814301B0C8DF8163039
:103D7800304B1B68ADF810301B0C8DF812302E4BF1
:103D88001B68ADF80C301B0C8DF80E302B4B1B68E4
:103D9800ADF808301B0C8DF80A30294B1B68ADF8BC
:103DA80004301B0C8DF806300123137099420BD098
:103DB80002290BD10138082836D8DFE800F011189D
:103DC8001F0935352D2631000023F3E70223F1E7DB
:103DD80018336B4413F8043C1370002006B0704786
:103DE80018336B4413F8083C13700020F6E71833B7
:103DF8006B4413F80C3C13700020EFE718336B4446
:103E080013F8103C13700020E8E718336B4413F8DC
:103E1800143C13700020E1E7112313700020DDE744
:103E2800272313700020D9E76FF00700D6E700BFFB
:103E380008EE00080CEE000810EE000814EE00086A
:103E480018EE0008012907D0022912D0B0F5167F14
:103E58001CDA01231370704740F2DC53984202DDEC
:103E6800032313707047B0F52F7F14DD02231370FE
:103E7800704740F2DC53984202DD03231370704709
:103E8800B0F5167F07DA012313707047B0F5AF6FEE
:103E980001DA02231370704710B584468E46104627
:103EA800CC7D15490A690C2C0CD80A2C0CD2A11F00
:103EB800C9B2012908D9DCF8C8148A4205DC78B1EE
:103EC800012203E0FF2CF6D110BD00220CF5C04CF6
:103ED8009CF8561F19702CB152B903221A70F3E7D7
:103EE8000022F3E71A46BEF91400FFF7ABFFEBE731
:103EF8001A46FFF7A7FFE7E714000020A0B3B2F9BE
:103F08004830B2F944001B1A952B28DC072928D021
:103F1800B2F94630B3F5967F07DB41F69A1101FBFB
:103F280003F323B94FF4C8000EE04FF4F013918F58
:103F38005A080E4800FB0122B2FBF3F319040C4A9D
:103F4800B2EB034F08D3501AC0F3074032280AD9FE
:103F5800642828BF642070474FF44810F4E73220E3
:103F68007047322070473220704700BFCDCC3000F8
:103F780033B37500031F0F2B17D8DFE803F00C0AC3
:103F88000E191214161610161616161608180A20E8
:103F980070470420704702207047012070470920AD
:103FA80070470320704700207047FF2070470620A5
:103FB8007047431F122B17D8DFE803F00A181916A9
:103FC800141616161616161616160C1016120E00BD
:103FD80004207047062070470C2070470720704760
:103FE8000B20704700207047FF2070470120704762
:103FF800F0B589B004460D4611461E460020ADF8BE
:104008001C00069005900490032D19D0082D15D09A
:1040180020270DF11F022846FFF7A2FE024688B1AD
:1040280022B9E77604F5C04383F8545F04F5C04429
:10403800012384F8553F104609B0F0BD4027E8E752
:104048004027E6E704AB019305AB009306AB07AA4C
:104058009DF81F10204601F088FB02460028E5D194
:104068000296049B0193059B0093069BBDF81C20B8
:104078009DF81F10204601F058FC0246D0E708B50D
:1040880021B1012908D06FF0030008BDC2F38F31B8
:1040980002F002F80020F8E7C2F34F2102F005F819
:1040A8000020F2E738B505464C082246012109F000
:1040B80033F985F8384338BD08B54FF4FA710AF07A
:1040C80025F808BDF0B59FB004460D4600231D93A2
:1040D8001C931B9300F5C04393F8546F092E0BD023
:1040E8004B1EDBB2022B2FD86946204601F033FB6A
:1040F800E76A30B11FB0F0BD0129F5D06FF00300B9
:10410800F8E71DAB1CAA1BA9204601F0B9F9002845
:10411800F0D13B462A4631462046FFF769FF002882
:10412800E8D104F5C04383F8565F1D9B1C9A1B9980
:10413800204601F089F90028DCD11D9BA36269465D
:10414800204601F0D7FAD5E76FF00300D2E7000068
:1041580008B58B01034AA2FB032301EB931101F07D
:1041680055F908BDD34D621010B582B00C4601A9AF
:1041780001F05BF9019B9A010449A1FB0212A3EB30
:1041880092130193236002B010BD00BFD34D62109B
:10419800012919D870B505460C46164632B101F505
:1041A800DE53163300EB83039A6800E000222146B1
:1041B8002846FFF764FF30B9003E18BF01262544A2
:1041C80046F65C73EE5470BD6FF00300704770B52F
:1041D8000646012101F062FE054670B10024012C5B
:1041E8001AD8CDB9012221463046FFF7D1FF45EA5A
:1041F80000035DB20134E4B2F1E706F1180041F6BC
:1042080078514218002343505360936006F5C04329
:10421800012283F8502FE1E70DB1284670BD022135
:10422800304602F0D0F90546F7E7012906D80844D8
:1042380046F65C73C35C137000207047002313704C
:104248006FF00300704770B582B0044615460E46FD
:1042580029B1012919D06FF0030002B070BD01A97E
:1042680001F015FFBDF804309B030028F5D1A3B970
:1042780006F5DE53163304EB83039B682B60264454
:1042880046F65C730022F254E7E70DF1060101F0EF
:1042980007FFBDF806305B02E7E72B6006F5DE5244
:1042A800163204EB82029360344446F65C730122B2
:1042B800E254D2E72DE9F04F89B0054689460192CC
:1042C8001F46129E139C90F851A090F82F844FEA35
:1042D80098080023059396F84AB00BF01F0B324656
:1042E80059464846FFF70AFE2070338E5B02A360EA
:1042F800B38E5B02E360B38F5B022361B6F946308D
:10430800A382B6F948306380B6F94430A3804FF0F1
:104318000003A3750D2F2BD004D9112F06D000232D
:10432800E37505E0013FFFB2022FF8D80523E375D6
:10433800E37D63B9B9F1000F09D1FF23E3750023C9
:10434800A360236141F6FF73A3826380A380E37DAA
:10435800ABB905F5C04393F8542F531EDBB2012BBC
:1043680009D9092A07D05846FFF704FEE07506E088
:104378000D23E375DCE75846FFF71BFEE075B38FA6
:104388005B0205F5C042C2F8683F338E5B02C2F893
:104398006C3F06AA00212846FFF755FF0DF11F02C2
:1043A80000212846FFF741FF9DF81F30012B00F040
:1043B8008C80002205F5C04383F85E2F06AA0121F0
:1043C8002846FFF740FF0DF11F0201212846FFF79D
:1043D8002CFF9DF81F30012B7ED0002205F5C0432D
:1043E80083F85F2FB4F91420E37D0BB9002A7ADB38
:1043F80004AA48F2BE01284602F022F9049B019A59
:1044080032B1E27D22B9A2689A4201D20C23E37547
:1044180005AA48F29101284602F012F995F82F34BE
:104428009B08C3F10103DEB2B4F9147000232376AC
:10443800E368B3F5003F01D900230593B9F1010FF3
:104448005BD000230593434652460DF10F012846E1
:1044580006F0DCFB9DF80F30012B56D9C8F101039B
:10446800DBB252460DF10F01284606F0CFFB9DF84E
:104478000F30012B4CD9B4F90230B4F904209B1A3F
:10448800B3F5FA7F05DDE37D1BB1FF23E375002358
:104498000593059B23B1E37D072B3CD0042B3AD031
:1044A8000AF54B5305EB43039F83E27D554446F2DF
:1044B800BC53EA54227E46F2CC53EA5446F2DC530B
:1044C80005F8039009B0BDE8F08FBBF1060F01D0E5
:1044D80000226FE701226DE7BBF1040F01D0002233
:1044E8007CE701227AE7A64B5B689A4202DA0E2340
:1044F800E3757DE70023A3827AE705EB0A0346F21A
:10450800DC529B5C012B9CD19DE700230593A5E71A
:1045180000230593AFE705EB0A0346F2BC51595C4B
:104528008B1FDBB2012B0AD9042908D00029B7D187
:1045380005EB0A0346F2CC515B5C012BB0D105F5C3
:10454800C04393F8EC1595F89F3403F1FF3C61459F
:1045580002D07F339942A3D1B4F814C00AF54B5363
:1045680005EB43039B8BACEB03031BB2697E183945
:10457800062995D80FF2040E5EF821F0714600085E
:10458800A9440008A1450008A5480008A944000856
:10459800A94400088D470008B5F90612994207DAC0
:1045A800B5F908E29E4503DD16B9B5F91A322FE0D0
:1045B80049428B4206DAB5F9081249428B4201DDBD
:1045C800012E15D0B5F90A12994205DAB5F90CE2AF
:1045D8009E4501DD012E0ED049428B420EDAB5F917
:1045E8000C1249428B4209DD46B9B5F91E320FE07B
:1045F800B5F91C320CE0B5F9203209E0B5F9101212
:10460800994214DDB5F90E12994210DAB5F9223241
:104618009BB29C44A4F814C013FA82F2A280628868
:1046280013446380012323760023E37538E7B5F943
:104638001212994205DAB5F914E29E4501DD012E00
:104648000FD049428B42BFF62BAFB5F9141249423D
:104658008B427FF725AF002E7FF422AFB5F92632C3
:10466800D6E7B5F92832D3E7B5F9D611994205DA74
:10467800B5F9D8E19E4501DD012E0BD049428B42A8
:104688000BDAB5F9D81149428B4206DD2EB9B5F9D6
:10469800EE31BDE7B5F9F031BAE7B5F9DA1199426B
:1046A80007DAB5F9DCE19E4503DD16B9B5F9F23153
:1046B800AEE749428B4206DAB5F9DC1149428B4232
:1046C80001DD012E15D0B5F9DE11994205DAB5F9EB
:1046D800E0E19E4501DD012E0ED049428B420EDA03
:1046E800B5F9E01149428B4209DD46B9B5F9F63111
:1046F8008EE7B5F9F4318BE7B5F9F83188E7B5F904
:10470800E211994207DAB5F9E4E19E4503DD16B9ED
:10471800B5F9FA317CE749428B4206DAB5F9E4117A
:1047280049428B4201DD012E0AD0B5F9E8119942C0
:1047380009DDB5F9E611994205DAB5F9FE3167E701
:10474800B5F9FC3164E7B5F9EA11994205DAB5F92A
:10475800ECE19E4501DD012E0FD049428B42BFF6A8
:104768009FAEB5F9EC1149428B427FF799AE002E06
:104778007FF496AEB5F902324AE7B5F9043247E755
:1047880014000020B5F9D611994205DAB5F9D8E137
:104798009E4501DD012E0BD049428B420BDAB5F95B
:1047A800D81149428B4206DD2EB9B5F9EE312FE713
:1047B800B5F9F0312CE7B5F9DA11994207DAB5F90C
:1047C800DCE19E4503DD16B9B5F9F23120E749422F
:1047D8008B4206DAB5F9DC1149428B4201DD012E24
:1047E80015D0B5F9DE11994205DAB5F9E0E19E4533
:1047F80001DD012E0ED049428B420EDAB5F9E011E7
:1048080049428B4209DD46B9B5F9F63100E7B5F9F9
:10481800F431FDE6B5F9F831FAE6B5F9E211994255
:1048280007DAB5F9E4E19E4503DD16B9B5F9FA31C1
:10483800EEE649428B4206DAB5F9E41149428B4269
:1048480001DD012E0AD0B5F9E811994209DDB5F963
:10485800E611994205DAB5F9FE31D9E6B5F9FC3128
:10486800D6E6B5F9EA11994205DAB5F9ECE19E45C3
:1048780001DD012E0FD049428B42BFF611AEB5F9CA
:10488800EC1149428B427FF70BAE002E7FF408AE45
:10489800B5F90232BCE6B5F90432B9E6B5F9061243
:1048A800994207DAB5F908E29E4503DD16B9B5F96C
:1048B8001A32ADE649428B4206DAB5F90812494286
:1048C8008B4201DD012E15D0B5F90A12994205DA9D
:1048D800B5F90CE29E4501DD012E0ED049428B420E
:1048E8000EDAB5F90C1249428B4209DD46B9B5F921
:1048F8001E328DE6B5F91C328AE6B5F9203287E614
:10490800B5F91012994206DDB5F90E12994202DA8C
:10491800B5F922327CE6B5F91212994205DAB5F9F1
:1049280014E29E4501DD012E0FD049428B42BFF6AD
:10493800B7ADB5F9141249428B427FF7B1AD002EDD
:104948007FF4AEADB5F9263262E6B5F928325FE6F6
:104958002DE9F04F85B081460F4616468B7C937142
:104968008B78537191F8963182F87830B1F9083024
:10497800B1F90E209342A8BF1346A6F87C30002355
:104988003360CB78337100F5C04393F8563F86F80F
:104998007E3091F812B0BBF1000F08D14FF0010A38
:1049A800002303931C461846C84699460CE0DA468D
:1049B800F6E7019200933B7C224659464046FFF7B2
:1049C80079FC11E00134E4B2544525D22546C4EB04
:1049D800C4029200083232444C2304FB03F3103320
:1049E8003B4404330028E4D04C2303FB05735B8D60
:1049F800A6F87A30C5EBC50306EB8303DB7F002BF3
:104A0800E0D1C5EBC50506EB8505B5F91C304B456E
:104A1800D8DD99460394D5E7C146804699F89F2486
:104A280009F5C04383F8EC2510B9BBF1000F03D199
:104A3800404605B0BDE8F08F039BC3EBC301890076
:104A4800083106F17E03B7F90C2031444846FFF7D8
:104A580023FAEDE72DE9F0419CB007460E4600F534
:104A6800C04393F8543F022B43D00122337893423A
:104A780053D8002B54D08DF80420013B8DF8053015
:104A88000025A8463378AB4237D906EB8503D3F81F
:104A980001000090FFF732F9804670BB9DF80230A4
:104AA8009DF8002003EB020E0EF1010ECEF3470E27
:104AB8009DF801109DF8030001EB000C0CF1010CAE
:104AC800CCF3470C9B1ADAB2091AC9B2022A12D9D6
:104AD800022919D9AB1D1CA800EB830303F868EC65
:104AE80003F867CC03F8662C03F8651C0135EDB2B2
:104AF800C8E71022BAE76FF00308B8F1000F06D034
:104B080040461CB0BDE8F0816FF00308F5E701A945
:104B1800384600F0EFFD8046F2E76FF00308EFE754
:104B28006FF00308ECE708B500F0E2FC08BD0000F0
:104B380070B586B000238DF817308DF816300493C1
:104B480003930293524B994200F2998004460D4612
:104B58000DF117020521FFF7E6FF064610B13046B2
:104B680006B070BD0DF1160206212046FFF7DBFFE7
:104B780006460028F3D104AB03AA02A9204600F098
:104B88007FFC06460028EAD104F5C04393F8543F59
:104B9800013B082B63D8DFE803F005053523626283
:104BA8005B4705003B4B062140F2A462AA4269D24A
:104BB800AA1A0492002ED2D19A4266D8B2FBF1F317
:104BC8000493039A0299204600F03EFC064600280A
:104BD800C5D1049BA36204F5C044C4F8585FBEE77E
:104BE8009DF81730012B40D09DF81630012B04D0CA
:104BF800284B01214FF47A72D8E7264B012141F264
:104C08008832D3E79DF81730012B33D09DF8163042
:104C1800012B04D0204B022145F26042C6E71E4B0F
:104C2800022146F2E872C1E701AA48F2880120464B
:104C380001F006FD019B002B08DDF52203FB02F2C3
:104C4800F53202F6DC52144B0221AFE7F522F8E701
:104C5800039A02F59C5208320E4B0121A6E70D4B30
:104C6800012100226FF00706A0E70A4B012141F25B
:104C780088329BE7084B022146F2E87296E76FF00C
:104C880003066CE76FF0030669E76FF0030666E753
:104C98008096980070640800E0C8100038B5054692
:104CA8000C4605F056FF092C14D003224FF47A73F2
:104CB80021462846FFF79CF958B9E31EDBB2012BC1
:104CC80001D9082C08D14AF228012846FFF730FFFD
:104CD80040B138BD0122E9E748F235212846FFF7FF
:104CE80027FFF5E74FF47A712846FFF731FAF0E726
:104CF80070B586B006460C4600238DF817308DF83F
:104D080016300493039302930B600DF117020521EB
:104D1800FFF709FF054678B1002D56D106F5C043C7
:104D280093F8543F013B082B62D8DFE803F0535354
:104D3800271661615A3B53000DF1160206213046D1
:104D4800FFF7F1FE054600283FD103AB04AA02A9EC
:104D5800304600F095FB0546DEE79DF81730012B3D
:104D680007D09DF81630012B03D0039B03F57A7307
:104D78002AE0039B03F59C53083325E09DF8173080
:104D8800012B09D09DF81630012B05D0039B03F5A4
:104D9800285330335B0017E0039B03F54F5334333C
:104DA8005B0011E001AA48F28801304601F048FC96
:104DB800019B002B0CDDF52202FB03F3134403F6E1
:104DC800DC53039A03EB42032360284606B070BD08
:104DD800F523F4E7039B03EB43035B0003F2A463AF
:104DE800F2E7039B049A134403F59C530833EBE75B
:104DF8006FF00705E9E7000030B583B00446C57ECB
:104E0800402D01D100232EE002F0D5F8FAE703F592
:104E18004B5104EB410100228A83E11846F2BC5051
:104E28004FF0FF0C01F800C046F2CC500A5446F28D
:104E3800DC500A5403F24A5104EB81018A6103F5FC
:104E4800A16104EB81018A6103F28D2104EBC101A8
:104E58009FED2D7B81ED067B03F23A5104EB810136
:104E68008A610133DBB20F2BD1D904F5C04300228C
:104E780083F8EC2593F8503F032B1AD007D9052B5C
:104E88000DD8042B08D26FF0020003B030BD022BFE
:104E980034D96FF00200F8E76FF00D00F5E7623BD8
:104EA800DBB2012B02D86FF00D00EEE76FF00200C5
:104EB800EBE7402D0CD006222946204601F046FAA1
:104EC8000028E2D104F5C044042384F8503FDCE70D
:104ED80001A92046FFF70CFF019B0D4AA2FB032303
:104EE8009B09019369462046FFF73EF9019B04336D
:104EF800009A9342DFD96FF00300C6E76FF00D0008
:104F0800C3E700BFAFF3008000000000000000000E
:104F1800D34D621038B5044601F0CBF80546E37E60
:104F2800402B07D125B904F5C044032384F8503F2A
:104F3800284638BD204600F050FAF3E708B5C17E90
:104F480001F03CFB08BD08B509F0C0F808BD70B514
:104F580004460D4600F5AC5610368022FF2128463F
:104F680009F067FD32460221204602F097FA88B917
:104F780004F5805393F89135072B04D0082B0AD0F9
:104F88000023EB7101E00123EB712A4631462046EC
:104F9800FFF7DEFC70BD0223EB71F6E770B588B051
:104FA800044640F20533ADF8003000F5C04393F8ED
:104FB800546F0DF11F0100F0F4F8054610F11D0FB4
:104FC80006D031462046FFF769FE284608B070BD76
:104FD80001AB06222821204608F0EBF8054618B355
:104FE800002DEED1062305AA0D21204608F056F91A
:104FF80005460028E5D19DF8143084F860309DF806
:10500800153084F861309DF8163084F862309DF8C8
:10501800173084F863309DF8183084F864309DF8B0
:10502800193084F86530CCE702236A4614212046FB
:1050380008F034F905460028C3D19DF8003084F8FB
:1050480067309DF8013084F86830C9E770B50446C8
:1050580003293BD8DFE801F00213202D02F019FDE7
:105068000546204602F022FD0646204602F02BFDAA
:105078000346002088BB7DBB86B330462DE002F096
:1050880001FD0546204602F00AFD0646204602F0CC
:105098001AFD03460020EDE702F0F4FC0546204621
:1050A80002F0FDFC0646204602F006FD03460020FD
:1050B800E0E702F0E7FC0546204602F0F7FC06466A
:1050C800204602F000FD03460020D3E700231E46D9
:1050D8001D466FF00300CDE7284670BD1846FCE773
:1050E80070B5044600F5C046032386F8503F2023D8
:1050F800C3760121FFF7D2FD054602212046FEF7BF
:10510800E1FF012386F8553F00212046FFF79EFF67
:10511800284670BD30B583B004460D4600238DF88F
:1051280003300DF10302302108F020F9034650B195
:105138009BB194F8C72302F01F0284F8C72323B356
:10514800184603B030BD9DF8033084F86A33294609
:10515800204604F0A1FA0346EAE7204609F006F8DB
:1051680003460028E5D1022301AA8921204608F038
:10517800B5F803460028DCD19DF8042084F8C7233D
:105188009DF8052084F8C823D3E7204604F0AEFA3A
:1051980003460028D4D10021204604F07DFA0346B6
:1051A800CEE730B587B004460D4604F095FA0346BD
:1051B80020B1FBB12B70184607B030BDB4F83E33B0
:1051C8000293B4F862320193B4F864320093B4F8ED
:1051D8006032D4F85C2294F85912204605F032FB6C
:1051E80003460028E6D194F858122046FFF792FFAC
:1051F8000346DEE7022304AAD921204608F06EF808
:1052080003460028D6D19DF8102004F5805383F872
:10521800BF239DF8112083F8C023022304AA142178
:10522800204608F03BF803460028C3D19DF810300B
:1052380084F867309DF8113084F86830062304AA92
:10524800AC21204608F04AF803460028B2D10623CC
:1052580004AA0D21204608F021F803460028A9D108
:105268009DF8102084F860209DF8112084F86120B2
:105278009DF8122084F862209DF8132084F863209A
:105288009DF8142084F864209DF8152084F8652082
:1052980094F8C7230F2A06D0102A07D00E2A89D1DE
:1052A8006FF01B0386E76FF01C0383E76FF01D03A5
:1052B80080E7034642781E2A1ED0212A0CD01B2ADA
:1052C80022D000F58052B2F980CDB2F9822D0020AB
:1052D80008806FF0030006E000F58052B2F978CD3F
:1052E800B2F97A2D002093F82E3020B913F0010F6F
:1052F80000D062460A80704700F58052B2F97CCD32
:10530800B2F97E2D0020EEE700F58052B2F980CD8B
:10531800B2F9822D0020E6E72DE9F04F8B469DF883
:105328002450DDF8288090F839E00024C8F80040BF
:105338009700B94626461CE002EB420A05EB450CED
:105348004FEA0C1C0CEBCA0C0EEBCE0A0CEB4A1CF9
:10535800CC440CF5EC6C00EB8C0CDCF804C0644419
:1053680009F1060C5BF82CC0664409F101091FFA23
:1053780089F94B45E0D804B166BBBDE8F08F02EB74
:10538800420905EB450C4FEA0C1C0CEBC90C0EEB63
:10539800CE090CEB491CBC440CF5EC6C00EB8C0CF6
:1053A800DCF804C04FF47A7A0AFB0CFC9CFBF4FC92
:1053B80007F106095BF829900AFB09F999FBF6F948
:1053C800ACEB090CD8F800100CFB0C1CC8F800C09A
:1053D8000137BFB2BB42D2D8CFE710B5044600228E
:1053E800852107F099FF08B150B110BD204604F09F
:1053F80078F900224FF48E61204607F08DFFF3E71D
:1054080001228521204607F087FFEEE700F580534B
:10541800B3F8C43333B1C16201FB03F3C0F8A4335A
:10542800002070476FF00E00704700F58053B3F806
:10543800C42332B1D0F8A433B3FBF2F30B600020DD
:1054480070476FF00E0070478446084611461A46AA
:10545800BCF83E338BB110B582B0CCF82000CCF844
:105468002410CCF828200CF5657401940CF27E34D5
:10547800009404F0D0F902B010BD6FF00E00704730
:105488002DE9F0410446B0F83E0370B3884617464C
:105498001E4694F89A1304F031F90546014694F82B
:1054A800850304F07CF9C8F8000094F8943394F864
:1054B800950300EB0320294680B204F0A4F9386074
:1054C80094F8983394F8990300EB0320294680B2A6
:1054D80004F099F93060D8F8003023623B686362C1
:1054E8003368A3620020BDE8F0816FF00E00FAE790
:1054F800072913D831B14FF0010C0CFA01FC5FFAFF
:105508008CFC01E04FF0010C90F8BD3303EA0C036A
:10551800137031B10B411370002070476FF0030016
:1055280070470020704738B505460C4600F2BB327C
:105538000978607804F0DBFC05F56F72E178A078F3
:1055480004F0EBFC002038BD70B582B005460C466F
:1055580000268DF807608DF806600DF107020DF141
:10556800060190F8220406F0D0F89DF80730237061
:105578009DF80630637095F823341A09E27003F039
:105588000F03A370304602B070BDF0B589B0044671
:1055980000F1B40600F54E7108F001F80546E0B1D7
:1055A80095B3B4F83E33B3F5805F03D24BF6CC43E2
:1055B800A4F83E33002D00F09680B4F8D8304BB9EB
:1055C80094F8D4301B0184F8D83094F8D5301B01F6
:1055D80084F8D930284609B0F0BD04F160012046AE
:1055E80008F08DF805460028DBD104F2F237394679
:1055F800204608F057FC05460028D2D104F50E7164
:10560800384603F070FECBE7B4F86A30C4F8A0322D
:10561800B4F96C30A4F8A432B4F96E30A4F8A63208
:1056280004F1D801204607F0DBFD05460028B8D173
:1056380004F17801204607F0E4FD05460028B0D1C2
:105648003146204607F0EEFD0546B4F8B83013B9E8
:10565800B4F8BA3043B3002DA3D104AA4FF4D671DD
:10566800204607F0F0FD054600289AD1BDF8103015
:10567800A4F8BC30BDF81430A4F8BE30BDF81C3016
:10568800A4F8C030B4F87A304BB3A4F8C2304FF461
:105698008073A4F8C43004F59E520432DE212046FB
:1056A80007F080FE05467CE78023A4F8B8304FF465
:1056B800C073A4F8BA3004F1B40304F1B60203923B
:1056C80002933823019304F50E730093FF23C72236
:1056D80094F8231494F8220404F0E5FCBBE714239F
:1056E800A4F8C230D3E704F1D4012046FFF72CFF19
:1056F800054662E770B504460D4601F11C0300F14A
:10570800F6025C311E68D3F804E0D3F808C0D86804
:105718001660C2F804E0C2F808C0D0601033103236
:105728008B42EFD12B7884F8DA306B7884F8DB3051
:1057380004F1DA0008F04CFE6B7813B984F87F3373
:1057480070BD0F2B03D8013384F87F33F8E711239A
:1057580084F87F33F4E708B50B466C2200F1DA01D0
:10576800184609F0A5F9002008BD0139262900F2DC
:10577800D980DFE811F0270027002700270027003D
:10578800370037003700D700D70057009700570079
:10579800D700D700D7002700370057005700570019
:1057A80057005700670077008700570057005700D9
:1057B800A700A700A700B700B700B7004700470039
:1057C8004700C700B0F874111180D0F880211A6022
:1057D800D0F8A031009A1360D0F8B431019A136060
:1057E80000207047B0F87A111180D0F89C211A6017
:1057F800D0F8AC31009A1360D0F8C031019A136028
:1058080000207047B0F87A111180D0F89C211A60F6
:10581800D0F8B031009A1360D0F8C431019A1360FF
:1058280000207047B0F876111180D0F884211A60F2
:10583800D0F8A431009A1360D0F8B831019A1360F7
:1058480000207047B0F878111180D0F894211A60C0
:10585800D0F8A831009A1360D0F8BC31019A1360CF
:1058680000207047B0F878111180D0F898211A609C
:10587800D0F8A831009A1360D0F8BC31019A1360AF
:1058880000207047B0F878111180D0F890211A6084
:10589800D0F8A831009A1360D0F8BC31019A13608F
:1058A80000207047B0F876111180D0F88C211A606A
:1058B800D0F8A431009A1360D0F8B831019A136077
:1058C80000207047B0F876111180D0F888211A604E
:1058D800D0F8A431009A1360D0F8B831019A136057
:1058E80000207047B0F876111180D0F88C211A602A
:1058F800D0F8A431009A1360D0F8B831019A136037
:1059080000207047B0F87C111180D0F88C211A6003
:10591800D0F8A431009A1360D0F8B831019A136016
:10592800002070476FF0030070472DE9F04F8DB0ED
:1059380004460D4609920A9300F51D73089300F278
:105948005E33069300F55173079300F27E3800F535
:10595800657B00F56B7600F5707700F1DA0A00F5E3
:10596800A47900F5AC530B934176169B4362179BC1
:105978008362189BC362032103F043FC013D262D7B
:1059880000F27982DFE815F027004900570065002A
:10599800730081008F009D0077027702AB003B0106
:1059A800DB01EB01FB010B021B0229022B01BB00EF
:1059B800CB00DB00EB00FB000B011B014B015B0183
:1059C8006B017B018B019B01AB01BB01CB01370252
:1059D800470257026702CDF80CA0CDF8089001974E
:1059E80000965B4642460799069802F067FA054614
:1059F80035B9099BA4F85E332386002D00F03E825A
:105A080094F8DB00013004F5D0413431C0B203F022
:105A1800D8FC28460DB0BDE8F08FCDF80CA0CDF825
:105A28000890019700965B4642460799069802F04F
:105A38004BFB0546DCE7CDF80CA0CDF808900197A4
:105A480000965B4642460799069802F05FFB0546BA
:105A5800CEE7CDF80CA0CDF80890019700965B46EC
:105A680042460799069802F073FB0546C0E7CDF851
:105A78000CA0CDF80890019700965B46424607991E
:105A8800069802F079FB0546B2E7CDF80CA0CDF8F0
:105A98000890019700965B4642460799069802F0DF
:105AA8007FFB0546A4E7CDF80CA0CDF80890019738
:105AB80000965B4642460799069802F094FB054615
:105AC80096E7CDF80CA0CDF80890019700965B46B4
