:020000040800F2
:100000000000022065790008A1740008A5740008AA
:10001000C1740008C3740008C57400080000000023
:10002000000000000000000000000000C77400088D
:10003000C974000800000000CB740008CD740008EB
:10004000B5790008B5790008B5790008B5790008D8
:10005000B5790008B5790008B5790008B5790008C8
:10006000B5790008B5790008D5740008E174000876
:10007000F1740008B5790008B5790008B579000871
:10008000B579000801750008B57900080000000086
:10009000000000000000000000000000B57900082A
:1000A000B5790008B5790008B5790008B579000878
:1000B0001175000849750008B5790008B579000880
:1000C000B5790008B5790008B5790008B579000858
:1000D000B5790008B5790008B5790008000000007E
:1000E00061750008B5790008B579000800000000C6
:1000F000000000000000000000000000B5790008CA
:1001000000000000B5790008B5790008B57900084D
:1001100000000000000000000000000000000000DF
:10012000B5790008B5790008B5790008B5790008F7
:10013000B579000800000000000000000000000089
:10014000000000000000000000000000B579000879
:10015000B5790008B5790008B5790008B5790008C7
:10016000B5790008B5790008000000000000000023
:10017000000000000000000000000000000000007F
:1001800000000000B5790008000000000000000039
:08019000B5790008B5790008FB
:1001A00001F0FF01102A2BDB10F0070F08D010F828
:1001B000013B013A8B422DD010F0070F42B3F6D12C
:1001C000F0B441EA012141EA014122F007047FF045
:1001D00000070023F0E80256083C85EA010586EA9C
:1001E000010685FA47F5A3FA87F586FA47F6A5FAD8
:1001F00087F68EB9EED1F0BC01F0FF0102F00702E4
:1002000032B110F8013B013A83EA010313B1F8D18E
:100210000020704701387047002D06BF354603386F
:10022000073815F0010F07D1013015F4807F02BFA8
:10023000013015F4C03F0130F0BC0138704700BFF9
:1002400081F0004102E000BF83F0004330B54FEA87
:1002500041044FEA430594EA050F08BF90EA020FF4
:100260001FBF54EA000C55EA020C7FEA645C7FEA87
:10027000655C00F0E2804FEA5454D4EB5555B8BFAA
:100280006D420CDD2C4480EA020281EA030382EA1B
:10029000000083EA010180EA020281EA0303362DAD
:1002A00088BF30BD11F0004F4FEA01314FF4801C80
:1002B0004CEA113102D0404261EB410113F0004F92
:1002C0004FEA03334CEA133302D0524263EB430349
:1002D00094EA050F00F0A780A4F10104D5F1200EE7
:1002E0000DDB02FA0EFC22FA05F2801841F1000142
:1002F00003FA0EF2801843FA05F359410EE0A5F116
:1003000020050EF1200E012A03FA0EFC28BF4CF046
:10031000020C43FA05F3C01851EBE37101F00045FC
:1003200007D54FF0000EDCF1000C7EEB00006EEB09
:100330000101B1F5801F1BD3B1F5001F0CD3490893
:100340005FEA30004FEA3C0C04F101044FEA4452EA
:1003500012F5800F80F09A80BCF1004F08BF5FEA71
:10036000500C50F1000041EB045141EA050130BD51
:100370005FEA4C0C404141EB0101013C28BFB1F563
:10038000801FE9D291F0000F04BF01460020B1FAAE
:1003900081F308BF2033A3F10B03B3F120020CDA81
:1003A0000C3208DD02F1140CC2F10C0201FA0CF05F
:1003B00021FA02F10CE002F11402D8BFC2F1200CC4
:1003C00001FA02F120FA0CFCDCBF41EA0C0190407A
:1003D000E41AA2BF01EB0451294330BD6FEA0404C3
:1003E0001F3C1CDA0C340EDC04F11404C4F12002AE
:1003F00020FA04F001FA02F340EA030021FA04F3C0
:1004000045EA030130BDC4F10C04C4F1200220FA16
:1004100002F001FA04F340EA0300294630BD21FA54
:1004200004F0294630BD94F0000F83F4801306BF1A
:1004300081F480110134013D4EE77FEA645C18BF0E
:100440007FEA655C29D094EA050F08BF90EA020FA5
:1004500005D054EA000C04BF1946104630BD91EA9D
:10046000030F1EBF0021002030BD5FEA545C05D1A0
:100470004000494128BF41F0004130BD14F58004DF
:100480003CBF01F5801130BD01F0004545F0FE4153
:1004900041F470014FF0000030BD7FEA645C1ABF88
:1004A000194610467FEA655C1CBF0B46024650EABF
:1004B000013406BF52EA033591EA030F41F40021EB
:1004C00030BD00BF90F0000F04BF0021704730B571
:1004D0004FF4806404F132044FF000054FF0000146
:1004E00050E700BF90F0000F04BF0021704730B507
:1004F0004FF4806404F1320410F0004548BF4042DC
:100500004FF000013EE700BF42004FEAE2014FEA30
:1005100031014FEA02701FBF12F07F4393F07F4F0B
:1005200081F06051704732F07F4208BF704793F00E
:100530007F4F04BF41F40021704730B54FF4607421
:1005400001F0004521F000411CE700BF50EA010224
:1005500008BF704730B54FF000050AE050EA0102CD
:1005600008BF704730B511F0004502D5404261EB3D
:1005700041014FF4806404F132045FEA915C3FF47E
:10058000D8AE4FF003025FEADC0C18BF03325FEA1B
:10059000DC0C18BF033202EBDC02C2F1200300FACC
:1005A00003FC20FA02F001FA03FE40EA0E0021FAF1
:1005B00002F11444BDE600BF70B54FF0FF0C4CF4DF
:1005C000E06C1CEA11541DBF1CEA135594EA0C0F91
:1005D00095EA0C0F00F0DEF82C4481EA030621EACC
:1005E0004C5123EA4C5350EA013518BF52EA033507
:1005F00041F4801143F4801338D0A0FB02CE4FF0B9
:100600000005E1FB02E506F00042E0FB03E54FF0E8
:100610000006E1FB03569CF0000F18BF4EF0010EE0
:10062000A4F1FF04B6F5007F64F5407404D25FEADC
:100630004E0E6D4146EB060642EAC62141EA55518F
:100640004FEAC52040EA5E504FEACE2EB4F1FD0CD1
:1006500088BFBCF5E06F1ED8BEF1004F08BF5FEA4F
:10066000500E50F1000041EB045170BD06F0004601
:1006700046EA010140EA020081EA0301B4EB5C04AE
:10068000C2BFD4EB0C0541EA045170BD41F48011A6
:100690004FF0000E013C00F3AB8014F1360FDEBFCB
:1006A000002001F0004170BDC4F10004203C35DAA7
:1006B0000C341BDC04F11404C4F1200500FA05F32A
:1006C00020FA04F001FA05F240EA020001F00042CB
:1006D00021F0004110EBD37021FA04F642EB060141
:1006E0005EEA430E08BF20EAD37070BDC4F10C046B
:1006F000C4F1200500FA04F320FA05F001FA04F22F
:1007000040EA020001F0004110EBD37041F100011A
:100710005EEA430E08BF20EAD37070BDC4F1200525
:1007200000FA05F24EEA020E20FA04F301FA05F28D
:1007300043EA020321FA04F001F0004121FA04F235
:1007400020EA020000EBD3705EEA430E08BF20EA05
:10075000D37070BD94F0000F0FD101F0004640003F
:1007600041EB010111F4801F08BF013CF7D041EAC1
:10077000060195F0000F18BF704703F000465200C5
:1007800043EB030313F4801F08BF013DF7D043EA96
:100790000603704794EA0C0F0CEA135518BF95EA4C
:1007A0000C0F0CD050EA410618BF52EA4306D1D1D3
:1007B00081EA030101F000414FF0000070BD50EAF2
:1007C000410606BF1046194652EA430619D094EA7C
:1007D0000C0F02D150EA013613D195EA0C0F05D166
:1007E00052EA03361CBF104619460AD181EA0301BA
:1007F00001F0004141F0FE4141F470014FF0000072
:1008000070BD41F0FE4141F4780170BD70B54FF00C
:10081000FF0C4CF4E06C1CEA11541DBF1CEA13558C
:1008200094EA0C0F95EA0C0F00F0A7F8A4EB05046E
:1008300081EA030E52EA03354FEA013100F0888065
:100840004FEA03334FF0805545EA131343EA12632E
:100850004FEA022245EA111545EA10654FEA0026E3
:100860000EF000419D4208BF964244F1FD0404F59C
:10087000407402D25B084FEA3202B61A65EB0305F8
:100880005B084FEA32024FF480104FF4002CB6EBB5
:10089000020E75EB030E22BFB61A754640EA0C0035
:1008A0005B084FEA3202B6EB020E75EB030E22BF75
:1008B000B61A754640EA5C005B084FEA3202B6EBB6
:1008C000020E75EB030E22BFB61A754640EA9C0075
:1008D0005B084FEA3202B6EB020E75EB030E22BF45
:1008E000B61A754640EADC0055EA060E18D04FEA03
:1008F000051545EA16754FEA06164FEAC30343EAA3
:1009000052734FEAC2025FEA1C1CC0D111F4801F6F
:100910000BD141EA00014FF000004FF0004CB6E768
:1009200011F4801F04BF01430020B4F1FD0C88BF07
:10093000BCF5E06F3FF6AFAEB5EB030C04BFB6EB12
:10094000020C5FEA500C50F1000041EB045170BD05
:100950000EF0004E4EEA113114EB5C04C2BFD4EB32
:100960000C0541EA045170BD41F480114FF0000EB6
:10097000013C90E645EA060E8DE60CEA135594EA32
:100980000C0F08BF95EA0C0F3FF43BAF94EA0C0F35
:100990000AD150EA01347FF434AF95EA0C0F7FF4AA
:1009A00025AF104619462CE795EA0C0F06D152EAFE
:1009B00003353FF4FDAE1046194622E750EA4106E2
:1009C00018BF52EA43067FF4C5AE50EA41047FF4F3
:1009D0000DAF52EA43057FF4EBAE12E74A0011D2A5
:1009E00012F5001211D20DD56FF47873B3EB625289
:1009F0000ED44FEAC12343F0004343EA505323FA95
:100A000002F070474FF00000704750EA013002D109
:100A10004FF0FF3070474FF00000704753B94AB9AC
:100A2000002908BF00281CBF4FF0FF314FF0FF30F6
:100A300000F00CB8ADF1080C6DE904CE07F088FCAD
:100A4000DDF804E0DDE9022304B07047704700BF21
:100A500010B5054C237833B9044B13B10448AFF3F8
:100A600000800123237010BD400100200000000021
:100A70000C86000808B5034B1BB103490348AFF3CC
:100A8000008008BD00000000440100200C86000822
:100A9000F0B585B0114F4FF0FF3602960124019456
:100AA0000F4D009523460D223321384605F00EFBED
:100AB000029601940B4E009623460E2233213846AF
:100AC00005F004FB33781B021BB22878184301F0B1
:100AD00071FA054B83ED000A05B0F0BD78050020E2
:100AE00061010020600100205C01002008B50321A5
:100AF000002002F041F80221012002F03DF804211B
:100B0000022002F039F808BD08B50F4A0221002082
:100B100002F0F2F80028F8D10C4A0121002002F07E
:100B2000EBF80028F8D10A4A0221012002F0E4F88B
:100B30000028F8D1074A0421022002F0DDF800283D
:100B4000F8D1FFF7A5FF08BD6C030020600300206B
:100B5000540300204803002008B5174B1A680221EF
:100B6000002002F01FF9154B93ED000A022100202E
:100B700002F0EEF8124B1A680121002002F012F97F
:100B8000104B93ED000A0121002002F0E1F80E4B1A
:100B90001A680221012002F005F90C4B93ED000ABE
:100BA0000221012002F0D4F8094B93ED000A042140
:100BB000022002F0CDF808BD800100207C01002059
:100BC0007801002074010020700100206C010020D9
:100BD0006801002070B58EB004460D4600218DF8E6
:100BE000021000F051FD022003F004FF0121204615
:100BF00000F04AFD022003F0FDFE424E0DF103021B
:100C000040F20F11308806F06FFE9DF803203E4938
:100C100001A806F0D1FE3D4C4FF0FF33322201A96E
:100C2000204606F05CFB0DF103024FF4887130881A
:100C300006F05AFE9DF80320354901A806F0BCFED7
:100C40004FF0FF33322201A9204606F048FB6A46E6
:100C500040F20F11308806F063FEBDF800202D49E8
:100C600001A806F0A9FE4FF0FF33322201A9204669
:100C700006F035FB08E00DF10201224B188800F068
:100C800003FB022003F0B6FE9DF80230002BF2D0E9
:100C90009DF803201C4901A806F08EFE4FF0FF339B
:100CA000322201A9194806F01AFB164C208800F0E0
:100CB000DDF8194B1988208800F05DFA174B198868
:100CC000208800F07EF9164B1968208800F0B4FAED
:100CD000144B1A88144B1988208800F037FB2088A1
:100CE00000F096F82946208800F072F808B10EB09E
:100CF00070BD4FF0FF3323220C49044806F0EFFA91
:100D0000F5E700BF0800002024860008D803002073
:100D10003C86000858860008D2000020D000002041
:100D2000CC0000200000002004000020688600089D
:100D30002DE9F041044606E01F49208800F074F8D0
:100D4000022003F057FE1C4B1B78002BF4D01A4BEB
:100D500000221A70194F3946208800F0DDFADFF8BA
:100D60006C804146208800F09FFA154D2946208866
:100D700000F0A7FA134E3146208800F0BEFA12495F
:100D8000208800F0ACFA208800F028F8B8F800308D
:100D900063603B78A360338807EE903AF8EE677A99
:100DA000C4ED037A2B8807EE903AF8EE677AC4ED2B
:100DB000047ABDE8F08100BF8C0100208D01002085
:100DC0008801002086010020840100208A01002083
:100DD00008B54A08012106F043FD08BD08B5012207
:100DE000862106F03DFD08BD10B582B00C460DF120
:100DF0000702302106F078FD9DF8073003F010035C
:100E00008DF80730B3FA83F35B09237002B010BD8D
:100E100008B54022872106F023FD08BD08B5002251
:100E2000872106F01DFD08BD70B582B005460E464F
:100E30000DF10601FFF7D8FF04460DF1070231213D
:100E4000284606F051FD204340B248B99DF80730CE
:100E50009DF8062003F001039A4203D0002333706B
:100E600002B070BD01233370FAE7000070B582B0A4
:100E700006462D2400250BE0A4F12D031D4AD25C6B
:100E80002146304606F0ECFC05436DB20134E4B275
:100E9000872CF1D93046FFF7BBFF45EA000464B266
:100EA00000238DF8073006E00DF107013046FFF70B
:100EB000BBFF044364B29DF80730002BF4D03046EA
:100EC000FFF78CFF044364B23046FFF7A7FF0443EB
:100ED00064B209220821304606F0C2FC044364B221
:100EE00000220B21304606F0BBFC204340B202B08A
:100EF00070BD00BFA486000810B582B00C460DF18D
:100F000006025E2106F00CFDBDF80630B3F5D77F72
:100F10003BD01AD8512B0FD006D9AD2B35D0D62BBC
:100F20000DD12123238003E01D2B03D10F23238028
:100F300002B010BD1E2B04D114232380F8E7602BD0
:100F4000EFD0002323800120F2E740F2E132934208
:100F50001ED00BD940F28F42934203D040F29152FF
:100F60009342EED14FF4FA732380E1E740F2D922A5
:100F700093420DD040F2E122934202D164232380B8
:100F8000D6E7B3F5E67FF9D0DBE732232380CFE75E
:100F9000C8232380CCE710B582B00C460DF10702C0
:100FA0004B2106F0A1FC9DF80730142B03D00A2B2F
:100FB00004D002B010BD01222280F8E70223238072
:100FC000F7E770B582B006460C460DF10601FFF753
:100FD000E2FFBDF80630002B00F0C9800546012B6A
:100FE00014D0642C00F0A98000F28880212C00F03D
:100FF0009980322C73D1AD225E21304606F044FC3C
:10100000C6226121304606F03FFCB1E0322C4CD0C4
:101010001DD8142C3ED0212C0AD1D6225E21304678
:1010200006F032FC6E226121304606F02DFC9FE076
:101030000F2C0AD11D225E21304606F025FC272206
:101040006121304606F020FC92E0012590E0C82C9A
:1010500038D0B4F5FA7F0CD140F291525E2130467F
:1010600006F012FC40F2C1526121304606F00CFC41
:101070007EE0642C0CD140F2E1225E21304606F085
:1010800003FC4FF462726121304606F0FDFB6FE015
:1010900001256DE051225E21304606F0F5FB6E22FF
:1010A0006121304606F0F0FB62E04FF4D7725E211A
:1010B000304606F0E9FB4FF4F4726121304606F049
:1010C000E3FB55E040F2E1325E21304606F0DCFB06
:1010D00040F296426121304606F0D6FB48E0142CDF
:1010E0000AD11E225E21304606F0CEFB222261216B
:1010F000304606F0C9FB3BE0012539E0C82C29D079
:10110000B4F5FA7F0CD140F28F425E21304606F0F2
:10111000BBFB40F2A4426121304606F0B5FB27E05C
:10112000012525E060225E21304606F0ADFB6E22EF
:101130006121304606F0A8FB1AE04FF4E6725E210A
:10114000304606F0A1FB4FF4F5726121304606F0FF
:101150009BFB0DE040F2D9225E21304606F094FB65
:101160004FF43E726121304606F08EFB00E001250F
:10117000284602B070BD30B583B004460D460DF16F
:101180000601FFF7B9FE002851D1012D03D0022D31
:101190002BD001254CE014224B21204606F060FBA9
:1011A00007226021204606F05BFB052263212046D2
:1011B00006F056FB38226921204606F051FB40F22A
:1011C00005727821204606F05FFB40F206627A2124
:1011D000204606F059FB054655BBBDF806102046D3
:1011E000FFF7EFFE05436DB222E00A224B212046B5
:1011F00006F036FB0F226021204606F031FB0D225F
:101200006321204606F02CFBB8226921204606F017
:1012100027FB40F60D727821204606F035FB40F69C
:101220000E627A21204606F02FFB0546D4E7012501
:10123000284603B030BD000070B582B005460E46AA
:101240000DF10602DE2106F06BFB0446BDF8063008
:10125000C3F30903ADF8063006FB03F0FFF732F9DC
:1012600007A3D3E90023FFF7A7F9FFF7B7FB02466F
:101270006C21284606F01EFB204602B070BD00BF60
:10128000333333333333F13F10B582B00C46002390
:101290008DF807300DF10702E52106F025FB9DF8DA
:1012A0000730237002B010BD10B582B00C460DF1AE
:1012B0000602962106F034FBBDF80630238002B00A
:1012C00010BD10B582B00C460DF10602982106F053
:1012D00027FBBDF80630DB00238002B010BD10B53F
:1012E00082B00C460DF106028C2106F019FBBDF808
:1012F00006301B0A238002B010BD10B582B00C4628
:101300000DF10602902106F00BFBBDF80630DB0064
:10131000238002B010BD000010B582B00C46FF2340
:101320000B700DF10702892106F0DEFA9DF80730F7
:1013300003F01F038DF80730172B02D8024AD35C45
:10134000237002B010BD00BF8C860008F0B583B0DA
:1013500007460C4616460DF107024FF49F7106F042
:10136000C3FA0546102C00D91024102E00D91026DF
:101370000A2C01D80A2E02D9C7238DF807309DF810
:1013800007207F21384606F06BFA05436DB2013E17
:10139000621ED2B242EA0612D2B28021384606F06C
:1013A0005FFA284340B203B0F0BD000070B588B0CA
:1013B00000260196424B1A6B42F002021A631B6B25
:1013C00003F002030193019B3E4C01224FF4807114
:1013D000204603F002FF01224FF40071204603F083
:1013E000FCFE4FF4407303931123049301230593F0
:1013F00003A9204603F07EFD1FE0324D00224FF48A
:101400008071284603F0E9FE012003F0F3FA01227F
:101410004FF48071284603F0E0FE012003F0EAFA61
:101420000134092CE9DD4FF40071264803F0CEFEAB
:1014300028B9731C062E02DC1E460024F1E74FF487
:101440000071204803F0C2FE08B108B070BD002151
:1014500002911B4B1A6B42F001021A631B6B03F0E3
:1014600001030293029B202303930123049305911C
:1014700003A9154803F03EFD134C0122202120460C
:1014800003F0ABFE212003F0B5FA00222021204614
:1014900003F0A3FE212003F0ADFA01222021204613
:1014A00003F09BFE212003F0A5FA00222021204614
:1014B00003F093FE4FF4257003F09CFADCE700BFC5
:1014C00000380240000402400000024070B584B0C1
:1014D00016461D468DF80F1084B264210091012339
:1014E0000DF10F022146084804F004FB08B104B0D6
:1014F00070BD642305FB03F30093ABB23246214673
:10150000014804F0B3FBF2E79401002030B587B046
:101510000546084611461C468DF808001A460DF18E
:10152000090006F09DFA631C642200929BB202AA95
:10153000A9B2024804F0DEFA07B030BD94010020E1
:1015400008B50223064A12218620FFF7DFFF00B10B
:1015500008BD0223034A12218420FFF7D7FFF7E7D3
:10156000900100209201002010B588B0FFF71EFF07
:1015700000240194194B1A6B42F002021A631A6B91
:1015800002F002020192019A02941A6C42F40012D3
:101590001A641B6C03F400130293029B4FF4407314
:1015A000039312230493059406940423079303A939
:1015B0000B4803F09FFC0B480B4B03600B4B436045
:1015C0008460C4604FF48043036144618461C461FA
:1015D000046204F097F908B010BD00BF0038024063
:1015E000000402409401002000540040801A0600CC
:1015F00000B583B0FFF7B8FF022301AA00218620BF
:10160000FFF764FF30B99DF804301BB99DF8053031
:10161000162B02D003B05DF804FB022301AA0021BF
:101620008420FFF753FF0028F4D19DF80430002BED
:10163000F0D19DF80530162BECD1124B00221A6028
:10164000FF238DF804308DF80530022301AA142100
:101650008620FFF75BFF0028DCD1FF238DF80430E4
:10166000BF238DF80530022301AA14218420FFF73F
:101670004DFF0028CED1034B6FF0C0221A60FFF758
:101680005FFFC7E79001002008B563281FD007DC83
:1016900001281CD0022807D048B34FF0FF3008BD06
:1016A0006C2824D072280FD1194A537803F07F0395
:1016B000537011B163F07F0353700123154A132156
:1016C0008620FFF723FFEAE74FF0FF30E7E7104AF5
:1016D000D37803F07F03D37011B163F07F03D3702D
:1016E00001230D4A13218420FFF710FFD7E7084A92
:1016F000537803F0BF03537011B143F040035370AC
:101700000123044A13218620FFF700FFC7E700BF2B
:1017100090010020910100209301002001230B7013
:10172000002048708870C870486010238B60C860C3
:1017300000230B61014A4A618B6170470000C84475
:1017400080F8381080F83920DFED267AB4EEE70A09
:10175000F1EE10FA33D9F2EE097AB4EEE70AF1EEBF
:1017600010FA30D9F3EE097AB4EEE70AF1EE10FA86
:101770002BD9DFED1D7AB4EEE70AF1EE10FA26D987
:10178000DFED1A7AB4EEE70AF1EE10FA21D9DFEDB7
:10179000187AB4EEE70AF1EE10FA1CD9DFED157AEB
:1017A000B4EEE70AF1EE10FA17D9DFED137AB4EED2
:1017B000E70AF1EE10FA12D817EE903A00E00F4B5C
:1017C0004363002070470E4BFAE70E4BF8E70E4BD1
:1017D000F6E70E4BF4E70E4BF2E70E4BF0E70E4B3D
:1017E000EEE700BFCDCCCC3F000048420000C8422D
:1017F000000048430000C84300004844CDCCCC3F23
:10180000000048410000C841000048420000C842B2
:10181000000048430000C8430000C84410B54469B4
:10182000007BA04710BD10B50469007BA04710BD28
:101830002DE9F0412DED028B0446B0EE408A0D46B5
:1018400016464B1E032B03D8DFE803F0135B6B7CBB
:10185000012E0BD04FF00408F2EE097AB4EEE78ABD
:10186000F1EE10FA10D5B2EE098A0DE04FF014082F
:10187000F2E7012E42D04FF00308DFED517AB4EECB
:10188000E78AF1EE10FA6EDCDFED4E7AB4EEE78A0D
:10189000F1EE10FA6AD9F2EE097AB4EEE78AF1EEC7
:1018A00010FA79D9F3EE097AB4EEE78AF1EE10FA7C
:1018B00074D9DFED457AB4EEE78AF1EE10FA6FD90C
:1018C000DFED427AB4EEE78AF1EE10FA6AD9DFED85
:1018D0003C7AB4EEE78AF1EE10FA65D9DFED3C7A96
:1018E000B4EEE78AF1EE10FA60D9DFED3A7AB4EEA1
:1018F000E78AF1EE10FA5BD8082138E04FF01308C0
:10190000BBE7012E0AD08846DFED2D7AB4EEE78AD8
:10191000F1EE10FAB8DD9FED2A8AB5E74FF0120814
:10192000F2E7012E0BD04FF00108DFED257AB4EE7F
:10193000E78AF1EE10FAA7DD9FED218AA4E74FF0C8
:101940001108F2E7012E0BD04FF00008DFED1C7AF2
:10195000B4EEE78AF1EE10FA96DD9FED198A93E76F
:101960004FF01008F2E79FED168A8DE7012104F190
:101970002007384600F0D5FBE0B94146384600F074
:1019800029FBD0B984ED0D8A84F8385084F8396089
:10199000BDEC028BBDE8F0810221E8E70321E6E718
:1019A0000421E4E70521E2E70621E0E70721DEE77D
:1019B0000921DCE74FF0FF30EAE74FF0FF30E7E7BF
:1019C00000004843CDCCCC3F000048420000C84254
:1019D0000000C8430000484490F83130012B0ED07D
:1019E00010B5044690F8392090F8381090ED0D0AA3
:1019F000FFF71EFF28B9012384F8313010BD002005
:101A000070474FF0FF30F9E790F831300BB9002004
:101A1000704710B504460021203000F082FB10B959
:101A200084F8310010BD4FF0FF30FBE710B50446DD
:101A3000FFF7EAFF48B900236363002384F83830D6
:101A400084F8393084F8303010BD4FF0FF30FBE7B8
:101A500038B5044600F120050121284600F06CFC51
:101A600010BB0121284600F0EAFB00BB00212846FC
:101A700000F07BFCF0B90421284600F0ABFAE0B995
:101A8000124B6363002184F8381084F8391028461B
:101A900000F047FBA0B90021284600F0E9FB90B90F
:101AA000012384F8303038BD4FF0FF30FBE74FF0B2
:101AB000FF30F8E74FF0FF30F5E74FF0FF30F2E787
:101AC0004FF0FF30EFE74FF0FF30ECE70000C84287
:101AD00008B5022905DD042909DD082909DC0221F0
:101AE00000E00021203000F0C3FB20B908BD012137
:101AF000F8E70321F6E74FF0FF30F7E708B52030AD
:101B000000F013FC00B908BD4FF0FF30FBE710B543
:101B100082B00C460DF10701203000F0C2FBC0B9C5
:101B20009DF80730032B10D8DFE803F00206090CFC
:101B30000223236002B010BD04232360FAE70823C8
:101B40002360F7E710232360F4E74FF0FF302060B5
:101B5000F0E74FF0FF30EDE730B583B00D4600F110
:101B600020040DF10701204600F09BFB00284CD11A
:101B70000DF10601204600F06AFA002848D19DF8D0
:101B800006201B2A09D80123934003F01E3222F0BD
:101B900010220ABB13F0013F05D11F4B2B604FF001
:101BA000FF3003B030BD9DF80730032B0FD8DFE8BE
:101BB00003F00205080B194B2B60F2E7184B2B6062
:101BC000EFE7184B2B60ECE7174B2B60E9E7124B64
:101BD0002B604FF0FF30E4E79DF80730032B0FD860
:101BE000DFE803F00205080B104B2B60D9E7104B20
:101BF0002B60D6E7094B2B60D3E7094B2B60D0E76E
:101C0000054B2B604FF0FF30CBE74FF0FF30C8E7BC
:101C10004FF0FF30C5E700BF000080BF23DB793FF6
:101C200023DBF93F23DB794023DBF94023DB793EDB
:101C300023DBF93E30B583B00D4600F120040DF1F1
:101C40000701204600F0A3FA002840F095800DF12E
:101C50000601204600F0FBF9002840F090809DF836
:101C60000730222B00F28380DFE803F012162D30BC
:101C70003336393C536A818181818181818112812E
:101C80008181818181818181818181818181120034
:101C900000232B6003B030BD9DF806201B2A0AD814
:101CA0000123934013F00F3F02D0364B2B60F1E736
:101CB00013F0101F04D1344B2B604FF0FF30E9E7D5
:101CC000324B2B60E6E7314B2B60E3E7304B2B6068
:101CD000E0E7304B2B60DDE72F4B2B60DAE72F4B33
:101CE0002B60D7E79DF806201B2A0AD801239340D2
:101CF00013F00F3F02D0294B2B60CBE713F0101FDE
:101D000004D1214B2B604FF0FF30C3E7244B2B60F5
:101D1000C0E79DF806201B2A0AD80123934013F040
:101D20000F3F02D01D4B2B60B4E713F0101F04D1FE
:101D3000154B2B604FF0FF30ACE71A4B2B60A9E737
:101D40009DF806201B2A0AD80123934013F00F3F69
:101D500002D0124B2B609DE713F0101F04D10A4BE9
:101D60002B604FF0FF3095E70F4B2B6092E7064B4F
:101D70002B604FF0FF308DE74FF0FF308AE74FF0D8
:101D8000FF3087E7CDCCCC3F000080BF000048414A
:101D90000000C841000048420000C842000048431B
:101DA0000000C843000048440000C84430B585B076
:101DB0000D4600F120040DF10701204600F047F91F
:101DC000002849D102A9204600F08DFA002846D10A
:101DD0009DF807201B2A45D80123934003F01E32AB
:101DE00022F01022FAB913F0013F02D14FF0FF3078
:101DF00011E0BDF90830002B0FDB1B112B80BDF962
:101E00000A30002B0BDB1B116B80BDF90C30002B53
:101E100007DB1B11AB8005B030BD0F33EDE70F338F
:101E2000F1E70F33F5E7BDF90830002B0EDB9B100F
:101E30002B80BDF90A30002B0ADB9B106B80BDF9AB
:101E40000C30002B06DB9B10AB80E4E70333EEE79E
:101E50000333F2E70333F6E74FF0FF30DBE74FF0F1
:101E6000FF30D8E74FF0FF30D5E730B585B00546F5
:101E70000C460023019302A9FFF798FF60BB01A95C
:101E80002846FFF769FE50BBBDF9083007EE103A4F
:101E9000B8EEC77ADDED017A27EE277ABDEEC77A74
:101EA00084ED007ABDF90A3007EE103AB8EEC77A31
:101EB00027EE277ABDEEC77A84ED017ABDF90C30A2
:101EC00007EE103AB8EEC77A67EE877AFDEEE77A4A
:101ED000C4ED027A05B030BD4FF0FF30FAE74FF0A5
:101EE000FF30F7E708B590F83130012B02D0FFF74B
:101EF00027FC08BDFFF79CFCFBE708B50022114654
:101F0000FFF7F0FF08BD00B583B08DF8072001236F
:101F10000DF10702203000F048F810B903B05DF869
:101F200004FB4FF0FF30F9E700282BD010B5044632
:101F30000B6803604A6842608A6882600A7B0273A9
:101F40000A6902614A6942618A698261124A42628F
:101F5000124A0262CA698262C062B3B19847B8B9D4
:101F6000A368022B00D010BD94F83030002BFAD1BA
:101F7000052221212046FFF7C6FF0028F3D04FF0AD
:101F8000FF30F0E74FF0FF3070474FF0FF30EAE7E7
:101F90004FF0FF30E7E700BF1D18000827180008C2
:101FA00010B54468C068A04710BD10B50468C0688B
:101FB000A04710BD07EE900AF8EEE77A9FED047A8D
:101FC00067EE877AB3EE090A37EE800A704700BFE2
:101FD0000000803B30B583B005460C46012301AAC2
:101FE0002021FFF7DDFF034618B103B3184603B005
:101FF00030BDC4F381039DF8042063F383028DF8A0
:102000000420D3B264F301038DF80430012301AA44
:1020100020212846FFF7C9FF03460028E6D1012307
:102020006A4625212846FFF7BBFF0346DDE7C4F3D8
:1020300000119DF8003061F382038DF80030012318
:102040006A4625212846FFF7B0FF0346CEE730B5A4
:1020500083B004460D46012301AA2021FFF7A0FF0B
:1020600008B103B030BD01236A4625212046FFF7A1
:1020700097FF9DF80010C1F380019DF8042002F045
:102080000C0303EB011302F0030213441B2B45D88E
:10209000DFE803F01A1714110E4444442623201DD0
:1020A0004444444435322F2C29444444413E3B3877
:1020B00004232B70D5E703232B70D2E702232B7068
:1020C000CFE701232B70CCE700232B70C9E70B234C
:1020D0002B70C6E70A232B70C3E709232B70C0E7D8
:1020E00008232B70BDE714232B70BAE713232B7042
:1020F000B7E712232B70B4E711232B70B1E710233D
:102100002B70AEE71B232B70ABE71A232B70A8E7CD
:1021100019232B70A5E718232B70A2E704232B703B
:102120009FE730B583B005460C46012301AA202164
:10213000FFF736FF034618B1CBB1184603B030BDE8
:102140009DF8043064F307138DF80430012301AACD
:1021500020212846FFF729FF03460028EDD101235F
:102160006A4622212846FFF71BFF0346E4E7C4F333
:1021700001119DF8003061F301038DF80030012357
:102180006A4622212846FFF710FF0346D5E730B5FF
:1021900083B004460D46012301AA2021FFF700FF6A
:1021A00008B103B030BD01236A4622212046FFF763
:1021B000F7FE9DF8002002F003029DF804301B0991
:1021C00003EB0213222B37D8DFE803F01215181B9C
:1021D0001E2124272A2D3636363636363636303608
:1021E00036363636363636363636363636363300C8
:1021F00000232B70D5E701232B70D2E702232B702D
:10220000CFE703232B70CCE704232B70C9E705230A
:102210002B70C6E706232B70C3E707232B70C0E79C
:1022200008232B70BDE709232B70BAE712232B700C
:10223000B7E722232B70B4E700232B70B1E730B54A
:1022400083B004460D46012301AA2121FFF7A8FE11
:1022500008B103B030BD9DF8043065F3C3038DF8B9
:102260000430012301AA21212046FFF79EFEF0E75A
:1022700030B583B004460D46012301AA2521FFF79E
:102280008FFE08B103B030BD9DF8043065F305132F
:102290008DF80430012301AA25212046FFF785FE91
:1022A000F0E710B582B00C46012301AA2521FFF703
:1022B00077FE9DF80430C3F30113032B10D8DFE839
:1022C00003F00206090C0023237002B010BD0123A5
:1022D0002370FAE702232370F7E703232370F4E760
:1022E00000232370F1E710B582B00C4606236A463E
:1022F0002821FFF755FE9DF8012022809DF800302F
:1023000003EB022323809DF8032062809DF80230B6
:1023100003EB022363809DF80520A2809DF8043022
:1023200003EB0223A38002B010BD08B50A460123C7
:102330000F21FFF735FE08BD30B583B004460D46CA
:10234000012301AA2121FFF72BFE08B103B030BD04
:102350009DF8043065F382038DF80430012301AA4F
:1023600021212046FFF721FEF0E730B583B0044677
:102370000D46012301AA2E21FFF712FE08B103B07A
:1023800030BD9DF8043065F347138DF80430012308
:1023900001AA2E212046FFF708FEF0E70020087072
:1023A000487001238B70C870486088603223CB600E
:1023B00000230B614B61014B8B6170470000C842E9
:1023C0004FF07F530B600020704732230B600020DA
:1023D00070470020704710B584682CB9446941F0FB
:1023E0008001007BA04710BD446941F04001007BA3
:1023F000A047F8E710B584682CB9046941F0800162
:10240000007BA04710BD046941F04001007BA0475C
:10241000F8E790F83130012B0AD010B504460021BE
:10242000203000F043F928B9012384F8313010BD81
:10243000002070474FF0FF30F9E790F831300BB9CA
:102440000020704710B504460221203000F02EF91C
:1024500010B984F8310010BD4FF0FF30FBE710B524
:102460000446FFF7EAFF10B984F8300010BD4FF0C2
:10247000FF30FBE708B5F2EE047AB4EEE70AF1EEBE
:1024800010FA0FD9F3EE047AB4EEE70AF1EE10FA7F
:102490000ED9DFED0B7AB4EEE70AF1EE10FA09D8A7
:1024A000022100E00021203000F019F920B908BD18
:1024B0000121F8E70321F6E74FF0FF30F7E700BF0F
:1024C0000000484238B5044600F1200501212846A5
:1024D00000F040F990B90221284600F0E7F880B9F1
:1024E0000321284600F0FBF870B90021284600F0CF
:1024F00073F960B9012384F8303038BD4FF0FF30F4
:10250000FBE74FF0FF30F8E74FF0FF30F5E74FF013
:10251000FF30F2E708B5203000F057F900B908BDE8
:102520004FF0FF30FBE7000010B582B00C460DF114
:102530000701203000F0ECF8A0B99DF80730032B1C
:1025400013D8DFE803F00206090C094B236002B040
:1025500010BD084B2360FAE7074B2360F7E7074BF2
:102560002360F4E74FF0FF30F1E74FF0FF30EEE784
:10257000000020410000A041000048420000C84285
:1025800010B582B00C466946203000F0FCF850B916
:10259000BDF900302380BDF902306380BDF90430FD
:1025A000A38002B010BD4FF0FF30FAE770B584B0E1
:1025B00005460C460023019302A9203000F0E3F801
:1025C00068BB064601A92846FFF7FAFEBDF90830A8
:1025D00007EE103AB8EEC77ADDED017A27EE277ADA
:1025E000BDEEC77A84ED007ABDF90A3007EE103AE5
:1025F000B8EEC77A27EE277ABDEEC77A84ED017A66
:10260000BDF90C3007EE103AB8EEC77A67EE877A5C
:10261000FDEEE77AC4ED027A304604B070BD4FF0AB
:10262000FF36F9E7002829D010B504460B6803608F
:102630004A6842608A6882600A7B02730A690261A2
:102640004A6942618A698261114A4262114A0262A0
:10265000CA698262C062A3B19847A8B9A36813B1DE
:1026600094F8303003B110BD012104F1200000F0D6
:10267000CCF80028F7D04FF0FF30F4E74FF0FF30F0
:1026800070474FF0FF30EEE74FF0FF30EBE700BF51
:10269000D7230008F523000810B54468C068A04798
:1026A00010BD10B50468C068A04710BD30B583B038
:1026B00004460D46012301AA6021FFF7EDFF08B192
:1026C00003B030BD9DF8043065F301038DF804308C
:1026D000012301AA60212046FFF7E3FFF0E730B5B0
:1026E00083B004460D46012301AA6021FFF7D4FF01
:1026F00008B103B030BD9DF8043065F383038DF855
:102700000430012301AA60212046FFF7CAFFF0E749
:1027100010B582B00C46012301AA6021FFF7BCFF6F
:102720009DF80430C3F38103032B10D8DFE803F0D6
:102730000206090C0023237002B010BD0123237090
:10274000FAE702232370F7E703232370F4E700235B
:102750002370F1E730B583B004460D46012301AA8A
:102760006221FFF799FF08B103B030BD9DF8043036
:1027700065F304138DF80430012301AA6221204679
:10278000FFF78FFFF0E710B582B00C4606236A46CC
:102790006821FFF781FF9DF8012022809DF800301D
:1027A00003EB022323809DF8032062809DF8023012
:1027B00003EB022363809DF80520A2809DF804307E
:1027C00003EB0223A38002B010BD08B50A46012323
:1027D0004F21FFF761FF08BD30B583B004460D46B9
:1027E000012301AA6221FFF757FF08B103B030BDF2
:1027F0009DF8043065F341038DF80430012301AAEC
:1028000062212046FFF74DFFF0E730B583B0044664
:102810000D46012301AA6221FFF73EFF08B103B074
:1028200030BD9DF8043065F345138DF80430012365
:1028300001AA62212046FFF734FFF0E770B590B09F
:10284000044600230A93D7238DF82C30394B089384
:10285000394B0993394B0D93394B0C93394B0E93EC
:10286000394B0F9308A9394800F076FF002852D160
:102870000021364800F0ACFF00284FD10DF11F01B8
:10288000324800F0EDFC064600284AD19DF81F3082
:102890006B2B49D12D4D6946284600F0AFFA9DF8C3
:1028A00001209DF8003042EA43039DF8021043EAFC
:1028B000810327490B60274B1D60274B274919606F
:1028C00014F0010F01D0012A0CD014F0020F03D034
:1028D0009DF80030012B10D014F0040F27D13046A2
:1028E00010B070BD1E4B1F4A1A600B6828469847EF
:1028F0000028EAD06FF00406F1E7194B1A4A5A6033
:10290000154B1B681B68134A106898470028E3D0D2
:102910006FF00406E3E76FF00606E0E76FF00606E7
:10292000DDE76FF00606DAE76FF00606D7E76FF02F
:102930000406D4E779770008917600080577000847
:10294000C976000841770008F549000858020020C0
:1029500090020020CC0200209C020020BC0000203D
:10296000A8020020740000209800002070B590B0EC
:10297000044600230A9333238DF82C30304B089300
:10298000304B0993304B0D93304B0C93304B0E93DF
:10299000304B0F9308A93048FFF7C6FA002842D100
:1029A0000DF11F012C48FFF7A9F8054600283DD17D
:1029B0009DF81F30442B3CD1274E69463046FEF728
:1029C000ADFE9DF801209DF8001042EA41039DF8FC
:1029D000020043EA800321484360214B5E60214BA3
:1029E0002148586014F0010F01D0012A18D014F0CA
:1029F000020F01D0012906D015B914F0040F1BD124
:102A0000284610B070BD194B194A1A61164B1B6845
:102A10001148984705460028EFD06FF00405EFE70E
:102A20006FF00405E8E76FF00605E9E76FF00605CB
:102A3000E6E76FF00605E3E76FF00405E0E700BFA7
:102A4000797700089176000805770008C9760008B4
:102A500041770008F54900081C0200209002002080
:102A6000CC0200209C02002030000020A8020020A0
:102A70000C00002070B590B0044600230A933D235B
:102A80008DF82C302F4B08932F4B09932F4B0D9320
:102A90002F4B0C932F4B0E932F4B0F9308A92F48BE
:102AA000FFF7C0FD002841D10DF11F012B48FFF7B2
:102AB00031FD054600283CD19DF81F30402B3BD10D
:102AC000264E69463046FFF769FC9DF801209DF8C7
:102AD000001042EA41039DF8020043EA80032048C7
:102AE0008360204B9E60204B2048986014F0010FBB
:102AF00001D0012A14D014F0020F01D001291ED0F8
:102B00005DB914F0040F08D0194B1A4A1A62174B1A
:102B10001B6812489847054628B9284610B070BD72
:102B20006FF00405ECE76FF00405F6E76FF00605BB
:102B3000F3E76FF00605F0E76FF00605EDE76FF0DD
:102B40000405EAE779770008917600080577000820
:102B5000C976000841770008F5490008E80100201F
:102B600090020020CC0200209C0200206400002083
:102B7000A8020020400000202DE9F04188B0044662
:102B80000F46012830D0022855D010B16FF0010057
:102B900095E00846FFF752FE002840F09380524B24
:102BA00053F82430DB6801A9504A52F824009847B2
:102BB000002840F08A809DF80430012B0BD0A046FD
:102BC0009DF80530012B09D09DF80630012B08D067
:102BD0000026012557E04FF00208F1E748F0010810
:102BE000F2E748F00408F3E70846FFF7BFFE0028C5
:102BF0006ED13D4B53F82430DB6801A93B4A52F8B3
:102C000024009847002866D19DF80430012B0CD091
:102C10004FF000089DF80530012B09D09DF80630D3
:102C2000012BD5D148F00408D2E74FF00208F1E7B4
:102C300048F00108F2E70846FFF71CFF00284DD1D5
:102C4000294B53F82430DB6801A9284A52F82400A4
:102C50009847002845D19DF80430012B0CD04FF047
:102C600000089DF80530012B08D09DF80630012B97
:102C7000AED148F00408ABE7A046F2E748F00108FF
:102C8000F3E76D000136022E18D835EA0703F8D1B4
:102C900035EA0803F5D1164B53F8252004EB44031D
:102CA0001344144A52F823301B68104A52F8240087
:102CB00098470028E5D06FF0040000E0002008B03D
:102CC000BDE8F0814FF0FF30F9E76FF00600F6E75E
:102CD0004FF0FF30F3E76FF00600F0E74FF0FF3002
:102CE000EDE76FF00600EAE79C020020CC0200202E
:102CF00000870008A802002002281BD808B50B4650
:102D000011460F4A52F8202033EA020215D10D4A2B
:102D100052F8232000EB400313440B4A52F82330AF
:102D2000DB690A4A52F82000984700B908BD6FF0E5
:102D30000400FBE76FF0010070476FF00100F5E75A
:102D40009002002000870008A8020020CC0200208A
:102D5000022819D808B50F4B53F8203031EA030385
:102D600015D10D4B53F8212000EB400313440B4ABF
:102D700052F823301B690A4A52F82000984700B9DC
:102D800008BD6FF00400FBE76FF0010070476FF0C3
:102D90000100F5E79002002000870008A80200204B
:102DA000CC02002002281BD808B50B4611460F4A5A
:102DB00052F8202033EA020215D10D4A52F823209E
:102DC00000EB400313440B4A52F823309B690A4A34
:102DD00052F82000984700B908BD6FF00400FBE7E7
:102DE0006FF0010070476FF00100F5E790020020DE
:102DF00000870008A8020020CC02002001230B70ED
:102E00004B7000208870C8704FF47A634B601023B9
:102E10008B60C860024B0B614B6100238B61704774
:102E20000058D045F2EE097AB4EEE70AF1EE10FA56
:102E300039D9F3EE0A7AB4EEE70AF1EE10FA37D98F
:102E4000DFED237AB4EEE70AF1EE10FA32D9DFEDC6
:102E5000217AB4EEE70AF1EE10FA2DD9DFED1E7AF1
:102E6000B4EEE70AF1EE10FA28D9DFED1C7AB4EEE1
:102E7000E70AF1EE10FA23D9DFED197AB4EEE70A8A
:102E8000F1EE10FA1ED9DFED177AB4EEE70AF1EE93
:102E900010FA19D9DFED147AB4EEE70AF1EE10FA60
:102EA00014D8092300E0012380F833300020704754
:102EB0000223F9E70323F7E70423F5E70523F3E704
:102EC0000623F1E70723EFE70823EDE70A23EBE703
:102ED000000050420000D042000050430000D043A8
:102EE000004050440040D04400405045F2EE097A82
:102EF000B4EEE70AF1EE10FA39D9F3EE0A7AB4EE3D
:102F0000E70AF1EE10FA37D9DFED237AB4EEE70ADB
:102F1000F1EE10FA32D9DFED217AB4EEE70AF1EEE4
:102F200010FA2DD9DFED1E7AB4EEE70AF1EE10FAB1
:102F300028D9DFED1C7AB4EEE70AF1EE10FA23D9B6
:102F4000DFED197AB4EEE70AF1EE10FA1ED9DFEDE3
:102F5000177AB4EEE70AF1EE10FA19D9DFED147A18
:102F6000B4EEE70AF1EE10FA14D8092300E00123C9
:102F700080F83430002070470223F9E70323F7E795
:102F80000423F5E70523F3E70623F1E70723EFE73B
:102F90000823EDE70A23EBE7000050420000D0428F
:102FA000000050430000D043004050440040D04453
:102FB0000040504510B54469007BA04710BD10B5D6
:102FC0000469007BA04710BD90F83130012B0BD075
:102FD00010B5044690F83310203000F0ECFE28B90C
:102FE000012384F8313010BD002070474FF0FF30CE
:102FF000F9E7000008B5F2EE097AB4EEE70AF1EE5F
:1030000010FA39D9F3EE0A7AB4EEE70AF1EE10FAC3
:1030100038D9DFED267AB4EEE70AF1EE10FA33D9AB
:10302000DFED237AB4EEE70AF1EE10FA2ED9DFEDE8
:10303000217AB4EEE70AF1EE10FA29D9DFED1E7A13
:10304000B4EEE70AF1EE10FA24D9DFED1C7AB4EE03
:10305000E70AF1EE10FA1FD9DFED197AB4EEE70AAC
:10306000F1EE10FA1AD9DFED177AB4EEE70AF1EEB5
:1030700010FA15D8092100E00121203000F09BFE54
:1030800080B908BD0221F8E70321F6E70421F4E73F
:103090000521F2E70621F0E70721EEE70821ECE73A
:1030A0000A21EAE74FF0FF30EBE700BF0000504293
:1030B0000000D042000050430000D0430040504484
:1030C0000040D0440040504508B590F83130012B05
:1030D00002D0FFF7A7FE08BDFFF78CFFFBE708B59E
:1030E000022905DD042909DD082909DC032100E0A6
:1030F0000021203000F0EAFB20B908BD0221F8E7EA
:103100000121F6E74FF0FF30F7E790F83230012B5E
:103110000BD010B5044690F83410203000F032FF88
:1031200028B9012384F8323010BD002070474FF0D9
:10313000FF30F9E708B5F2EE097AB4EEE70AF1EEEE
:1031400010FA39D9F3EE0A7AB4EEE70AF1EE10FA82
:1031500038D9DFED267AB4EEE70AF1EE10FA33D96A
:10316000DFED237AB4EEE70AF1EE10FA2ED9DFEDA7
:10317000217AB4EEE70AF1EE10FA29D9DFED1E7AD2
:10318000B4EEE70AF1EE10FA24D9DFED1C7AB4EEC2
:10319000E70AF1EE10FA1FD9DFED197AB4EEE70A6B
:1031A000F1EE10FA1AD9DFED177AB4EEE70AF1EE74
:1031B00010FA15D8092100E00121203000F0E2FECC
:1031C00080B908BD0221F8E70321F6E70421F4E7FE
:1031D0000521F2E70621F0E70721EEE70821ECE7F9
:1031E0000A21EAE74FF0FF30EBE700BF0000504252
:1031F0000000D042000050430000D0430040504443
:103200000040D0440040504508B590F83230012BC2
:1032100002D0FFF76BFE08BDFFF78CFFFBE708B598
:103220007D290CDDFA2910DDB1F5FA7F0FDDB1F54E
:103230007A7F0EDDB1F5FA6F0DDC0C2100E0022182
:10324000203000F0BBFB40B908BD0021F8E70421A5
:10325000F6E70821F4E70121F2E74FF0FF30F3E74A
:1032600008B5203000F0B9FC00B908BD4FF0FF30C0
:10327000FBE738B590F831300BB9002038BD044673
:1032800000F1200500F13301284600F05AFB38B95F
:103290000021284600F08FFD28B984F83100EDE7C1
:1032A0004FF0FF30EAE74FF0FF30E7E710B582B0AC
:1032B0000C460DF10701203000F043FB002830D10F
:1032C0009DF807300B2B2FD8DFE803F0060A0D100E
:1032D0001316191C1F2225280023236002B010BDDD
:1032E000134B2360FAE7134B2360F7E7124B23607D
:1032F000F4E7124B2360F1E7114B2360EEE7114B2B
:103300002360EBE7104B2360E8E7104B2360E5E711
:103310000F4B2360E2E70F4B2360DFE70E4B236088
:10332000DCE74FF0FF30D9E74FF0FF30D6E700BFC2
:10333000000048410000D041000050420000D0424F
:10334000000050430000D043004050440040D044AF
:10335000004050450058D045CDCCCC3F10B582B090
:103360000C460DF10701203000F0C9FAA0B99DF814
:103370000730032B13D8DFE803F0020C0609094BD2
:10338000236002B010BD084B2360FAE7074B2360AF
:10339000F7E7074B2360F4E74FF0FF30F1E74FF01A
:1033A000FF30EEE723DB793D23DBF93D23DB793E7C
:1033B00023DBF93E10B582B00C460DF10701203039
:1033C00000F09DFAA0B99DF80730032B13D8DFE871
:1033D00003F0020C06090223236002B010BD04238F
:1033E0002360FAE708232360F7E710232360F4E75C
:1033F0004FF0FF30F1E74FF0FF30EEE710B582B04D
:103400000C466946203000F094FB50B9BDF90030FD
:103410002380BDF902306380BDF90430A38002B07F
:1034200010BD4FF0FF30FAE730B585B005460C46C9
:103430000023019302A9203000F07BFB60BB01A9AF
:103440002846FFF78BFF50BBBDF9083007EE103A56
:10345000B8EEC77ADDED017A27EE277ABDEEC77A9E
:1034600084ED007ABDF90A3007EE103AB8EEC77A5B
:1034700027EE277ABDEEC77A84ED017ABDF90C30CC
:1034800007EE103AB8EEC77A67EE877AFDEEE77A74
:10349000C4ED027A05B030BD4FF0FF30FAE74FF0CF
:1034A000FF30F7E738B590F832300BB9002038BD5F
:1034B000044600F1200500F13401284600F0C4FA6A
:1034C00038B90021284600F05DFD28B984F83200A3
:1034D000EDE74FF0FF30EAE74FF0FF30E7E710B5D8
:1034E0000446FFF7C6FE50B92046FFF7DBFF48B998
:1034F00084F8330084F8340084F8300010BD4FF0B5
:10350000FF30FBE74FF0FF30F8E7000010B582B066
:103510000C460DF10701203000F096FA00282DD15D
:103520009DF807300A2B2CD8DFE803F0060A0D10AF
:103530001316191C1F2225000023236002B010BDA2
:10354000114B2360FAE7114B2360F7E7104B236020
:10355000F4E7104B2360F1E70F4B2360EEE70F4BCE
:103560002360EBE70E4B2360E8E70E4B2360E5E7B3
:103570000D4B2360E2E70D4B2360DFE74FF0FF3098
:10358000DCE74FF0FF30D9E7000048410000D041B0
:10359000000050420000D042000050430000D043E1
:1035A000004050440040D044004050450058D045B1
:1035B00010B582B00C460DF10701203000F017FA6B
:1035C000F0B99DF807300C2B1DD8DFE803F00A1680
:1035D000071C0D1C1C1C101C1C1C13000C4B236016
:1035E00013E00C4B236010E00B4B23600DE00B4B02
:1035F00023600AE00A4B236007E00A4B236004E0E3
:103600004FF0FF3001E04FF0FF3002B010BD00BFBF
:1036100000008C4000000C4100008C4100000C4276
:1036200000008C4200000C4310B582B00C460DF136
:103630000701203000F0DBF910BB9DF807300C2BA0
:1036400021D8DFE803F00A1907200D2020201120DF
:10365000202015007D23236017E0FA23236014E067
:103660004FF4FA73236010E04FF47A7323600CE098
:103670004FF4FA63236008E04FF47A63236004E0B8
:103680004FF0FF3001E04FF0FF3002B010BD10B539
:1036900082B00C466946203000F029FA50B9BDF9D5
:1036A00000302380BDF902306380BDF90430A3806F
:1036B00002B010BD4FF0FF30FAE730B585B00546D7
:1036C0000C460023019302A9203000F010FA60BBE1
:1036D00001A92846FFF76CFF50BBBDF9083007EE83
:1036E000103AB8EEC77ADDED017A27EE277ABDEE03
:1036F000C77A84ED007ABDF90A3007EE103AB8EEC9
:10370000C77A27EE277ABDEEC77A84ED017ABDF934
:103710000C3007EE103AB8EEC77A67EE877AFDEE06
:10372000E77AC4ED027A05B030BD4FF0FF30FAE71A
:103730004FF0FF30F7E700B583B08DF80720012385
:103740000DF10702203000F0BCF810B903B05DF8AD
:1037500004FB4FF0FF30F9E700282BD010B50446EA
:103760000B6803604A6842608A6882600A7B027361
:103770000A6902614A6942618A698261124A426247
:10378000124A0262CA698262C062B3B19847B8B98C
:10379000A368022B00D010BD94F83030002BFAD172
:1037A0000C2212212046FFF7C6FF0028F3D04FF06D
:1037B000FF30F0E74FF0FF3070474FF0FF30EAE79F
:1037C0004FF0FF30E7E700BFB52F0008BF2F00081C
:1037D00008B5012902D0022900D00021203000F0D4
:1037E000E3F900B908BD4FF0FF30FBE738B50546F7
:1037F00000F120040121204600F0BDF9D8BB0021D2
:103800002846FFF7E5FFC8BB0121204600F005FA76
:10381000B8BB0121204600F0E7F9A8BB01212046F2
:1038200000F0FBF998BB0121204600F047F988BB66
:103830000021204600F00AFA78BB042385F83330D3
:103840000021204600F0B7FA50BB0021204600F0CE
:103850003DF840BB042385F834300021204600F0B9
:1038600091FB18BB0C21204600F0A8F808BB0123EF
:1038700085F8303038BD4FF0FF30FBE74FF0FF30B8
:10388000F8E74FF0FF30F5E74FF0FF30F2E74FF089
:10389000FF30EFE74FF0FF30ECE74FF0FF30E9E7A4
:1038A0004FF0FF30E6E74FF0FF30E3E74FF0FF3037
:1038B000E0E74FF0FF30DDE710B54468C068A0478F
:1038C00010BD10B50468C068A04710BD30B583B006
:1038D00004460D46012301AA1021FFF7EDFF08B1B0
:1038E00003B030BD9DF8043065F383038DF80430D8
:1038F000012301AA10212046FFF7E3FFF0E710B5EE
:1039000082B00C46012301AA1021FFF7D5FF9DF8D4
:103910000430C3F38103032B10D8DFE803F0020661
:10392000090C0023237002B010BD01232370FAE7B5
:1039300002232370F7E703232370F4E700232370A7
:10394000F1E710B582B00C46012301AA1021FFF760
:10395000B3FF9DF804301B090B2B2CD8DFE803F0D4
:10396000060A0D101316191C1F2225280023237088
:1039700002B010BD01232370FAE702232370F7E79A
:1039800003232370F4E704232370F1E70523237056
:10399000EEE706232370EBE707232370E8E708230D
:1039A0002370E5E709232370E2E70A232370DFE7AA
:1039B0000B232370DCE700232370D9E730B583B0F5
:1039C00004460D46012301AA1121FFF775FF08B136
:1039D00003B030BD9DF8043065F303038DF8043067
:1039E000012301AA11212046FFF76BFFF0E710B574
:1039F00082B00C46012301AA1121FFF75DFF9DF85B
:103A0000043003F00F030C2B1BD8DFE803F00B1777
:103A1000071A0E1A1A1A111A1A1A140002232370FE
:103A200002B010BD00232370FAE704232370F7E7E8
:103A300008232370F4E70C232370F1E7012323709C
:103A4000EEE702232370EBE710B582B00C460123AA
:103A500001AA1121FFF730FF9DF804301B090A2B42
:103A600029D8DFE803F0060A0D101316191C1F22CF
:103A700025000023237002B010BD01232370FAE754
:103A800002232370F7E703232370F4E70423237052
:103A9000F1E705232370EEE706232370EBE7072306
:103AA0002370E8E708232370E5E709232370E2E7A2
:103AB0000A232370DFE700232370DCE730B583B0EF
:103AC00004460D46012301AA1221FFF7F5FE08B1B5
:103AD00003B030BD9DF8043065F386138DF80430D3
:103AE000012301AA12212046FFF7EBFEF0E710B5F3
:103AF00082B00C4606236A462221FFF7DDFE9DF8C0
:103B0000012022809DF8003003EB022323809DF8E2
:103B1000032062809DF8023003EB022363809DF84E
:103B20000520A2809DF8043003EB0223A38002B09D
:103B300010BD10B582B00C4606236A462821FFF757
:103B4000BBFE9DF8012022809DF8003003EB02238C
:103B500023809DF8032062809DF8023003EB02234E
:103B600063809DF80520A2809DF8043003EB0223BA
:103B7000A38002B010BD30B583B004460D460123CA
:103B800001AA1821FFF798FE08B103B030BD9DF8D7
:103B9000043065F341038DF80430012301AA182194
:103BA0002046FFF78EFEF0E730B583B004460D46A1
:103BB000012301AA1946FFF77FFE08B103B030BD0B
:103BC0009DF8043065F387138DF80430012301AAB2
:103BD00019462046FFF775FEF0E708B50A460123AF
:103BE0000F21FFF769FE08BD30B583B004460D46CE
:103BF000012301AA1221FFF75FFE08B103B030BD17
:103C00009DF8043065F300038DF80430012301AA08
:103C100012212046FFF755FEF0E730B583B0044689
:103C20000D46012301AA1221FFF746FE08B103B099
:103C300030BD9DF8043065F382038DF80430012314
:103C400001AA12212046FFF73CFEF0E730B583B011
:103C500004460D46012301AA0A21FFF72DFE08B1F3
:103C600003B030BD9DF8043065F302038DF80430D5
:103C7000012301AA0A212046FFF723FEF0E738B509
:103C800004460D460221FFF78FFF034610B193B1A2
:103C9000184638BD01232A4646212046FFF70CFE70
:103CA00003460028F4D10123EA1847212046FFF7F4
:103CB00003FE0346EBE700212046FFF775FF0346AE
:103CC000E6E730B583B004460D460221FFF76CFFEE
:103CD00048B19DF80430C3F3C103032B1DD8DFE8BE
:103CE00003F00F131619012301AA5F212046FFF7E5
:103CF000E3FD0028EDD100212046FFF755FFE8E75E
:103D000000232B7003B030BD01232B70FAE7022390
:103D10002B70F7E703232B70F4E700232B70F1E7F8
:103D200030B583B004460D460221FFF73DFF08B1D0
:103D300003B030BD012301AA05212046FFF7BCFDD9
:103D40000028F5D100212046FFF72EFF9DF8043012
:103D5000C3F300132B70EBE730B583B005460C4678
:103D60000221FFF721FF08B103B030BD012301AAF2
:103D700060212846FFF7A0FD0028F5D19DF804300A
:103D8000C3F30113032B13D8DFE803F002090C0F70
:103D90000023237000212846FFF706FFE4E70123F4
:103DA0002370F7E702232370F4E703232370F1E77E
:103DB00000232370EEE7F0B583B005460C4601A959
:103DC000FFF75DFF0246002860D19DF8041001F066
:103DD0000103C1F340000343C1F380000343C1F377
:103DE000C0000343C1F300100343C1F34010034379
:103DF000C1F38010034343EAD1139DF8051001F08D
:103E000001000343C1F340000343C1F380000343B7
:103E1000C1F3C0000343C1F300100343C1F34010DA
:103E20000343C1F38010034353EAD11301D1264663
:103E30002DE00DF103012846FFF743FF024678BB52
:103E40009DF80330032B2DD8DFE803F002050C1595
:103E500054BB01261BE04CB3012C01D0264616E0D2
:103E6000022614E024B3012C24D0022C01D02646D3
:103E70000DE003260BE0FCB1022C1FD0032C1FD059
:103E8000012C01D0264602E0042600E0264600234D
:103E90008DF80230B2B1002A66D0104603B0F0BDF2
:103EA0002646F4E72646F2E72646F0E70226EEE746
:103EB0000326ECE70326EAE70426E8E70426E6E71C
:103EC0000426E4E70DF102012846FFF729FF024628
:103ED0009DF80270012F09D0002ADED101236A4625
:103EE00010212846FFF7E8FC0246D4E70DF1010156
:103EF0002846FFF731FF02460028CED19DF8013059
:103F0000032B21D8DFE803F002050C15F4B93E4677
:103F1000E2E7ECB1012C01D02646DDE70226DBE723
:103F2000C4B1012C18D0022C01D02646D4E70326B8
:103F3000D2E79CB1022C13D0032C13D0012C01D05A
:103F40002646C9E70426C7E72646C5E72646C3E74F
:103F50000226C1E70326BFE70326BDE70426BBE729
:103F60000426B9E70426B7E79DF8003066F3071387
:103F70008DF8003001236A4610212846FFF7A1FC86
:103F800002468AE7F0B583B005460C4601A9FFF763
:103F900076FE0246002860D19DF8041001F001036E
:103FA000C1F340000343C1F380000343C1F3C000E9
:103FB0000343C1F300100343C1F340100343C1F3B3
:103FC0008010034343EAD1139DF8051001F001006E
:103FD0000343C1F340000343C1F380000343C1F333
:103FE000C0000343C1F300100343C1F34010034377
:103FF000C1F38010034353EAD11301D126462DE0CB
:104000000DF103012846FFF75CFE024678BB9DF8E0
:104010000330032B2DD8DFE803F002050C1554BB49
:1040200001261BE04CB3012C01D0264616E00226E7
:1040300014E024B3012C24D0022C01D026460DE03C
:1040400003260BE0FCB1022C1FD0032C1FD0012C47
:1040500001D0264602E0042600E0264600238DF823
:104060000230B2B1002A66D0104603B0F0BD264639
:10407000F4E72646F2E72646F0E70226EEE70326B7
:10408000ECE70326EAE70426E8E70426E6E7042649
:10409000E4E70DF102012846FFF742FE02469DF8D3
:1040A0000270012F09D0002ADED101236A461121B6
:1040B0002846FFF701FC0246D4E70DF1010128462E
:1040C000FFF74AFE02460028CED19DF80130032BAF
:1040D00021D8DFE803F002050C15F4B93E46E2E70B
:1040E000ECB1012C01D02646DDE70226DBE7C4B1A6
:1040F000012C18D0022C01D02646D4E70326D2E7A3
:104100009CB1022C13D0032C13D0012C01D02646D5
:10411000C9E70426C7E72646C5E72646C3E70226C1
:10412000C1E70326BFE70326BDE70426BBE7042655
:10413000B9E70426B7E79DF8003066F307138DF85A
:10414000003001236A4611212846FFF7BAFB0246D8
:104150008AE7000070B58AB000240594069407949D
:104160000894099401942E4B1A6B42F004021A63CE
:104170001A6B02F004020192019A02941A6B42F047
:1041800080021A631A6B02F080020292029A039470
:104190001A6B42F001021A631A6B02F001020392D9
:1041A000039A04941A6B42F002021A631B6B03F029
:1041B00002030493049B1B4D22462021284601F054
:1041C0000CF84FF4005305934FF404160696079429
:1041D00005A9154800F08EFE1023059306960126CA
:1041E000079605A9284600F085FE2023059306962C
:1041F0000794089405A9284600F07CFE2246214633
:104200000A2000F05FFC0A2000F06CFC22462146E8
:10421000282000F057FC282000F064FC0AB070BD94
:1042200000380240000002400008024010B582B091
:1042300000240194114B1A6B42F400121A631B6B99
:1042400003F400130193019B224621460B2000F04A
:1042500039FC0B2000F046FC224621460C2000F0E1
:1042600031FC0C2000F03EFC22462146112000F0DB
:1042700029FC112000F036FC02B010BD00380240CD
:1042800082B08DF804008DF805108DF806208DF8A9
:1042900007309DED010A02B0704782B08DF804002E
:1042A0008DF805108DF806208DF80730019802B0C2
:1042B0007047000010B50446837942790179C078CF
:1042C000FFF7EBFF264B1860A37A627A217AE07938
:1042D000FFF7E3FF234B1860A37B627B217BE07A2F
:1042E000FFF7DBFF204B1860A37C627C217CE07B26
:1042F000FFF7C6FF1D4B83ED000AA37D627D217D84
:10430000E07CFFF7CAFF1A4B1860A37E627E217E15
:10431000E07DFFF7B5FF174B83ED000AA37F627FB7
:10432000217FE07EFFF7B9FF134B186094F822302D
:1043300094F8212094F82010E07FFFF7A1FF0F4BA5
:1043400083ED000A94F8263094F8252094F8241080
:1043500094F82300FFF794FF094B83ED000A10BD8A
:10436000D8000020D4000020800100207C01002023
:104370007801002074010020700100206C010020F1
:104380006801002038B50546114BD3ED007AF8EEF0
:10439000677A87EE807ADFED0F7A67EE277AFCEE98
:1043A000E77A17EE904AB4F5803F01D34FF6FF74D9
:1043B000631C07EE903AF8EE677AC7EE277A17EE9D
:1043C000900A03F0A5FFAC62E86201236B6138BD7F
:1043D000EC00002000008037F0EE407AB0EE420A98
:1043E000F4EEE07AF1EE10FA01D4F0EE670AF4EEA2
:1043F000C10AF1EE10FA01D4B0EE601AB4EEE11A7F
:10440000F1EE10FA01D4F0EE411AF4EEC01AF1EE1A
:1044100010FA01D4B0EE610A7047000038B56F4C55
:104420004FF0FF3303226E49204602F058FF6D4DD6
:104430004FF0FF3304222946204602F050FF4FF090
:10444000FF33042205F10801204602F048FF4FF037
:10445000FF33042205F10C01204602F040FF4FF02B
:10446000FF330422A918204602F039FF5E4D4FF0B9
:10447000FF3304222946204602F031FF4FF0FF337C
:10448000042205F10801204602F029FF4FF0FF3316
:10449000042205F10C01204602F021FF4FF0FF330A
:1044A0000422A918204602F01AFF504D4FF0FF33A6
:1044B00004222946204602F012FF4FF0FF33042267
:1044C00005F10801204602F00AFF4FF0FF330422F5
:1044D00005F10C01204602F002FF4FF0FF330422E9
:1044E000A918204602F0FBFE414D4FF0FF33042295
:1044F0002946204602F0F3FE4FF0FF330422A918AC
:10450000204602F0ECFE4FF0FF33042205F10801D3
:10451000204602F0E4FE374D4FF0FF3304222946D7
:10452000204602F0DCFE4FF0FF330422A91820469B
:1045300002F0D5FE4FF0FF33042205F108012046BA
:1045400002F0CDFE2C4D4FF0FF33042229462046C9
:1045500002F0C5FE4FF0FF330422A918204602F0F6
:10456000BEFE4FF0FF33042205F10801204602F0A1
:10457000B6FE4FF0FF3304222049204602F0AFFE82
:104580001F4D4FF0FF3304222946204602F0A7FEBC
:104590004FF0FF330422A918204602F0A0FE4FF08E
:1045A000FF33042205F10801204602F098FE4FF087
:1045B000FF3304221349204602F091FE4FF0FF33EF
:1045C00004221149204602F08AFE4FF0FF330322F5
:1045D0000E49204602F083FE38BD00BFD8030020FC
:1045E000E000002004030020F0020020DC02002094
:1045F0006C03002060030020540300205C010020B5
:10460000480300201403002064010020DC00002087
:1046100010B51D4C4FF0FF332A2221461B4802F0F3
:10462000C4FE23784A2B00D010BD63785F2BFBD1EA
:10463000A378412BF8D194F82730412BF4D194F88A
:1046400028305F2BF0D194F829304A2BECD1104B55
:1046500001221A702046FFF72DFE0E4B93ED002A23
:10466000B8EEC22A0C4BD3ED001A0C4B93ED001A96
:104670000B4BD3ED000A0B4B93ED000AFFF7ACFE9A
:10468000094B83ED000ACFE71C030020D80300206C
:1046900018030020D4000020680100206C010020D5
:1046A000740100207C0100206401002072B6FEE746
:1046B00008B50D480D4B03604FF4E11343604FF410
:1046C000805383604FF40053C3604FF480630361F1
:1046D0000C23436100238361C36102F0D0FD00B964
:1046E00008BDFFF7E3FF00BFD803002000440040EF
:1046F00000B587B0002302930393049305930093BE
:10470000019314484FF080420260436083604FF091
:10471000FF32C26003618023836102F0BFFB90B966
:104720004FF48053029302A90A4802F0F0FB60B9EB
:104730000023009301936946064802F067FC30B9F4
:1047400007B05DF804FBFFF7B1FFFFF7AFFFFFF71E
:10475000ADFF00BF6804002000B587B000230293BE
:10476000039304930593009301931348134A026043
:10477000436083604FF6FF72C260036180238361F0
:1047800002F08CFB90B94FF48053029302A90A48BF
:1047900002F0BDFB60B9002300930193694606480F
:1047A00002F034FC30B907B05DF804FBFFF77EFF80
:1047B000FFF77CFFFFF77AFF200400200004004091
:1047C00000B595B03022002108A803F015F90023A8
:1047D0000393049305930693079301931E4A116C68
:1047E00041F080511164126C02F080520192019AE2
:1047F00002931A4A116841F440411160126802F4B0
:1048000040420292029A0222089201210B91102149
:104810000C910E920F93082310936423119312921C
:104820000423139308A801F083FE88B90F23039390
:1048300002230493002305934FF4805206920793BA
:10484000032103A802F0DEF820B915B05DF804FBDF
:10485000FFF72CFFFFF72AFF0038024000700040EE
:1048600008B500F09BF8002220212E4800F0B5FC8E
:10487000FFF7A6FFFFF76EFCFFF7D8FCFFF718FF66
:10488000FFF736FFFFF768FF274B1B78012B02D09D
:10489000FFF7BEFEF8E7FCF7ABFE5421234B19806F
:1048A0005625234B1D805824224B1C800020FCF7EA
:1048B00091F929460120FCF78DF921460220FCF7E9
:1048C00089F9FCF713F9FCF747F94FF080401A4BD0
:1048D00093ED000AFFF756FD184B93ED000A1848B8
:1048E000B8EEC00AFFF74EFD164802F091F91648DF
:1048F00002F08EF9012220210A4800F06EFCFCF73C
:1049000003F9124B1B78012BF9D10848FCF710FA78
:104910000748FCF70DFA0748FCF70AFA0B4B002290
:104920001A70ECE70000024018030020000300208A
:10493000EC020020D802002064010020D4000020F6
:104940000004004068040020200400201903002017
:1049500010B504460E4B1A784FF47A73B3FBF2F39A
:104960000C4A1068B0FBF3F000F0C0F868B90F2CE7
:1049700001D901200AE0002221464FF0FF3000F06B
:10498000A1F8054B1C60002000E0012010BD00BF15
:10499000E4000020EC000020E800002008B50B4BEC
:1049A0001A6842F400721A601A6842F480621A604F
:1049B0001A6842F480721A60032000F071F8002037
:1049C000FFF7C6FF01F004FD002008BD003C0240D7
:1049D000034A1168034B1B780B441360704700BFF8
:1049E000B0040020E4000020014B1868704700BFAD
:1049F000B004002038B50446FFF7F6FF0546B4F1D1
:104A0000FF3F02D0044B1B781C44FFF7EDFF401B17
:104A1000A042FAD338BD00BFE4000020002807DB25
:104A200000F01F02400901239340024A42F820305F
:104A3000704700BF00E100E0002808DB0901C9B2AF
:104A400000F1604000F5614080F80013704700F00D
:104A50000F000901C9B2014B1954704714ED00E071
:104A600000B500F00700C0F1070CBCF1040F28BF2F
:104A70004FF0040C031D062B0FD9C31E4FF0FF3E51
:104A80000EFA0CF021EA000199400EFA03FE22EA28
:104A90000E0241EA02005DF804FB0023EEE700008D
:104AA000074AD36823F4E0631B041B0C000200F4E4
:104AB000E060034343F0BF6343F40033D3607047C7
:104AC00000ED00E010B50446054BD868C0F30220A5
:104AD000FFF7C6FF01462046FFF7AEFF10BD00BF3F
:104AE00000ED00E008B5FFF799FF08BD0138B0F10F
:104AF000807F0BD24FF0E0235861054AF02182F805
:104B000023100020986107221A6170470120704726
:104B100000ED00E010B40368D9B210390C4AA2FBD2
:104B2000014212090B4CA25CC2655F2909D923F42A
:104B30007F7323F0030304338365806D5DF8044BBA
:104B4000704723F47F7323F003038365F5E700BF09
:104B5000ABAAAAAA24870008836A826992B9012BAA
:104B60000AD0022B02D00BB100207047C36A13F0A9
:104B7000807F28D100207047C36AB3F1C07F24D062
:104B800000207047B2F5005F09D0022B25D9032B16
:104B900025D1C36A13F0807F23D100207047032BF7
:104BA00003D8DFE803F01404140A00207047C36A36
:104BB00013F0807F0DD100207047C36AB3F1C07F2E
:104BC00009D0002070470120704701207047012064
:104BD0007047012070470120704701207047002076
:104BE000704701207047000070B50446FFF7FCFED7
:104BF000002C5BD00546022384F83530002384F86E
:104C000034302268136823F00103136023681A68A4
:104C100012F0010F0AD0FFF7E7FE431B052BF5D971
:104C200020236365032084F8350070BD1A6820498D
:104C300011406268A0680243E068024320690243B1
:104C400060690243A0690243E0690243206A0243AB
:104C50000A43616A04291ED01A602668756925F026
:104C60000705636A1D43042B07D1A36A1D43E36A4A
:104C70001BB12046FFF770FF90B975612046FFF722
:104C800049FFE26D3F23934083600020606501236C
:104C900084F83530C9E7E16A206B01430A43DBE75A
:104CA00040236365012084F83500BEE70120BCE79E
:104CB0003F8010F000282DD038B5054690F835001B
:104CC000C0B2022825D02A68136823F001031360BC
:104CD0002B6800241C602B685C602B689C602B6830
:104CE000DC602B681C612B6821225A612846FFF783
:104CF00011FFEC632C646C64AC64EC642C65EA6DAD
:104D00003F23934083606C6585F8354085F83440D7
:104D1000204638BD01207047F0B583B0044600231B
:104D20000193724B1D68724BA3FB0535AD0A876D6D
:104D30003E68C26D08239340334210D003681A685E
:104D400012F0040F0BD01A6822F004021A60C26D30
:104D500008239340BB60436D43F001034365E26D5C
:104D600001239340334209D02268526912F0800F28
:104D700004D0BB60636D43F002036365E26D0423FE
:104D80009340334209D02268126812F0020F04D017
:104D9000BB60636D43F004036365E26D10239340D1
:104DA000334224D02268126812F0080F1FD0BB6073
:104DB00023681A6812F4802F0DD01B6813F4002F9B
:104DC00004D1236C9BB12046984710E0A36C73B1CB
:104DD000204698470BE01A6812F4807F03D11A68C6
:104DE00022F008021A60236C0BB120469847E26D4E
:104DF00020239340334255D02268126812F0100FDE
:104E000050D0BB6094F83530DBB2052B0ED0236850
:104E10001A6812F4802F33D01B6813F4002F2AD1A4
:104E2000636C002B3ED0204698473BE02268136815
:104E300023F0160313602268536923F08003536143
:104E4000236CA3B12268136823F008031360E26D9A
:104E50003F239340BB60012384F83530002384F85E
:104E60003430236D002B3FD0204698473CE0A36CA4
:104E7000002BE7D1EBE7E36BA3B12046984711E0A5
:104E80001A6812F4807F09D11A6822F010021A60A1
:104E9000012384F83530002384F83430E36B0BB100
:104EA00020469847636DFBB1636D13F0010F17D077
:104EB000052384F835302268136823F0010313605A
:104EC000019B01330193AB4204D823681B6813F0A4
:104ED000010FF5D1012384F83530002384F83430F4
:104EE000E36C0BB12046984703B0F0BDEC00002006
:104EF000B5814E1B00230F2B00F2D78070B582B016
:104F000065E085684FEA430E032404FA0EF425EAAF
:104F10000405CC6804FA0EF42C438460446824EA47
:104F200002044A68C2F300129A40224342605CE0E5
:104F3000DC08083450F8242003F00705AD004FF0DA
:104F40000F0E0EFA05FE22EA0E0E0A69AA4042EA88
:104F50000E0240F824205CE0042200E0002202FA65
:104F60000EF22A430234514D45F82420504A9468E9
:104F70006FEA0C0224EA0C054E6816F4801F01D07B
:104F80004CEA04054A4CA560E46802EA04054E6850
:104F900016F4001F01D04CEA0405454CE560646836
:104FA00002EA04054E6816F4003F01D04CEA0405FD
:104FB0003F4C6560246822404D6815F4803F01D065
:104FC0004CEA04023A4C226001330F2B6BD80122C9
:104FD0009A400C6804EA020C32EA0404F4D14C68EA
:104FE00004F00304013C012C8BD94A6802F003024F
:104FF000032A09D0C4685D000322AA4024EA0204FF
:105000008A68AA402243C2604A6802F00302022A68
:105010008ED004684FEA430E032202FA0EF224EA0D
:1050200002044A6802F0030202FA0EF2224302600E
:105030004A6812F4403FC7D0002201921D4A546CC6
:1050400044F480445464526C02F480420192019A08
:105050009C08A51C154A52F8255003F0030E4FEA90
:105060008E0E0F2202FA0EF225EA0205124A904233
:105070003FF474AF02F5806290420ED002F5806278
:1050800090420CD002F5806290420AD002F5806214
:1050900090423FF461AF072261E701225FE70222FD
:1050A0005DE703225BE702B070BD70470038014046
:1050B000003C0140003802400000024000230F2B5A
:1050C0007CD8F0B52DE0042500E0002505FA0CF5AC
:1050D000A54257D004685D004FF0030C0CFA05FCA4
:1050E00024EA0C0404604FEAD30E0EF1080E50F8C7
:1050F0002E4003F00706B6000F25B54024EA05044C
:1051000040F82E40C46824EA0C04C460446824EAD1
:1051100002024260826822EA0C02826001330F2B95
:105120004BD801229A4002EA010632EA0104F5D185
:105130004FEA930E0EF10205214C54F8254003F07E
:10514000030C4FEA8C0C0F2505FA0CF73C401D4D63
:10515000A842BAD005F58065A8420DD005F5806556
:10516000A8420BD005F58065A84209D005F58065F9
:10517000A842A8D00725A9E70125A7E70225A5E7AA
:105180000325A3E7104C256825EA06052560656818
:1051900025EA06056560E56825EA0605E560A56877
:1051A00025EA0605A560064E0EF1020456F82450C5
:1051B00025EA070546F824508CE7F0BD704700BF8C
:1051C0000038014000000240003C014003691942E0
:1051D00001D001207047002070470AB181617047FB
:1051E000090481617047436901EA030221EA03016E
:1051F00041EA0241816170477047000008B5054BE4
:105200005B69034200D108BD024B5861FFF7F4FF10
:10521000F9E700BF003C014003685A6912F4806F4F
:1052200001D1002070476FF480625A61002303634C
:10523000202280F83D2080F83E30026C42F00402CB
:10524000026480F83C30012070472DE9F0410646A9
:105250000C46174698463BE0FFF7C6FB069BC01A74
:10526000404502D8B8F1000F32D1012D18D0336873
:105270009B6924EA03039BB2B3FA83F35B099F4261
:1052800026D100233363202286F83D2086F83E3065
:10529000326C42F02002326486F83C30012027E074
:1052A00033685B6924EA03039BB2B3FA83F35B09B7
:1052B000E5E733685B6924EA030C1FFA8CFCBCFA4F
:1052C0008CFC4FEA5C1C674511D1B8F1FF3FC3D19C
:1052D000C4F30745012DECD033689B6924EA030C25
:1052E0001FFA8CFCBCFA8CFC4FEA5C1CEBE700203C
:1052F000BDE8F0812DE9F84305460E4690469946F3
:1053000053E01A6842F400721A602B686FF48062EE
:105310005A6100232B63202285F83D2085F83E301A
:105320002A6C42F004022A6485F83C3001204AE0ED
:10533000FFF75AFBA0EB0900404502D8B8F1000F77
:1053400033D1012F17D02B689B6926EA03039BB248
:10535000003B18BF012343B300232B63202285F8B1
:105360003D2085F83E302A6C42F020022A6485F800
:105370003C30012027E02B685B6926EA03039BB2DF
:10538000003B18BF0123E6E72B689C6926EA04046A
:10539000A4B2003C18BF0124A4B12B685A6912F4CE
:1053A000806FAED1B8F1FF3FC2D1C6F30747012FDE
:1053B000EAD12B685C6926EA0404A4B2003C18BF59
:1053C0000124E9E70020BDE8F8830000F0B583B0D0
:1053D00004460D4616461F46C36A082B0DD0012B06
:1053E0000BD013F5803F08D0036B122B0AD1026853
:1053F000136843F48073136004E02268136843F475
:10540000807313600097334600224FF0011120464D
:10541000FFF71BFF80B92369B3F5804F16D12368CE
:1054200005F0FE051D613B46324613492046FFF755
:1054300061FFF8B903B0F0BD23681B6813F4807FE7
:1054400002D04FF4007323640320F3E7EB112268CA
:1054500003F0060343F0F00313613B46324607496D
:105460002046FFF747FF18B92368EDB21D61DAE760
:105470000120DFE70120DDE7020001000800010054
:105480002DE9F04184B004460D4616461F46C26A17
:1054900001680B6843F480630B60082A0DD0012A71
:1054A0000BD012F5803F08D0036B112B0AD1026894
:1054B000136843F48073136004E02268136843F4B4
:1054C000807313600097334600224FF0011120468D
:1054D000FFF7BBFE98B92369B3F5804F19D1236854
:1054E00045F00105EDB21D613B4632462A49204692
:1054F000FFF700FF00284CD104B0BDE8F08123681D
:105500001B6813F4807F02D04FF4007323640320E0
:10551000F2E74FEAE51808F00608236848F0F002C1
:105520001A613B4632461D492046FFF7E3FE08B1AB
:105530000120E1E72368EDB21D613B463246164982
:105540002046FFF7D7FE08B10120D5E700220392DD
:10555000236859690391996903910399196841F482
:1055600080711960009733464FF001112046FFF714
:105570006CFE20B9226848F0F1031361B4E7236898
:105580001B6813F4807F02D04FF400732364032060
:10559000B2E70120B0E700BF0200010008000100EF
:1055A00070B504460D46164623685B6913F0800FFC
:1055B00021D12046FFF730FEF8B9B5F1FF3FF3D017
:1055C000FFF712FA801BA84201D8002DECD1236806
:1055D0005B6913F0800FE7D100232363202284F856
:1055E0003D2084F83E30226C42F02002226484F890
:1055F0003C30012000E0002070BD0120FCE70000ED
:105600002DE9F04385B004460D4691461F46DDF86E
:1056100030800D9E0368196841F48071196000960E
:10562000434600224FF00111FFF70FFE60B92368D7
:1056300005F0FE051D613346424626492046FFF728
:1056400059FE68B1012008E023681B6813F4807FCD
:1056500002D04FF400732364032005B0BDE8F0834B
:105660000023039323685A6903929B690393039B66
:10567000324641462046FFF793FF30B9012F0FD144
:1056800023685FFA89F61E61E7E7236C042B01D0DB
:105690000120E2E72268136843F400731360F7E720
:1056A00023684FEA19221A61324641462046FFF725
:1056B00077FF20B923685FFA89F61E61CDE7236C76
:1056C000042B01D00120C8E72268136843F400735B
:1056D0001360F7E7020001002DE9F04784B00446AB
:1056E0000D46164699460C9FDDF834800268136813
:1056F00043F4806313600368196841F48071196092
:10570000CDF800803B4600224FF00111FFF79DFDD0
:1057100070B95FFA85FA236805F0FE051D614346FE
:105720003A4641492046FFF7E5FD68B1012008E00F
:1057300023681B6813F4807F02D04FF40073236446
:10574000032004B0BDE8F0870023039323685A695F
:1057500003929B690393039B424639462046FFF719
:105760001FFF80B9B9F1010F18D12368F6B21E618D
:10577000424639462046FFF713FF68B3236C042BDB
:1057800024D00120DDE7236C042B01D00120D8E7D1
:105790002268136843F400731360F7E72368320A42
:1057A0001A61424639462046FFF7FAFE18B92368C7
:1057B000F6B21E61DCE7236C042B01D00120C0E7A8
:1057C0002268136843F400731360F7E722681368D4
:1057D00043F400731360D4E72268136843F48073C2
:1057E0001360CDF800803B4600224FF001112046A7
:1057F000FFF72BFD68B922684AF0010313614346A5
:105800003A4609492046FFF775FD002899D0012046
:1058100097E723681B6813F4807F02D04FF400736E
:10582000236403208DE700BF0200010070B5044629
:105830000D46164623685B6913F0040F21D12046FC
:10584000FFF7EAFCF8B9B5F1FF3FF3D0FFF7CCF86A
:10585000801BA84201D8002DECD123685B6913F0AE
:10586000040FE7D100232363202284F83D2084F82D
:105870003E30226C42F02002226484F83C30012049
:1058800000E0002070BD0120FCE770B504460D4625
:10589000164614E06FF010025A61002323632022A1
:1058A00084F83D2084F83E30226C226484F83C3039
:1058B000012025E023685B6913F0400F10D02368B6
:1058C000586910F0400F1AD1586910F0100FE1D14B
:1058D000FFF78AF8801BA842ECD8002DEFD1E9E74A
:1058E00000232363202284F83D2084F83E30226C7C
:1058F00042F02002226484F83C30012000E00020C5
:1059000070BD7047002800F0CC8070B5044690F858
:105910003D30002B77D0242384F83D302268136873
:1059200023F0010313602268136843F400431360FB
:105930002268136823F40043136001F019F96268C8
:105940005A4B9A4264D85A4B98428CBF0023012389
:10595000002B40F0A8805749A1FB00318B0C256833
:105960006A6822F03F0242EA91426A6021680A6A4C
:1059700022F03F0266684D4DAE424FD801331343CB
:105980000B622168CA6922F44F4222F0FF02656867
:10599000464B9D424CD8431E6D00B3FBF5F30133DB
:1059A00040F6FC70034278D0C3F30B031A43CA617C
:1059B00021680B6823F0C003E269206A02431343A5
:1059C0000B6021688B6823F4034323F0FF032269F3
:1059D000E068024313438B602168CB6823F0FF0328
:1059E0006269A06902431343CB602268136843F0E5
:1059F0000103136000202064202384F83D302063DD
:105A000084F83E0070BD80F83C30FFF77AFF82E7F3
:105A1000294B98428CBF0023012399E74FF49675D8
:105A200005FB03F3254DA5FB03539B090133A6E7B3
:105A3000A668BEB9431E05EB450CB3FBFCF301336E
:105A4000C3F30B03B3FA83F35B0943BBC6B9431E2D
:105A500005EB4505B3FBF5F30133C3F30B0343F447
:105A60000043A3E7431E05EB850C0CEB8C0CB3FB4A
:105A7000FCF30133C3F30B03B3FA83F35B09E4E7ED
:105A8000431E05EB850505EB8505B3FBF5F30133F7
:105A9000C3F30B0343F4404388E7042386E7012361
:105AA00084E7012070470120ACE700BFA086010019
:105AB0007F841E0083DE1B43FF083D00D34D621030
:105AC0007047A8B110B50446242380F83D30026821
:105AD000136823F001031360FFF7F2FF0020206436
