:020000040800F2
:100000000000022029520008C9050008CB0500089D
:10001000CD050008CF050008D1050008000000004C
:10002000000000000000000000000000D3050008F0
:10003000D505000800000000D7050008D905000814
:100040007952000879520008795200087952000864
:100050007952000879520008795200087952000854
:100060007952000879520008DB050008795200082F
:100070007952000879520008795200087952000834
:1000800079520008795200087952000800000000F7
:10009000000000000000000000000000795200088D
:1000A00079520008E50500087952000879520008E5
:1000B00079520008795200087952000879520008F4
:1000C00079520008795200087952000879520008E4
:1000D00079520008795200087952000800000000A7
:1000E000F505000879520008795200080000000068
:1000F000000000000000000000000000795200082D
:100100000000000079520008795200087952000876
:1001100000000000000000000000000000000000DF
:100120007952000879520008795200087952000883
:1001300079520008000000000000000000000000EC
:1001400000000000000000000000000079520008DC
:100150007952000879520008795200087952000853
:1001600079520008795200080000000000000000E9
:10017000000000000000000000000000000000007F
:10018000000000007952000800000000000000009C
:080190007952000879520008C1
:1001A00001F0FF01102A2BDB10F0070F08D010F828
:1001B000013B013A8B422DD010F0070F42B3F6D12C
:1001C000F0B441EA012141EA014122F007047FF045
:1001D00000070023F0E80256083C85EA010586EA9C
:1001E000010685FA47F5A3FA87F586FA47F6A5FAD8
:1001F00087F68EB9EED1F0BC01F0FF0102F00702E4
:1002000032B110F8013B013A83EA010313B1F8D18E
:100210000020704701387047002D06BF354603386F
:10022000073815F0010F07D1013015F4807F02BFA8
:10023000013015F4C03F0130F0BC0138704700BFF9
:1002400053B94AB9002908BF00281CBF4FF0FF313D
:100250004FF0FF3000F00CB8ADF1080C6DE904CEA2
:1002600005F0F0FFDDF804E0DDE9022304B070479B
:10027000704700BF10B5054C237833B9044B13B158
:100280000448AFF300800123237010BDAC000020B0
:10029000000000000065000808B5034B1BB10349CE
:1002A0000348AFF3008008BD00000000B00000204C
:1002B000006500082DE9F0418AB0002405940694F9
:1002C00007940894099400944E4B1A6B42F0040270
:1002D0001A631A6B02F004020092009A01941A6BDE
:1002E00042F080021A631A6B02F080020192019AB6
:1002F00002941A6B42F001021A631A6B02F00102B7
:100300000292029A03941A6B42F002021A631A6B69
:1003100002F002020392039A04941A6B42F008025C
:100320001A631B6B03F008030493049B364D2246AB
:10033000A021284602F0E2FDDFF8D8800122112139
:10034000404602F0DBFD41F6FF7305930326069657
:10035000079405A92D4802F0E9FB49F6437305937C
:100360000696079405A9284602F0E0FB10230593A2
:100370004FF404130693079405A9284602F0D6FB10
:1003800020230593012706970794089405A928467A
:1003900002F0CCFB80230593069702230793089471
:1003A00005A9284602F0C2FB11230593069707977B
:1003B000089405A9404602F0B9FB4FF2EE430593BD
:1003C0000696079405A9404602F0B0FB0423059366
:1003D0000696079405A90E4802F0A8FB224621467E
:1003E0000A2002F035FB0A2002F056FB2246214685
:1003F000282002F02DFB282002F04EFB0AB0BDE8B9
:10040000F08100BF003802400000024000080240B6
:10041000000C02400004024008B50268034B9A42F7
:1004200000D008BD02F08EFAFBE700BF00000140DB
:1004300072B6FEE700B595B03022002108A805F09D
:100440002FF90023039304930593069307930193D5
:100450001F4A116C41F080511164126C02F08052FD
:100460000192019A02931B4B1A6842F440421A60AF
:100470001B6803F440430293029B012308934FF44B
:100480008033099302230E934FF480020F920822C7
:1004900010926422119212930423139308A803F07C
:1004A000A9FB88B90F230393022304930023059328
:1004B0004FF4805206920793012103A803F08AFEAD
:1004C00020B915B05DF804FBFFF7B2FFFFF7B0FFEE
:1004D000003802400070004008B502F019FAFFF73A
:1004E000A9FFFFF7E7FE04F087FE04F089FEFCE7B2
:1004F0007047000000B583B0002100910C4B5A6C8E
:1005000042F480425A645A6C02F480420092009A8B
:1005100001911A6C42F080521A641B6C03F08053F4
:100520000193019B072002F075FA03B05DF804FB0C
:100530000038024030B589B00546002401941D4BB7
:100540005A6C42F001025A645B6C03F001030193A0
:10055000019B02A903A803F075FF03F063FF164A8D
:10056000A2FB00239B0C013B1448154A026040F299
:10057000E732C260436004618460846104F0F0F893
:10058000044610B1204609B030BD0C4803F07AFF94
:1005900004460028F6D1192002F07EFA0F2D01D969
:1005A0000124EFE700222946192002F051FA054BF9
:1005B0001D60E7E70038024083DE1B43C8000020CF
:1005C000000001404C000020FEE7FEE7FEE7FEE7EA
:1005D000FEE7704770477047704708B5102002F07B
:1005E000A9FC08BD08B5024803F0B4FF08BD00BF70
:1005F000C800002008B5024802F086FA08BD00BF16
:10060000400000202DE9F04389B0002501951B4CE6
:10061000236B43F002032363236B03F00203019374
:10062000019B4FF4807303934FF01209CDF81090A3
:1006300005954FF00308CDF8188004270797104E52
:1006400003A9304602F072FA4FF400730393CDF819
:1006500010900595CDF81880079703A9304602F051
:1006600065FA0295236C43F400132364236C03F4AE
:1006700000130293029B09B0BDE8F08300380240EA
:100680000004024010B5084A136C23F400131364ED
:10069000064C4FF48071204602F08EFB4FF400713F
:1006A000204602F089FB10BD0038024000040240E1
:1006B0000B4B1B687BB1013B094A13600BB1002057
:1006C000704710B5074C2046FFF7DCFF204603F0CB
:1006D00015F810B910BD002070476FF00700F9E75A
:1006E000100100201401002010B584B04FF4805494
:1006F00002940193009210230A460146084803F031
:100700002DF810B9002004B010BD054803F06FFAB1
:10071000042802D06FF00300F5E76FF06500F2E700
:100720001401002010B584B04FF48054029401935A
:10073000009210230A460146084803F0CDF810B98C
:10074000002004B010BD054803F051FA042802D07F
:100750006FF06500F5E76FF00300F2E71401002089
:1007600008B502F0FBF808BD08B5094A0260094A5D
:10077000426000228260C2604FF4804101614261A8
:100780008261C261026202F06DFE00B1012008BD0B
:1007900000540040801A06000E4B0F4A1A600F4AA0
:1007A0001368591C11600BB10020704710B509483F
:1007B00003F01AFA08B1002010BD064C2046FFF7DE
:1007C00021FF2046FFF7D0FF08B90020F4E76FF0C3
:1007D0000700F1E714010020005400401001002040
:1007E00070B50C461646002506E0AFF300802146A2
:1007F00001F8010B01350C46B542F6DB304670BD01
:1008000070B50C461646002504E014F8010B02F002
:1008100067F80135B542F8DB304670BD4FF0FF3068
:1008200070474FF400534B60002070470120704721
:100830000020704710B503460C4A0D490D4800686A
:1008400040B10C4800680344521A934206D8094A42
:10085000136010BD0748084C0460F2E704F06EFF17
:100860000C2303604FF0FF30F3E700BF00000220CD
:10087000000400006801002048310020034AD2F83B
:10088000883043F47003C2F88830704700ED00E010
:1008900030B589B004465223ADF81030224B029394
:1008A000224B0393224B0593224B0693224B079333
:1008B0004FF42E63214D03FB005502A9284601F099
:1008C00017FF28BB1E4B1F4A1A601F4B43F82450CA
:1008D00001A9284601F089FCE8B9019A4FF20C03FE
:1008E0009A421BD1164B1B681B68174A52F824000A
:1008F0009847B0B9124B1B68DB681449124A52F88A
:100900002400984708B909B030BD6FF00400FAE739
:100910006FF00400F7E76FF00400F4E76FF00600F3
:10092000F1E76FF00400EEE799070008B106000850
:10093000E906000825070008610700086C0100208F
:100940001C22002004000020202200200C22002075
:10095000022803D808B5FFF79BFF08BD6FF0010020
:100960007047000002280ED808B5084B1B689B682A
:10097000074A52F820009847002801DB002008BDF4
:100980006FF00400FBE76FF0010070471C220020AD
:100990002022002002280ED808B5084B1B68DB680F
:1009A000074A52F820009847002801DB002008BDC4
:1009B0006FF00400FBE76FF0010070471C2200207D
:1009C0002022002002280ED808B5084B1B681B699E
:1009D000074A52F820009847002801DB002008BD94
:1009E0006FF00400FBE76FF0010070471C2200204D
:1009F0002022002002280ED808B5084B1B68DB69AE
:100A0000074A52F820009847002801DB002008BD63
:100A10006FF00400FBE76FF0010070471C2200201C
:100A20002022002002280ED808B5084B1B681B6A3C
:100A3000074A52F820009847002801DB002008BD33
:100A40006FF00400FBE76FF0010070471C220020EC
:100A50002022002002280ED808B5084B1B685B6ACC
:100A6000074A52F820009847002801DB002008BD03
:100A70006FF00400FBE76FF0010070471C220020BC
:100A80002022002070B582B00646002425460DE0E5
:100A90000121304601F03AFB0134A4B29DF8073041
:100AA00013F0010F1BD1B4F5FA7F18D20DF1070234
:100AB0000621304601F0ECFA2843C5B29DF9073013
:100AC000002BE5DA0DF106020721304601F0E0FACD
:100AD0002843C5B29DF8063013F0010FD8D0284640
:100AE00002B070BD2DE9F84F06460F469146984674
:100AF0009DF828B09DF82CA000252C460CE044F071
:100B0000010422E00135EDB206EB090393F810353C
:100B100003EA0B03534518D03B4606F5A262414653
:100B2000304601F0D0FA0443E4B20A21304601F025
:100B3000EDFA0443E4B2C72DE1D8032FE2D996F8C9
:100B400012357E2BDED944F042042046BDE8F88FF2
:100B50002DE9F04FE7B004460E4604AA5A4B93E83D
:100B6000030082E8030002AA083393E8030082E846
:100B7000030004F5A2654FF4F47204F12001284645
:100B800004F009FE102E01D000237AE004AB03CB61
:100B9000C4F82005C4F824154FF4F471284601F078
:100BA00099FA04F24C574FF48072394626A804F0A3
:100BB000F2FD04F5CA6B8022594606A804F0EBFD4D
:100BC000002035E09B1006AA22F81930013149B205
:100BD00003292BDC01EBC0024FEA420E0DF1980C09
:100BE0005CF82E300EF101085CF8286033440432C2
:100BF00052005CF8226033440EF1090A5CF82A6066
:100C0000334401EB80099B084CF829300DF1180C96
:100C10003CF91E303CF918E073443CF912201344AF
:100C20003CF91A209B18CDD50333CBE7013040B2F5
:100C3000032801DC0021CBE7602200210EA804F08C
:100C40002FFDC022002136A804F02AFD4FF4807247
:100C500026A9384604F09FFD802206A9584604F0D4
:100C60009AFD4FF4F471284601F034FA8CE703F151
:100C70000802224492F81015E21882F81015013388
:100C80009BB2B3F5F27FF2D302AB03CBC4F8F0060C
:100C9000C4F8F4164FF4F4732A4642F6186120465D
:100CA00001F00AFA054603230193FF2300934FF452
:100CB0003053012204212046FFF714FF2843C0B21D
:100CC00067B0BDE8F08F00BF18650008F0B5C9B087
:100CD00004460E46444B93E8030048AB03E9030087
:100CE00044AB424A92E8030083E80300404B43933D
:100CF00004F5A2654FF4427204F50271284604F02F
:100D00004AFD102E17D04FF442732A4642F6F8419E
:100D1000204601F0D1F9054603230193FF230093F8
:100D20004FF43053012204212046FFF7DBFE284315
:100D3000C0B249B0F0BD46AB03CBC4F81805C4F847
:100D40001C1544AB03CBC4F83005C4F834154FF47C
:100D50004271284601F0BEF904F244564FF4807205
:100D6000314603A804F017FD4FF0000E20E002EB1F
:100D7000CE0C4FEA4C0003A951F82030471C51F823
:100D800027703B440CF1040C51F83C703B44093093
:100D900051F82000034402EB8E009B0841F82030FC
:100DA000013252B2032AE2DD0EF1010E4FFA8EFE3D
:100DB000BEF1030F01DC0022F4E7C022002113A8DA
:100DC00004F06EFC4FF4807203A9304604F0E3FC9B
:100DD0004FF44271284601F07DF9439BC4F8443634
:100DE0000023C4F888358EE79C6800082865000851
:100DF000A0FC010070B505460E46002247F6FF71C3
:100E000001F04DF90446C6F347020421284601F0DB
:100E100046F90443E4B22E80022247F6FF712846C9
:100E200001F03DF92043C0B270BD70B582B00546F7
:100E30000E46002247F6FF7101F031F904460DF12C
:100E400007020921284601F023F90443E4B29DF882
:100E50000730022B0DD0042B1DD101233370022249
:100E600047F6FF71284601F01AF92043C0B202B0DC
:100E700070BD0DF107020F21284601F009F920434A
:100E8000C4B29DF80730432B02D000233370E6E74D
:100E900002233370E3E700233370FF24DFE770B5EC
:100EA00082B0054600238DF80730009304236A467C
:100EB00042F6FC7101F007F90446009A40F2FF4344
:100EC0009A4202D095F8BC3A93B30DF1070206217D
:100ED000284601F0DDF80443E4B29DF90730002B09
:100EE00058DB002247F6FF71284601F0D8F804438A
:100EF000E4B200221421284601F0D1F80443E4B200
:100F000000221521284601F0CAF80443E4B2042265
:100F10000921284601F0C3F80443E4B2022247F64F
:100F2000FF71284601F0BBF82043C0B202B070BD8B
:100F3000002247F6FF71284601F0B1F80443E4B2FD
:100F400016221521284601F0AAF80443E4B2012232
:100F50001421284601F0A3F80443E4B200269DF9C9
:100F60000730002BB1DB0DF107020621284601F006
:100F70008FF80443E4B20A21284601F0C7F804437D
:100F8000E4B20136B6B2B6F5FA7FE8D99DF807307B
:100F90001C439AE70DF107020721284601F078F873
:100FA0000443E4B29DF8072002F17C03DBB2012B7D
:100FB00097D9144395E738B504460D46042300F548
:100FC000A262002101F07FF894F81035227C934250
:100FD00005D0FF2B03D094F81135052B06D094F9DA
:100FE0001335002B13DB00232B7038BD94F812351A
:100FF00003F00503052BF2D194F8133513F0100F0D
:10100000EDD001232B7094F810352374EDE794F89C
:1010100012351843C0B2E6E72DE9F04105460C460B
:1010200000F5A26743693A46002101F04CF80646F4
:1010300095F810352B74A98A384601F04BF84FF01B
:1010400010083FE0EF5AC7F30B174FE045F2B442E8
:1010500093422ED045F2D042934230D108F214513F
:101060003A462944201D04F096FB28E04EF2440243
:10107000934272D00CD94EF2840293421FD108F2EF
:1010800014513A46294404F2844004F084FB16E0EB
:101090004DF6C462934257D04DF6447293420ED13E
:1010A00008F214513A46294404F5717004F073FBB8
:1010B00005E008F10C032B4493F9103523704744E5
:1010C00007F104086B69434559D908F5A263E9188B
:1010D000EF5C07F00F0707F10E0202F00F020A2A79
:1010E000B0D8EB5AC3F30B1303FB07F74B884DF64D
:1010F000C43293421FD0B9D845F2D052934211D096
:10110000A4D94DF65802934230D04DF68432934222
:10111000D5D108F214513A46294404F5827004F0FE
:101120003AFBCCE708F214513A46294404F5A27080
:1011300004F031FBC3E708F214513A46294404F5A0
:10114000117004F028FBBAE708F214513A4629441A
:1011500004F5517004F01FFBB1E708F214513A4650
:10116000294404F2444004F016FBA8E708F21451A5
:101170003A46294404F2C44004F00DFB9FE70023E3
:1011800005E004EB83014A68D20A4A6001333F2B31
:10119000F7D9002316E089109180E11891F84424D2
:1011A000520881F8442403F5D07204EB420291887E
:1011B000C909918003F1900204EB82025168C90AC7
:1011C000516001333F2B0AD803F5F07204EB420261
:1011D000B2F9040001460028DDDAC11CDBE7002378
:1011E00008E099182144FF2081F884040132002A84
:1011F000F7D001333F2B06D8E21892F80421002AD9
:10120000F7D10022F3E700211F290BD801F59972CD
:1012100004EB820293681048A0FB0303DB0B93608E
:101220000131F1E795F8183595F8192542EA0322BE
:101230006B69191F294491F81015033B1D4495F85B
:10124000103543EA01239A4202D046F00206F6B274
:101250003046BDE8F08100BF018000802DE9F041FB
:1012600086B005460E4617461C4603F10C08284B6F
:1012700093E8070006AB03E90700B4F5B46F04D99F
:10128000FF27384606B0BDE8F081C7F307238DF885
:101290000C308DF80D70C4F307138DF80E30E3B2E7
:1012A0001B018DF80F300C230DEB030242F6F47195
:1012B000284600F001FF074603230193FF23009314
:1012C0004FF43053012204212846FFF70BFC07435B
:1012D000FFB205F5A2624346904642F60441284615
:1012E00000F0F1FE0743FFB204F10C0189B2404661
:1012F00000F0F0FE002207E002F1040CAC449CF880
:101300001035B354013212B223B29342F4DCB8E781
:101310003065000838B504460D46082345F25042B2
:1013200000F5A261FFF79AFF94F8103594F81125A3
:1013300013FB02F32B7038BDF0B587B00E461C4688
:10134000002305938DF80C308DF80D308DF80E309C
:101350000F238DF80F3005238DF8103001238DF801
:10136000113004F10803C3F307238DF81230E3B200
:1013700003F108018DF81310B4F5B46F03D9FF25FC
:10138000284607B0F0BD0546C4F53F573437BFB215
:10139000C2F307218DF814108DF81520C4F307123D
:1013A0008DF816201B018DF817302146304600F0CD
:1013B00091FE621E12B207E002F1040CB35CAC4471
:1013C0008CF81035013A12B2002AF5DA059BC5F8FF
:1013D000103504F2145205EB020C03AB03CBA850FA
:1013E000CCF8041004F10C0305F5A2623946284636
:1013F00000F062FE074603230193FF2300934FF49E
:101400003053012204212846FFF76CFB47EA000510
:10141000EDB22146304600F05DFEB1E7F0B587B091
:1014200005464FF00113049301260396544BC36104
:10143000544B8361002780F8BC7A3A4647F6FF7127
:1014400000F02DFE044604220921284600F027FE64
:101450000443E4B240220F21284600F020FE04435A
:10146000E4B203220A21284600F019FE0443E4B244
:101470000DF1170247F6FF71284600F009FE0443FC
:10148000E4B232460C21284600F009FE0443E4B2DF
:101490003A4640F20111284600F001FE0443E4B24E
:1014A0003A464FF48171284600F0F9FD0443E4B256
:1014B00032464FF48571284600F0F1FD0443E4B252
:1014C000324644F20201284600F0E9FD0443E4B24A
:1014D0003A4644F20201284600F0E1FD0443E4B23A
:1014E00003224FF48571284600F0D9FD0443E4B28D
:1014F000324640F20311284600F0D1FD0443E4B225
:101500003A460C21284600F0CAFD0443E4B24322C7
:101510000F21284600F0C3FD0443E4B231462846BB
:1015200000F0F4FD0443E4B240220F21284600F00D
:10153000B6FD0443E4B232460A21284600F0AFFD6E
:101540000443E4B26421284600F0E0FD0443E4B221
:101550003A4647F6FF71284600F0A1FD0443E4B285
:101560000196FF23009306233A4631462846FFF7AB
:10157000B9FA044314F0FF0406D0204607B0F0BDCA
:10158000D0680008D86B000832460E21284600F0CB
:1015900086FD0443E4B2022247F6FF71284600F0BC
:1015A0007EFD0443E4B2324647F6FF71284600F060
:1015B00076FD0443E4B232460621284600F06FFD72
:1015C0000443E4B204230193FF23009321233A460A
:1015D00031462846FFF786FA0443E4B23A4647F616
:1015E000FF71284600F05BFD0443E4B20DF11702E1
:1015F00047F6FF71284600F04BFD0443E4B2324643
:101600000C21284600F04BFD0443E4B23A4647F66D
:10161000FF71284600F043FD0443E4B23A4640F22D
:101620000111284600F03BFD0443E4B23A464FF472
:101630008171284600F033FD0443E4B232464FF492
:101640008571284600F02BFD0443E4B2324644F293
:101650000201284600F023FD0443E4B23A4644F276
:101660000201284600F01BFD0443E4B203224FF4BC
:101670008571284600F013FD0443E4B2324640F27F
:101680000311284600F00BFD0443E4B23A4644F24D
:101690000F01284600F003FD0443E4B2432240F268
:1016A0001A21284600F0FBFC0443E4B2032240F276
:1016B0001A21284600F0F3FC0443E4B2324640F21B
:1016C0001A21284600F0EBFC0443E4B23A4640F20B
:1016D0001A21284600F0E3FC0443E4B23A4640F203
:1016E0001921284600F0DBFC0443E4B23A4640F2FC
:1016F0001B21284600F0D3FC0443E4B23A4647F6E7
:10170000FF71284600F0CBFC0443E4B20DF1170250
:1017100047F6FF71284600F0BBFC0443E4B23246B2
:1017200047F6FF71284600F0BAFC0443E4B20922F0
:1017300047F6FF71284600F0B2FC0443E4B2994E2C
:101740004FF4004332463946284600F0B5FC0443C6
:10175000E4B20A2247F6FF71284600F0A0FC0443D9
:10176000E4B24FF40043F2183946284600F0A4FCD6
:101770000443E4B20B2247F6FF71284600F08FFCC9
:101780000443E4B24FF4A04306F5803239462846BC
:1017900000F092FC0443E4B2012247F6FF712846B0
:1017A00000F07DFC0443E4B2012247F6FF712846B5
:1017B00000F075FC0443E4B203220621284600F041
:1017C0006EFC0443E4B20521284600F09FFC04436C
:1017D000E4B23A4647F6FF71284600F060FC044345
:1017E000E4B20DF1170247F6FF71284600F050FCF5
:1017F0000443E4B201220C21284600F050FC0443CB
:10180000E4B23A4647F6FF71284600F048FC04432C
:10181000E4B23A464FF48A71284600F040FC044393
:10182000E4B23A4640F21511284600F038FC044371
:10183000E4B242224FF48B71284600F030FC04439E
:10184000E4B23A4640F21711284600F028FC04435F
:10185000E4B23A460B21284600F021FC0443E4B2EE
:101860000DF1170247F6FF71284600F011FC044302
:10187000E4B23A460C21284600F011FC0443E4B2DD
:1018800001220B21284600F00AFC0443E4B228465A
:10189000FFF7F8F8044314F0FF047FF46EAE022261
:1018A00047F6FF71284600F0FAFB0443E4B205F561
:1018B000A2660423324642F6FC71284600F003FC7F
:1018C0000443E4B20421304600F004FCD5F81025AE
:1018D000354B9A4202D044F005044EE62823334AA1
:1018E00042F6D871284600F0E7FB0443E4B2022335
:1018F0000193FF2700974FF430530022042128461C
:10190000FFF7F0F80443E4B24FF4F673324642F6C0
:101910000441284600F0D7FB0443E4B24FF4F472CC
:10192000314605F1200003F036FF10212846FFF76D
:101930000FF90443E4B24FF442721D4905F50270F9
:1019400003F029FF10212846FFF7C0F90443E4B251
:101950004FF47373AA6942F63441284600F0ACFB99
:101960000443E4B20323019300974FF43053012260
:1019700004212846FFF7B6F80443E4B204234DF6E9
:10198000803204A92846FFF7D7FC0443E4B20423BD
:101990004DF6641203A92846FFF7CEFC0443E4B2D7
:1019A000EBE500BFA46F00089E6C0B0CA868000854
:1019B0003C65000870B584B005460E460DF10F0178
:1019C000FFF733FA04469DF80F30B3420ED0012ED4
:1019D0000FD0022E5ED0002E42D0FF24022247F606
:1019E000FF71284600F05BFB0443E4B2204604B0DC
:1019F00070BD002247F6FF71284600F050FB0443FB
:101A0000E4B204220921284600F049FB0443E4B271
:101A10000DF10E020F21284600F03AFB0443E4B218
:101A20009DF80E30432B13D0012101910091062324
:101A300000222846FFF756F80443E4B29DF80E3022
:101A4000432BCBD12846FFF7E9FC0443E4B2C5E7BA
:101A500040220F21284600F022FB0443E4B2E3E7D2
:101A6000002247F6FF71284600F019FB0443E4B258
:101A700002220921284600F012FB0443E4B20022AE
:101A800001920121009106232846FFF72BF8044319
:101A9000E4B2A3E7002247F6FF71284600F0FFFA00
:101AA0000443E4B202220921284600F0F8FA044374
:101AB000E4B2002201920121009106232846FFF79B
:101AC00011F80443E4B243220F21284600F0E7FA5C
:101AD0000443E4B282E700002DE9F04196B00546E8
:101AE0000024139414944FF4407312930DF1570192
:101AF000FFF710FC06466C614FF0FF0885F8108078
:101B0000744F0DF1380C07F54B730FCB8CE80F00B9
:101B10000DF1080E07F54F7CBCE80F00AEE80F0092
:101B2000BCE80F00AEE80F009CE80F008EE80F0045
:101B30000F230E931F230E933F230E937F230E93A9
:101B4000CDF8388040F2FF130E9340F2FF330E932E
:101B500040F2FF730E9340F6FF730E9310E09DF872
:101B60005770585A67F30F10585239E06A695B5A38
:101B7000C3F30B131A446A616B6904336B6101345C
:101B80000B2C35D816AB03EB840353F8503C002BD9
:101B9000F5D0630916AA02EB830353F8203C04F046
:101BA0001F02D34013F0010FE9D002ABA10003EBF9
:101BB000840013F8242012F00F0FD7D002F00F0288
:101BC0000C2AD3D84088A0F5A940503880B2B0F58F
:101BD000707FC4D29DF85770585A67F30F1058524F
:101BE00068695B5AC3F30B1303FB02006861C3E728
:101BF0006B6918336B6130234DF6801202A92846B9
:101C0000FFF79AFB0643F6B26B6913930134149401
:101C100008234DF6681213A92846FFF78DFB46EA04
:101C20000004E4B210234DF670120EA92846FFF707
:101C300083FB0443E4B2002247F6FF71284600F01C
:101C40002EFA0443E4B205220921284600F027FABF
:101C50000443E4B2022247F6FF71284600F01FFA5F
:101C60000443E4B2042312AA42F6FC71284600F0B1
:101C700023FA0443E4B203230193FF2300934FF4B8
:101C80003053012204212846FEF72CFF0443E4B21E
:101C900005F5A2660C2345F2404231462846FFF77F
:101CA000DDFA0443E4B2B5F818256B699A4200D016
:101CB000FF2408234EF2C40231462846FFF7CEFA2D
:101CC0002043C0B295F816350BB140F0030016B0B2
:101CD000BDE8F081186500082DE9F04105460E4683
:101CE000102910D0402944D07F2431462846FEF7E1
:101CF0002FFF0443E4B231462846FEF7E7FF2043B6
:101D0000C0B2BDE8F08100F5A26710234AF6385250
:101D10003946FFF7A3FA0446402385F8143585F8C1
:101D200016354FF0040885F8198510234AF6385205
:101D300039462846FFF700FB0443E4B2082345F286
:101D4000504239462846FFF789FA0443E4B285F841
:101D5000108585F81185082385F8143585F8153523
:101D600045F2504239462846FFF7E6FA0443E4B20A
:101D7000BBE700F5A26710234AF638523946FFF751
:101D80006DFA0446102385F8143585F816350122BE
:101D900085F819254AF6385239462846FFF7CCFA15
:101DA0000443E4B2082345F2504239462846FFF77F
:101DB00055FA0443E4B2082385F8103585F8113547
:101DC000042285F8142585F8152545F25042394638
:101DD0002846FFF7B1FA0443E4B286E7F0B583B0D2
:101DE00006460D460023019300F5A26708234AF634
:101DF00030523946FFF732FA0446012D17D0032D31
:101E00001ED07F2408234AF6305239463046FFF769
:101E100093FA0443E4B204234DF664120DEB03017C
:101E20003046FFF789FA2043C0B203B0F0BD01236A
:101E300086F81135032386F8133500230193E1E773
:101E4000032386F81135022386F813350123019305
:101E5000D8E72DE9F04106460D4617469846FFF7AC
:101E6000FDF90446BDF81C200699BDF82000284461
:101E700003F091FC43463A4629463046FFF75CFAA8
:101E80002043C0B2BDE8F08100B587B08DF81710CF
:101E90000123029301930DF117030093042345F2EC
:101EA000584200F5A261FFF7D4FF07B05DF804FBCC
:101EB00000B587B005918A1E40F2E6339A4203D9F5
:101EC0007F2007B05DF804FB4FF47A7303FB01F148
:101ED0000591002302930423019305AB009314237F
:101EE00045F25C4200F5A261FFF7B3FFE9E770B588
:101EF00086B005464FF001130493012924D00C232A
:101F00008DF8173005F5A266002302930423019390
:101F100004AB009308234BF2E06231462846FFF7FA
:101F200098FF044611230293012301930DF1170337
:101F30000093142345F2884231462846FFF789FF73
:101F40002043C0B206B070BD01238DF811300423C8
:101F50008DF81730D6E7000070B582B005460C4604
:101F60004A4B93E8030002AB03E9030000230CE0B3
:101F700003EB4302900004EB8202215889002150B8
:101F80005168890051600133DBB23F2B6AD8227A55
:101F9000013A122AF7D801A151F822F0711F000866
:101FA000E91F0008871F000801200008871F00089C
:101FB000871F0008871F000819200008871F0008D6
:101FC000871F0008871F0008871F000831200008AE
:101FD000871F0008871F0008871F0008871F000849
:101FE000871F00084920000803EB4302900004EB20
:101FF00082022158C90221505168C9025160C2E7CA
:1020000003EB4302900004EB82022158C9012150E6
:102010005168C9015160B6E703EB4302900004EB3D
:1020200082022158C90221505168C9025160AAE7B1
:1020300003EB4302900004EB820221580902215075
:102040005168090251609EE703EB4302900004EBE4
:1020500082022158C1EB014121505168C1EB01417D
:10206000516090E708234BF6F01269462846FFF7C7
:1020700063F906464FF440734BF2E8622146284666
:10208000FFF75AF93043C0B202B070BDA4BF0108D7
:1020900010B5846801230088A047C0B210BD10B5F8
:1020A00082B08DF80720446801230DF107020088F3
:1020B000A047C0B202B010BD10B544689BB2008802
:1020C000A047C0B210BD10B584689BB20088A0477D
:1020D000C0B210BD0022914217D900B500EB020C2E
:1020E00010F802E09CF801301B0443EA0E639CF8F0
:1020F00002E043EA0E239CF803C043EA0C0383503A
:1021000004329142EAD85DF804FB704770B504468A
:102110000E46C36898470546E3689847401BB0429F
:10212000FAD3002070BD58B110B5044690F8D83AE3
:10213000012B08D14368984740B984F8D80A10BDEC
:102140006FF0010070474FF0FF30F8E74FF0FF30BD
:10215000F5E740B151B140230B6001234B600020F3
:102160008860CB6070476FF0010070476FF001002E
:1021700070476FF00300704720B131B103890B60E5
:10218000002070476FF0010070476FF0010070474A
:10219000052805D0092805D000B17047FF207047F9
:1021A000002070470020F8E7B0B110B5044690F861
:1021B000D83AA3B91830FFF731F998B984F8D90A99
:1021C00084F8DA0A84F8DB0A84F8DC0A84F8DD0A89
:1021D000012384F8D83A10BD6FF0010070474FF02A
:1021E000FF30F8E74FF0FF30F5E770B582B000231D
:1021F0008DF807308DF8063098B30D46064699B332
:1022000018361A4647F6FF713046FFF748FF044676
:102210000DF1070200213046FFF73AFF0443E4B214
:102220000DF1060201213046FFF732FF0443E4B20C
:10223000022247F6FF713046FFF731FF044314F0E6
:10224000FF0F09D19DF807209DF8063003EB02230C
:102250002B60002002B070BD00232B604FF0FF30D8
:10226000F8E76FF00100F5E76FF00100F2E72DE904
:10227000F047002848D00C468046002947D00D780A
:10228000D1F8049091F808A06B1E032B11D8DFE859
:1022900003F00215080C102100269EB13046BDE85F
:1022A000F087012540210026F7E70325402100267D
:1022B000F3E7002529466FF00106EEE7032510211C
:1022C0000026EAE708F118073846FFF705FD08BBC6
:1022D00029463846FFF782FDF8B949463846FFF7E8
:1022E000E7FDE8B951463846FFF7CEFDD8B9E368B7
:1022F000003B18BF012388F8DC3A2369003B18BF74
:10230000012388F8DD3AC9E76FF00106C6E76FF0F0
:102310000106C3E74FF0FF36C0E74FF0FF36BDE7D9
:102320004FF0FF36BAE74FF0FF36B7E700285AD034
:1023300030B583B00C460546002957D00B68FF2BFB
:1023400007D018350DF107012846FEF7E3FF0023FB
:1023500026E000211830FFF7CAFD08B900203DE053
:102360004FF0FF303AE0234A03EB430102EB8100D8
:1023700083724FF0010C80F808C094F800C080F818
:1023800009C04FF0000C80F80BC0606842F82100D3
:10239000A16803EB430002EB800251600133DBB222
:1023A0009DF807209A42DED8124903EB430201EB65
:1023B0008202927A03EB430301EB830362F07F0214
:1023C0009A722846FFF7C8FD044601212846FFF708
:1023D0008EFD044314F0FF0F02D1002003B030BD86
:1023E0004FF0FF30FAE76FF0010070476FF0010027
:1023F000F4E700BF7C27002070B582B000238DF881
:102400000730B0B10E4604464369984705460DF1C2
:10241000070104F11800FEF7CEFD9DF80730012BEF
:102420000AD063699847401BB042F0D36FF00200B6
:1024300003E06FF0010000E0002002B070BD00007A
:10244000002800F092802DE9F04F83B00E468046C0
:10245000002900F08D8000F118040DF107012046DD
:10246000FEF758FF002840F0868046492046FEF7D8
:10247000D3FD8246002840F081809DF80790C6F881
:10248000009007465FE03F4B03EB8403D3ED017AF6
:10249000F8EE677A04EB84032B44023306EB8303E4
:1024A000C3ED027A37E004EB84035B44043306EBAC
:1024B000830300215960334B134493F88404FFF7DE
:1024C00067FE04EB84035B44023306EB830358602E
:1024D0000135EDB22B4B234493F80431AB4230D994
:1024E000EA1902F5F071274B03EB4103B3F904102D
:1024F000AB4604EB84032B4406EB8303996098F806
:10250000DC3A012BBFD004EB84032B44023306EBEF
:1025100083030021996098F8DD3A012BC3D102F1C1
:102520009001184B03EB8103D3ED017AF8EE677A43
:1025300004EB84035B44043306EB8303C3ED017AAD
:10254000B9E70137FFB2B9450BD93C460D4B3B44C7
:1025500093F8042107EB870306EB83031A715546B2
:10256000B8E7002003B0BDE8F08F6FF001007047BE
:102570006FF00100F6E74FF0FF30F3E74FF0FF3068
:10258000F0E700BF2C220020E0B138B50C4605462C
:1025900081B190F8D93AC3B190F8DA3A012B04D05E
:1025A0000021FFF729FF40B138BD41F28831FFF724
:1025B00023FFF8E76FF00100F5E721462846FFF713
:1025C0003FFFF1E76FF0010070474FF0FF30EBE79E
:1025D00088B338B50C4605461830FFF77DFA68BB5E
:1025E000012385F8D93A611E03291ED8DFE801F0DE
:1025F00002091017012385F8DB3A85F8DA3A002042
:1026000038BD002085F8DB0A012385F8DA3AF7E7C0
:10261000012385F8DB3A002085F8DA0AF0E700208C
:1026200085F8DB0A85F8DA0AEAE7002385F8D93A63
:102630006FF00100E4E76FF0010070474FF0FF30EA
:10264000DEE758B110B5044690F8D93A4BB11830CE
:10265000FEF725FC40B984F8D90A10BD6FF00100DF
:1026600070474FF0FF30F8E74FF0FF30F5E748B123
:1026700038B50546CCB221461830FEF7BBFB20B971
:102680002C8138BD6FF0010070474FF0FF30F8E744
:1026900060B108B501290CD8C9B21830FFF78AF922
:1026A00008B9002008BD4FF0FF30FBE76FF00100D4
:1026B00070476FF00100F5E7A0B110B582B00C468D
:1026C00099B10DF107011830FEF7AFFB28B99DF85D
:1026D00007302360002002B010BD002323604FF0BC
:1026E000FF30F8E76FF0010070476FF00100F2E78C
:1026F000C8B108B50346C9B10A68026048685860A5
:1027000008891881C868D8600869186148695861E3
:102710000889188308691862C868D86149695962CC
:102720003AB1904708BD6FF0010070476FF00100AB
:10273000F8E74FF0FF30F5E700B589B000230193CB
:10274000124A116B41F004011163116B01F0040195
:1027500001910199039304930593069307930293C0
:10276000136B43F004031363136B03F0040302932E
:10277000029B4FF4005303934FF48813049303A96F
:10278000034800F0D3F909B05DF804FB00380240BB
:10279000000802402DE9F04188B000240194194B53
:1027A0001A6C42F400321A641A6C02F4003201927C
:1027B000019A02941A6B42F001021A631B6B03F038
:1027C00001030293029B042303934FF00208CDF808
:1027D0001080059403270697072607960A4D03A93C
:1027E000284600F0A3F908230393CDF81080059440
:1027F0000697079603A9284600F098F908B0BDE8A7
:10280000F08100BF003802400000024038B50546A4
:102810000C46FFF791FF012C01D0002038BD0F4C72
:1028200004EBC5040E49204600F04CF978B90D4A76
:102830000021204600F03EF960B900220F21282037
:1028400000F006F9282000F027F90020E6E76FF0F5
:102850000300E3E76FF00300E0E700BF4000002063
:102860000D0000066928000808B5002002F0CCFC25
:1028700008BD000008B5094A02604FF416424260E4
:1028800000228260C26002610C2141618261C261EA
:1028900002F030F900B1012008BD00BF0044004043
:1028A000012812D810B50C4B53F820200B4C00EB2C
:1028B000C00344F8332004EBC3042046FFF76AFF4B
:1028C0002046FFF7D7FF18B910BD6FF00100704721
:1028D0006FF00300F8E700BF3C000020802A0020D2
:1028E00010B582B00190084B1B7803EBC303D800EE
:1028F0004FF47A73012201A9044C204402F07CF9C0
:10290000019802B010BD00BF7C2A0020802A002060
:1029100008B50B4B1A6842F400721A601A6842F448
:1029200080621A601A6842F480721A60032000F014
:1029300071F80020FDF7FEFDFDF7DCFD002008BD6D
:10294000003C0240034A1168034B1B780B441360A0
:10295000704700BFC82A002048000020014B1868BB
:10296000704700BFC82A002038B50446FFF7F6FFBD
:102970000546B4F1FF3F02D0044B1B781C44FFF71F
:10298000EDFF401BA042FAD338BD00BF4800002035
:10299000002807DB00F01F02400901239340024A90
:1029A00042F82030704700BF00E100E0002808DB5B
:1029B0000901C9B200F1604000F5614080F80013E0
:1029C000704700F00F000901C9B2014B195470475C
:1029D00014ED00E000B500F00700C0F1070CBCF1F9
:1029E000040F28BF4FF0040C031D062B0FD9C31E84
:1029F0004FF0FF3E0EFA0CF021EA000199400EFA6A
:102A000003FE22EA0E0241EA02005DF804FB002305
:102A1000EEE7000010B50446C31E042B0FD80A4A87
:102A2000D36823F4E0631B041B0C240204F4E06469
:102A3000234343F0BF6343F40033D36010BD9021C0
:102A40000248FDF755FDEAE700ED00E0B0BF0108E0
:102A500070B506460C4615460F2A0ED80F2C11D815
:102A60000B4BD8682A462146C0F30220FFF7B2FF7D
:102A700001463046FFF79AFF70BDA8210548FDF7D3
:102A800037FDEBE7A9210348FDF732FDE8E700BF7A
:102A900000ED00E0B0BF010810B5041E03DB2046C6
:102AA000FFF776FF10BDBC210148FDF721FDF6E7D9
:102AB000B0BF01080346084609B95A6070470120B3
:102AC0007047000038B505460C4621F0C06323F07E
:102AD0001F033BB901F0C063B3F1007F0BD0B3F12A
:102AE000C06F08D040F28D110648FDF701FD3DB1E1
:102AF0002C60002038BD04F01F03162BF7D9F1E736
:102B00000120F7E7E8BF010808B5036803F01F02DA
:102B100001239340044A52691A4204D0024A536185
:102B2000436803B1984708BD003C01402DE9F041DE
:102B300082B007460E469B4B984217D003F5806340
:102B4000984213D003F5806398420FD003F5806359
:102B500098420BD003F58063984207D003F5406399
:102B6000984203D0AC219048FDF7C2FC33689AB27A
:102B700012B1B3F5803F03D3AD218B48FDF7B8FC0C
:102B80007368012B10D9B3F5041F0DD011D8B3F51C
:102B9000881F09D003D9B3F5901F05D012E0032B8D
:102BA00004D9113B012B0DD800248AE0022B09D354
:102BB000FAE7B3F5441FF7D0B3F5481FF4D0B3F5E7
:102BC000081FF1D0AE217848FDF792FCECE7F368DE
:102BD000032B13D8BA68610003238B4022EA030257
:102BE000F3688B401343BB607A6822EA050273687E
:102BF000C3F30013A34013437B6073E0C0216A4812
:102C0000FDF776FCE6E7D1216748FDF771FC71E03E
:102C1000336943B10F2B17D849F2F67222FA03F346
:102C200013F0010F10D0E208083257F8220004F028
:102C3000070189000F238B4020EA030033698B4092
:102C4000034347F8223065E0DE215748FDF750FC8A
:102C5000E9E7042300E000238B4003430232534999
:102C600041F82230524B9A686FEA080322EA0801C1
:102C7000706810F4801F01D048EA02014C4A91604C
:102C8000D26803EA0201706810F4001F01D048EA1C
:102C90000201474AD160526803EA0201706810F4E9
:102CA000003F01D048EA0201414A516012681340D6
:102CB000716811F4803F01D048EA02033C4A136076
:102CC00001340F2C6BD80125A540336803EA0508B1
:102CD00035EA0303F4D1736803F00303013B012BCE
:102CE0007FF675AF736803F00303032B0CD0B36852
:102CF000022B88D8FA68610003238B4022EA030282
:102D0000B3688B401343FB60736803F00303022B2B
:102D10003FF47EAF3A68610003238B4022EA03024E
:102D2000736803F003038B4013433B60736813F431
:102D3000403FC5D0002301931E4B5A6C42F48042A1
:102D40005A645B6C03F480430193019BA208911CBD
:102D5000164B53F8210004F0030189000F238B4028
:102D600020EA03000F4B9F423FF475AF03F58063E9
:102D70009F420ED003F580639F420CD003F5806321
:102D80009F420AD003F580639F423FF462AF07235E
:102D900062E7012360E702235EE703235CE702B0FA
:102DA000BDE8F0810000024020C001080038014069
:102DB000003C014000380240F8B504460D464B4B3C
:102DC000984218D003F58063984214D003F58063CD
:102DD000984210D003F5806398420CD003F58063CD
:102DE000984208D003F54063984204D04FF497719D
:102DF0003F48FDF77DFB00232AE0042600E0002683
:102E000006FA01F1814255D020685E000321B140ED
:102E100020EA01002060D808083054F8206003F050
:102E2000070E4FEA8E0E4FF00F0C0CFA0EFC26EA3E
:102E30000C0644F82060E06820EA0100E060606869
:102E400020EA02026260A26822EA0102A260013363
:102E50000F2B4AD801229A4002EA050C32EA0501FA
:102E6000F5D14FEA930E0EF10200224951F82000ED
:102E700003F0030189000F2606FA01F738401B4EC4
:102E8000B442BCD006F58066B4420DD006F580662B
:102E9000B4420BD006F58066B44209D006F58066D0
:102EA000B442AAD00726ABE70126A9E70226A7E786
:102EB0000326A5E71049086820EA0C000860486866
:102EC00020EA0C004860C86820EA0C00C8608868E6
:102ED00020EA0C008860074E0EF1020156F821002E
:102EE00020EA070046F821008EE7F8BD0000024006
:102EF00020C0010800380140003C014070B5054683
:102F000014460E4621B1012C08D86CB1AE6170BDDB
:102F100040F29D110648FDF7EBFAF4E74FF4CF714C
:102F20000348FDF7E5FAF0E73604AE61EFE700BFCE
:102F300020C0010808B5054B5B69034200D108BDFC
:102F4000024B586102F066F9F9E700BF003C01400E
:102F500003685A6912F4806F01D1002070476FF442
:102F600080625A6100230363202280F83D2080F8AC
:102F70003E30026C42F00402026480F83C300120D2
:102F800070472DE9F04106460C46174698463BE04F
:102F9000FFF7E4FC069BC01A404502D8B8F1000FC9
:102FA00032D1012D18D033689B6924EA03039BB208
:102FB000B3FA83F35B099F4226D1002333632022B7
:102FC00086F83D2086F83E30326C42F020023264B2
:102FD00086F83C30012027E033685B6924EA03036C
:102FE0009BB2B3FA83F35B09E5E733685B6924EAD4
:102FF000030C1FFA8CFCBCFA8CFC4FEA5C1C674586
:1030000011D1B8F1FF3FC3D1C4F30745012DECD076
:1030100033689B6924EA030C1FFA8CFCBCFA8CFC15
:103020004FEA5C1CEBE70020BDE8F0812DE9F84396
:1030300005460E469046994653E01A6842F40072DF
:103040001A602B686FF480625A6100232B63202280
:1030500085F83D2085F83E302A6C42F004022A644F
:1030600085F83C3001204AE0FFF778FCA0EB09002E
:10307000404502D8B8F1000F33D1012F17D02B688B
:103080009B6926EA03039BB2003B18BF012343B3AD
:1030900000232B63202285F83D2085F83E302A6CE2
:1030A00042F020022A6485F83C30012027E02B689A
:1030B0005B6926EA03039BB2003B18BF0123E6E7E6
:1030C0002B689C6926EA0404A4B2003C18BF0124C2
:1030D000A4B12B685A6912F4806FAED1B8F1FF3FEA
:1030E000C2D1C6F30747012FEAD12B685C6926EAF3
:1030F0000404A4B2003C18BF0124E9E70020BDE8A5
:10310000F88370B504460D46164623685B6913F0D4
:10311000800F21D12046FFF71BFFF8B9B5F1FF3F23
:10312000F3D0FFF71BFC801BA84201D8002DECD187
:1031300023685B6913F0800FE7D10023236320220B
:1031400084F83D2084F83E30226C42F02002226454
:1031500084F83C30012000E0002070BD0120FCE735
:103160002DE9F04385B004460D4691461F46DDF833
:1031700030800D9E0368196841F4807119600096D3
:10318000434600224FF00111FFF7FBFE60B92368B0
:1031900005F0FE051D613346424626492046FFF7ED
:1031A00045FF68B1012008E023681B6813F4807FA5
:1031B00002D04FF400732364032005B0BDE8F08310
:1031C0000023039323685A6903929B690393039B2B
:1031D000324641462046FFF794FF30B9012F0FD108
:1031E00023685FFA89F61E61E7E7236C042B01D0A0
:1031F0000120E2E72268136843F400731360F7E7E5
:1032000023684FEA19221A61324641462046FFF7E9
:1032100078FF20B923685FFA89F61E61CDE7236C39
:10322000042B01D00120C8E72268136843F400731F
:103230001360F7E7020001002DE9F04784B004466F
:103240000D46164699460C9FDDF8348002681368D7
:1032500043F4806313600368196841F48071196056
:10326000CDF800803B4600224FF00111FFF789FEA8
:1032700070B95FFA85FA236805F0FE051D614346C3
:103280003A4641492046FFF7D1FE68B1012008E0E7
:1032900023681B6813F4807F02D04FF4007323640B
:1032A000032004B0BDE8F0870023039323685A6924
:1032B00003929B690393039B424639462046FFF7DE
:1032C00020FF80B9B9F1010F18D12368F6B21E6151
:1032D000424639462046FFF714FF68B3236C042B9F
:1032E00024D00120DDE7236C042B01D00120D8E796
:1032F0002268136843F400731360F7E72368320A07
:103300001A61424639462046FFF7FBFE18B923688A
:10331000F6B21E61DCE7236C042B01D00120C0E76C
:103320002268136843F400731360F7E72268136898
:1033300043F400731360D4E72268136843F4807386
:103340001360CDF800803B4600224FF0011120466B
:10335000FFF717FE68B922684AF00103136143467C
:103360003A4609492046FFF761FE002899D001201E
:1033700097E723681B6813F4807F02D04FF4007333
:10338000236403208DE700BF0200010070B50446EE
:103390000D46164623685B6913F0040F21D12046C1
:1033A000FFF7D6FDF8B9B5F1FF3FF3D0FFF7D6FA36
:1033B000801BA84201D8002DECD123685B6913F073
:1033C000040FE7D100232363202284F83D2084F8F2
:1033D0003E30226C42F02002226484F83C3001200E
:1033E00000E0002070BD0120FCE770B504460D46EA
:1033F000164614E06FF010025A6100232363202266
:1034000084F83D2084F83E30226C226484F83C30FD
:10341000012025E023685B6913F0400F10D023687A
:10342000586910F0400F1AD1586910F0100FE1D10F
:10343000FFF794FA801BA842ECD8002DEFD1E9E702
:1034400000232363202284F83D2084F83E30226C40
:1034500042F02002226484F83C30012000E0002089
:1034600070BD7047002800F0338170B504460368D2
:10347000994A93420CD002F58062934208D002F53B
:103480008062934204D040F2C9119448FDF730F8AD
:103490006368013B924A93426ED8A36813B1B3F5B7
:1034A000804F6FD1E368B3F5806F71D22369B3F5B4
:1034B000804F02D0B3F5404F70D16369012B73D8B0
:1034C000A36933F0FE0375D1E3690BB1402B77D1CB
:1034D000236A0BB1802B79D194F83D30002B7BD03F
:1034E000242384F83D302268136823F0010313601D
:1034F0002268136843F4004313602268136823F4BE
:103500000043136000F07EFF6268764B9A4269D8F0
:10351000754B98428CBF00230123002B40F0DA80CA
:103520007249A1FB00318B0C25686A6822F03F02CA
:1035300042EA91426A6021680A6A22F03F026668A4
:10354000684DAE4254D8013313430B622168CA69F7
:1035500022F44F4222F0FF026568624B9D4251D82F
:10356000431E6D00B3FBF5F3013340F6FC700342DC
:103570007ED0C3F30B037CE04FF4E5715748FCF7B2
:10358000B7FF8AE740F2CB115448FCF7B1FF89E757
:103590004FF4E6715148FCF7ABFF87E740F2CD11DD
:1035A0004E48FCF7A5FF88E74FF4E7714B48FCF75E
:1035B0009FFF85E740F2CF114848FCF799FF83E76A
:1035C0004FF4E8714548FCF793FF81E740F2D111D1
:1035D0004248FCF78DFF7FE784F83C302046FFF738
:1035E00040FF7DE7424B98428CBF0023012394E7C4
:1035F0004FF4967505FB03F33E4DA5FB03539B0962
:103600000133A1E7A668C6B9431E05EB450CB3FB21
:10361000FCF30133C3F30B03B3FA83F35B09002B11
:1036200054D1C6B9431E05EB4505B3FBF5F3013391
:10363000C3F30B0343F400431BE0431E05EB850C6F
:103640000CEB8C0CB3FBFCF30133C3F30B03B3FAA9
:1036500083F35B09E3E7431E05EB850505EB850571
:10366000B3FBF5F30133C3F30B0343F4404300E032
:1036700004231A43CA6121680B6823F0C003E2697E
:10368000206A024313430B6021688B6823F40343D1
:1036900023F0FF032269E068024313438B60216833
:1036A000CB6823F0FF036269A06902431343CB6038
:1036B0002268136843F00103136000202064202374
:1036C00084F83D30206384F83E0070BD0123D0E7CC
:1036D000012070470120F8E70054004058C001085D
:1036E0007F1A0600A08601007F841E0083DE1B4334
:1036F000FF083D00D34D62107047000038B310B58D
:1037000004460368134A93420CD002F58062934248
:1037100008D002F58062934204D040F239210E486D
:10372000FCF7E6FE242384F83D302268136823F07A
:10373000010313602046FFF7DFFF0020206484F8B8
:103740003D00206384F83E0084F83C0010BD012059
:10375000704700BF0054004058C001082DE9F043F5
:1037600083B00446884691461F460C9EFFF7F6F844
:103770000546012F01D0102F08D194F83D30DBB25F
:10378000202B09D0022003B0BDE8F08340F6CD1114
:103790004E48FCF7ADFEF0E70095192301224C4995
:1037A0002046FFF7EEFB002840F0898094F83C307B
:1037B000012B00F08680012384F83C3023681A68CE
:1037C00012F0010F03D11A6842F001021A60226858
:1037D000136823F400631360212384F83D304023F1
:1037E00084F83E30002323640A9B6362BDF82C30CA
:1037F0006385638D2385374BE362019500963B46D5
:103800004A4641462046FFF7ABFC00285BD1238D9A
:10381000002B35D02A4631462046FFF772FC20BBEC
:10382000626A236812781A61626A531C6362218D8E
:10383000013989B22185638D9BB2013B9BB26385BF
:103840002368586910F0040FE1D00029DFD05278C6
:103850001A61636A01336362238D013B2385638DA3
:103860009BB2013B9BB26385D1E7236C042B01D053
:10387000012088E72268136843F400731360F7E7B8
:103880002A4631462046FFF781FD50B1236C042BB8
:1038900001D0012077E72268136843F400731360B6
:1038A000F7E72268136843F400731360202384F859
:1038B0003D30002384F83E3084F83C3063E702203A
:1038C00061E702205FE701205DE700BF58C0010803
:1038D000020010000000FFFF2DE9F04387B004460E
:1038E000884691461F46109EFFF738F80546012F7F
:1038F00001D0102F09D194F83D30DBB2202B0AD033
:103900000227384607B0BDE8F08340F648218C48CE
:10391000FCF7EEFDEFE700951923012289492046C7
:10392000FFF72FFB002840F04F8194F83C30012B2B
:1039300000F04C81012384F83C3023681A6812F0AF
:10394000010F03D11A6842F001021A60226813685D
:1039500023F400631360222384F83D30402384F86D
:103960003E30002323640E9B6362BDF83C306385C8
:10397000638D2385744BE362019500963B464A466E
:1039800041462046FFF758FC0746002840F02081BA
:10399000238D5BB9029323685A6902929A69029255
:1039A000029A1A6842F400721A6075E0012B0AD07C
:1039B000022B1AD00023059323685A6905929B694C
:1039C0000593059B68E02268136823F48063136005
:1039D0000023039323685A6903929A690392039A16
:1039E0001A6842F400721A6056E02268136823F4E1
:1039F000806313602268136843F40063136000233C
:103A0000049323685A6904929B690493049B43E0DE
:103A10002A4631462046FFF7E8FC002840F0DA80CD
:103A200023681A69636A1A70636A01336362238DBB
:103A3000013B2385638D9BB2013B9BB263852BE0E9
:103A400000953346002241492046FFF79AFA0028A4
:103A500040F0C2802268136843F400731360236847
:103A60001A69636A1A70626A531C6362238D013B90
:103A70002385638D9BB2013B9BB2638523681B69E1
:103A80005370636A01336362238D013B2385638D29
:103A90009BB2013B9BB26385238D002B00F08B8092
:103AA000032B55D8012BB3D0022BC9D00095334638
:103AB000002226492046FFF764FA002840F08E8055
:103AC0002268136823F48063136023681A69636AA9
:103AD0001A70636A01336362238D013B2385638D12
:103AE0009BB2013B9BB26385009533460022174988
:103AF0002046FFF746FA002872D12268136843F483
:103B00000073136023681A69636A1A70626A531C2F
:103B10006362238D013B2385638D9BB2013B9BB286
:103B2000638523681B695370636A01336362238D65
:103B3000013B2385638D9BB2013B9BB26385ABE761
:103B400058C00108020010000000FFFF040001003F
:103B50002A4631462046FFF748FC002842D1236818
:103B60001A69636A1A70636A01336362228D013ACB
:103B700092B22285638D9BB2013B9BB26385236821
:103B8000596911F0040F87D0032A0FD023681A69EE
:103B9000636A1A70636A01336362238D013B238574
:103BA000638D9BB2013B9BB2638575E71A6822F473
:103BB00080621A60EAE7202384F83D30002384F80D
:103BC0003E3084F83C309CE602279AE6022798E6CD
:103BD000012796E6012794E6012792E6012790E661
:103BE00001278EE601278CE690F83D007047006CB7
:103BF00070470000002800F0618270B582B0044672
:103C000003680F2B39D8236813F0010F4DD0636878
:103C10002BB1B3F5803F02D0B3F5A02F32D1804B4A
:103C20009B6803F00C03042B36D07D4B9B6803F09C
:103C30000C03082B2BD06368B3F5803F5FD0B3F53E
:103C4000A02F62D0764B1A6822F480321A601A686C
:103C500022F480221A606368002B60D0FEF77EFE9B
:103C600005466F4B1B6813F4003F1ED1FEF776FE2E
:103C7000401B6428F5D9032027E2E6216948FCF7B8
:103C800037FCC0E7EB216748FCF732FCC7E7644B21
:103C90005B6813F4800FCED0614B1B6813F4003FB8
:103CA00003D06368002B00F00B82236813F0020F2F
:103CB00066D0E368012B41D823691F2B44D8584BA9
:103CC0009B6813F00C0F4AD0554B9B6803F00C0314
:103CD000082B3FD0E368002B77D0534B01221A60AA
:103CE000FEF73CFE05464E4B1B6813F0020F63D1F6
:103CF000FEF734FE401B0228F5D90320E5E1484ACF
:103D0000136843F480331360A5E7454B1A6842F407
:103D100080221A601A6842F480321A609BE7FEF72C
:103D20001DFE05463E4B1B6813F4003FBDD0FEF759
:103D300015FE401B6428F5D90320C6E140F21D1191
:103D40003848FCF7D5FBB7E74FF48F713548FCF7DF
:103D5000CFFBB4E7324B5B6813F4800FBAD1304B22
:103D60001B6813F0020F03D0E368012B40F0AA8117
:103D70002B4A136823F0F803216943EAC103136057
:103D8000236813F0080F51D06369012B2FD86369A2
:103D90009BB3254B0122C3F8802EFEF7DFFD0546BD
:103DA0001F4B5B6F13F0020F40D1FEF7D7FD401B96
:103DB0000228F5D9032088E1194A136823F0F80393
:103DC000216943EAC1031360DAE7174B00221A6046
:103DD000FEF7C4FD0546124B1B6813F0020FCFD04F
:103DE000FEF7BCFD401B0228F5D903206DE14FF41E
:103DF000AF710C48FCF77CFBC9E70B4B0022C3F802
:103E0000802EFEF7ABFD0546054B5B6F13F0020FEE
:103E10000CD0FEF7A3FD401B0228F5D9032054E186
:103E20000038024090C0010800004742236813F0A8
:103E3000040F7CD0A368012B01D9052B38D1A54BE9
:103E40001B6C13F0805F39D100230193A14B1A6CD6
:103E500042F080521A641B6C03F080530193019B63
:103E600001259D4B1B6813F4807F29D0A368012B8B
:103E70003AD0052B3ED0974B1A6F22F001021A67F9
:103E80001A6F22F004021A67A368002B3CD0FEF7D9
:103E900065FD06468F4B1B6F13F0020F45D1FEF7F1
:103EA0005DFD801B41F288339842F3D903200CE179
:103EB0004FF4C5718948FCF71BFBC0E70025D0E72C
:103EC000854A136843F480731360FEF747FD064686
:103ED000814B1B6813F4807FC8D1FEF73FFD801B28
:103EE0000228F5D90320F0E07A4A136F43F001036A
:103EF0001367C9E7774B1A6F42F004021A671A6F0B
:103F000042F001021A67BFE7FEF728FD0646714B33
:103F10001B6F13F0020F08D0FEF720FD801B41F24B
:103F200088339842F3D90320CFE0002D3FD1A36915
:103F3000022B42D8A369002B00F0C680654A926824
:103F400002F00C02082A00F09480022B7DD1E36974
:103F500013B1B3F5800F36D1236A023B3D2B38D81D
:103F6000636A323BB3F5BF7F39D8A36A022B08D00E
:103F7000082B3AD84FF4A87222FA03F313F0010F7A
:103F800033D0E36A023B0D2B35D8554B00221A661D
:103F9000FEF7E4FC05464F4B1B6813F0007F30D062
:103FA000FEF7DCFC401B0228F5D903208DE0494ACE
:103FB000136C23F080531364B9E740F2CD114748E6
:103FC000FCF796FAB6E74FF4EB714448FCF790FA29
:103FD000C2E740F2D7114148FCF78AFAC0E74FF434
:103FE000EC713E48FCF784FABFE740F2D9113B4838
:103FF000FCF77EFAC5E74FF4ED713848FCF778FA24
:10400000C3E7E369226A1343626A43EA8213A26A3E
:104010005208013A43EA0243E26A43EA02632D4A44
:1040200053602F4B01221A66FEF798FC0446294B79
:104030001B6813F0007F06D1FEF790FC001B0228DE
:10404000F5D9032041E000203FE0254B00221A660D
:10405000FEF784FC04461F4B1B6813F0007F06D05C
:10406000FEF77CFC001B0228F5D903202DE0002080
:104070002BE0012B2BD0174B5B6803F48001E26926
:1040800091422FD103F03F02216A8A422CD1616A0A
:1040900047F6C0721A40B2EB811F27D103F44031BA
:1040A000A26A5208013AB1EB024F21D103F07063CA
:1040B000E26AB3EB026F1DD1002006E001207047D9
:1040C000012002E0012000E0002002B070BD0120CC
:1040D000FBE700BF003802400070004090C00108BC
:1040E000000047420120F0E70120EEE70120ECE765
:1040F0000120EAE70120E8E708B5334B9B6803F0AD
:104100000C03042B5BD0082B5BD12F4B5A6802F0B9
:104110003F025B6813F4800F2CD02B4B5868C0F320
:1041200088104FEA401CBCEB000C6EEB0E0E4FEA01
:104130008E1343EA9C634FEA8C11B1EB0C0163EBE5
:104140000E03DB0043EA5173C90011EB000C43F18D
:104150000003590200234FEA4C2041EADC51FCF7EE
:104160006FF8194B5B68C3F3014301335B00B0FB8D
:10417000F3F027E0144B5868C0F388104FEA401C56
:10418000BCEB000C6EEB0E0E4FEA8E1343EA9C6301
:104190004FEA8C11B1EB0C0163EB0E03DB0043EA39
:1041A0005173C90011EB000C43F100039902002385
:1041B0004FEA8C2041EA9C51FCF742F8D1E70348D2
:1041C00000E0034808BD00BF0038024000127A003A
:1041D0000024F400002800F0FA8070B50D46044673
:1041E0000368013B0E2B30D8072D34D87C4B1B685D
:1041F00003F00703AB4208D2EBB2794A137013689D
:1042000003F00703AB4240F0E480236813F0020F91
:1042100032D013F0040F04D0724A936843F4E05391
:104220009360236813F0080F04D06E4A936843F438
:1042300060439360A368C3B1C02B16D049D8A02BAC
:1042400013D00ED9B02B10D049E040F25A21664865
:10425000FCF74EF9C8E740F25B216348FCF748F9E8
:10426000C4E7802B01D0902B39D15E4A936823F0AC
:10427000F003A1680B439360236813F0010F48D04B
:104280006368032B31D86368012B34D09A1E012A4E
:1042900038D9544A126812F0020F00F09C8051493C
:1042A0008A6822F0030213438B60FEF757FB064631
:1042B0004C4B9B6803F00C036268B3EB820F28D071
:1042C000FEF74CFB801B41F288339842F0D9032063
:1042D00070E0E02BC9D0F02BC7D0D02BC5D040F276
:1042E0007E214148FCF704F9BFE740F285213E48B2
:1042F000FCF7FEF8C7E73B4A126812F4003FCED144
:10430000012057E0374A126812F0007FC7D1012020
:1043100050E0334B1B6803F00703AB4207D9EAB206
:104320002F4B1A701B6803F00703AB4255D123686B
:1043300013F0040F14D0E3685BB1B3F5805F08D0CD
:10434000B3F5A05F05D0B3F5C05F02D0B3F5E05F71
:1043500031D1244A936823F4E053E1680B4393601E
:10436000236813F0080F15D023695BB1B3F5805FA4
:1043700008D0B3F5A05F05D0B3F5C05F02D0B3F5A8
:10438000E05F1ED1174A936823F46043216943EA32
:10439000C1039360FFF7B0FE124B9B68C3F3031396
:1043A000124AD35CD840124B1860124B1868FCF7C5
:1043B000C1F8002070BD40F2C3210B48FCF798F80B
:1043C000C7E740F2CA210848FCF792F8DAE7012073
:1043D00070470120EEE70120ECE70120EAE700BF8B
:1043E000003C02400038024090C001088C68000880
:1043F000000000204C000020014B1868704700BFEF
:104400000000002008B5FFF7F7FF044B9B68C3F3DB
:104410008223034AD35CD84008BD00BF0038024065
:104420008468000808B5FFF7E7FF044B9B68C3F3F7
:104430004233034AD35CD84008BD00BF0038024075
:10444000846800080F2303600B4B9A6802F0030294
:1044500042609A6802F0F00282609A6802F4E052C8
:10446000C2609B68DB0803F4E0530361034B1B68E5
:1044700003F007030B60704700380240003C024025
:104480007047000010B5044603682E4A93421FD0BF
:10449000B3F1804F1CD0A2F57C42934218D002F5B4
:1044A0008062934214D002F58062934210D002F5EC
:1044B0009A3293420CD002F58062934208D002F502
:1044C0008062934204D04FF4E8711F48FCF710F863
:1044D00094F83D30DBB2012B2FD1022384F83D301C
:1044E0002268D36843F00103D3602368154A9342DE
:1044F00018D0B3F1804F15D0A2F57C42934211D071
:1045000002F5806293420DD002F58062934209D099
:1045100002F59A32934205D01A6842F001021A60FD
:1045200000200BE09A6802F00702062A07D01A68FA
:1045300042F001021A60002000E0012010BD0020BE
:10454000FCE700BF00000140C8C001087047704789
:104550007047704770B504460368DE681D6915F042
:10456000020F10D016F0020F0DD06FF002021A6188
:104570000123037703689B6913F0030F5ED0FFF7F5
:10458000E6FF0023237715F0040F12D016F0040F76
:104590000FD023686FF004021A6102232377236887
:1045A0009B6913F4407F4FD02046FFF7D0FF0023D4
:1045B000237715F0080F12D016F0080F0FD02368DC
:1045C0006FF008021A61042323772368DB6913F074
:1045D000030F40D02046FFF7BAFF0023237715F0E2
:1045E000100F12D016F0100F0FD023686FF01002CA
:1045F0001A61082323772368DB6913F4407F31D0E5
:104600002046FFF7A4FF0023237715F0010F02D007
:1046100016F0010F2DD115F0800F02D016F0800F8B
:104620002FD115F0400F02D016F0400F31D115F008
:10463000200F02D016F0200F33D170BDFFF786FF98
:104640002046FFF785FF9CE72046FFF77FFF2046C7
:10465000FFF77EFFABE72046FFF778FF2046FFF726
:1046600077FFBAE72046FFF771FF2046FFF770FF9C
:10467000C9E723686FF001021A612046FBF7CCFE00
:10468000C9E723686FF080021A61204600F005F93F
:10469000C7E723686FF040021A612046FFF759FF11
:1046A000C5E723686FF020021A61204600F0F4F895
:1046B000C3E700000368294A90420ED0B0F1804F52
:1046C0000BD0A2F57C42904207D002F58062904266
:1046D00003D002F58062904203D123F070034A6850
:1046E00013431E4A90421AD0B0F1804F17D0A2F562
:1046F0007C42904213D002F5806290420FD002F5C6
:10470000806290420BD002F59A32904207D002F5B7
:104710008062904203D002F58062904203D123F47C
:104720004073CA68134323F080034A69134303604C
:104730008B68C3620B688362084B98420AD00123DE
:104740004361036913F0010F03D0036923F00103F0
:10475000036170470B690363F1E700BF000001408C
:10476000002800F0918010B504460368474A934240
:104770001FD0B3F1804F1CD0A2F57C42934218D0D9
:1047800002F58062934214D002F58062934210D009
:1047900002F59A3293420CD002F58062934208D01F
:1047A00002F58062934204D040F213113848FBF7BF
:1047B0009FFEA3683BB1102B05D0202B03D0402BCC
:1047C00001D0602B17D123692BB1B3F5807F02D0C4
:1047D000B3F5007F15D12368B3F1804F17D02D4A70
:1047E000934214D0E368013B4FF6FE7293428CBFB4
:1047F000002301230FE04FF48A712548FBF778FE70
:10480000E1E740F215112248FBF772FEE3E7E368A7
:10481000003B18BF01232BB3A3690BB1802B27D119
:1048200094F83D3053B3022384F83D30214651F8CB
:10483000040BFFF73FFF012384F8463084F83E3035
:1048400084F83F3084F8403084F8413084F84230B6
:1048500084F8433084F8443084F8453084F83D309F
:10486000002010BD4FF48B710948FBF741FED3E7E0
:1048700040F217110648FBF73BFED1E784F83C30C5
:104880002046FFF7FDFDCEE7012070470000014004
:10489000C8C00108000C004070477047026802F170
:1048A0000C0353E8003F23F490730C3242E80031CC
:1048B0000029F3D1026802F1140353E8003F23F00A
:1048C0000103143242E800310029F3D1036B012BBC
:1048D00005D0202380F8423000230363704702682C
:1048E00002F10C0353E8003F23F010030C3242E8BE
:1048F00000310029F3D1ECE710B504464268574B6C
:104900009A423FD8E36813B1B3F5005F40D1236901
:104910002BB1B3F5806F02D0B3F5C06F3ED16369A0
:104920004FF6F372134200D123B940F678614C4838
:10493000FBF7DEFD2268136923F44053E1680B4363
:104940001361A36822691A4363691A43E3691A432E
:104950002168CB6823F4164323F00C031343CB6088
:104960002268536923F44073A1690B4353612368A0
:104970003C4A934218D002F58062934214D0FFF76C
:1049800041FD13E040F675613548FBF7B1FDB9E72D
:1049900040F676613248FBF7ABFDB8E740F6776149
:1049A0002F48FBF7A5FDBAE7FFF73CFDE369B3F538
:1049B000004F29D00021031849411B1841F1000183
:1049C000C90041EA5371DB00181863684FEA83029B
:1049D0004FEA937341F10001FBF732FC224AA2FB3C
:1049E00000314909642303FB11031B013233A2FB8D
:1049F00003235B0903F0F00202EB011203F00F0343
:104A0000216813448B6010BD0023021843EB03019F
:104A1000121841F10001C90041EA5271D200101888
:104A200041F10001626892185B41FBF709FC0E4AF4
:104A3000A2FB00314909642303FB1103DB0032337D
:104A4000A2FB03235B095A0002F4F87202EB011285
:104A500003F00703216813448B60D4E7A037A0005C
:104A600000C10108001001401F85EB512DE9F04302
:104A700083B005460E4617469946DDF828802B6818
:104A80001C6836EA04040CBF01240024BC4228D16F
:104A9000B8F1FF3FF3D0FDF761FFA0EB09004045FF
:104AA00023D8B8F1000F22D02B68DA6812F0040F77
:104AB000E5D0802EE3D0402EE1D01A6812F0080F26
:104AC000DDD0002401941A6801925B680193019B78
:104AD0002846FFF7E3FE08236B6485F84040012079
:104AE00000E0002003B0BDE8F0830320FAE70320D4
:104AF000F8E77047002878D010B5044683690BB3F7
:104B000003683B4A93420CD0A2F54C42934208D032
:104B100002F55042934204D040F273113548FBF73E
:104B2000E7FCA369FBB1B3F5807F1CD0B3F5007F30
:104B300019D0B3F5407F16D04FF4BA712D48FBF76A
:104B4000D7FC10E003682A4A93420CD0A2F54C42ED
:104B5000934208D002F55042934204D04FF4BC7106
:104B60002448FBF7C5FCA36813B1B3F5805F2AD1D5
:104B7000E36913B1B3F5004F2BD194F8413073B30F
:104B8000242384F841302268D36823F40053D3608F
:104B90002046FFF7B1FE2268136923F490431361A6
:104BA0002268536923F02A0353612268D36843F4CF
:104BB0000053D36000206064202384F8413084F8DF
:104BC0004230606310BD4FF4BD710A48FBF790FCA2
:104BD000CEE740F27B110748FBF78AFCCDE784F86B
:104BE00040302046FFF785FFCAE70120704700BF2D
:104BF0000010014000C101082DE9F04182B01E46BD
:104C000090F84130DBB2202B56D104460D46904639
:104C1000002955D00AB901204FE000234364212325
:104C200080F84130FDF79AFE0746A4F82480A4F8E6
:104C30002680A368B3F5805F02D04FF0000814E02F
:104C400023692BB34FF000080FE0202384F8413094
:104C5000032032E038F8023B2268C3F308035360B4
:104C6000E28C92B2013A92B2E284E38C9BB293B1AD
:104C700000963B46002280212046FFF7F7FE0028E1
:104C8000E3D1002DE6D015F8012B23685A60E7E741
:104C9000A8460025E9E700963B4600224021204631
:104CA000FFF7E4FE18B9202384F8413005E0202303
:104CB00084F84130032000E0022002B0BDE8F0811A
:104CC0000120FAE72DE9F04182B01E4690F842300B
:104CD000DBB2202B59D104460D469046002958D00E
:104CE0000AB9012052E000234364222280F84220C6
:104CF0000363FDF733FE0746A4F82C80A4F82E804A
:104D0000A368B3F5805F02D04FF000081CE0236970
:104D100013B14FF0000817E0A846002514E0202347
:104D200084F84230032031E023685B68C3F3080352
:104D300028F8023B03E023685B682B700135E28DA5
:104D400092B2013A92B2E285E38D9BB2C3B1009672
:104D50003B46002220212046FFF788FE0028DED1B6
:104D6000002DE1D0A368B3F5805FE4D013B92369C7
:104D7000002BE0D023685B6803F07F032B70DDE736
:104D8000202384F84230002000E0022002B0BDE879
:104D9000F0810120FAE70000024B1B681868C0F39D
:104DA00040107047802A002008B51B21014800F000
:104DB00027FB08BD38C1010810B50020FDF770FDC4
:104DC00001210020FDF722FD1B4C002280212046FE
:104DD000FEF794F80220FDF7C7FD0122802120464E
:104DE000FEF78CF80220FDF7BFFD04F58064002279
:104DF00001212046FEF782F80220FDF7B5FD0122D1
:104E000011462046FEF77AF80220FDF7ADFD0B486B
:104E100000F0F6FA0A4800F063FB0A4800F060FB75
:104E20000120FBF795FD084B186000B910BD07483D
:104E300000F056FBFEE700BF0000024040C1010841
:104E40004CC1010874C10108D02A002090C101089A
:104E500008B51B210C4800F0D3FA0C4800F040FBC9
:104E60000B4800F03DFB0B4800F03AFB0A4800F00D
:104E700037FB0A4800F034FB094800F031FB0A20F8
:104E800000F0D0FA08BD00BFB4C101084CC1010850
:104E9000BCC10108E4C1010814C2010830C2010804
:104EA00054C201082DE9F8430646684B1B68033BD2
:104EB000012B0DD90427FFF7CBFF654800F010FB4D
:104EC00000243CB1634800F00BFB4FF0000833E0D6
:104ED0000827F0E7604A6149614800F091FA5B4BAE
:104EE000DB6813B9594B1B6923B15E4A5E495F48C1
:104EF00000F086FA013464B2E3E75D4800F080FA1E
:104F0000013464B23D46BC42F7DB0A2000F08AFA65
:104F1000002404E0574800F073FA013464B2A5425B
:104F2000F8DC554800F0DCFA4FF00009B9F1000F49
:104F300007D0B8444FFA88F83368984578D20024EF
:104F4000E0E77D1E2C4606E04C490A464C4800F03E
:104F500057FA013C64B2002C16DB08EB040303EBA8
:104F6000830206EB82021279002AEDD003EB830361
:104F70004B4406EB8301023306EB83035A688968CE
:104F8000404800F03DFAE4E73B4800F0A9FA2F4B17
:104F9000DB6893B92D4B1B697BB909F101094FFA05
:104FA00089F9C3E73549384800F02AFA22E0334945
:104FB000364800F025FA013D6DB2002D34DB08EBD8
:104FC000050404EB840306EB83031B7933B31F4B07
:104FD0001B69002BE6D004EB84034B44043306EB3F
:104FE0008303D3ED017AFDEEE77A17EE901A284895
:104FF00000F006FA154BDB68002BD8D004EB8403D5
:105000004B44023306EB8303D3ED027AFDEEE77ADD
:1050100017EE901A1F4800F0F3F9CCE717490A463B
:10502000174800F0EDF9C6E7134800F059FAB4E765
:10503000002404E00E4800F0E3F9013464B2BC42FD
:10504000F8DB0A2000F0EEF9BDE8F883D82F002045
:1050500068C20108E0C2010878C2010880C20108E4
:1050600090C20108ACC20108C0C20108D4C2010844
:10507000E4C20108F8C201080CC3010830C30108EA
:1050800034C3010810C3010850C3010864C30108F8
:1050900044C301085CC3010800B583B000238DF848
:1050A00007304FF0FF3301220DF107010348FFF7EE
:1050B00009FE9DF8070003B05DF804FB802A00207C
:1050C00008B50120FBF7C6FC104B1B68013B032B06
:1050D00006D8DFE803F00E0216120C4B04221A6009
:1050E0000A490120FBF76EFC01210846FBF79AFCF8
:1050F00008BD064B03221A60F2E7044B02221A6035
:10510000EEE7024B01221A60EAE700BFD82F002029
:1051100008B50120FBF79EFC0949CB68B3FA83F37D
:105120005B09CB600B69B3FA83F35B090B61012068
:10513000FBF748FC01210846FBF774FC08BD00BFE3
:10514000D82F002008B5722804D0732807D0632810
:105150000AD008BDFFF7B4FFFFF726FEF9E7FFF717
:10516000D7FFFFF721FEF4E7FFF71EFEF1E700008F
:1051700000B583B001A90120FBF7F4FB1949012018
:10518000FBF708FC184901240C601E234B600A231E
:105190008B600023CB600B612046FBF713FC21469C
:1051A0002046FBF73FFC114B186070B1104800F02F
:1051B00097F9FEE70F48FFF775FE0EE0FFF76CFF6B
:1051C000FFF7C0FF0120FDF7CFFB0A490120FBF7E5
:1051D00011FC064B18600028ECD0FFF7DDFD00281D
:1051E000ECD1EFE7EC2F0020D82F0020D02A0020B0
:1051F0006CC30108D42A002008B5FFF7DDFD08BD07
:1052000008B5FFF7B5FF0000014B01221A70704787
:10521000CD2A0020102800D07047024B01221A70BE
:10522000FAE700BFCC2A0020DFF834D0FBF726FBDA
:105230000C480D490D4A002302E0D458C4500433F1
:10524000C4188C42F9D30A4A0A4C002301E01360C7
:105250000432A242FBD300F077FAFBF73DF9704726
:105260000000022000000020AC000020D4C3010890
:10527000AC00002048310020FEE70000002310B5FC
:105280000446C0E90033C0E904338360818143668A
:10529000C2818361194608225C3000F001FA0D4B8F
:1052A00063620D4BA3620D4BE3620D4B23630D4B09
:1052B00024629C4206D003F16802944202D0D033AB
:1052C0009C4205D104F15800BDE8104000F060BADE
:1052D00010BD00BFF1540008135500084B550008DD
:1052E0006F550008FC2F0020024A0349034800F0D4
:1052F00069B800BF50000020656000086000002011
:1053000041680C4B994210B5044601D000F0AAFE4A
:10531000A168094B994202D0204600F0A3FEE16843
:10532000064B994204D02046BDE8104000F09ABEDA
:1053300010BD00BFFC2F002064300020CC300020C6
:1053400010B50B4B0B4C0C4A1A602046002204216E
:10535000FFF794FF04F1680001220921FFF78EFF97
:1053600004F1D0000222BDE810401221FFF786BFF1
:1053700034310020FC2F0020E9520008014800F0E1
:1053800008BA00BF3D310020014800F003BA00BF59
:105390003D31002010B50446FFF7F0FF236A1BB132
:1053A000BDE81040FFF7F0BF044B2362044B1B68BD
:1053B000002BF5D1FFF7C4FFF2E700BF015300084F
:1053C000343100202DE9F84307468846144600266C
:1053D000D4E90195B9F1010905D52468002CF7D16C
:1053E0003046BDE8F883AB89012B07D9B5F90E30FB
:1053F000013303D029463846C04706436835E9E7FC
:105400000FB407B5064904AB086853F8042B81684C
:10541000019300F0F1FA03B05DF804EB04B07047BB
:105420005C000020024B01461868826800F0A4BEB0
:105430005C000020036A70B5846805460E460BB90F
:10544000FFF7A8FF636EDB0705D4A389980502D494
:10545000A06D00F09EF9A389190702D52369002BDE
:1054600035D12146284600F0C5F880B34FF0FF350E
:10547000636EDA0705D4A3899B0502D4A06D00F002
:1054800089F9284670BD002B15DB23685A1C226061
:105490001970A36816F8011F013BA3600029F2D11F
:1054A000002B16DA22460A21284600F064F8013063
:1054B000DCD00A25DCE7A2699A4201DC0A29E4D1A2
:1054C0002246284600F057F80130E2D1CEE7013EEF
:1054D000DFE723685A1C22600A221A70E9E70000FD
:1054E000024B01461868FFF7A5BF00BF5C00002013
:1054F00010B50C46B1F90E1000F0FCF80028ABBF57
:10550000636DA3891B1823F48053ACBF6365A3812B
:1055100010BD2DE9F0411F468B89DB0505460C4681
:10552000164605D5B1F90E100223002200F0D0F87E
:10553000A389B4F90E1023F48053A38132463B466D
:105540002846BDE8F04100F0E7B810B50C46B1F9C7
:105550000E1000F0BDF8431CA38915BF606523F44D
:10556000805343F48053A38118BFA38110BDB1F9C8
:105570000E1000F09DB8F8B50E461446054618B159
:10558000036A0BB9FFF706FFA369A360A3891A0793
:1055900001D5236943B92146284600F02BF818B1FC
:1055A0004FF0FF373846F8BD23682269981A6369BF
:1055B000F6B28342374605DC2146284600F052FD0C
:1055C0000028EDD1A368013BA36023685A1C226028
:1055D0001E706269431C9A4204D0A389DB07E1D59F
:1055E0000A2EDFD12146284600F03CFD0028D9D004
:1055F000D6E7000038B5294B054618680C4618B1A7
:10560000036A0BB9FFF7C6FEB4F90C30190722D4B0
:10561000DA0607D409222A6043F04003A3814FF041
:10562000FF3033E0580712D5616B41B104F14403F8
:10563000994202D0284600F0BDF800236363A38995
:1056400023F02403A3810023636023692360A389DB
:1056500043F00803A38123694BB9A38903F42073A2
:10566000B3F5007F03D02146284600F049FDB4F988
:105670000C3013F001020AD00022A260626952428B
:10568000A261226942B913F08000C5D138BD9907E3
:1056900058BF6269A260F4E70020F7E75C000020D1
:1056A00002440346934200D1704703F8011BF9E717
:1056B00038B5064D0023044608462B60FBF7AEF8CC
:1056C000431C02D12B6803B1236038BD3831002060
:1056D00038B5074D04460846114600222A601A468E
:1056E000FBF7A6F8431C02D12B6803B1236038BD39
:1056F0003831002038B5074D0446084611460022CF
:105700002A601A46FBF76CF8431C02D12B6803B1E0
:10571000236038BD3831002038B5074D04460846AF
:10572000114600222A601A46FBF76AF8431C02D190
:105730002B6803B1236038BD38310020014B186855
:10574000704700BF5C00002070B50D4D0D4C641B10
:10575000A4100026A64209D10B4D0C4C00F0D0FE3F
:10576000641BA4100026A64205D170BD55F8043B69
:1057700098470136EEE755F8043B98470136F2E7C3
:10578000CCC30108CCC30108CCC30108D0C30108B5
:105790007047704770470A44914200F1FF3300D1CF
:1057A000704710B511F8014B03F8014F9142F9D140
:1057B00010BD000038B50546002941D051F8043C21
:1057C0000C1F002BB8BFE41800F0E0F81D4A136866
:1057D00033B9636014602846BDE8384000F0DCB897
:1057E000A34208D9206821188B4201BF19685B6861
:1057F00009182160EDE71A465B680BB1A342FAD99C
:1058000011685018A0420BD12068014450188342FF
:105810001160E0D118685B68536008441060DAE7F3
:1058200002D90C232B60D6E7206821188B4204BFD5
:1058300019685B68636004BF091821605460CAE797
:1058400038BD00BF4431002070B50F4E0C463168A2
:10585000054611B900F0E6FC30602146284600F00C
:10586000E1FC431C03D14FF0FF34204670BDC41C43
:1058700024F00304A042F8D0211A284600F0D2FCFC
:105880000130F2D1EFE700BF403100202DE9F843AD
:10589000CD1C25F0030508350C2D38BF0C25002D37
:1058A000064601DBA94204D90C2333600020BDE881
:1058B000F883DFF8D48000F069F8D8F800301C468F
:1058C00044BB29463046FFF7BFFF431C044658D16E
:1058D000D8F800402746002F43D1002C4BD0236836
:1058E0003946304604EB030900F09CFC814542D167
:1058F00021686D1A29463046FFF7A6FF01303AD0DD
:1059000023682B442360D8F800305A6862BBC8F87B
:1059100000700FE02268521B20D40B2A17D961199E
:10592000A342256018BF5960636808BFC8F800101B
:1059300062514B60304600F02FF804F10B00231D3C
:1059400020F00700C21A1CBF1B1AA350AFE7626801
:10595000A3420CBFC8F800205A60EBE723466468F6
:10596000AEE73C467F68B6E71A465B68A342FBD1C8
:1059700000235360DEE70C233360304600F00CF860
:1059800094E70560D6E700BF443100200148FFF7E7
:1059900000BF00BF3C3100200148FFF7FBBE00BF45
:1059A0003C3100209368013B002B10B4936008DA6F
:1059B0009469A34201DB0A2903D15DF8044BFFF788
:1059C000DABD1368581C1060197008465DF8044B66
:1059D0007047F8B506460F461446D518AC4201D1BB
:1059E000002007E014F8011B3A463046FFF7DAFFC3
:1059F000431CF3D1F8BD00002DE9F04F0D469DB0DA
:105A000014469846064618B1036A0BB9FFF7C2FC64
:105A10006B6ED90705D4AB899A0502D4A86DFFF740
:105A2000B8FEAB891B0701D52B699BB929463046C7
:105A3000FFF7E0FD70B16B6EDC0704D54FF0FF306F
:105A40001DB0BDE8F08FAB899805F7D4A86DFFF7BE
:105A5000A1FEF3E70023099320238DF82930CDF828
:105A60000C803023DFF8AC818DF82A304FF001092B
:105A700023469A4613F8012B0AB1252AF9D1BAEB2D
:105A8000040B0BD05B46224629463046FFF7A1FFA8
:105A9000013000F0A780099A5A4409929AF8003020
:105AA000002B00F09F8000234FF0FF32CDE905234B
:105AB0000AF1010A049307938DF853301A93544660
:105AC000052214F8011B5348FAF76AFB049AD8B967
:105AD000D10644BF20238DF85330130744BF2B2336
